{
  "contractName": "Auction",
  "abi": [
    {
      "inputs": [
        {
          "internalType": "uint256",
          "name": "_startPrice",
          "type": "uint256"
        },
        {
          "internalType": "uint256",
          "name": "_reservedPrice",
          "type": "uint256"
        },
        {
          "internalType": "uint256",
          "name": "_tokenSupply",
          "type": "uint256"
        },
        {
          "internalType": "contract CypherpunkCoin",
          "name": "_token",
          "type": "address"
        }
      ],
      "stateMutability": "nonpayable",
      "type": "constructor"
    },
    {
      "anonymous": false,
      "inputs": [
        {
          "indexed": true,
          "internalType": "bytes32",
          "name": "role",
          "type": "bytes32"
        },
        {
          "indexed": true,
          "internalType": "bytes32",
          "name": "previousAdminRole",
          "type": "bytes32"
        },
        {
          "indexed": true,
          "internalType": "bytes32",
          "name": "newAdminRole",
          "type": "bytes32"
        }
      ],
      "name": "RoleAdminChanged",
      "type": "event"
    },
    {
      "anonymous": false,
      "inputs": [
        {
          "indexed": true,
          "internalType": "bytes32",
          "name": "role",
          "type": "bytes32"
        },
        {
          "indexed": true,
          "internalType": "address",
          "name": "account",
          "type": "address"
        },
        {
          "indexed": true,
          "internalType": "address",
          "name": "sender",
          "type": "address"
        }
      ],
      "name": "RoleGranted",
      "type": "event"
    },
    {
      "anonymous": false,
      "inputs": [
        {
          "indexed": true,
          "internalType": "bytes32",
          "name": "role",
          "type": "bytes32"
        },
        {
          "indexed": true,
          "internalType": "address",
          "name": "account",
          "type": "address"
        },
        {
          "indexed": true,
          "internalType": "address",
          "name": "sender",
          "type": "address"
        }
      ],
      "name": "RoleRevoked",
      "type": "event"
    },
    {
      "anonymous": false,
      "inputs": [
        {
          "indexed": false,
          "internalType": "enum Auction.State",
          "name": "s",
          "type": "uint8"
        }
      ],
      "name": "changeState",
      "type": "event"
    },
    {
      "anonymous": false,
      "inputs": [],
      "name": "closeAndSendBackMoney",
      "type": "event"
    },
    {
      "anonymous": false,
      "inputs": [
        {
          "indexed": false,
          "internalType": "uint256",
          "name": "tEther",
          "type": "uint256"
        }
      ],
      "name": "newCommit",
      "type": "event"
    },
    {
      "inputs": [],
      "name": "DEFAULT_ADMIN_ROLE",
      "outputs": [
        {
          "internalType": "bytes32",
          "name": "",
          "type": "bytes32"
        }
      ],
      "stateMutability": "view",
      "type": "function"
    },
    {
      "inputs": [],
      "name": "clearingPrice",
      "outputs": [
        {
          "internalType": "uint256",
          "name": "",
          "type": "uint256"
        }
      ],
      "stateMutability": "view",
      "type": "function"
    },
    {
      "inputs": [],
      "name": "curPrice",
      "outputs": [
        {
          "internalType": "uint256",
          "name": "",
          "type": "uint256"
        }
      ],
      "stateMutability": "view",
      "type": "function"
    },
    {
      "inputs": [],
      "name": "currState",
      "outputs": [
        {
          "internalType": "enum Auction.State",
          "name": "",
          "type": "uint8"
        }
      ],
      "stateMutability": "view",
      "type": "function"
    },
    {
      "inputs": [
        {
          "internalType": "bytes32",
          "name": "role",
          "type": "bytes32"
        }
      ],
      "name": "getRoleAdmin",
      "outputs": [
        {
          "internalType": "bytes32",
          "name": "",
          "type": "bytes32"
        }
      ],
      "stateMutability": "view",
      "type": "function"
    },
    {
      "inputs": [
        {
          "internalType": "bytes32",
          "name": "role",
          "type": "bytes32"
        },
        {
          "internalType": "uint256",
          "name": "index",
          "type": "uint256"
        }
      ],
      "name": "getRoleMember",
      "outputs": [
        {
          "internalType": "address",
          "name": "",
          "type": "address"
        }
      ],
      "stateMutability": "view",
      "type": "function"
    },
    {
      "inputs": [
        {
          "internalType": "bytes32",
          "name": "role",
          "type": "bytes32"
        }
      ],
      "name": "getRoleMemberCount",
      "outputs": [
        {
          "internalType": "uint256",
          "name": "",
          "type": "uint256"
        }
      ],
      "stateMutability": "view",
      "type": "function"
    },
    {
      "inputs": [
        {
          "internalType": "bytes32",
          "name": "role",
          "type": "bytes32"
        },
        {
          "internalType": "address",
          "name": "account",
          "type": "address"
        }
      ],
      "name": "grantRole",
      "outputs": [],
      "stateMutability": "nonpayable",
      "type": "function"
    },
    {
      "inputs": [
        {
          "internalType": "bytes32",
          "name": "role",
          "type": "bytes32"
        },
        {
          "internalType": "address",
          "name": "account",
          "type": "address"
        }
      ],
      "name": "hasRole",
      "outputs": [
        {
          "internalType": "bool",
          "name": "",
          "type": "bool"
        }
      ],
      "stateMutability": "view",
      "type": "function"
    },
    {
      "inputs": [
        {
          "internalType": "bytes32",
          "name": "role",
          "type": "bytes32"
        },
        {
          "internalType": "address",
          "name": "account",
          "type": "address"
        }
      ],
      "name": "renounceRole",
      "outputs": [],
      "stateMutability": "nonpayable",
      "type": "function"
    },
    {
      "inputs": [],
      "name": "reservedPrice",
      "outputs": [
        {
          "internalType": "uint256",
          "name": "",
          "type": "uint256"
        }
      ],
      "stateMutability": "view",
      "type": "function"
    },
    {
      "inputs": [
        {
          "internalType": "bytes32",
          "name": "role",
          "type": "bytes32"
        },
        {
          "internalType": "address",
          "name": "account",
          "type": "address"
        }
      ],
      "name": "revokeRole",
      "outputs": [],
      "stateMutability": "nonpayable",
      "type": "function"
    },
    {
      "inputs": [],
      "name": "startPrice",
      "outputs": [
        {
          "internalType": "uint256",
          "name": "",
          "type": "uint256"
        }
      ],
      "stateMutability": "view",
      "type": "function"
    },
    {
      "inputs": [],
      "name": "startTime",
      "outputs": [
        {
          "internalType": "uint256",
          "name": "",
          "type": "uint256"
        }
      ],
      "stateMutability": "view",
      "type": "function"
    },
    {
      "inputs": [],
      "name": "timeLimit",
      "outputs": [
        {
          "internalType": "uint256",
          "name": "",
          "type": "uint256"
        }
      ],
      "stateMutability": "view",
      "type": "function"
    },
    {
      "inputs": [],
      "name": "tokenSupply",
      "outputs": [
        {
          "internalType": "uint256",
          "name": "",
          "type": "uint256"
        }
      ],
      "stateMutability": "view",
      "type": "function"
    },
    {
      "inputs": [],
      "name": "totalEther",
      "outputs": [
        {
          "internalType": "uint256",
          "name": "",
          "type": "uint256"
        }
      ],
      "stateMutability": "view",
      "type": "function"
    },
    {
      "inputs": [],
      "name": "commit",
      "outputs": [],
      "stateMutability": "payable",
      "type": "function"
    },
    {
      "inputs": [],
      "name": "releaseTokens",
      "outputs": [],
      "stateMutability": "nonpayable",
      "type": "function"
    },
    {
      "inputs": [
        {
          "internalType": "address",
          "name": "bidder",
          "type": "address"
        }
      ],
      "name": "getCommitments",
      "outputs": [
        {
          "internalType": "uint256",
          "name": "",
          "type": "uint256"
        }
      ],
      "stateMutability": "view",
      "type": "function"
    },
    {
      "inputs": [],
      "name": "openAuction",
      "outputs": [],
      "stateMutability": "nonpayable",
      "type": "function"
    }
  ],
  "bytecode": "0x608060405234801561001057600080fd5b506040516121513803806121518339818101604052608081101561003357600080fd5b810190808051906020019092919080519060200190929190805190602001909291908051906020019092919050505083600481905550826005819055508160078190555080600a60006101000a81548173ffffffffffffffffffffffffffffffffffffffff021916908373ffffffffffffffffffffffffffffffffffffffff1602179055506000600a60146101000a81548160ff021916908360038111156100d757fe5b021790555050505050612062806100ef6000396000f3fe60806040526004361061012a5760003560e01c80639010d07c116100ab578063ae6e22f11161006f578063ae6e22f1146104b3578063afe01043146104de578063c08d1fe514610514578063ca15c8731461053f578063d547741f1461058e578063f1a9af89146105e95761012a565b80639010d07c1461036657806391d14854146103d557806393a9168214610446578063a217fddf14610471578063a96f86681461049c5761012a565b806332a0f2d7116100f257806332a0f2d71461028057806336568abe146102ab5780633c7a3aff146103065780637824407f1461031057806378e979251461033b5761012a565b806304cb72f91461012f5780630522bf03146101465780631b55d216146101ab578063248a9ca3146101d65780632f2ff15d14610225575b600080fd5b34801561013b57600080fd5b50610144610614565b005b34801561015257600080fd5b506101956004803603602081101561016957600080fd5b81019080803573ffffffffffffffffffffffffffffffffffffffff169060200190929190505050610738565b6040518082815260200191505060405180910390f35b3480156101b757600080fd5b506101c0610781565b6040518082815260200191505060405180910390f35b3480156101e257600080fd5b5061020f600480360360208110156101f957600080fd5b8101908080359060200190929190505050610787565b6040518082815260200191505060405180910390f35b34801561023157600080fd5b5061027e6004803603604081101561024857600080fd5b8101908080359060200190929190803573ffffffffffffffffffffffffffffffffffffffff1690602001909291905050506107a6565b005b34801561028c57600080fd5b5061029561082f565b6040518082815260200191505060405180910390f35b3480156102b757600080fd5b50610304600480360360408110156102ce57600080fd5b8101908080359060200190929190803573ffffffffffffffffffffffffffffffffffffffff169060200190929190505050610835565b005b61030e6108ce565b005b34801561031c57600080fd5b50610325610f15565b6040518082815260200191505060405180910390f35b34801561034757600080fd5b50610350610f1b565b6040518082815260200191505060405180910390f35b34801561037257600080fd5b506103a96004803603604081101561038957600080fd5b810190808035906020019092919080359060200190929190505050610f21565b604051808273ffffffffffffffffffffffffffffffffffffffff16815260200191505060405180910390f35b3480156103e157600080fd5b5061042e600480360360408110156103f857600080fd5b8101908080359060200190929190803573ffffffffffffffffffffffffffffffffffffffff169060200190929190505050610f52565b60405180821515815260200191505060405180910390f35b34801561045257600080fd5b5061045b610f83565b6040518082815260200191505060405180910390f35b34801561047d57600080fd5b50610486610f89565b6040518082815260200191505060405180910390f35b3480156104a857600080fd5b506104b1610f90565b005b3480156104bf57600080fd5b506104c86116e1565b6040518082815260200191505060405180910390f35b3480156104ea57600080fd5b506104f36116e7565b6040518082600381111561050357fe5b815260200191505060405180910390f35b34801561052057600080fd5b506105296116fa565b6040518082815260200191505060405180910390f35b34801561054b57600080fd5b506105786004803603602081101561056257600080fd5b8101908080359060200190929190505050611700565b6040518082815260200191505060405180910390f35b34801561059a57600080fd5b506105e7600480360360408110156105b157600080fd5b8101908080359060200190929190803573ffffffffffffffffffffffffffffffffffffffff169060200190929190505050611726565b005b3480156105f557600080fd5b506105fe6117af565b6040518082815260200191505060405180910390f35b600a60009054906101000a900473ffffffffffffffffffffffffffffffffffffffff1673ffffffffffffffffffffffffffffffffffffffff163373ffffffffffffffffffffffffffffffffffffffff16146106ba576040517f08c379a000000000000000000000000000000000000000000000000000000000815260040180806020018281038252602c815260200180611fa4602c913960400191505060405180910390fd5b426008819055506001600a60146101000a81548160ff021916908360038111156106e057fe5b02179055507f268f1153844c3ed9f77b7cabc4fedb9d9994a5361b583f824ffbe523f3739e65600a60149054906101000a900460ff166040518082600381111561072657fe5b815260200191505060405180910390a1565b6000600260008373ffffffffffffffffffffffffffffffffffffffff1673ffffffffffffffffffffffffffffffffffffffff168152602001908152602001600020549050919050565b60055481565b6000806000838152602001908152602001600020600201549050919050565b6107cc600080848152602001908152602001600020600201546107c76117b5565b610f52565b610821576040517f08c379a000000000000000000000000000000000000000000000000000000000815260040180806020018281038252602f815260200180611efc602f913960400191505060405180910390fd5b61082b82826117bd565b5050565b60065481565b61083d6117b5565b73ffffffffffffffffffffffffffffffffffffffff168173ffffffffffffffffffffffffffffffffffffffff16146108c0576040517f08c379a000000000000000000000000000000000000000000000000000000000815260040180806020018281038252602f815260200180611ffe602f913960400191505060405180910390fd5b6108ca8282611850565b5050565b600160038111156108db57fe5b600a60149054906101000a900460ff1660038111156108f657fe5b14610973573373ffffffffffffffffffffffffffffffffffffffff166108fc349081150290604051600060405180830381858888f19350505050158015610941573d6000803e3d6000fd5b507f1ce64f9268be8b3b69a87fd45b87d775ec9882a8fb13ba0ea9c31995e95be45d60405160405180910390a1610f13565b61025861098b600854426118e390919063ffffffff16565b1115610aea576109b06509184e72a0006005540260075461192d90919063ffffffff16565b60035411156109f3576109e86509184e72a0006109da6007546003546119b390919063ffffffff16565b6119b390919063ffffffff16565b6006819055506109fd565b6005546006819055505b6002600a60146101000a81548160ff02191690836003811115610a1c57fe5b02179055503373ffffffffffffffffffffffffffffffffffffffff166108fc349081150290604051600060405180830381858888f19350505050158015610a67573d6000803e3d6000fd5b507f268f1153844c3ed9f77b7cabc4fedb9d9994a5361b583f824ffbe523f3739e65600a60149054906101000a900460ff1660405180826003811115610aa957fe5b815260200191505060405180910390a17f1ce64f9268be8b3b69a87fd45b87d775ec9882a8fb13ba0ea9c31995e95be45d60405160405180910390a1610f13565b610b8b600554610b7d6103e8610b6f610b106005546004546118e390919063ffffffff16565b610b61610258610b536103e8610b4542610b376102586008546119fd90919063ffffffff16565b6118e390919063ffffffff16565b61192d90919063ffffffff16565b6119b390919063ffffffff16565b61192d90919063ffffffff16565b6119b390919063ffffffff16565b6119fd90919063ffffffff16565b600981905550610bb06509184e72a0006009540260075461192d90919063ffffffff16565b60035410610cda57610be76509184e72a000610bd96007546003546119b390919063ffffffff16565b6119b390919063ffffffff16565b6006819055506002600a60146101000a81548160ff02191690836003811115610c0c57fe5b02179055503373ffffffffffffffffffffffffffffffffffffffff166108fc349081150290604051600060405180830381858888f19350505050158015610c57573d6000803e3d6000fd5b507f268f1153844c3ed9f77b7cabc4fedb9d9994a5361b583f824ffbe523f3739e65600a60149054906101000a900460ff1660405180826003811115610c9957fe5b815260200191505060405180910390a17f1ce64f9268be8b3b69a87fd45b87d775ec9882a8fb13ba0ea9c31995e95be45d60405160405180910390a1610f13565b610cef346003546119fd90919063ffffffff16565b600381905550600160405180604001604052803373ffffffffffffffffffffffffffffffffffffffff16815260200134815250908060018154018082558091505060019003906000526020600020906002020160009091909190915060008201518160000160006101000a81548173ffffffffffffffffffffffffffffffffffffffff021916908373ffffffffffffffffffffffffffffffffffffffff160217905550602082015181600101555050610df034600260003373ffffffffffffffffffffffffffffffffffffffff1673ffffffffffffffffffffffffffffffffffffffff168152602001908152602001600020546119fd90919063ffffffff16565b600260003373ffffffffffffffffffffffffffffffffffffffff1673ffffffffffffffffffffffffffffffffffffffff168152602001908152602001600020819055507f9e2f6b1e3f3c354bf8e290190cec21c802d02da827cc107d37bc9768ddb036e66003546040518082815260200191505060405180910390a1610e8b6509184e72a0006009540260075461192d90919063ffffffff16565b60035410610f12576009546006819055506002600a60146101000a81548160ff02191690836003811115610ebb57fe5b02179055507f268f1153844c3ed9f77b7cabc4fedb9d9994a5361b583f824ffbe523f3739e65600a60149054906101000a900460ff1660405180826003811115610f0157fe5b815260200191505060405180910390a15b5b565b60075481565b60085481565b6000610f4a82600080868152602001908152602001600020600001611a8590919063ffffffff16565b905092915050565b6000610f7b82600080868152602001908152602001600020600001611a9f90919063ffffffff16565b905092915050565b60095481565b6000801b81565b600380811115610f9c57fe5b600a60149054906101000a900460ff166003811115610fb757fe5b14158015610feb575060006003811115610fcd57fe5b600a60149054906101000a900460ff166003811115610fe857fe5b14155b611040576040517f08c379a000000000000000000000000000000000000000000000000000000000815260040180806020018281038252602e815260200180611fd0602e913960400191505060405180910390fd5b6001600381111561104d57fe5b600a60149054906101000a900460ff16600381111561106857fe5b14156112cd57610258611086600854426118e390919063ffffffff16565b10156111ea5761112d60055461111f6103e86111116110b26005546004546118e390919063ffffffff16565b6111036102586110f56103e86110e7426110d96102586008546119fd90919063ffffffff16565b6118e390919063ffffffff16565b61192d90919063ffffffff16565b6119b390919063ffffffff16565b61192d90919063ffffffff16565b6119b390919063ffffffff16565b6119fd90919063ffffffff16565b6009819055506111526509184e72a0006009540260075461192d90919063ffffffff16565b60035410611194576111896509184e72a00061117b6007546003546119b390919063ffffffff16565b6119b390919063ffffffff16565b6006819055506111e5565b6040517f08c379a0000000000000000000000000000000000000000000000000000000008152600401808060200182810382526028815260200180611f5b6028913960400191505060405180910390fd5b611257565b6112096509184e72a0006005540260075461192d90919063ffffffff16565b600354111561124c576112416509184e72a0006112336007546003546119b390919063ffffffff16565b6119b390919063ffffffff16565b600681905550611256565b6005546006819055505b5b6002600a60146101000a81548160ff0219169083600381111561127657fe5b02179055507f268f1153844c3ed9f77b7cabc4fedb9d9994a5361b583f824ffbe523f3739e65600a60149054906101000a900460ff16604051808260038111156112bc57fe5b815260200191505060405180910390a15b600060035490506000600754905060005b6001805490508110156115615760006113286509184e72a000600654026001848154811061130857fe5b9060005260206000209060020201600101546119b390919063ffffffff16565b9050828111156114305760006001838154811061134157fe5b906000526020600020906002020160000160009054906101000a900473ffffffffffffffffffffffffffffffffffffffff16905083915060006113c761139a6509184e72a000600654028561192d90919063ffffffff16565b600186815481106113a757fe5b9060005260206000209060020201600101546118e390919063ffffffff16565b90508173ffffffffffffffffffffffffffffffffffffffff166108fc829081150290604051600060405180830381858888f1935050505015801561140f573d6000803e3d6000fd5b5061142381876118e390919063ffffffff16565b9550600094505050611446565b61144381846118e390919063ffffffff16565b92505b600a60009054906101000a900473ffffffffffffffffffffffffffffffffffffffff1673ffffffffffffffffffffffffffffffffffffffff1663a9059cbb6001848154811061149157fe5b906000526020600020906002020160000160009054906101000a900473ffffffffffffffffffffffffffffffffffffffff16836040518363ffffffff1660e01b8152600401808373ffffffffffffffffffffffffffffffffffffffff16815260200182815260200192505050602060405180830381600087803b15801561151757600080fd5b505af115801561152b573d6000803e3d6000fd5b505050506040513d602081101561154157600080fd5b8101908080519060200190929190505050505080806001019150506112de565b506000600a60009054906101000a900473ffffffffffffffffffffffffffffffffffffffff1690508073ffffffffffffffffffffffffffffffffffffffff166108fc849081150290604051600060405180830381858888f193505050501580156115cf573d6000803e3d6000fd5b50600082111561166757600a60009054906101000a900473ffffffffffffffffffffffffffffffffffffffff1673ffffffffffffffffffffffffffffffffffffffff166342966c68836040518263ffffffff1660e01b815260040180828152602001915050600060405180830381600087803b15801561164e57600080fd5b505af1158015611662573d6000803e3d6000fd5b505050505b6003600a60146101000a81548160ff0219169083600381111561168657fe5b02179055507f268f1153844c3ed9f77b7cabc4fedb9d9994a5361b583f824ffbe523f3739e65600a60149054906101000a900460ff16604051808260038111156116cc57fe5b815260200191505060405180910390a1505050565b60035481565b600a60149054906101000a900460ff1681565b61025881565b600061171f600080848152602001908152602001600020600001611acf565b9050919050565b61174c600080848152602001908152602001600020600201546117476117b5565b610f52565b6117a1576040517f08c379a0000000000000000000000000000000000000000000000000000000008152600401808060200182810382526030815260200180611f2b6030913960400191505060405180910390fd5b6117ab8282611850565b5050565b60045481565b600033905090565b6117e481600080858152602001908152602001600020600001611ae490919063ffffffff16565b1561184c576117f16117b5565b73ffffffffffffffffffffffffffffffffffffffff168173ffffffffffffffffffffffffffffffffffffffff16837f2f8788117e7eff1d82e926ec794901d17c78024a50270940304540a733656f0d60405160405180910390a45b5050565b61187781600080858152602001908152602001600020600001611b1490919063ffffffff16565b156118df576118846117b5565b73ffffffffffffffffffffffffffffffffffffffff168173ffffffffffffffffffffffffffffffffffffffff16837ff6391f5c32d9c69d2a47ea670b442974b53935d1edc7fd64eb21e047a839171b60405160405180910390a45b5050565b600061192583836040518060400160405280601e81526020017f536166654d6174683a207375627472616374696f6e206f766572666c6f770000815250611b44565b905092915050565b60008083141561194057600090506119ad565b600082840290508284828161195157fe5b04146119a8576040517f08c379a0000000000000000000000000000000000000000000000000000000008152600401808060200182810382526021815260200180611f836021913960400191505060405180910390fd5b809150505b92915050565b60006119f583836040518060400160405280601a81526020017f536166654d6174683a206469766973696f6e206279207a65726f000000000000815250611c04565b905092915050565b600080828401905083811015611a7b576040517f08c379a000000000000000000000000000000000000000000000000000000000815260040180806020018281038252601b8152602001807f536166654d6174683a206164646974696f6e206f766572666c6f77000000000081525060200191505060405180910390fd5b8091505092915050565b6000611a948360000183611cca565b60001c905092915050565b6000611ac7836000018373ffffffffffffffffffffffffffffffffffffffff1660001b611d4d565b905092915050565b6000611add82600001611d70565b9050919050565b6000611b0c836000018373ffffffffffffffffffffffffffffffffffffffff1660001b611d81565b905092915050565b6000611b3c836000018373ffffffffffffffffffffffffffffffffffffffff1660001b611df1565b905092915050565b6000838311158290611bf1576040517f08c379a00000000000000000000000000000000000000000000000000000000081526004018080602001828103825283818151815260200191508051906020019080838360005b83811015611bb6578082015181840152602081019050611b9b565b50505050905090810190601f168015611be35780820380516001836020036101000a031916815260200191505b509250505060405180910390fd5b5060008385039050809150509392505050565b60008083118290611cb0576040517f08c379a00000000000000000000000000000000000000000000000000000000081526004018080602001828103825283818151815260200191508051906020019080838360005b83811015611c75578082015181840152602081019050611c5a565b50505050905090810190601f168015611ca25780820380516001836020036101000a031916815260200191505b509250505060405180910390fd5b506000838581611cbc57fe5b049050809150509392505050565b600081836000018054905011611d2b576040517f08c379a0000000000000000000000000000000000000000000000000000000008152600401808060200182810382526022815260200180611eda6022913960400191505060405180910390fd5b826000018281548110611d3a57fe5b9060005260206000200154905092915050565b600080836001016000848152602001908152602001600020541415905092915050565b600081600001805490509050919050565b6000611d8d8383611d4d565b611de6578260000182908060018154018082558091505060019003906000526020600020016000909190919091505582600001805490508360010160008481526020019081526020016000208190555060019050611deb565b600090505b92915050565b60008083600101600084815260200190815260200160002054905060008114611ecd5760006001820390506000600186600001805490500390506000866000018281548110611e3c57fe5b9060005260206000200154905080876000018481548110611e5957fe5b9060005260206000200181905550600183018760010160008381526020019081526020016000208190555086600001805480611e9157fe5b60019003818190600052602060002001600090559055866001016000878152602001908152602001600020600090556001945050505050611ed3565b60009150505b9291505056fe456e756d657261626c655365743a20696e646578206f7574206f6620626f756e6473416363657373436f6e74726f6c3a2073656e646572206d75737420626520616e2061646d696e20746f206772616e74416363657373436f6e74726f6c3a2073656e646572206d75737420626520616e2061646d696e20746f207265766f6b655468652061756374696f6e206973207374696c6c206f70656e65642c20706c656173652077616974536166654d6174683a206d756c7469706c69636174696f6e206f766572666c6f774f6e6c792074686520746f6b656e20636f6e74726163742063616e206f70656e207468652061756374696f6e5468652061756374696f6e20616c72656164792072656c6561736573206f72206e6f74206f70656e656420796574416363657373436f6e74726f6c3a2063616e206f6e6c792072656e6f756e636520726f6c657320666f722073656c66a26469706673582212203de54cea7439ea5661a175ea04649e56bc90eb7fd428f1093963b2fc39d7ee3764736f6c634300060c0033",
  "immutableReferences": {},
  "source": "pragma solidity ^0.6.0;\r\n\r\nimport \"@openzeppelin/contracts/math/SafeMath.sol\";\r\nimport \"./CypherpunkCoin.sol\";\r\nimport \"@openzeppelin/contracts/access/AccessControl.sol\";\r\n\r\ncontract Auction is AccessControl {\r\n    using SafeMath for uint256;\r\n    // if one address buy many times??\r\n    // mapping (address => uint) private commitments;\r\n    struct commitment {\r\n        address bidder;\r\n        uint256 amount;\r\n    }\r\n\r\n    commitment[] private commitments;\r\n    mapping(address => uint256) bidderToAmount;\r\n\r\n    enum State {CREATED, OPENED, CLOSED, RELEASED}\r\n    // total Ether stored\r\n    uint256 public totalEther;\r\n    uint256 public startPrice;\r\n    uint256 public reservedPrice;\r\n    uint256 public clearingPrice;\r\n    // total Supply of tokens\r\n    uint256 public tokenSupply;\r\n    uint256 public startTime;\r\n    uint256 public curPrice;\r\n    // uint256 demand;\r\n\r\n    CypherpunkCoin private token;\r\n    State public currState;\r\n    uint256 public constant timeLimit = 10 minutes;\r\n\r\n    constructor(\r\n        uint256 _startPrice,\r\n        uint256 _reservedPrice,\r\n        uint256 _tokenSupply,\r\n        CypherpunkCoin _token\r\n    ) public {\r\n        startPrice = _startPrice;\r\n        reservedPrice = _reservedPrice;\r\n        tokenSupply = _tokenSupply;\r\n        token = _token;\r\n        currState = State.CREATED;\r\n    }\r\n\r\n    function commit() external payable {\r\n        // Auction already closes or does not open yet, send back the money to user\r\n        if (currState != State.OPENED) {\r\n            msg.sender.transfer(msg.value);\r\n            emit closeAndSendBackMoney();\r\n            return;\r\n        }\r\n        // if the time is over but auction does not close, close it at the exact clearing price\r\n        if (now.sub(startTime) > timeLimit) {\r\n            // in case the number of ethers staked already makes the demand exceed supply\r\n            // when price decreases\r\n            if (totalEther > tokenSupply.mul(reservedPrice * 10000000000000)) {\r\n                clearingPrice = totalEther.div(tokenSupply).div(10000000000000);\r\n            } else clearingPrice = reservedPrice;\r\n            currState = State.CLOSED;\r\n            // send back money to bidder\r\n            msg.sender.transfer(msg.value);\r\n            emit changeState(currState);\r\n            emit closeAndSendBackMoney();\r\n            return;\r\n        }\r\n        // calculate the current price at this time\r\n        curPrice = (startTime.add(timeLimit).sub(now))\r\n            .mul(1000)\r\n            .div(timeLimit)\r\n            .mul(startPrice.sub(reservedPrice))\r\n            .div(1000)\r\n            .add(reservedPrice);\r\n        // in case the existing number of ethers comitted already makes the demand exceed supply\r\n        // when price decreases\r\n        if (totalEther >= tokenSupply.mul(curPrice * 10000000000000)) {\r\n            clearingPrice = totalEther.div(tokenSupply).div(10000000000000);\r\n            currState = State.CLOSED;\r\n            msg.sender.transfer(msg.value);\r\n            emit changeState(currState);\r\n            emit closeAndSendBackMoney();\r\n            return;\r\n        }\r\n\r\n        totalEther = totalEther.add(msg.value);\r\n        commitments.push(commitment(msg.sender, msg.value));\r\n        bidderToAmount[msg.sender] = bidderToAmount[msg.sender].add(msg.value);\r\n        emit newCommit(totalEther);\r\n        // to check whether the demand is larger than supply\r\n        if (totalEther >= tokenSupply.mul(curPrice * 10000000000000)) {\r\n            clearingPrice = curPrice;\r\n            currState = State.CLOSED;\r\n            emit changeState(currState);\r\n        }\r\n    }\r\n\r\n    modifier checkRelease() {\r\n        require(\r\n            currState != State.RELEASED && currState != State.CREATED,\r\n            \"The auction already releases or not opened yet\"\r\n        );\r\n\r\n        if (currState == State.OPENED) {\r\n            // determine the exact clearing price\r\n            if (now.sub(startTime) < timeLimit) {\r\n                curPrice = (startTime.add(timeLimit).sub(now))\r\n                    .mul(1000)\r\n                    .div(timeLimit)\r\n                    .mul(startPrice.sub(reservedPrice))\r\n                    .div(1000)\r\n                    .add(reservedPrice);\r\n                // in case the existing number of ethers comitted already makes the demand exceed supply\r\n                // when price decreases\r\n                if (totalEther >= tokenSupply.mul(curPrice * 10000000000000))\r\n                    clearingPrice = totalEther.div(tokenSupply).div(\r\n                        10000000000000\r\n                    );\r\n                else revert(\"The auction is still opened, please wait\");\r\n            } else {\r\n                if (\r\n                    totalEther > tokenSupply.mul(reservedPrice * 10000000000000)\r\n                )\r\n                    clearingPrice = totalEther.div(tokenSupply).div(\r\n                        10000000000000\r\n                    );\r\n                else clearingPrice = reservedPrice;\r\n            }\r\n            currState = State.CLOSED;\r\n            emit changeState(currState);\r\n        }\r\n        _;\r\n    }\r\n\r\n    // Anyone can trigger the release as long as it satisfies the requirements\r\n    function releaseTokens() external checkRelease() {\r\n        uint256 ethSendToTokenContract = totalEther;\r\n        uint256 remainingToken = tokenSupply;\r\n        for (uint256 i = 0; i < commitments.length; i++) {\r\n            // if (remainingToken == 0) break;\r\n            // token to transfer to the bidder\r\n            uint256 tokenTransfer = commitments[i].amount.div(\r\n                clearingPrice * 10000000000000\r\n            );\r\n            if (tokenTransfer > remainingToken) {\r\n                //send back redundant ether\r\n                address payable payableLastBidder = address(\r\n                    uint160(commitments[i].bidder)\r\n                );\r\n                tokenTransfer = remainingToken;\r\n                uint256 ethSendToPayableLastBidder = commitments[i].amount.sub(\r\n                    tokenTransfer.mul(clearingPrice * 10000000000000)\r\n                );\r\n                payableLastBidder.transfer(ethSendToPayableLastBidder);\r\n                ethSendToTokenContract = ethSendToTokenContract.sub(\r\n                    ethSendToPayableLastBidder\r\n                );\r\n                remainingToken = 0;\r\n            } else remainingToken = remainingToken.sub(tokenTransfer);\r\n            token.transfer(commitments[i].bidder, tokenTransfer);\r\n        }\r\n        address payable payableTokenContract = address(uint160(address(token)));\r\n        payableTokenContract.transfer(ethSendToTokenContract);\r\n        if (remainingToken > 0) token.burn(remainingToken);\r\n        currState = State.RELEASED;\r\n        emit changeState(currState);\r\n    }\r\n\r\n    function getCommitments(address bidder) public view returns (uint256) {\r\n        return bidderToAmount[bidder];\r\n    }\r\n\r\n    function openAuction() external {\r\n        require(\r\n            msg.sender == address(token),\r\n            \"Only the token contract can open the auction\"\r\n        );\r\n        startTime = now;\r\n        currState = State.OPENED;\r\n        emit changeState(currState);\r\n    }\r\n\r\n    event changeState(State s);\r\n    event closeAndSendBackMoney();\r\n    event newCommit(uint256 tEther);\r\n}\r\n",
  "sourcePath": "C:\\Users\\tanyi\\OneDrive\\Documents\\GitHub\\CZ4153-Dutch-Contract\\contracts\\Auction.sol",
  "compiler": {
    "name": "solc",
    "version": "0.6.12+commit.27d51765.Emscripten.clang"
  },
  "schemaVersion": "3.3.1",
  "updatedAt": "2020-11-01T14:59:11.969Z",
  "devdoc": {
    "kind": "dev",
    "methods": {
      "getRoleAdmin(bytes32)": {
        "details": "Returns the admin role that controls `role`. See {grantRole} and {revokeRole}. To change a role's admin, use {_setRoleAdmin}."
      },
      "getRoleMember(bytes32,uint256)": {
        "details": "Returns one of the accounts that have `role`. `index` must be a value between 0 and {getRoleMemberCount}, non-inclusive. Role bearers are not sorted in any particular way, and their ordering may change at any point. WARNING: When using {getRoleMember} and {getRoleMemberCount}, make sure you perform all queries on the same block. See the following https://forum.openzeppelin.com/t/iterating-over-elements-on-enumerableset-in-openzeppelin-contracts/2296[forum post] for more information."
      },
      "getRoleMemberCount(bytes32)": {
        "details": "Returns the number of accounts that have `role`. Can be used together with {getRoleMember} to enumerate all bearers of a role."
      },
      "grantRole(bytes32,address)": {
        "details": "Grants `role` to `account`. If `account` had not been already granted `role`, emits a {RoleGranted} event. Requirements: - the caller must have ``role``'s admin role."
      },
      "hasRole(bytes32,address)": {
        "details": "Returns `true` if `account` has been granted `role`."
      },
      "renounceRole(bytes32,address)": {
        "details": "Revokes `role` from the calling account. Roles are often managed via {grantRole} and {revokeRole}: this function's purpose is to provide a mechanism for accounts to lose their privileges if they are compromised (such as when a trusted device is misplaced). If the calling account had been granted `role`, emits a {RoleRevoked} event. Requirements: - the caller must be `account`."
      },
      "revokeRole(bytes32,address)": {
        "details": "Revokes `role` from `account`. If `account` had been granted `role`, emits a {RoleRevoked} event. Requirements: - the caller must have ``role``'s admin role."
      }
    },
    "version": 1
  },
  "userdoc": {
    "kind": "user",
    "methods": {},
    "version": 1
  }
}