{
  "contractName": "Auction",
  "abi": [
    {
      "inputs": [
        {
          "internalType": "uint256",
          "name": "_startPrice",
          "type": "uint256"
        },
        {
          "internalType": "uint256",
          "name": "_reservedPrice",
          "type": "uint256"
        },
        {
          "internalType": "uint256",
          "name": "_tokenSupply",
          "type": "uint256"
        },
        {
          "internalType": "uint256",
          "name": "_timeLimit",
          "type": "uint256"
        },
        {
          "internalType": "contract CypherpunkCoin",
          "name": "_token",
          "type": "address"
        }
      ],
      "stateMutability": "nonpayable",
      "type": "constructor"
    },
    {
      "anonymous": false,
      "inputs": [
        {
          "indexed": false,
          "internalType": "enum Auction.State",
          "name": "s",
          "type": "uint8"
        }
      ],
      "name": "changeState",
      "type": "event"
    },
    {
      "anonymous": false,
      "inputs": [
        {
          "indexed": false,
          "internalType": "uint256",
          "name": "tEther",
          "type": "uint256"
        }
      ],
      "name": "newCommit",
      "type": "event"
    },
    {
      "inputs": [],
      "name": "MULTIPLIER",
      "outputs": [
        {
          "internalType": "uint256",
          "name": "",
          "type": "uint256"
        }
      ],
      "stateMutability": "view",
      "type": "function"
    },
    {
      "inputs": [],
      "name": "clearingPrice",
      "outputs": [
        {
          "internalType": "uint256",
          "name": "",
          "type": "uint256"
        }
      ],
      "stateMutability": "view",
      "type": "function"
    },
    {
      "inputs": [],
      "name": "currState",
      "outputs": [
        {
          "internalType": "enum Auction.State",
          "name": "",
          "type": "uint8"
        }
      ],
      "stateMutability": "view",
      "type": "function"
    },
    {
      "inputs": [],
      "name": "reservedPrice",
      "outputs": [
        {
          "internalType": "uint256",
          "name": "",
          "type": "uint256"
        }
      ],
      "stateMutability": "view",
      "type": "function"
    },
    {
      "inputs": [],
      "name": "startPrice",
      "outputs": [
        {
          "internalType": "uint256",
          "name": "",
          "type": "uint256"
        }
      ],
      "stateMutability": "view",
      "type": "function"
    },
    {
      "inputs": [],
      "name": "startTime",
      "outputs": [
        {
          "internalType": "uint256",
          "name": "",
          "type": "uint256"
        }
      ],
      "stateMutability": "view",
      "type": "function"
    },
    {
      "inputs": [],
      "name": "timeLimit",
      "outputs": [
        {
          "internalType": "uint256",
          "name": "",
          "type": "uint256"
        }
      ],
      "stateMutability": "view",
      "type": "function"
    },
    {
      "inputs": [],
      "name": "tokenSupply",
      "outputs": [
        {
          "internalType": "uint256",
          "name": "",
          "type": "uint256"
        }
      ],
      "stateMutability": "view",
      "type": "function"
    },
    {
      "inputs": [],
      "name": "totalEther",
      "outputs": [
        {
          "internalType": "uint256",
          "name": "",
          "type": "uint256"
        }
      ],
      "stateMutability": "view",
      "type": "function"
    },
    {
      "inputs": [],
      "name": "openAuction",
      "outputs": [],
      "stateMutability": "nonpayable",
      "type": "function"
    },
    {
      "inputs": [],
      "name": "commit",
      "outputs": [],
      "stateMutability": "payable",
      "type": "function"
    },
    {
      "inputs": [],
      "name": "closeAuction",
      "outputs": [],
      "stateMutability": "nonpayable",
      "type": "function"
    },
    {
      "inputs": [],
      "name": "claimTokens",
      "outputs": [],
      "stateMutability": "nonpayable",
      "type": "function"
    },
    {
      "inputs": [
        {
          "internalType": "address",
          "name": "bidder",
          "type": "address"
        }
      ],
      "name": "getCommitments",
      "outputs": [
        {
          "internalType": "uint256",
          "name": "",
          "type": "uint256"
        }
      ],
      "stateMutability": "view",
      "type": "function"
    }
  ],
  "bytecode": "0x608060405234801561001057600080fd5b50604051611771380380611771833981810160405260a081101561003357600080fd5b810190808051906020019092919080519060200190929190805190602001909291908051906020019092919080519060200190929190505050846003819055508360048190555082600681905550603c820260088190555080600960006101000a81548173ffffffffffffffffffffffffffffffffffffffff021916908373ffffffffffffffffffffffffffffffffffffffff1602179055506000600960146101000a81548160ff021916908360028111156100eb57fe5b0217905550505050505061166d806101046000396000f3fe6080604052600436106100dd5760003560e01c806348c54b9d1161007f578063ae6e22f111610059578063ae6e22f11461026d578063afe0104314610298578063c08d1fe5146102ce578063f1a9af89146102f9576100dd565b806348c54b9d146102005780637824407f1461021757806378e9792514610242576100dd565b80631b55d216116100bb5780631b55d2161461018957806332a0f2d7146101b4578063378252f2146101df5780633c7a3aff146101f6576100dd565b806304cb72f9146100e25780630522bf03146100f9578063059f8b161461015e575b600080fd5b3480156100ee57600080fd5b506100f7610324565b005b34801561010557600080fd5b506101486004803603602081101561011c57600080fd5b81019080803573ffffffffffffffffffffffffffffffffffffffff1690602001909291905050506104e3565b6040518082815260200191505060405180910390f35b34801561016a57600080fd5b5061017361052c565b6040518082815260200191505060405180910390f35b34801561019557600080fd5b5061019e610535565b6040518082815260200191505060405180910390f35b3480156101c057600080fd5b506101c961053b565b6040518082815260200191505060405180910390f35b3480156101eb57600080fd5b506101f4610541565b005b6101fe6108bf565b005b34801561020c57600080fd5b50610215610f1e565b005b34801561022357600080fd5b5061022c6111b9565b6040518082815260200191505060405180910390f35b34801561024e57600080fd5b506102576111bf565b6040518082815260200191505060405180910390f35b34801561027957600080fd5b506102826111c5565b6040518082815260200191505060405180910390f35b3480156102a457600080fd5b506102ad6111cb565b604051808260028111156102bd57fe5b815260200191505060405180910390f35b3480156102da57600080fd5b506102e36111de565b6040518082815260200191505060405180910390f35b34801561030557600080fd5b5061030e6111e4565b6040518082815260200191505060405180910390f35b600960009054906101000a900473ffffffffffffffffffffffffffffffffffffffff1673ffffffffffffffffffffffffffffffffffffffff163373ffffffffffffffffffffffffffffffffffffffff16146103ca576040517f08c379a000000000000000000000000000000000000000000000000000000000815260040180806020018281038252602c8152602001806115a8602c913960400191505060405180910390fd5b600060028111156103d757fe5b600960149054906101000a900460ff1660028111156103f257fe5b14610465576040517f08c379a000000000000000000000000000000000000000000000000000000000815260040180806020018281038252601d8152602001807f5468652061756374696f6e20697320616c7265616479206f70656e656400000081525060200191505060405180910390fd5b426007819055506001600960146101000a81548160ff0219169083600281111561048b57fe5b02179055507f268f1153844c3ed9f77b7cabc4fedb9d9994a5361b583f824ffbe523f3739e65600960149054906101000a900460ff16604051808260028111156104d157fe5b815260200191505060405180910390a1565b6000600160008373ffffffffffffffffffffffffffffffffffffffff1673ffffffffffffffffffffffffffffffffffffffff168152602001908152602001600020549050919050565b64e8d4a5100081565b60045481565b60055481565b6001600281111561054e57fe5b600960149054906101000a900460ff16600281111561056957fe5b146105dc576040517f08c379a000000000000000000000000000000000000000000000000000000000815260040180806020018281038252601b8152602001807f54686520636f6e747261637420616c726561647920636c6f736564000000000081525060200191505060405180910390fd5b6008546105f4600754426111ea90919063ffffffff16565b11156106695761061864e8d4a510006004540260065461123490919063ffffffff16565b600254111561065a5761064f64e8d4a510006106416006546002546112ba90919063ffffffff16565b6112ba90919063ffffffff16565b600581905550610664565b6004546005819055505b6107d7565b600061070c6004546106fe6103e86106f06106916004546003546111ea90919063ffffffff16565b6106e26008546106d46103e86106c6426106b860085460075461130490919063ffffffff16565b6111ea90919063ffffffff16565b61123490919063ffffffff16565b6112ba90919063ffffffff16565b61123490919063ffffffff16565b6112ba90919063ffffffff16565b61130490919063ffffffff16565b905061072a64e8d4a51000820260065461123490919063ffffffff16565b60025410156107a1576040517f08c379a000000000000000000000000000000000000000000000000000000000815260040180806020018281038252601b8152602001807f4e6f74207468652072696768742074696d6520746f20636c6f7365000000000081525060200191505060405180910390fd5b6107cf64e8d4a510006107c16006546002546112ba90919063ffffffff16565b6112ba90919063ffffffff16565b600581905550505b6000600960009054906101000a900473ffffffffffffffffffffffffffffffffffffffff1690508073ffffffffffffffffffffffffffffffffffffffff166108fc6002549081150290604051600060405180830381858888f19350505050158015610846573d6000803e3d6000fd5b506002600960146101000a81548160ff0219169083600281111561086657fe5b02179055507f268f1153844c3ed9f77b7cabc4fedb9d9994a5361b583f824ffbe523f3739e65600960149054906101000a900460ff16604051808260028111156108ac57fe5b815260200191505060405180910390a150565b600160028111156108cc57fe5b600960149054906101000a900460ff1660028111156108e757fe5b1461093d576040517f08c379a000000000000000000000000000000000000000000000000000000000815260040180806020018281038252602a81526020018061160e602a913960400191505060405180910390fd5b600854610955600754426111ea90919063ffffffff16565b106109c8576040517f08c379a00000000000000000000000000000000000000000000000000000000081526004018080602001828103825260158152602001807f54686520636f6e7472616374206973206f76657220000000000000000000000081525060200191505060405180910390fd5b6000610a6b600454610a5d6103e8610a4f6109f06004546003546111ea90919063ffffffff16565b610a41600854610a336103e8610a2542610a1760085460075461130490919063ffffffff16565b6111ea90919063ffffffff16565b61123490919063ffffffff16565b6112ba90919063ffffffff16565b61123490919063ffffffff16565b6112ba90919063ffffffff16565b61130490919063ffffffff16565b9050610a8964e8d4a51000820260065461123490919063ffffffff16565b60025410610ae2576040517f08c379a000000000000000000000000000000000000000000000000000000000815260040180806020018281038252603f815260200180611513603f913960400191505060405180910390fd5b610af73460025461130490919063ffffffff16565b600281905550600060405180604001604052803373ffffffffffffffffffffffffffffffffffffffff16815260200134815250908060018154018082558091505060019003906000526020600020906002020160009091909190915060008201518160000160006101000a81548173ffffffffffffffffffffffffffffffffffffffff021916908373ffffffffffffffffffffffffffffffffffffffff160217905550602082015181600101555050610bf834600160003373ffffffffffffffffffffffffffffffffffffffff1673ffffffffffffffffffffffffffffffffffffffff1681526020019081526020016000205461130490919063ffffffff16565b600160003373ffffffffffffffffffffffffffffffffffffffff1673ffffffffffffffffffffffffffffffffffffffff168152602001908152602001600020819055507f9e2f6b1e3f3c354bf8e290190cec21c802d02da827cc107d37bc9768ddb036e66002546040518082815260200191505060405180910390a1610ca0610c8f64e8d4a510008361123490919063ffffffff16565b60065461123490919063ffffffff16565b60025410610f1b57806005819055506000610cf3610ce2610cd164e8d4a5100060055461123490919063ffffffff16565b60065461123490919063ffffffff16565b6002546111ea90919063ffffffff16565b90506000811115610e3357610d13816002546111ea90919063ffffffff16565b600281905550610d2c81346111ea90919063ffffffff16565b600060016000805490500381548110610d4157fe5b906000526020600020906002020160010181905550610da881600160003373ffffffffffffffffffffffffffffffffffffffff1673ffffffffffffffffffffffffffffffffffffffff168152602001908152602001600020546111ea90919063ffffffff16565b600160003373ffffffffffffffffffffffffffffffffffffffff1673ffffffffffffffffffffffffffffffffffffffff168152602001908152602001600020819055503373ffffffffffffffffffffffffffffffffffffffff166108fc829081150290604051600060405180830381858888f19350505050158015610e31573d6000803e3d6000fd5b505b6002600960146101000a81548160ff02191690836002811115610e5257fe5b02179055507f268f1153844c3ed9f77b7cabc4fedb9d9994a5361b583f824ffbe523f3739e65600960149054906101000a900460ff1660405180826002811115610e9857fe5b815260200191505060405180910390a16000600960009054906101000a900473ffffffffffffffffffffffffffffffffffffffff1690508073ffffffffffffffffffffffffffffffffffffffff166108fc6002549081150290604051600060405180830381858888f19350505050158015610f17573d6000803e3d6000fd5b5050505b50565b600280811115610f2a57fe5b600960149054906101000a900460ff166002811115610f4557fe5b14610f9b576040517f08c379a00000000000000000000000000000000000000000000000000000000081526004018080602001828103825260358152602001806115736035913960400191505060405180910390fd5b6000600160003373ffffffffffffffffffffffffffffffffffffffff1673ffffffffffffffffffffffffffffffffffffffff1681526020019081526020016000205411611033576040517f08c379a000000000000000000000000000000000000000000000000000000000815260040180806020018281038252603a8152602001806115d4603a913960400191505060405180910390fd5b60006110a061105264e8d4a5100060055461123490919063ffffffff16565b600160003373ffffffffffffffffffffffffffffffffffffffff1673ffffffffffffffffffffffffffffffffffffffff168152602001908152602001600020546112ba90919063ffffffff16565b9050600960009054906101000a900473ffffffffffffffffffffffffffffffffffffffff1673ffffffffffffffffffffffffffffffffffffffff1663a9059cbb33836040518363ffffffff1660e01b8152600401808373ffffffffffffffffffffffffffffffffffffffff16815260200182815260200192505050602060405180830381600087803b15801561113557600080fd5b505af1158015611149573d6000803e3d6000fd5b505050506040513d602081101561115f57600080fd5b8101908080519060200190929190505050506000600160003373ffffffffffffffffffffffffffffffffffffffff1673ffffffffffffffffffffffffffffffffffffffff1681526020019081526020016000208190555050565b60065481565b60075481565b60025481565b600960149054906101000a900460ff1681565b60085481565b60035481565b600061122c83836040518060400160405280601e81526020017f536166654d6174683a207375627472616374696f6e206f766572666c6f77000081525061138c565b905092915050565b60008083141561124757600090506112b4565b600082840290508284828161125857fe5b04146112af576040517f08c379a00000000000000000000000000000000000000000000000000000000081526004018080602001828103825260218152602001806115526021913960400191505060405180910390fd5b809150505b92915050565b60006112fc83836040518060400160405280601a81526020017f536166654d6174683a206469766973696f6e206279207a65726f00000000000081525061144c565b905092915050565b600080828401905083811015611382576040517f08c379a000000000000000000000000000000000000000000000000000000000815260040180806020018281038252601b8152602001807f536166654d6174683a206164646974696f6e206f766572666c6f77000000000081525060200191505060405180910390fd5b8091505092915050565b6000838311158290611439576040517f08c379a00000000000000000000000000000000000000000000000000000000081526004018080602001828103825283818151815260200191508051906020019080838360005b838110156113fe5780820151818401526020810190506113e3565b50505050905090810190601f16801561142b5780820380516001836020036101000a031916815260200191505b509250505060405180910390fd5b5060008385039050809150509392505050565b600080831182906114f8576040517f08c379a00000000000000000000000000000000000000000000000000000000081526004018080602001828103825283818151815260200191508051906020019080838360005b838110156114bd5780820151818401526020810190506114a2565b50505050905090810190601f1680156114ea5780820380516001836020036101000a031916815260200191505b509250505060405180910390fd5b50600083858161150457fe5b04905080915050939250505056fe5468652064656d616e64206973206c6172676572207468616e20737570706c792c2074686520636f6e74726163742073686f756c6420636c6f7365206e6f77536166654d6174683a206d756c7469706c69636174696f6e206f766572666c6f775468652061756374696f6e206861766520746f20626520696e20737461746520636c6f73656420746f2062652072656c65617365644f6e6c792074686520746f6b656e20636f6e74726163742063616e206f70656e207468652061756374696f6e596f752068617665206e6f7420636f6d6d6974746564206f72206861766520636c61696d656420796f757220746f6b656e7320616c726561647954686520636f6e747261637420636c6f736564206f722068617665206e6f74206f70656e656420796574a264697066735822122087ad397d171ab9e8458593a7855ba6856c5b7216b3431ecc018b83d30f67fbee64736f6c634300060c0033",
  "immutableReferences": {},
  "source": "pragma solidity ^0.6.0;\r\n\r\nimport \"@openzeppelin/contracts/math/SafeMath.sol\";\r\nimport \"./CypherpunkCoin.sol\";\r\n\r\n// import \"./preventReentryTransfer\";\r\n\r\ncontract Auction {\r\n    using SafeMath for uint256;\r\n\r\n    struct commitment {\r\n        address bidder;\r\n        uint256 amount;\r\n    }\r\n\r\n    commitment[] private commitments;\r\n    mapping(address => uint256) bidderToAmount;\r\n\r\n    // reduce to only 3 stages\r\n    enum State {CREATED, OPENED, CLOSED}\r\n\r\n    // total Ether stored\r\n    uint256 public totalEther;\r\n    uint256 public startPrice;\r\n    uint256 public reservedPrice;\r\n    uint256 public clearingPrice;\r\n    // total Supply of tokens\r\n    uint256 public tokenSupply;\r\n    uint256 public startTime;\r\n    uint256 public timeLimit;\r\n    uint256 public constant MULTIPLIER = 10**12;\r\n\r\n    CypherpunkCoin private token;\r\n    State public currState;\r\n\r\n    constructor(\r\n        uint256 _startPrice,\r\n        uint256 _reservedPrice,\r\n        uint256 _tokenSupply,\r\n        uint256 _timeLimit,\r\n        CypherpunkCoin _token\r\n    ) public {\r\n        startPrice = _startPrice;\r\n        reservedPrice = _reservedPrice;\r\n        tokenSupply = _tokenSupply;\r\n        // conver from minutes to seconds\r\n        timeLimit = _timeLimit * 60;\r\n        token = _token;\r\n        currState = State.CREATED;\r\n    }\r\n\r\n    // open the auction\r\n    function openAuction() external {\r\n        require(\r\n            msg.sender == address(token),\r\n            \"Only the token contract can open the auction\"\r\n        );\r\n        require(currState == State.CREATED, \"The auction is already opened\");\r\n        startTime = now;\r\n        currState = State.OPENED;\r\n        emit changeState(currState);\r\n    }\r\n\r\n    // for a bidder to commit their money\r\n    function commit() external payable {\r\n        require(\r\n            currState == State.OPENED,\r\n            \"The contract closed or have not opened yet\"\r\n        );\r\n        // check whether the time is over\r\n        require(now.sub(startTime) < timeLimit, \"The contract is over \");\r\n\r\n        // calculate the current price at this time\r\n        uint256 curPrice = (startTime.add(timeLimit).sub(now))\r\n            .mul(1000)\r\n            .div(timeLimit)\r\n            .mul(startPrice.sub(reservedPrice))\r\n            .div(1000)\r\n            .add(reservedPrice);\r\n        // check whether the total Demand already exceeds supply\r\n        require(\r\n            totalEther < tokenSupply.mul(curPrice * MULTIPLIER),\r\n            \"The demand is larger than supply, the contract should close now\"\r\n        );\r\n\r\n        totalEther = totalEther.add(msg.value);\r\n        commitments.push(commitment(msg.sender, msg.value));\r\n        bidderToAmount[msg.sender] = bidderToAmount[msg.sender].add(msg.value);\r\n        emit newCommit(totalEther);\r\n        // to check whether the demand is larger than supply\r\n        // avoid the reentry attack by paying the last bidder or not at the commitment stage\r\n        // if it fails, then the commitment is failed and this\r\n        // does not affect other bidders\r\n        if (totalEther >= tokenSupply.mul(curPrice.mul(MULTIPLIER))) {\r\n            clearingPrice = curPrice;\r\n            uint256 ethSendBack = totalEther.sub(\r\n                tokenSupply.mul(clearingPrice.mul(MULTIPLIER))\r\n            );\r\n            if (ethSendBack > 0) {\r\n                totalEther = totalEther.sub(ethSendBack);\r\n                commitments[commitments.length - 1].amount = (msg.value).sub(\r\n                    ethSendBack\r\n                );\r\n                bidderToAmount[msg.sender] = bidderToAmount[msg.sender].sub(\r\n                    ethSendBack\r\n                );\r\n                msg.sender.transfer(ethSendBack);\r\n            }\r\n            currState = State.CLOSED;\r\n            emit changeState(currState);\r\n            address payable payableTokenContract = address(\r\n                uint160(address(token))\r\n            );\r\n            payableTokenContract.transfer(totalEther);\r\n        }\r\n    }\r\n\r\n    // Anyone can close the auction as long as contract state satisfy the requirements\r\n    function closeAuction() public {\r\n        require(currState == State.OPENED, \"The contract already closed\");\r\n        if (now.sub(startTime) > timeLimit) {\r\n            //in case the number of ethers staked already makes the demand exceed supply\r\n            // when price decreases\r\n            if (totalEther > tokenSupply.mul(reservedPrice * MULTIPLIER)) {\r\n                clearingPrice = totalEther.div(tokenSupply).div(MULTIPLIER);\r\n            } else clearingPrice = reservedPrice;\r\n        } else {\r\n            uint256 curPrice = (startTime.add(timeLimit).sub(now))\r\n                .mul(1000)\r\n                .div(timeLimit)\r\n                .mul(startPrice.sub(reservedPrice))\r\n                .div(1000)\r\n                .add(reservedPrice);\r\n            // In case the number of ethers staked already makes the demand exceed supply\r\n            // when price decreases\r\n            require(\r\n                totalEther >= tokenSupply.mul(curPrice * MULTIPLIER),\r\n                \"Not the right time to close\"\r\n            );\r\n            clearingPrice = totalEther.div(tokenSupply).div(MULTIPLIER);\r\n        }\r\n        address payable payableTokenContract = address(uint160(address(token)));\r\n        payableTokenContract.transfer(totalEther);\r\n        currState = State.CLOSED;\r\n        emit changeState(currState);\r\n    }\r\n\r\n    function claimTokens() external {\r\n        require(\r\n            currState == State.CLOSED,\r\n            \"The auction have to be in state closed to be released\"\r\n        );\r\n        require(\r\n            bidderToAmount[msg.sender] > 0,\r\n            \"You have not committed or have claimed your tokens already\"\r\n        );\r\n        uint256 tokenToTransfer = bidderToAmount[msg.sender].div(\r\n            clearingPrice.mul(MULTIPLIER)\r\n        );\r\n        token.transfer(msg.sender, tokenToTransfer);\r\n        bidderToAmount[msg.sender] = 0;\r\n    }\r\n\r\n    function getCommitments(address bidder) public view returns (uint256) {\r\n        return bidderToAmount[bidder];\r\n    }\r\n\r\n    event changeState(State s);\r\n    event newCommit(uint256 tEther);\r\n}\r\n",
  "sourcePath": "F:\\NTU\\Courses\\Sem 1 2020-2021\\Blockchain Technology\\CZ4153-Dutch-Contract\\contracts\\AuctionAgainstReentry.sol",
  "compiler": {
    "name": "solc",
    "version": "0.6.12+commit.27d51765.Emscripten.clang"
  },
  "schemaVersion": "3.3.1",
  "updatedAt": "2020-11-26T13:20:29.745Z",
  "devdoc": {
    "kind": "dev",
    "methods": {},
    "version": 1
  },
  "userdoc": {
    "kind": "user",
    "methods": {},
    "version": 1
  }
}