{
  "contractName": "Auction",
  "abi": [
    {
      "inputs": [
        {
          "internalType": "uint256",
          "name": "_startPrice",
          "type": "uint256"
        },
        {
          "internalType": "uint256",
          "name": "_reservedPrice",
          "type": "uint256"
        },
        {
          "internalType": "uint256",
          "name": "_tokenSupply",
          "type": "uint256"
        },
        {
          "internalType": "uint256",
          "name": "_timeLimit",
          "type": "uint256"
        },
        {
          "internalType": "contract CypherpunkCoin",
          "name": "_token",
          "type": "address"
        }
      ],
      "stateMutability": "nonpayable",
      "type": "constructor"
    },
    {
      "anonymous": false,
      "inputs": [
        {
          "indexed": true,
          "internalType": "bytes32",
          "name": "role",
          "type": "bytes32"
        },
        {
          "indexed": true,
          "internalType": "bytes32",
          "name": "previousAdminRole",
          "type": "bytes32"
        },
        {
          "indexed": true,
          "internalType": "bytes32",
          "name": "newAdminRole",
          "type": "bytes32"
        }
      ],
      "name": "RoleAdminChanged",
      "type": "event"
    },
    {
      "anonymous": false,
      "inputs": [
        {
          "indexed": true,
          "internalType": "bytes32",
          "name": "role",
          "type": "bytes32"
        },
        {
          "indexed": true,
          "internalType": "address",
          "name": "account",
          "type": "address"
        },
        {
          "indexed": true,
          "internalType": "address",
          "name": "sender",
          "type": "address"
        }
      ],
      "name": "RoleGranted",
      "type": "event"
    },
    {
      "anonymous": false,
      "inputs": [
        {
          "indexed": true,
          "internalType": "bytes32",
          "name": "role",
          "type": "bytes32"
        },
        {
          "indexed": true,
          "internalType": "address",
          "name": "account",
          "type": "address"
        },
        {
          "indexed": true,
          "internalType": "address",
          "name": "sender",
          "type": "address"
        }
      ],
      "name": "RoleRevoked",
      "type": "event"
    },
    {
      "anonymous": false,
      "inputs": [
        {
          "indexed": false,
          "internalType": "enum Auction.State",
          "name": "s",
          "type": "uint8"
        }
      ],
      "name": "changeState",
      "type": "event"
    },
    {
      "anonymous": false,
      "inputs": [
        {
          "indexed": false,
          "internalType": "uint256",
          "name": "tEther",
          "type": "uint256"
        }
      ],
      "name": "newCommit",
      "type": "event"
    },
    {
      "inputs": [],
      "name": "DEFAULT_ADMIN_ROLE",
      "outputs": [
        {
          "internalType": "bytes32",
          "name": "",
          "type": "bytes32"
        }
      ],
      "stateMutability": "view",
      "type": "function"
    },
    {
      "inputs": [],
      "name": "MULTIPLIER",
      "outputs": [
        {
          "internalType": "uint256",
          "name": "",
          "type": "uint256"
        }
      ],
      "stateMutability": "view",
      "type": "function"
    },
    {
      "inputs": [],
      "name": "clearingPrice",
      "outputs": [
        {
          "internalType": "uint256",
          "name": "",
          "type": "uint256"
        }
      ],
      "stateMutability": "view",
      "type": "function"
    },
    {
      "inputs": [],
      "name": "currState",
      "outputs": [
        {
          "internalType": "enum Auction.State",
          "name": "",
          "type": "uint8"
        }
      ],
      "stateMutability": "view",
      "type": "function"
    },
    {
      "inputs": [
        {
          "internalType": "bytes32",
          "name": "role",
          "type": "bytes32"
        }
      ],
      "name": "getRoleAdmin",
      "outputs": [
        {
          "internalType": "bytes32",
          "name": "",
          "type": "bytes32"
        }
      ],
      "stateMutability": "view",
      "type": "function"
    },
    {
      "inputs": [
        {
          "internalType": "bytes32",
          "name": "role",
          "type": "bytes32"
        },
        {
          "internalType": "uint256",
          "name": "index",
          "type": "uint256"
        }
      ],
      "name": "getRoleMember",
      "outputs": [
        {
          "internalType": "address",
          "name": "",
          "type": "address"
        }
      ],
      "stateMutability": "view",
      "type": "function"
    },
    {
      "inputs": [
        {
          "internalType": "bytes32",
          "name": "role",
          "type": "bytes32"
        }
      ],
      "name": "getRoleMemberCount",
      "outputs": [
        {
          "internalType": "uint256",
          "name": "",
          "type": "uint256"
        }
      ],
      "stateMutability": "view",
      "type": "function"
    },
    {
      "inputs": [
        {
          "internalType": "bytes32",
          "name": "role",
          "type": "bytes32"
        },
        {
          "internalType": "address",
          "name": "account",
          "type": "address"
        }
      ],
      "name": "grantRole",
      "outputs": [],
      "stateMutability": "nonpayable",
      "type": "function"
    },
    {
      "inputs": [
        {
          "internalType": "bytes32",
          "name": "role",
          "type": "bytes32"
        },
        {
          "internalType": "address",
          "name": "account",
          "type": "address"
        }
      ],
      "name": "hasRole",
      "outputs": [
        {
          "internalType": "bool",
          "name": "",
          "type": "bool"
        }
      ],
      "stateMutability": "view",
      "type": "function"
    },
    {
      "inputs": [
        {
          "internalType": "bytes32",
          "name": "role",
          "type": "bytes32"
        },
        {
          "internalType": "address",
          "name": "account",
          "type": "address"
        }
      ],
      "name": "renounceRole",
      "outputs": [],
      "stateMutability": "nonpayable",
      "type": "function"
    },
    {
      "inputs": [],
      "name": "reservedPrice",
      "outputs": [
        {
          "internalType": "uint256",
          "name": "",
          "type": "uint256"
        }
      ],
      "stateMutability": "view",
      "type": "function"
    },
    {
      "inputs": [
        {
          "internalType": "bytes32",
          "name": "role",
          "type": "bytes32"
        },
        {
          "internalType": "address",
          "name": "account",
          "type": "address"
        }
      ],
      "name": "revokeRole",
      "outputs": [],
      "stateMutability": "nonpayable",
      "type": "function"
    },
    {
      "inputs": [],
      "name": "startPrice",
      "outputs": [
        {
          "internalType": "uint256",
          "name": "",
          "type": "uint256"
        }
      ],
      "stateMutability": "view",
      "type": "function"
    },
    {
      "inputs": [],
      "name": "startTime",
      "outputs": [
        {
          "internalType": "uint256",
          "name": "",
          "type": "uint256"
        }
      ],
      "stateMutability": "view",
      "type": "function"
    },
    {
      "inputs": [],
      "name": "timeLimit",
      "outputs": [
        {
          "internalType": "uint256",
          "name": "",
          "type": "uint256"
        }
      ],
      "stateMutability": "view",
      "type": "function"
    },
    {
      "inputs": [],
      "name": "tokenSupply",
      "outputs": [
        {
          "internalType": "uint256",
          "name": "",
          "type": "uint256"
        }
      ],
      "stateMutability": "view",
      "type": "function"
    },
    {
      "inputs": [],
      "name": "totalEther",
      "outputs": [
        {
          "internalType": "uint256",
          "name": "",
          "type": "uint256"
        }
      ],
      "stateMutability": "view",
      "type": "function"
    },
    {
      "inputs": [],
      "name": "openAuction",
      "outputs": [],
      "stateMutability": "nonpayable",
      "type": "function"
    },
    {
      "inputs": [],
      "name": "commit",
      "outputs": [],
      "stateMutability": "payable",
      "type": "function"
    },
    {
      "inputs": [],
      "name": "closeAuction",
      "outputs": [],
      "stateMutability": "nonpayable",
      "type": "function"
    },
    {
      "inputs": [],
      "name": "releaseTokens",
      "outputs": [],
      "stateMutability": "nonpayable",
      "type": "function"
    },
    {
      "inputs": [
        {
          "internalType": "address",
          "name": "bidder",
          "type": "address"
        }
      ],
      "name": "getCommitments",
      "outputs": [
        {
          "internalType": "uint256",
          "name": "",
          "type": "uint256"
        }
      ],
      "stateMutability": "view",
      "type": "function"
    }
  ],
  "bytecode": "0x608060405234801561001057600080fd5b50604051612141380380612141833981810160405260a081101561003357600080fd5b810190808051906020019092919080519060200190929190805190602001909291908051906020019092919080519060200190929190505050846004819055508360058190555082600781905550603c820260098190555080600a60006101000a81548173ffffffffffffffffffffffffffffffffffffffff021916908373ffffffffffffffffffffffffffffffffffffffff1602179055506000600a60146101000a81548160ff021916908360038111156100eb57fe5b0217905550505050505061203d806101046000396000f3fe6080604052600436106101355760003560e01c806378e97925116100ab578063ae6e22f11161006f578063ae6e22f1146104d5578063afe0104314610500578063c08d1fe514610536578063ca15c87314610561578063d547741f146105b0578063f1a9af891461060b57610135565b806378e97925146103885780639010d07c146103b357806391d1485414610422578063a217fddf14610493578063a96f8668146104be57610135565b80632f2ff15d116100fd5780632f2ff15d1461025b57806332a0f2d7146102b657806336568abe146102e1578063378252f21461033c5780633c7a3aff146103535780637824407f1461035d57610135565b806304cb72f91461013a5780630522bf0314610151578063059f8b16146101b65780631b55d216146101e1578063248a9ca31461020c575b600080fd5b34801561014657600080fd5b5061014f610636565b005b34801561015d57600080fd5b506101a06004803603602081101561017457600080fd5b81019080803573ffffffffffffffffffffffffffffffffffffffff1690602001909291905050506107f5565b6040518082815260200191505060405180910390f35b3480156101c257600080fd5b506101cb61083e565b6040518082815260200191505060405180910390f35b3480156101ed57600080fd5b506101f6610847565b6040518082815260200191505060405180910390f35b34801561021857600080fd5b506102456004803603602081101561022f57600080fd5b810190808035906020019092919050505061084d565b6040518082815260200191505060405180910390f35b34801561026757600080fd5b506102b46004803603604081101561027e57600080fd5b8101908080359060200190929190803573ffffffffffffffffffffffffffffffffffffffff16906020019092919050505061086c565b005b3480156102c257600080fd5b506102cb6108f5565b6040518082815260200191505060405180910390f35b3480156102ed57600080fd5b5061033a6004803603604081101561030457600080fd5b8101908080359060200190929190803573ffffffffffffffffffffffffffffffffffffffff1690602001909291905050506108fb565b005b34801561034857600080fd5b50610351610994565b005b61035b610d16565b005b34801561036957600080fd5b5061037261116f565b6040518082815260200191505060405180910390f35b34801561039457600080fd5b5061039d611175565b6040518082815260200191505060405180910390f35b3480156103bf57600080fd5b506103f6600480360360408110156103d657600080fd5b81019080803590602001909291908035906020019092919050505061117b565b604051808273ffffffffffffffffffffffffffffffffffffffff16815260200191505060405180910390f35b34801561042e57600080fd5b5061047b6004803603604081101561044557600080fd5b8101908080359060200190929190803573ffffffffffffffffffffffffffffffffffffffff1690602001909291905050506111ac565b60405180821515815260200191505060405180910390f35b34801561049f57600080fd5b506104a86111dd565b6040518082815260200191505060405180910390f35b3480156104ca57600080fd5b506104d36111e4565b005b3480156104e157600080fd5b506104ea611674565b6040518082815260200191505060405180910390f35b34801561050c57600080fd5b5061051561167a565b6040518082600381111561052557fe5b815260200191505060405180910390f35b34801561054257600080fd5b5061054b61168d565b6040518082815260200191505060405180910390f35b34801561056d57600080fd5b5061059a6004803603602081101561058457600080fd5b8101908080359060200190929190505050611693565b6040518082815260200191505060405180910390f35b3480156105bc57600080fd5b50610609600480360360408110156105d357600080fd5b8101908080359060200190929190803573ffffffffffffffffffffffffffffffffffffffff1690602001909291905050506116b9565b005b34801561061757600080fd5b50610620611742565b6040518082815260200191505060405180910390f35b600a60009054906101000a900473ffffffffffffffffffffffffffffffffffffffff1673ffffffffffffffffffffffffffffffffffffffff163373ffffffffffffffffffffffffffffffffffffffff16146106dc576040517f08c379a000000000000000000000000000000000000000000000000000000000815260040180806020018281038252602c815260200180611f83602c913960400191505060405180910390fd5b600060038111156106e957fe5b600a60149054906101000a900460ff16600381111561070457fe5b14610777576040517f08c379a000000000000000000000000000000000000000000000000000000000815260040180806020018281038252601d8152602001807f5468652061756374696f6e20697320616c7265616479206f70656e656400000081525060200191505060405180910390fd5b426008819055506001600a60146101000a81548160ff0219169083600381111561079d57fe5b02179055507f268f1153844c3ed9f77b7cabc4fedb9d9994a5361b583f824ffbe523f3739e65600a60149054906101000a900460ff16604051808260038111156107e357fe5b815260200191505060405180910390a1565b6000600260008373ffffffffffffffffffffffffffffffffffffffff1673ffffffffffffffffffffffffffffffffffffffff168152602001908152602001600020549050919050565b64e8d4a5100081565b60055481565b6000806000838152602001908152602001600020600201549050919050565b6108926000808481526020019081526020016000206002015461088d611748565b6111ac565b6108e7576040517f08c379a000000000000000000000000000000000000000000000000000000000815260040180806020018281038252602f815260200180611e8f602f913960400191505060405180910390fd5b6108f18282611750565b5050565b60065481565b610903611748565b73ffffffffffffffffffffffffffffffffffffffff168173ffffffffffffffffffffffffffffffffffffffff1614610986576040517f08c379a000000000000000000000000000000000000000000000000000000000815260040180806020018281038252602f815260200180611fd9602f913960400191505060405180910390fd5b61099082826117e3565b5050565b600160038111156109a157fe5b600a60149054906101000a900460ff1660038111156109bc57fe5b14610a2f576040517f08c379a000000000000000000000000000000000000000000000000000000000815260040180806020018281038252601b8152602001807f54686520636f6e747261637420616c726561647920636c6f736564000000000081525060200191505060405180910390fd5b600954610a476008544261187690919063ffffffff16565b1115610b31576002600a60146101000a81548160ff02191690836003811115610a6c57fe5b02179055507f268f1153844c3ed9f77b7cabc4fedb9d9994a5361b583f824ffbe523f3739e65600a60149054906101000a900460ff1660405180826003811115610ab257fe5b815260200191505060405180910390a1610ae064e8d4a51000600554026007546118c090919063ffffffff16565b6003541115610b2257610b1764e8d4a51000610b0960075460035461194690919063ffffffff16565b61194690919063ffffffff16565b600681905550610b2c565b6005546006819055505b610d14565b6000610bd4600554610bc66103e8610bb8610b5960055460045461187690919063ffffffff16565b610baa600954610b9c6103e8610b8e42610b8060095460085461199090919063ffffffff16565b61187690919063ffffffff16565b6118c090919063ffffffff16565b61194690919063ffffffff16565b6118c090919063ffffffff16565b61194690919063ffffffff16565b61199090919063ffffffff16565b9050610bf264e8d4a5100082026007546118c090919063ffffffff16565b6003541015610c69576040517f08c379a000000000000000000000000000000000000000000000000000000000815260040180806020018281038252601b8152602001807f4e6f74207468652072696768742074696d6520746f20636c6f7365000000000081525060200191505060405180910390fd5b6002600a60146101000a81548160ff02191690836003811115610c8857fe5b02179055507f268f1153844c3ed9f77b7cabc4fedb9d9994a5361b583f824ffbe523f3739e65600a60149054906101000a900460ff1660405180826003811115610cce57fe5b815260200191505060405180910390a1610d0c64e8d4a51000610cfe60075460035461194690919063ffffffff16565b61194690919063ffffffff16565b600681905550505b565b60016003811115610d2357fe5b600a60149054906101000a900460ff166003811115610d3e57fe5b14610d94576040517f08c379a000000000000000000000000000000000000000000000000000000000815260040180806020018281038252602a815260200180611faf602a913960400191505060405180910390fd5b600954610dac6008544261187690919063ffffffff16565b10610e1f576040517f08c379a00000000000000000000000000000000000000000000000000000000081526004018080602001828103825260118152602001807f5468652074696d65206973206f7665722000000000000000000000000000000081525060200191505060405180910390fd5b6000610ec2600554610eb46103e8610ea6610e4760055460045461187690919063ffffffff16565b610e98600954610e8a6103e8610e7c42610e6e60095460085461199090919063ffffffff16565b61187690919063ffffffff16565b6118c090919063ffffffff16565b61194690919063ffffffff16565b6118c090919063ffffffff16565b61194690919063ffffffff16565b61199090919063ffffffff16565b9050610ee064e8d4a5100082026007546118c090919063ffffffff16565b60035410610f39576040517f08c379a000000000000000000000000000000000000000000000000000000000815260040180806020018281038252603f815260200180611eee603f913960400191505060405180910390fd5b610f4e3460035461199090919063ffffffff16565b600381905550600160405180604001604052803373ffffffffffffffffffffffffffffffffffffffff16815260200134815250908060018154018082558091505060019003906000526020600020906002020160009091909190915060008201518160000160006101000a81548173ffffffffffffffffffffffffffffffffffffffff021916908373ffffffffffffffffffffffffffffffffffffffff16021790555060208201518160010155505061104f34600260003373ffffffffffffffffffffffffffffffffffffffff1673ffffffffffffffffffffffffffffffffffffffff1681526020019081526020016000205461199090919063ffffffff16565b600260003373ffffffffffffffffffffffffffffffffffffffff1673ffffffffffffffffffffffffffffffffffffffff168152602001908152602001600020819055507f9e2f6b1e3f3c354bf8e290190cec21c802d02da827cc107d37bc9768ddb036e66003546040518082815260200191505060405180910390a16110e764e8d4a5100082026007546118c090919063ffffffff16565b6003541061116c57806006819055506002600a60146101000a81548160ff0219169083600381111561111557fe5b02179055507f268f1153844c3ed9f77b7cabc4fedb9d9994a5361b583f824ffbe523f3739e65600a60149054906101000a900460ff166040518082600381111561115b57fe5b815260200191505060405180910390a15b50565b60075481565b60085481565b60006111a482600080868152602001908152602001600020600001611a1890919063ffffffff16565b905092915050565b60006111d582600080868152602001908152602001600020600001611a3290919063ffffffff16565b905092915050565b6000801b81565b600260038111156111f157fe5b600a60149054906101000a900460ff16600381111561120c57fe5b14611262576040517f08c379a0000000000000000000000000000000000000000000000000000000008152600401808060200182810382526035815260200180611f4e6035913960400191505060405180910390fd5b6003600a60146101000a81548160ff0219169083600381111561128157fe5b02179055507f268f1153844c3ed9f77b7cabc4fedb9d9994a5361b583f824ffbe523f3739e65600a60149054906101000a900460ff16604051808260038111156112c757fe5b815260200191505060405180910390a1600060035490506000600754905060005b60018054905081101561156957600061133164e8d4a51000600654026001848154811061131157fe5b90600052602060002090600202016001015461194690919063ffffffff16565b9050828111156114385760006001838154811061134a57fe5b906000526020600020906002020160000160009054906101000a900473ffffffffffffffffffffffffffffffffffffffff16905083915060006113cf6113a264e8d4a5100060065402856118c090919063ffffffff16565b600186815481106113af57fe5b90600052602060002090600202016001015461187690919063ffffffff16565b90508173ffffffffffffffffffffffffffffffffffffffff166108fc829081150290604051600060405180830381858888f19350505050158015611417573d6000803e3d6000fd5b5061142b818761187690919063ffffffff16565b955060009450505061144e565b61144b818461187690919063ffffffff16565b92505b600a60009054906101000a900473ffffffffffffffffffffffffffffffffffffffff1673ffffffffffffffffffffffffffffffffffffffff1663a9059cbb6001848154811061149957fe5b906000526020600020906002020160000160009054906101000a900473ffffffffffffffffffffffffffffffffffffffff16836040518363ffffffff1660e01b8152600401808373ffffffffffffffffffffffffffffffffffffffff16815260200182815260200192505050602060405180830381600087803b15801561151f57600080fd5b505af1158015611533573d6000803e3d6000fd5b505050506040513d602081101561154957600080fd5b8101908080519060200190929190505050505080806001019150506112e8565b506000600a60009054906101000a900473ffffffffffffffffffffffffffffffffffffffff1690508073ffffffffffffffffffffffffffffffffffffffff166108fc849081150290604051600060405180830381858888f193505050501580156115d7573d6000803e3d6000fd5b50600082111561166f57600a60009054906101000a900473ffffffffffffffffffffffffffffffffffffffff1673ffffffffffffffffffffffffffffffffffffffff166342966c68836040518263ffffffff1660e01b815260040180828152602001915050600060405180830381600087803b15801561165657600080fd5b505af115801561166a573d6000803e3d6000fd5b505050505b505050565b60035481565b600a60149054906101000a900460ff1681565b60095481565b60006116b2600080848152602001908152602001600020600001611a62565b9050919050565b6116df600080848152602001908152602001600020600201546116da611748565b6111ac565b611734576040517f08c379a0000000000000000000000000000000000000000000000000000000008152600401808060200182810382526030815260200180611ebe6030913960400191505060405180910390fd5b61173e82826117e3565b5050565b60045481565b600033905090565b61177781600080858152602001908152602001600020600001611a7790919063ffffffff16565b156117df57611784611748565b73ffffffffffffffffffffffffffffffffffffffff168173ffffffffffffffffffffffffffffffffffffffff16837f2f8788117e7eff1d82e926ec794901d17c78024a50270940304540a733656f0d60405160405180910390a45b5050565b61180a81600080858152602001908152602001600020600001611aa790919063ffffffff16565b1561187257611817611748565b73ffffffffffffffffffffffffffffffffffffffff168173ffffffffffffffffffffffffffffffffffffffff16837ff6391f5c32d9c69d2a47ea670b442974b53935d1edc7fd64eb21e047a839171b60405160405180910390a45b5050565b60006118b883836040518060400160405280601e81526020017f536166654d6174683a207375627472616374696f6e206f766572666c6f770000815250611ad7565b905092915050565b6000808314156118d35760009050611940565b60008284029050828482816118e457fe5b041461193b576040517f08c379a0000000000000000000000000000000000000000000000000000000008152600401808060200182810382526021815260200180611f2d6021913960400191505060405180910390fd5b809150505b92915050565b600061198883836040518060400160405280601a81526020017f536166654d6174683a206469766973696f6e206279207a65726f000000000000815250611b97565b905092915050565b600080828401905083811015611a0e576040517f08c379a000000000000000000000000000000000000000000000000000000000815260040180806020018281038252601b8152602001807f536166654d6174683a206164646974696f6e206f766572666c6f77000000000081525060200191505060405180910390fd5b8091505092915050565b6000611a278360000183611c5d565b60001c905092915050565b6000611a5a836000018373ffffffffffffffffffffffffffffffffffffffff1660001b611ce0565b905092915050565b6000611a7082600001611d03565b9050919050565b6000611a9f836000018373ffffffffffffffffffffffffffffffffffffffff1660001b611d14565b905092915050565b6000611acf836000018373ffffffffffffffffffffffffffffffffffffffff1660001b611d84565b905092915050565b6000838311158290611b84576040517f08c379a00000000000000000000000000000000000000000000000000000000081526004018080602001828103825283818151815260200191508051906020019080838360005b83811015611b49578082015181840152602081019050611b2e565b50505050905090810190601f168015611b765780820380516001836020036101000a031916815260200191505b509250505060405180910390fd5b5060008385039050809150509392505050565b60008083118290611c43576040517f08c379a00000000000000000000000000000000000000000000000000000000081526004018080602001828103825283818151815260200191508051906020019080838360005b83811015611c08578082015181840152602081019050611bed565b50505050905090810190601f168015611c355780820380516001836020036101000a031916815260200191505b509250505060405180910390fd5b506000838581611c4f57fe5b049050809150509392505050565b600081836000018054905011611cbe576040517f08c379a0000000000000000000000000000000000000000000000000000000008152600401808060200182810382526022815260200180611e6d6022913960400191505060405180910390fd5b826000018281548110611ccd57fe5b9060005260206000200154905092915050565b600080836001016000848152602001908152602001600020541415905092915050565b600081600001805490509050919050565b6000611d208383611ce0565b611d79578260000182908060018154018082558091505060019003906000526020600020016000909190919091505582600001805490508360010160008481526020019081526020016000208190555060019050611d7e565b600090505b92915050565b60008083600101600084815260200190815260200160002054905060008114611e605760006001820390506000600186600001805490500390506000866000018281548110611dcf57fe5b9060005260206000200154905080876000018481548110611dec57fe5b9060005260206000200181905550600183018760010160008381526020019081526020016000208190555086600001805480611e2457fe5b60019003818190600052602060002001600090559055866001016000878152602001908152602001600020600090556001945050505050611e66565b60009150505b9291505056fe456e756d657261626c655365743a20696e646578206f7574206f6620626f756e6473416363657373436f6e74726f6c3a2073656e646572206d75737420626520616e2061646d696e20746f206772616e74416363657373436f6e74726f6c3a2073656e646572206d75737420626520616e2061646d696e20746f207265766f6b655468652064656d616e64206973206c6172676572207468616e20737570706c792c2074686520636f6e74726163742073686f756c6420636c6f7365206e6f77536166654d6174683a206d756c7469706c69636174696f6e206f766572666c6f775468652061756374696f6e206861766520746f20626520696e20737461746520636c6f73656420746f2062652072656c65617365644f6e6c792074686520746f6b656e20636f6e74726163742063616e206f70656e207468652061756374696f6e54686520636f6e747261637420636c6f736564206f722068617665206e6f74206f70656e656420796574416363657373436f6e74726f6c3a2063616e206f6e6c792072656e6f756e636520726f6c657320666f722073656c66a26469706673582212201c678cc1bf151a5ef02b8172d267426d0734b335d803c431a0c19b82a15a592e64736f6c634300060c0033",
  "immutableReferences": {},
  "source": "pragma solidity ^0.6.0;\r\n\r\nimport \"@openzeppelin/contracts/math/SafeMath.sol\";\r\nimport \"./CypherpunkCoin.sol\";\r\nimport \"@openzeppelin/contracts/access/AccessControl.sol\";\r\n\r\ncontract Auction is AccessControl {\r\n    using SafeMath for uint256;\r\n\r\n    struct commitment {\r\n        address bidder;\r\n        uint256 amount;\r\n    }\r\n\r\n    commitment[] private commitments;\r\n    mapping(address => uint256) bidderToAmount;\r\n\r\n    enum State {CREATED, OPENED, CLOSED, RELEASED}\r\n\r\n    // total Ether stored\r\n    uint256 public totalEther;\r\n    uint256 public startPrice;\r\n    uint256 public reservedPrice;\r\n    uint256 public clearingPrice;\r\n    // total Supply of tokens\r\n    uint256 public tokenSupply;\r\n    uint256 public startTime;\r\n    uint256 public timeLimit;\r\n    uint256 public constant MULTIPLIER = 10**12;\r\n\r\n    CypherpunkCoin private token;\r\n    State public currState;\r\n\r\n    constructor(\r\n        uint256 _startPrice,\r\n        uint256 _reservedPrice,\r\n        uint256 _tokenSupply,\r\n        uint256 _timeLimit,\r\n        CypherpunkCoin _token\r\n    ) public {\r\n        startPrice = _startPrice;\r\n        reservedPrice = _reservedPrice;\r\n        tokenSupply = _tokenSupply;\r\n        // conver from minutes to seconds\r\n        timeLimit = _timeLimit * 60;\r\n        token = _token;\r\n        currState = State.CREATED;\r\n    }\r\n\r\n    function openAuction() external {\r\n        require(\r\n            msg.sender == address(token),\r\n            \"Only the token contract can open the auction\"\r\n        );\r\n        require(currState == State.CREATED, \"The auction is already opened\");\r\n        startTime = now;\r\n        currState = State.OPENED;\r\n        emit changeState(currState);\r\n    }\r\n\r\n    function commit() external payable {\r\n        require(\r\n            currState == State.OPENED,\r\n            \"The contract closed or have not opened yet\"\r\n        );\r\n        // check whether the time is over\r\n        require(now.sub(startTime) < timeLimit, \"The time is over \");\r\n\r\n        // calculate the current price at this time, we follow the linear model\r\n        // curPrice = (startTime+timeLimit-now)/timeLimit*(startPrice-reservedPrice)\r\n        // + reservedPrice\r\n        uint256 curPrice =\r\n            (startTime.add(timeLimit).sub(now))\r\n                .mul(1000)\r\n                .div(timeLimit)\r\n                .mul(startPrice.sub(reservedPrice))\r\n                .div(1000)\r\n                .add(reservedPrice);\r\n\r\n        // check whether the total Demand already exceeds supply as price decreases over time\r\n        require(\r\n            totalEther < tokenSupply.mul(curPrice * MULTIPLIER),\r\n            \"The demand is larger than supply, the contract should close now\"\r\n        );\r\n\r\n        totalEther = totalEther.add(msg.value);\r\n        commitments.push(commitment(msg.sender, msg.value));\r\n        bidderToAmount[msg.sender] = bidderToAmount[msg.sender].add(msg.value);\r\n        emit newCommit(totalEther);\r\n        // to check whether the demand is larger than supply\r\n        if (totalEther >= tokenSupply.mul(curPrice * MULTIPLIER)) {\r\n            clearingPrice = curPrice;\r\n            currState = State.CLOSED;\r\n            emit changeState(currState);\r\n        }\r\n    }\r\n\r\n    function closeAuction() public {\r\n        require(currState == State.OPENED, \"The contract already closed\");\r\n        if (now.sub(startTime) > timeLimit) {\r\n            //in case the number of ethers staked already makes the demand exceed supply\r\n            // when price decreases\r\n            currState = State.CLOSED;\r\n            emit changeState(currState);\r\n            if (totalEther > tokenSupply.mul(reservedPrice * MULTIPLIER)) {\r\n                clearingPrice = totalEther.div(tokenSupply).div(MULTIPLIER);\r\n            } else clearingPrice = reservedPrice;\r\n        } else {\r\n            uint256 curPrice =\r\n                (startTime.add(timeLimit).sub(now))\r\n                    .mul(1000)\r\n                    .div(timeLimit)\r\n                    .mul(startPrice.sub(reservedPrice))\r\n                    .div(1000)\r\n                    .add(reservedPrice);\r\n            // In case the number of ethers staked already makes the demand exceed supply\r\n            // when price decreases\r\n            require(\r\n                totalEther >= tokenSupply.mul(curPrice * MULTIPLIER),\r\n                \"Not the right time to close\"\r\n            );\r\n            currState = State.CLOSED;\r\n            emit changeState(currState);\r\n            clearingPrice = totalEther.div(tokenSupply).div(MULTIPLIER);\r\n        }\r\n    }\r\n\r\n    // Anyone can trigger the release as long as it satisfies the requirements\r\n    function releaseTokens() external {\r\n        require(\r\n            currState == State.CLOSED,\r\n            \"The auction have to be in state closed to be released\"\r\n        );\r\n        currState = State.RELEASED;\r\n        emit changeState(currState);\r\n        uint256 ethSendToTokenContract = totalEther;\r\n        uint256 remainingToken = tokenSupply;\r\n        for (uint256 i = 0; i < commitments.length; i++) {\r\n            // token to transfer to the bidder\r\n            uint256 tokenTransfer =\r\n                commitments[i].amount.div(clearingPrice * MULTIPLIER);\r\n            if (tokenTransfer > remainingToken) {\r\n                //send back redundant ether to the last bidder\r\n                address payable payableLastBidder =\r\n                    address(uint160(commitments[i].bidder));\r\n                tokenTransfer = remainingToken;\r\n                uint256 ethSendToPayableLastBidder =\r\n                    commitments[i].amount.sub(\r\n                        tokenTransfer.mul(clearingPrice * MULTIPLIER)\r\n                    );\r\n                payableLastBidder.transfer(ethSendToPayableLastBidder);\r\n                ethSendToTokenContract = ethSendToTokenContract.sub(\r\n                    ethSendToPayableLastBidder\r\n                );\r\n                remainingToken = 0;\r\n            } else remainingToken = remainingToken.sub(tokenTransfer);\r\n            token.transfer(commitments[i].bidder, tokenTransfer);\r\n        }\r\n        // send money to the CypherpunkCoin contract\r\n        address payable payableTokenContract = address(uint160(address(token)));\r\n        payableTokenContract.transfer(ethSendToTokenContract);\r\n        // burn the remaining tokens\r\n        if (remainingToken > 0) token.burn(remainingToken);\r\n    }\r\n\r\n    function getCommitments(address bidder) public view returns (uint256) {\r\n        return bidderToAmount[bidder];\r\n    }\r\n\r\n    event changeState(State s);\r\n    // event newCommit logging the total Ether up to now\r\n    event newCommit(uint256 tEther);\r\n}\r\n",
  "sourcePath": "F:\\NTU\\Courses\\Sem 1 2020-2021\\Blockchain Technology\\CZ4153-Dutch-Contract\\contracts\\Auction.sol",
  "compiler": {
    "name": "solc",
    "version": "0.6.12+commit.27d51765.Emscripten.clang"
  },
  "schemaVersion": "3.3.2",
  "updatedAt": "2020-12-29T09:44:00.323Z",
  "devdoc": {
    "kind": "dev",
    "methods": {
      "getRoleAdmin(bytes32)": {
        "details": "Returns the admin role that controls `role`. See {grantRole} and {revokeRole}. To change a role's admin, use {_setRoleAdmin}."
      },
      "getRoleMember(bytes32,uint256)": {
        "details": "Returns one of the accounts that have `role`. `index` must be a value between 0 and {getRoleMemberCount}, non-inclusive. Role bearers are not sorted in any particular way, and their ordering may change at any point. WARNING: When using {getRoleMember} and {getRoleMemberCount}, make sure you perform all queries on the same block. See the following https://forum.openzeppelin.com/t/iterating-over-elements-on-enumerableset-in-openzeppelin-contracts/2296[forum post] for more information."
      },
      "getRoleMemberCount(bytes32)": {
        "details": "Returns the number of accounts that have `role`. Can be used together with {getRoleMember} to enumerate all bearers of a role."
      },
      "grantRole(bytes32,address)": {
        "details": "Grants `role` to `account`. If `account` had not been already granted `role`, emits a {RoleGranted} event. Requirements: - the caller must have ``role``'s admin role."
      },
      "hasRole(bytes32,address)": {
        "details": "Returns `true` if `account` has been granted `role`."
      },
      "renounceRole(bytes32,address)": {
        "details": "Revokes `role` from the calling account. Roles are often managed via {grantRole} and {revokeRole}: this function's purpose is to provide a mechanism for accounts to lose their privileges if they are compromised (such as when a trusted device is misplaced). If the calling account had been granted `role`, emits a {RoleRevoked} event. Requirements: - the caller must be `account`."
      },
      "revokeRole(bytes32,address)": {
        "details": "Revokes `role` from `account`. If `account` had been granted `role`, emits a {RoleRevoked} event. Requirements: - the caller must have ``role``'s admin role."
      }
    },
    "version": 1
  },
  "userdoc": {
    "kind": "user",
    "methods": {},
    "version": 1
  }
}