{
  "contractName": "AuctionAgainsReentry",
  "abi": [
    {
      "inputs": [
        {
          "internalType": "uint256",
          "name": "_startPrice",
          "type": "uint256"
        },
        {
          "internalType": "uint256",
          "name": "_reservedPrice",
          "type": "uint256"
        },
        {
          "internalType": "uint256",
          "name": "_tokenSupply",
          "type": "uint256"
        },
        {
          "internalType": "uint256",
          "name": "_timeLimit",
          "type": "uint256"
        },
        {
          "internalType": "contract CypherpunkCoin",
          "name": "_token",
          "type": "address"
        }
      ],
      "stateMutability": "nonpayable",
      "type": "constructor"
    },
    {
      "anonymous": false,
      "inputs": [
        {
          "indexed": false,
          "internalType": "enum AuctionAgainsReentry.State",
          "name": "s",
          "type": "uint8"
        }
      ],
      "name": "changeState",
      "type": "event"
    },
    {
      "anonymous": false,
      "inputs": [
        {
          "indexed": false,
          "internalType": "uint256",
          "name": "tEther",
          "type": "uint256"
        }
      ],
      "name": "newCommit",
      "type": "event"
    },
    {
      "inputs": [],
      "name": "MULTIPLIER",
      "outputs": [
        {
          "internalType": "uint256",
          "name": "",
          "type": "uint256"
        }
      ],
      "stateMutability": "view",
      "type": "function"
    },
    {
      "inputs": [],
      "name": "clearingPrice",
      "outputs": [
        {
          "internalType": "uint256",
          "name": "",
          "type": "uint256"
        }
      ],
      "stateMutability": "view",
      "type": "function"
    },
    {
      "inputs": [],
      "name": "currState",
      "outputs": [
        {
          "internalType": "enum AuctionAgainsReentry.State",
          "name": "",
          "type": "uint8"
        }
      ],
      "stateMutability": "view",
      "type": "function"
    },
    {
      "inputs": [],
      "name": "reservedPrice",
      "outputs": [
        {
          "internalType": "uint256",
          "name": "",
          "type": "uint256"
        }
      ],
      "stateMutability": "view",
      "type": "function"
    },
    {
      "inputs": [],
      "name": "startPrice",
      "outputs": [
        {
          "internalType": "uint256",
          "name": "",
          "type": "uint256"
        }
      ],
      "stateMutability": "view",
      "type": "function"
    },
    {
      "inputs": [],
      "name": "startTime",
      "outputs": [
        {
          "internalType": "uint256",
          "name": "",
          "type": "uint256"
        }
      ],
      "stateMutability": "view",
      "type": "function"
    },
    {
      "inputs": [],
      "name": "timeLimit",
      "outputs": [
        {
          "internalType": "uint256",
          "name": "",
          "type": "uint256"
        }
      ],
      "stateMutability": "view",
      "type": "function"
    },
    {
      "inputs": [],
      "name": "tokenSupply",
      "outputs": [
        {
          "internalType": "uint256",
          "name": "",
          "type": "uint256"
        }
      ],
      "stateMutability": "view",
      "type": "function"
    },
    {
      "inputs": [],
      "name": "totalEther",
      "outputs": [
        {
          "internalType": "uint256",
          "name": "",
          "type": "uint256"
        }
      ],
      "stateMutability": "view",
      "type": "function"
    },
    {
      "inputs": [],
      "name": "openAuction",
      "outputs": [],
      "stateMutability": "nonpayable",
      "type": "function"
    },
    {
      "inputs": [],
      "name": "commit",
      "outputs": [],
      "stateMutability": "payable",
      "type": "function"
    },
    {
      "inputs": [],
      "name": "closeAuction",
      "outputs": [],
      "stateMutability": "nonpayable",
      "type": "function"
    },
    {
      "inputs": [],
      "name": "releaseTokens",
      "outputs": [],
      "stateMutability": "nonpayable",
      "type": "function"
    },
    {
      "inputs": [
        {
          "internalType": "address",
          "name": "bidder",
          "type": "address"
        }
      ],
      "name": "getCommitments",
      "outputs": [
        {
          "internalType": "uint256",
          "name": "",
          "type": "uint256"
        }
      ],
      "stateMutability": "view",
      "type": "function"
    }
  ],
  "bytecode": "0x608060405234801561001057600080fd5b50604051611828380380611828833981810160405260a081101561003357600080fd5b810190808051906020019092919080519060200190929190805190602001909291908051906020019092919080519060200190929190505050846003819055508360048190555082600681905550603c820260088190555080600960006101000a81548173ffffffffffffffffffffffffffffffffffffffff021916908373ffffffffffffffffffffffffffffffffffffffff1602179055506000600960146101000a81548160ff021916908360038111156100eb57fe5b02179055505050505050611724806101046000396000f3fe6080604052600436106100dd5760003560e01c80637824407f1161007f578063ae6e22f111610059578063ae6e22f11461026d578063afe0104314610298578063c08d1fe5146102ce578063f1a9af89146102f9576100dd565b80637824407f1461020057806378e979251461022b578063a96f866814610256576100dd565b80631b55d216116100bb5780631b55d2161461018957806332a0f2d7146101b4578063378252f2146101df5780633c7a3aff146101f6576100dd565b806304cb72f9146100e25780630522bf03146100f9578063059f8b161461015e575b600080fd5b3480156100ee57600080fd5b506100f7610324565b005b34801561010557600080fd5b506101486004803603602081101561011c57600080fd5b81019080803573ffffffffffffffffffffffffffffffffffffffff1690602001909291905050506104e3565b6040518082815260200191505060405180910390f35b34801561016a57600080fd5b5061017361052c565b6040518082815260200191505060405180910390f35b34801561019557600080fd5b5061019e610535565b6040518082815260200191505060405180910390f35b3480156101c057600080fd5b506101c961053b565b6040518082815260200191505060405180910390f35b3480156101eb57600080fd5b506101f4610541565b005b6101fe6108c3565b005b34801561020c57600080fd5b50610215610f1b565b6040518082815260200191505060405180910390f35b34801561023757600080fd5b50610240610f21565b6040518082815260200191505060405180910390f35b34801561026257600080fd5b5061026b610f27565b005b34801561027957600080fd5b506102826112bd565b6040518082815260200191505060405180910390f35b3480156102a457600080fd5b506102ad6112c3565b604051808260038111156102bd57fe5b815260200191505060405180910390f35b3480156102da57600080fd5b506102e36112d6565b6040518082815260200191505060405180910390f35b34801561030557600080fd5b5061030e6112dc565b6040518082815260200191505060405180910390f35b600960009054906101000a900473ffffffffffffffffffffffffffffffffffffffff1673ffffffffffffffffffffffffffffffffffffffff163373ffffffffffffffffffffffffffffffffffffffff16146103ca576040517f08c379a000000000000000000000000000000000000000000000000000000000815260040180806020018281038252602c81526020018061166b602c913960400191505060405180910390fd5b600060038111156103d757fe5b600960149054906101000a900460ff1660038111156103f257fe5b14610465576040517f08c379a000000000000000000000000000000000000000000000000000000000815260040180806020018281038252601d8152602001807f5468652061756374696f6e20697320616c7265616479206f70656e656400000081525060200191505060405180910390fd5b426007819055506001600960146101000a81548160ff0219169083600381111561048b57fe5b02179055507f268f1153844c3ed9f77b7cabc4fedb9d9994a5361b583f824ffbe523f3739e65600960149054906101000a900460ff16604051808260038111156104d157fe5b815260200191505060405180910390a1565b6000600160008373ffffffffffffffffffffffffffffffffffffffff1673ffffffffffffffffffffffffffffffffffffffff168152602001908152602001600020549050919050565b64e8d4a5100081565b60045481565b60055481565b6001600381111561054e57fe5b600960149054906101000a900460ff16600381111561056957fe5b146105dc576040517f08c379a000000000000000000000000000000000000000000000000000000000815260040180806020018281038252601b8152602001807f54686520636f6e747261637420616c726561647920636c6f736564000000000081525060200191505060405180910390fd5b6008546105f4600754426112e290919063ffffffff16565b11156106de576002600960146101000a81548160ff0219169083600381111561061957fe5b02179055507f268f1153844c3ed9f77b7cabc4fedb9d9994a5361b583f824ffbe523f3739e65600960149054906101000a900460ff166040518082600381111561065f57fe5b815260200191505060405180910390a161068d64e8d4a510006004540260065461132c90919063ffffffff16565b60025411156106cf576106c464e8d4a510006106b66006546002546113b290919063ffffffff16565b6113b290919063ffffffff16565b6005819055506106d9565b6004546005819055505b6108c1565b60006107816004546107736103e86107656107066004546003546112e290919063ffffffff16565b6107576008546107496103e861073b4261072d6008546007546113fc90919063ffffffff16565b6112e290919063ffffffff16565b61132c90919063ffffffff16565b6113b290919063ffffffff16565b61132c90919063ffffffff16565b6113b290919063ffffffff16565b6113fc90919063ffffffff16565b905061079f64e8d4a51000820260065461132c90919063ffffffff16565b6002541015610816576040517f08c379a000000000000000000000000000000000000000000000000000000000815260040180806020018281038252601b8152602001807f4e6f74207468652072696768742074696d6520746f20636c6f7365000000000081525060200191505060405180910390fd5b6002600960146101000a81548160ff0219169083600381111561083557fe5b02179055507f268f1153844c3ed9f77b7cabc4fedb9d9994a5361b583f824ffbe523f3739e65600960149054906101000a900460ff166040518082600381111561087b57fe5b815260200191505060405180910390a16108b964e8d4a510006108ab6006546002546113b290919063ffffffff16565b6113b290919063ffffffff16565b600581905550505b565b600160038111156108d057fe5b600960149054906101000a900460ff1660038111156108eb57fe5b14610941576040517f08c379a000000000000000000000000000000000000000000000000000000000815260040180806020018281038252602a815260200180611697602a913960400191505060405180910390fd5b600854610959600754426112e290919063ffffffff16565b106109cc576040517f08c379a00000000000000000000000000000000000000000000000000000000081526004018080602001828103825260158152602001807f54686520636f6e7472616374206973206f76657220000000000000000000000081525060200191505060405180910390fd5b6000610a6f600454610a616103e8610a536109f46004546003546112e290919063ffffffff16565b610a45600854610a376103e8610a2942610a1b6008546007546113fc90919063ffffffff16565b6112e290919063ffffffff16565b61132c90919063ffffffff16565b6113b290919063ffffffff16565b61132c90919063ffffffff16565b6113b290919063ffffffff16565b6113fc90919063ffffffff16565b9050610a8d64e8d4a51000820260065461132c90919063ffffffff16565b60025410610ae6576040517f08c379a000000000000000000000000000000000000000000000000000000000815260040180806020018281038252603f81526020018061160b603f913960400191505060405180910390fd5b610afb346002546113fc90919063ffffffff16565b600281905550600060405180604001604052803373ffffffffffffffffffffffffffffffffffffffff16815260200134815250908060018154018082558091505060019003906000526020600020906002020160009091909190915060008201518160000160006101000a81548173ffffffffffffffffffffffffffffffffffffffff021916908373ffffffffffffffffffffffffffffffffffffffff160217905550602082015181600101555050610bfc34600160003373ffffffffffffffffffffffffffffffffffffffff1673ffffffffffffffffffffffffffffffffffffffff168152602001908152602001600020546113fc90919063ffffffff16565b600160003373ffffffffffffffffffffffffffffffffffffffff1673ffffffffffffffffffffffffffffffffffffffff168152602001908152602001600020819055507f9e2f6b1e3f3c354bf8e290190cec21c802d02da827cc107d37bc9768ddb036e66002546040518082815260200191505060405180910390a1610c9464e8d4a51000820260065461132c90919063ffffffff16565b60025410610f1857806005819055506000610ce7610cd6610cc564e8d4a5100060055461132c90919063ffffffff16565b60065461132c90919063ffffffff16565b6002546112e290919063ffffffff16565b90506000811115610ea057610d07816002546112e290919063ffffffff16565b600281905550610d2081346112e290919063ffffffff16565b600060016000805490500381548110610d3557fe5b906000526020600020906002020160010181905550610d9c81600160003373ffffffffffffffffffffffffffffffffffffffff1673ffffffffffffffffffffffffffffffffffffffff168152602001908152602001600020546112e290919063ffffffff16565b600160003373ffffffffffffffffffffffffffffffffffffffff1673ffffffffffffffffffffffffffffffffffffffff168152602001908152602001600020819055506002600960146101000a81548160ff02191690836003811115610dfe57fe5b02179055507f268f1153844c3ed9f77b7cabc4fedb9d9994a5361b583f824ffbe523f3739e65600960149054906101000a900460ff1660405180826003811115610e4457fe5b815260200191505060405180910390a13373ffffffffffffffffffffffffffffffffffffffff166108fc829081150290604051600060405180830381858888f19350505050158015610e9a573d6000803e3d6000fd5b50610f16565b6002600960146101000a81548160ff02191690836003811115610ebf57fe5b02179055507f268f1153844c3ed9f77b7cabc4fedb9d9994a5361b583f824ffbe523f3739e65600960149054906101000a900460ff1660405180826003811115610f0557fe5b815260200191505060405180910390a15b505b50565b60065481565b60075481565b60026003811115610f3457fe5b600960149054906101000a900460ff166003811115610f4f57fe5b14610fa5576040517f08c379a000000000000000000000000000000000000000000000000000000000815260040180806020018281038252602e8152602001806116c1602e913960400191505060405180910390fd5b6003600960146101000a81548160ff02191690836003811115610fc457fe5b02179055507f268f1153844c3ed9f77b7cabc4fedb9d9994a5361b583f824ffbe523f3739e65600960149054906101000a900460ff166040518082600381111561100a57fe5b815260200191505060405180910390a16000600654905060005b6000805490508110156111b157600061107d61105064e8d4a5100060055461132c90919063ffffffff16565b6000848154811061105d57fe5b9060005260206000209060020201600101546113b290919063ffffffff16565b9050611094816006546112e290919063ffffffff16565b9250600960009054906101000a900473ffffffffffffffffffffffffffffffffffffffff1673ffffffffffffffffffffffffffffffffffffffff1663a9059cbb600084815481106110e157fe5b906000526020600020906002020160000160009054906101000a900473ffffffffffffffffffffffffffffffffffffffff16836040518363ffffffff1660e01b8152600401808373ffffffffffffffffffffffffffffffffffffffff16815260200182815260200192505050602060405180830381600087803b15801561116757600080fd5b505af115801561117b573d6000803e3d6000fd5b505050506040513d602081101561119157600080fd5b810190808051906020019092919050505050508080600101915050611024565b506000600960009054906101000a900473ffffffffffffffffffffffffffffffffffffffff1690508073ffffffffffffffffffffffffffffffffffffffff166108fc6002549081150290604051600060405180830381858888f19350505050158015611221573d6000803e3d6000fd5b5060008211156112b957600960009054906101000a900473ffffffffffffffffffffffffffffffffffffffff1673ffffffffffffffffffffffffffffffffffffffff166342966c68836040518263ffffffff1660e01b815260040180828152602001915050600060405180830381600087803b1580156112a057600080fd5b505af11580156112b4573d6000803e3d6000fd5b505050505b5050565b60025481565b600960149054906101000a900460ff1681565b60085481565b60035481565b600061132483836040518060400160405280601e81526020017f536166654d6174683a207375627472616374696f6e206f766572666c6f770000815250611484565b905092915050565b60008083141561133f57600090506113ac565b600082840290508284828161135057fe5b04146113a7576040517f08c379a000000000000000000000000000000000000000000000000000000000815260040180806020018281038252602181526020018061164a6021913960400191505060405180910390fd5b809150505b92915050565b60006113f483836040518060400160405280601a81526020017f536166654d6174683a206469766973696f6e206279207a65726f000000000000815250611544565b905092915050565b60008082840190508381101561147a576040517f08c379a000000000000000000000000000000000000000000000000000000000815260040180806020018281038252601b8152602001807f536166654d6174683a206164646974696f6e206f766572666c6f77000000000081525060200191505060405180910390fd5b8091505092915050565b6000838311158290611531576040517f08c379a00000000000000000000000000000000000000000000000000000000081526004018080602001828103825283818151815260200191508051906020019080838360005b838110156114f65780820151818401526020810190506114db565b50505050905090810190601f1680156115235780820380516001836020036101000a031916815260200191505b509250505060405180910390fd5b5060008385039050809150509392505050565b600080831182906115f0576040517f08c379a00000000000000000000000000000000000000000000000000000000081526004018080602001828103825283818151815260200191508051906020019080838360005b838110156115b557808201518184015260208101905061159a565b50505050905090810190601f1680156115e25780820380516001836020036101000a031916815260200191505b509250505060405180910390fd5b5060008385816115fc57fe5b04905080915050939250505056fe5468652064656d616e64206973206c6172676572207468616e20737570706c792c2074686520636f6e74726163742073686f756c6420636c6f7365206e6f77536166654d6174683a206d756c7469706c69636174696f6e206f766572666c6f774f6e6c792074686520746f6b656e20636f6e74726163742063616e206f70656e207468652061756374696f6e54686520636f6e747261637420636c6f736564206f722068617665206e6f74206f70656e6564207965745468652061756374696f6e20616c72656164792072656c6561736573206f72206e6f74206f70656e656420796574a2646970667358221220dbe3f8215eae6c5484b9b21136c7a5ab9fede9c19bd5b2311b8ce91ba4915e5c64736f6c634300060c0033",
  "immutableReferences": {},
  "source": "pragma solidity ^0.6.0;\r\n\r\nimport \"@openzeppelin/contracts/math/SafeMath.sol\";\r\nimport \"./CypherpunkCoin.sol\";\r\n\r\n// import \"./preventReentryTransfer\";\r\n\r\ncontract AuctionAgainsReentry {\r\n    using SafeMath for uint256;\r\n\r\n    struct commitment {\r\n        address bidder;\r\n        uint256 amount;\r\n    }\r\n\r\n    commitment[] private commitments;\r\n    mapping(address => uint256) bidderToAmount;\r\n\r\n    enum State {CREATED, OPENED, CLOSED, RELEASED}\r\n\r\n    // total Ether stored\r\n    uint256 public totalEther;\r\n    uint256 public startPrice;\r\n    uint256 public reservedPrice;\r\n    uint256 public clearingPrice;\r\n    // total Supply of tokens\r\n    uint256 public tokenSupply;\r\n    uint256 public startTime;\r\n    uint256 public timeLimit;\r\n    uint256 public constant MULTIPLIER = 10**12;\r\n\r\n    CypherpunkCoin private token;\r\n    State public currState;\r\n\r\n    constructor(\r\n        uint256 _startPrice,\r\n        uint256 _reservedPrice,\r\n        uint256 _tokenSupply,\r\n        uint256 _timeLimit,\r\n        CypherpunkCoin _token\r\n    ) public {\r\n        startPrice = _startPrice;\r\n        reservedPrice = _reservedPrice;\r\n        tokenSupply = _tokenSupply;\r\n        // conver from minutes to seconds\r\n        timeLimit = _timeLimit * 60;\r\n        token = _token;\r\n        currState = State.CREATED;\r\n    }\r\n\r\n    // open the auction\r\n    function openAuction() external {\r\n        require(\r\n            msg.sender == address(token),\r\n            \"Only the token contract can open the auction\"\r\n        );\r\n        require(currState == State.CREATED, \"The auction is already opened\");\r\n        startTime = now;\r\n        currState = State.OPENED;\r\n        emit changeState(currState);\r\n    }\r\n\r\n    // for a bidder to commit their money\r\n    function commit() external payable {\r\n        require(\r\n            currState == State.OPENED,\r\n            \"The contract closed or have not opened yet\"\r\n        );\r\n        // check whether the time is over\r\n        require(now.sub(startTime) < timeLimit, \"The contract is over \");\r\n\r\n        // calculate the current price at this time\r\n        uint256 curPrice = (startTime.add(timeLimit).sub(now))\r\n            .mul(1000)\r\n            .div(timeLimit)\r\n            .mul(startPrice.sub(reservedPrice))\r\n            .div(1000)\r\n            .add(reservedPrice);\r\n        // check whether the total Demand already exceeds supply\r\n        require(\r\n            totalEther < tokenSupply.mul(curPrice * MULTIPLIER),\r\n            \"The demand is larger than supply, the contract should close now\"\r\n        );\r\n\r\n        totalEther = totalEther.add(msg.value);\r\n        commitments.push(commitment(msg.sender, msg.value));\r\n        bidderToAmount[msg.sender] = bidderToAmount[msg.sender].add(msg.value);\r\n        emit newCommit(totalEther);\r\n        // to check whether the demand is larger than supply\r\n        if (totalEther >= tokenSupply.mul(curPrice * MULTIPLIER)) {\r\n            // avoid the reentry attack by paying the last bidder or not at the commitment stage\r\n            // if it fails, then the commitment is failed and this\r\n            // does not affect other bidders\r\n            clearingPrice = curPrice;\r\n            uint256 ethSendBack = totalEther.sub(\r\n                tokenSupply.mul(clearingPrice.mul(MULTIPLIER))\r\n            );\r\n            if (ethSendBack > 0) {\r\n                totalEther = totalEther.sub(ethSendBack);\r\n                commitments[commitments.length - 1].amount = (msg.value).sub(\r\n                    ethSendBack\r\n                );\r\n                bidderToAmount[msg.sender] = bidderToAmount[msg.sender].sub(\r\n                    ethSendBack\r\n                );\r\n                currState = State.CLOSED;\r\n                emit changeState(currState);\r\n                msg.sender.transfer(ethSendBack);\r\n            } else {\r\n                currState = State.CLOSED;\r\n                emit changeState(currState);\r\n            }\r\n        }\r\n    }\r\n\r\n    // Anyone can close the auction as long as contract state satisfy the requirements\r\n    function closeAuction() public {\r\n        require(currState == State.OPENED, \"The contract already closed\");\r\n        if (now.sub(startTime) > timeLimit) {\r\n            //in case the number of ethers staked already makes the demand exceed supply\r\n            // when price decreases\r\n            currState = State.CLOSED;\r\n            emit changeState(currState);\r\n            if (totalEther > tokenSupply.mul(reservedPrice * MULTIPLIER)) {\r\n                clearingPrice = totalEther.div(tokenSupply).div(MULTIPLIER);\r\n            } else clearingPrice = reservedPrice;\r\n        } else {\r\n            uint256 curPrice = (startTime.add(timeLimit).sub(now))\r\n                .mul(1000)\r\n                .div(timeLimit)\r\n                .mul(startPrice.sub(reservedPrice))\r\n                .div(1000)\r\n                .add(reservedPrice);\r\n            // In case the number of ethers staked already makes the demand exceed supply\r\n            // when price decreases\r\n            require(\r\n                totalEther >= tokenSupply.mul(curPrice * MULTIPLIER),\r\n                \"Not the right time to close\"\r\n            );\r\n            currState = State.CLOSED;\r\n            emit changeState(currState);\r\n            clearingPrice = totalEther.div(tokenSupply).div(MULTIPLIER);\r\n        }\r\n    }\r\n\r\n    // Anyone can trigger the release as long as contract state satisfies the requirements\r\n    function releaseTokens() public {\r\n        require(\r\n            currState == State.CLOSED,\r\n            \"The auction already releases or not opened yet\"\r\n        );\r\n        currState = State.RELEASED;\r\n        emit changeState(currState);\r\n        uint256 remainingToken = tokenSupply;\r\n        for (uint256 i = 0; i < commitments.length; i++) {\r\n            // token to transfer to the bidder\r\n            uint256 tokenTransfer = commitments[i].amount.div(\r\n                clearingPrice.mul(MULTIPLIER)\r\n            );\r\n            remainingToken = tokenSupply.sub(tokenTransfer);\r\n            token.transfer(commitments[i].bidder, tokenTransfer);\r\n        }\r\n        // send money to the token contract\r\n        address payable payableTokenContract = address(uint160(address(token)));\r\n        payableTokenContract.transfer(totalEther);\r\n        if (remainingToken > 0) token.burn(remainingToken);\r\n    }\r\n\r\n    function getCommitments(address bidder) public view returns (uint256) {\r\n        return bidderToAmount[bidder];\r\n    }\r\n\r\n    event changeState(State s);\r\n    event newCommit(uint256 tEther);\r\n}\r\n",
  "sourcePath": "F:/NTU/Courses/Sem 1 2020-2021/Blockchain Technology/CZ4153-Dutch-Contract/contracts/AuctionAgainstReentry.sol",
  "compiler": {
    "name": "solc",
    "version": "0.6.12+commit.27d51765.Emscripten.clang"
  },
  "schemaVersion": "3.3.1",
  "updatedAt": "2020-11-03T15:44:57.149Z",
  "devdoc": {
    "kind": "dev",
    "methods": {},
    "version": 1
  },
  "userdoc": {
    "kind": "user",
    "methods": {},
    "version": 1
  }
}