{
  "contractName": "Auction",
  "abi": [
    {
      "inputs": [
        {
          "internalType": "uint256",
          "name": "_startPrice",
          "type": "uint256"
        },
        {
          "internalType": "uint256",
          "name": "_reservedPrice",
          "type": "uint256"
        },
        {
          "internalType": "uint256",
          "name": "_tokenSupply",
          "type": "uint256"
        },
        {
          "internalType": "uint256",
          "name": "_timeLimit",
          "type": "uint256"
        },
        {
          "internalType": "contract CypherpunkCoin",
          "name": "_token",
          "type": "address"
        }
      ],
      "stateMutability": "nonpayable",
      "type": "constructor"
    },
    {
      "anonymous": false,
      "inputs": [
        {
          "indexed": true,
          "internalType": "bytes32",
          "name": "role",
          "type": "bytes32"
        },
        {
          "indexed": true,
          "internalType": "bytes32",
          "name": "previousAdminRole",
          "type": "bytes32"
        },
        {
          "indexed": true,
          "internalType": "bytes32",
          "name": "newAdminRole",
          "type": "bytes32"
        }
      ],
      "name": "RoleAdminChanged",
      "type": "event"
    },
    {
      "anonymous": false,
      "inputs": [
        {
          "indexed": true,
          "internalType": "bytes32",
          "name": "role",
          "type": "bytes32"
        },
        {
          "indexed": true,
          "internalType": "address",
          "name": "account",
          "type": "address"
        },
        {
          "indexed": true,
          "internalType": "address",
          "name": "sender",
          "type": "address"
        }
      ],
      "name": "RoleGranted",
      "type": "event"
    },
    {
      "anonymous": false,
      "inputs": [
        {
          "indexed": true,
          "internalType": "bytes32",
          "name": "role",
          "type": "bytes32"
        },
        {
          "indexed": true,
          "internalType": "address",
          "name": "account",
          "type": "address"
        },
        {
          "indexed": true,
          "internalType": "address",
          "name": "sender",
          "type": "address"
        }
      ],
      "name": "RoleRevoked",
      "type": "event"
    },
    {
      "anonymous": false,
      "inputs": [
        {
          "indexed": false,
          "internalType": "enum Auction.State",
          "name": "s",
          "type": "uint8"
        }
      ],
      "name": "changeState",
      "type": "event"
    },
    {
      "anonymous": false,
      "inputs": [],
      "name": "closeAndSendBackMoney",
      "type": "event"
    },
    {
      "anonymous": false,
      "inputs": [
        {
          "indexed": false,
          "internalType": "uint256",
          "name": "tEther",
          "type": "uint256"
        }
      ],
      "name": "newCommit",
      "type": "event"
    },
    {
      "inputs": [],
      "name": "DEFAULT_ADMIN_ROLE",
      "outputs": [
        {
          "internalType": "bytes32",
          "name": "",
          "type": "bytes32"
        }
      ],
      "stateMutability": "view",
      "type": "function"
    },
    {
      "inputs": [],
      "name": "MULTIPLIER",
      "outputs": [
        {
          "internalType": "uint256",
          "name": "",
          "type": "uint256"
        }
      ],
      "stateMutability": "view",
      "type": "function"
    },
    {
      "inputs": [],
      "name": "clearingPrice",
      "outputs": [
        {
          "internalType": "uint256",
          "name": "",
          "type": "uint256"
        }
      ],
      "stateMutability": "view",
      "type": "function"
    },
    {
      "inputs": [],
      "name": "currState",
      "outputs": [
        {
          "internalType": "enum Auction.State",
          "name": "",
          "type": "uint8"
        }
      ],
      "stateMutability": "view",
      "type": "function"
    },
    {
      "inputs": [
        {
          "internalType": "bytes32",
          "name": "role",
          "type": "bytes32"
        }
      ],
      "name": "getRoleAdmin",
      "outputs": [
        {
          "internalType": "bytes32",
          "name": "",
          "type": "bytes32"
        }
      ],
      "stateMutability": "view",
      "type": "function"
    },
    {
      "inputs": [
        {
          "internalType": "bytes32",
          "name": "role",
          "type": "bytes32"
        },
        {
          "internalType": "uint256",
          "name": "index",
          "type": "uint256"
        }
      ],
      "name": "getRoleMember",
      "outputs": [
        {
          "internalType": "address",
          "name": "",
          "type": "address"
        }
      ],
      "stateMutability": "view",
      "type": "function"
    },
    {
      "inputs": [
        {
          "internalType": "bytes32",
          "name": "role",
          "type": "bytes32"
        }
      ],
      "name": "getRoleMemberCount",
      "outputs": [
        {
          "internalType": "uint256",
          "name": "",
          "type": "uint256"
        }
      ],
      "stateMutability": "view",
      "type": "function"
    },
    {
      "inputs": [
        {
          "internalType": "bytes32",
          "name": "role",
          "type": "bytes32"
        },
        {
          "internalType": "address",
          "name": "account",
          "type": "address"
        }
      ],
      "name": "grantRole",
      "outputs": [],
      "stateMutability": "nonpayable",
      "type": "function"
    },
    {
      "inputs": [
        {
          "internalType": "bytes32",
          "name": "role",
          "type": "bytes32"
        },
        {
          "internalType": "address",
          "name": "account",
          "type": "address"
        }
      ],
      "name": "hasRole",
      "outputs": [
        {
          "internalType": "bool",
          "name": "",
          "type": "bool"
        }
      ],
      "stateMutability": "view",
      "type": "function"
    },
    {
      "inputs": [
        {
          "internalType": "bytes32",
          "name": "role",
          "type": "bytes32"
        },
        {
          "internalType": "address",
          "name": "account",
          "type": "address"
        }
      ],
      "name": "renounceRole",
      "outputs": [],
      "stateMutability": "nonpayable",
      "type": "function"
    },
    {
      "inputs": [],
      "name": "reservedPrice",
      "outputs": [
        {
          "internalType": "uint256",
          "name": "",
          "type": "uint256"
        }
      ],
      "stateMutability": "view",
      "type": "function"
    },
    {
      "inputs": [
        {
          "internalType": "bytes32",
          "name": "role",
          "type": "bytes32"
        },
        {
          "internalType": "address",
          "name": "account",
          "type": "address"
        }
      ],
      "name": "revokeRole",
      "outputs": [],
      "stateMutability": "nonpayable",
      "type": "function"
    },
    {
      "inputs": [],
      "name": "startPrice",
      "outputs": [
        {
          "internalType": "uint256",
          "name": "",
          "type": "uint256"
        }
      ],
      "stateMutability": "view",
      "type": "function"
    },
    {
      "inputs": [],
      "name": "startTime",
      "outputs": [
        {
          "internalType": "uint256",
          "name": "",
          "type": "uint256"
        }
      ],
      "stateMutability": "view",
      "type": "function"
    },
    {
      "inputs": [],
      "name": "timeLimit",
      "outputs": [
        {
          "internalType": "uint256",
          "name": "",
          "type": "uint256"
        }
      ],
      "stateMutability": "view",
      "type": "function"
    },
    {
      "inputs": [],
      "name": "tokenSupply",
      "outputs": [
        {
          "internalType": "uint256",
          "name": "",
          "type": "uint256"
        }
      ],
      "stateMutability": "view",
      "type": "function"
    },
    {
      "inputs": [],
      "name": "totalEther",
      "outputs": [
        {
          "internalType": "uint256",
          "name": "",
          "type": "uint256"
        }
      ],
      "stateMutability": "view",
      "type": "function"
    },
    {
      "inputs": [],
      "name": "commit",
      "outputs": [],
      "stateMutability": "payable",
      "type": "function"
    },
    {
      "inputs": [],
      "name": "releaseTokens",
      "outputs": [],
      "stateMutability": "nonpayable",
      "type": "function"
    },
    {
      "inputs": [
        {
          "internalType": "address",
          "name": "bidder",
          "type": "address"
        }
      ],
      "name": "getCommitments",
      "outputs": [
        {
          "internalType": "uint256",
          "name": "",
          "type": "uint256"
        }
      ],
      "stateMutability": "view",
      "type": "function"
    },
    {
      "inputs": [],
      "name": "openAuction",
      "outputs": [],
      "stateMutability": "nonpayable",
      "type": "function"
    }
  ],
  "bytecode": "0x608060405234801561001057600080fd5b50604051612155380380612155833981810160405260a081101561003357600080fd5b810190808051906020019092919080519060200190929190805190602001909291908051906020019092919080519060200190929190505050846004819055508360058190555082600781905550603c820260098190555080600a60006101000a81548173ffffffffffffffffffffffffffffffffffffffff021916908373ffffffffffffffffffffffffffffffffffffffff1602179055506000600a60146101000a81548160ff021916908360038111156100eb57fe5b02179055505050505050612051806101046000396000f3fe60806040526004361061012a5760003560e01c806378e97925116100ab578063ae6e22f11161006f578063ae6e22f1146104b3578063afe01043146104de578063c08d1fe514610514578063ca15c8731461053f578063d547741f1461058e578063f1a9af89146105e95761012a565b806378e97925146103665780639010d07c1461039157806391d1485414610400578063a217fddf14610471578063a96f86681461049c5761012a565b80632f2ff15d116100f25780632f2ff15d1461025057806332a0f2d7146102ab57806336568abe146102d65780633c7a3aff146103315780637824407f1461033b5761012a565b806304cb72f91461012f5780630522bf0314610146578063059f8b16146101ab5780631b55d216146101d6578063248a9ca314610201575b600080fd5b34801561013b57600080fd5b50610144610614565b005b34801561015257600080fd5b506101956004803603602081101561016957600080fd5b81019080803573ffffffffffffffffffffffffffffffffffffffff169060200190929190505050610738565b6040518082815260200191505060405180910390f35b3480156101b757600080fd5b506101c0610781565b6040518082815260200191505060405180910390f35b3480156101e257600080fd5b506101eb61078a565b6040518082815260200191505060405180910390f35b34801561020d57600080fd5b5061023a6004803603602081101561022457600080fd5b8101908080359060200190929190505050610790565b6040518082815260200191505060405180910390f35b34801561025c57600080fd5b506102a96004803603604081101561027357600080fd5b8101908080359060200190929190803573ffffffffffffffffffffffffffffffffffffffff1690602001909291905050506107af565b005b3480156102b757600080fd5b506102c0610838565b6040518082815260200191505060405180910390f35b3480156102e257600080fd5b5061032f600480360360408110156102f957600080fd5b8101908080359060200190929190803573ffffffffffffffffffffffffffffffffffffffff16906020019092919050505061083e565b005b6103396108d7565b005b34801561034757600080fd5b50610350610f13565b6040518082815260200191505060405180910390f35b34801561037257600080fd5b5061037b610f19565b6040518082815260200191505060405180910390f35b34801561039d57600080fd5b506103d4600480360360408110156103b457600080fd5b810190808035906020019092919080359060200190929190505050610f1f565b604051808273ffffffffffffffffffffffffffffffffffffffff16815260200191505060405180910390f35b34801561040c57600080fd5b506104596004803603604081101561042357600080fd5b8101908080359060200190929190803573ffffffffffffffffffffffffffffffffffffffff169060200190929190505050610f50565b60405180821515815260200191505060405180910390f35b34801561047d57600080fd5b50610486610f81565b6040518082815260200191505060405180910390f35b3480156104a857600080fd5b506104b1610f88565b005b3480156104bf57600080fd5b506104c86116d0565b6040518082815260200191505060405180910390f35b3480156104ea57600080fd5b506104f36116d6565b6040518082600381111561050357fe5b815260200191505060405180910390f35b34801561052057600080fd5b506105296116e9565b6040518082815260200191505060405180910390f35b34801561054b57600080fd5b506105786004803603602081101561056257600080fd5b81019080803590602001909291905050506116ef565b6040518082815260200191505060405180910390f35b34801561059a57600080fd5b506105e7600480360360408110156105b157600080fd5b8101908080359060200190929190803573ffffffffffffffffffffffffffffffffffffffff169060200190929190505050611715565b005b3480156105f557600080fd5b506105fe61179e565b6040518082815260200191505060405180910390f35b600a60009054906101000a900473ffffffffffffffffffffffffffffffffffffffff1673ffffffffffffffffffffffffffffffffffffffff163373ffffffffffffffffffffffffffffffffffffffff16146106ba576040517f08c379a000000000000000000000000000000000000000000000000000000000815260040180806020018281038252602c815260200180611f93602c913960400191505060405180910390fd5b426008819055506001600a60146101000a81548160ff021916908360038111156106e057fe5b02179055507f268f1153844c3ed9f77b7cabc4fedb9d9994a5361b583f824ffbe523f3739e65600a60149054906101000a900460ff166040518082600381111561072657fe5b815260200191505060405180910390a1565b6000600260008373ffffffffffffffffffffffffffffffffffffffff1673ffffffffffffffffffffffffffffffffffffffff168152602001908152602001600020549050919050565b64e8d4a5100081565b60055481565b6000806000838152602001908152602001600020600201549050919050565b6107d5600080848152602001908152602001600020600201546107d06117a4565b610f50565b61082a576040517f08c379a000000000000000000000000000000000000000000000000000000000815260040180806020018281038252602f815260200180611eeb602f913960400191505060405180910390fd5b61083482826117ac565b5050565b60065481565b6108466117a4565b73ffffffffffffffffffffffffffffffffffffffff168173ffffffffffffffffffffffffffffffffffffffff16146108c9576040517f08c379a000000000000000000000000000000000000000000000000000000000815260040180806020018281038252602f815260200180611fed602f913960400191505060405180910390fd5b6108d3828261183f565b5050565b600160038111156108e457fe5b600a60149054906101000a900460ff1660038111156108ff57fe5b1461097c573373ffffffffffffffffffffffffffffffffffffffff166108fc349081150290604051600060405180830381858888f1935050505015801561094a573d6000803e3d6000fd5b507f1ce64f9268be8b3b69a87fd45b87d775ec9882a8fb13ba0ea9c31995e95be45d60405160405180910390a1610f11565b600954610994600854426118d290919063ffffffff16565b1115610af1576109b864e8d4a510006005540260075461191c90919063ffffffff16565b60035411156109fa576109ef64e8d4a510006109e16007546003546119a290919063ffffffff16565b6119a290919063ffffffff16565b600681905550610a04565b6005546006819055505b6002600a60146101000a81548160ff02191690836003811115610a2357fe5b02179055503373ffffffffffffffffffffffffffffffffffffffff166108fc349081150290604051600060405180830381858888f19350505050158015610a6e573d6000803e3d6000fd5b507f268f1153844c3ed9f77b7cabc4fedb9d9994a5361b583f824ffbe523f3739e65600a60149054906101000a900460ff1660405180826003811115610ab057fe5b815260200191505060405180910390a17f1ce64f9268be8b3b69a87fd45b87d775ec9882a8fb13ba0ea9c31995e95be45d60405160405180910390a1610f11565b6000610b94600554610b866103e8610b78610b196005546004546118d290919063ffffffff16565b610b6a600954610b5c6103e8610b4e42610b406009546008546119ec90919063ffffffff16565b6118d290919063ffffffff16565b61191c90919063ffffffff16565b6119a290919063ffffffff16565b61191c90919063ffffffff16565b6119a290919063ffffffff16565b6119ec90919063ffffffff16565b9050610bb264e8d4a51000820260075461191c90919063ffffffff16565b60035410610cdc57610be864e8d4a51000610bda6007546003546119a290919063ffffffff16565b6119a290919063ffffffff16565b6006819055506002600a60146101000a81548160ff02191690836003811115610c0d57fe5b02179055503373ffffffffffffffffffffffffffffffffffffffff166108fc349081150290604051600060405180830381858888f19350505050158015610c58573d6000803e3d6000fd5b507f268f1153844c3ed9f77b7cabc4fedb9d9994a5361b583f824ffbe523f3739e65600a60149054906101000a900460ff1660405180826003811115610c9a57fe5b815260200191505060405180910390a17f1ce64f9268be8b3b69a87fd45b87d775ec9882a8fb13ba0ea9c31995e95be45d60405160405180910390a150610f11565b610cf1346003546119ec90919063ffffffff16565b600381905550600160405180604001604052803373ffffffffffffffffffffffffffffffffffffffff16815260200134815250908060018154018082558091505060019003906000526020600020906002020160009091909190915060008201518160000160006101000a81548173ffffffffffffffffffffffffffffffffffffffff021916908373ffffffffffffffffffffffffffffffffffffffff160217905550602082015181600101555050610df234600260003373ffffffffffffffffffffffffffffffffffffffff1673ffffffffffffffffffffffffffffffffffffffff168152602001908152602001600020546119ec90919063ffffffff16565b600260003373ffffffffffffffffffffffffffffffffffffffff1673ffffffffffffffffffffffffffffffffffffffff168152602001908152602001600020819055507f9e2f6b1e3f3c354bf8e290190cec21c802d02da827cc107d37bc9768ddb036e66003546040518082815260200191505060405180910390a1610e8a64e8d4a51000820260075461191c90919063ffffffff16565b60035410610f0f57806006819055506002600a60146101000a81548160ff02191690836003811115610eb857fe5b02179055507f268f1153844c3ed9f77b7cabc4fedb9d9994a5361b583f824ffbe523f3739e65600a60149054906101000a900460ff1660405180826003811115610efe57fe5b815260200191505060405180910390a15b505b565b60075481565b60085481565b6000610f4882600080868152602001908152602001600020600001611a7490919063ffffffff16565b905092915050565b6000610f7982600080868152602001908152602001600020600001611a8e90919063ffffffff16565b905092915050565b6000801b81565b600380811115610f9457fe5b600a60149054906101000a900460ff166003811115610faf57fe5b14158015610fe3575060006003811115610fc557fe5b600a60149054906101000a900460ff166003811115610fe057fe5b14155b611038576040517f08c379a000000000000000000000000000000000000000000000000000000000815260040180806020018281038252602e815260200180611fbf602e913960400191505060405180910390fd5b6001600381111561104557fe5b600a60149054906101000a900460ff16600381111561106057fe5b14156112be5760095461107e600854426118d290919063ffffffff16565b10156111dd5760006111276005546111196103e861110b6110ac6005546004546118d290919063ffffffff16565b6110fd6009546110ef6103e86110e1426110d36009546008546119ec90919063ffffffff16565b6118d290919063ffffffff16565b61191c90919063ffffffff16565b6119a290919063ffffffff16565b61191c90919063ffffffff16565b6119a290919063ffffffff16565b6119ec90919063ffffffff16565b905061114564e8d4a51000820260075461191c90919063ffffffff16565b600354106111865761117b64e8d4a5100061116d6007546003546119a290919063ffffffff16565b6119a290919063ffffffff16565b6006819055506111d7565b6040517f08c379a0000000000000000000000000000000000000000000000000000000008152600401808060200182810382526028815260200180611f4a6028913960400191505060405180910390fd5b50611248565b6111fb64e8d4a510006005540260075461191c90919063ffffffff16565b600354111561123d5761123264e8d4a510006112246007546003546119a290919063ffffffff16565b6119a290919063ffffffff16565b600681905550611247565b6005546006819055505b5b6002600a60146101000a81548160ff0219169083600381111561126757fe5b02179055507f268f1153844c3ed9f77b7cabc4fedb9d9994a5361b583f824ffbe523f3739e65600a60149054906101000a900460ff16604051808260038111156112ad57fe5b815260200191505060405180910390a15b600060035490506000600754905060005b60018054905081101561155057600061131864e8d4a5100060065402600184815481106112f857fe5b9060005260206000209060020201600101546119a290919063ffffffff16565b90508281111561141f5760006001838154811061133157fe5b906000526020600020906002020160000160009054906101000a900473ffffffffffffffffffffffffffffffffffffffff16905083915060006113b661138964e8d4a51000600654028561191c90919063ffffffff16565b6001868154811061139657fe5b9060005260206000209060020201600101546118d290919063ffffffff16565b90508173ffffffffffffffffffffffffffffffffffffffff166108fc829081150290604051600060405180830381858888f193505050501580156113fe573d6000803e3d6000fd5b5061141281876118d290919063ffffffff16565b9550600094505050611435565b61143281846118d290919063ffffffff16565b92505b600a60009054906101000a900473ffffffffffffffffffffffffffffffffffffffff1673ffffffffffffffffffffffffffffffffffffffff1663a9059cbb6001848154811061148057fe5b906000526020600020906002020160000160009054906101000a900473ffffffffffffffffffffffffffffffffffffffff16836040518363ffffffff1660e01b8152600401808373ffffffffffffffffffffffffffffffffffffffff16815260200182815260200192505050602060405180830381600087803b15801561150657600080fd5b505af115801561151a573d6000803e3d6000fd5b505050506040513d602081101561153057600080fd5b8101908080519060200190929190505050505080806001019150506112cf565b506000600a60009054906101000a900473ffffffffffffffffffffffffffffffffffffffff1690508073ffffffffffffffffffffffffffffffffffffffff166108fc849081150290604051600060405180830381858888f193505050501580156115be573d6000803e3d6000fd5b50600082111561165657600a60009054906101000a900473ffffffffffffffffffffffffffffffffffffffff1673ffffffffffffffffffffffffffffffffffffffff166342966c68836040518263ffffffff1660e01b815260040180828152602001915050600060405180830381600087803b15801561163d57600080fd5b505af1158015611651573d6000803e3d6000fd5b505050505b6003600a60146101000a81548160ff0219169083600381111561167557fe5b02179055507f268f1153844c3ed9f77b7cabc4fedb9d9994a5361b583f824ffbe523f3739e65600a60149054906101000a900460ff16604051808260038111156116bb57fe5b815260200191505060405180910390a1505050565b60035481565b600a60149054906101000a900460ff1681565b60095481565b600061170e600080848152602001908152602001600020600001611abe565b9050919050565b61173b600080848152602001908152602001600020600201546117366117a4565b610f50565b611790576040517f08c379a0000000000000000000000000000000000000000000000000000000008152600401808060200182810382526030815260200180611f1a6030913960400191505060405180910390fd5b61179a828261183f565b5050565b60045481565b600033905090565b6117d381600080858152602001908152602001600020600001611ad390919063ffffffff16565b1561183b576117e06117a4565b73ffffffffffffffffffffffffffffffffffffffff168173ffffffffffffffffffffffffffffffffffffffff16837f2f8788117e7eff1d82e926ec794901d17c78024a50270940304540a733656f0d60405160405180910390a45b5050565b61186681600080858152602001908152602001600020600001611b0390919063ffffffff16565b156118ce576118736117a4565b73ffffffffffffffffffffffffffffffffffffffff168173ffffffffffffffffffffffffffffffffffffffff16837ff6391f5c32d9c69d2a47ea670b442974b53935d1edc7fd64eb21e047a839171b60405160405180910390a45b5050565b600061191483836040518060400160405280601e81526020017f536166654d6174683a207375627472616374696f6e206f766572666c6f770000815250611b33565b905092915050565b60008083141561192f576000905061199c565b600082840290508284828161194057fe5b0414611997576040517f08c379a0000000000000000000000000000000000000000000000000000000008152600401808060200182810382526021815260200180611f726021913960400191505060405180910390fd5b809150505b92915050565b60006119e483836040518060400160405280601a81526020017f536166654d6174683a206469766973696f6e206279207a65726f000000000000815250611bf3565b905092915050565b600080828401905083811015611a6a576040517f08c379a000000000000000000000000000000000000000000000000000000000815260040180806020018281038252601b8152602001807f536166654d6174683a206164646974696f6e206f766572666c6f77000000000081525060200191505060405180910390fd5b8091505092915050565b6000611a838360000183611cb9565b60001c905092915050565b6000611ab6836000018373ffffffffffffffffffffffffffffffffffffffff1660001b611d3c565b905092915050565b6000611acc82600001611d5f565b9050919050565b6000611afb836000018373ffffffffffffffffffffffffffffffffffffffff1660001b611d70565b905092915050565b6000611b2b836000018373ffffffffffffffffffffffffffffffffffffffff1660001b611de0565b905092915050565b6000838311158290611be0576040517f08c379a00000000000000000000000000000000000000000000000000000000081526004018080602001828103825283818151815260200191508051906020019080838360005b83811015611ba5578082015181840152602081019050611b8a565b50505050905090810190601f168015611bd25780820380516001836020036101000a031916815260200191505b509250505060405180910390fd5b5060008385039050809150509392505050565b60008083118290611c9f576040517f08c379a00000000000000000000000000000000000000000000000000000000081526004018080602001828103825283818151815260200191508051906020019080838360005b83811015611c64578082015181840152602081019050611c49565b50505050905090810190601f168015611c915780820380516001836020036101000a031916815260200191505b509250505060405180910390fd5b506000838581611cab57fe5b049050809150509392505050565b600081836000018054905011611d1a576040517f08c379a0000000000000000000000000000000000000000000000000000000008152600401808060200182810382526022815260200180611ec96022913960400191505060405180910390fd5b826000018281548110611d2957fe5b9060005260206000200154905092915050565b600080836001016000848152602001908152602001600020541415905092915050565b600081600001805490509050919050565b6000611d7c8383611d3c565b611dd5578260000182908060018154018082558091505060019003906000526020600020016000909190919091505582600001805490508360010160008481526020019081526020016000208190555060019050611dda565b600090505b92915050565b60008083600101600084815260200190815260200160002054905060008114611ebc5760006001820390506000600186600001805490500390506000866000018281548110611e2b57fe5b9060005260206000200154905080876000018481548110611e4857fe5b9060005260206000200181905550600183018760010160008381526020019081526020016000208190555086600001805480611e8057fe5b60019003818190600052602060002001600090559055866001016000878152602001908152602001600020600090556001945050505050611ec2565b60009150505b9291505056fe456e756d657261626c655365743a20696e646578206f7574206f6620626f756e6473416363657373436f6e74726f6c3a2073656e646572206d75737420626520616e2061646d696e20746f206772616e74416363657373436f6e74726f6c3a2073656e646572206d75737420626520616e2061646d696e20746f207265766f6b655468652061756374696f6e206973207374696c6c206f70656e65642c20706c656173652077616974536166654d6174683a206d756c7469706c69636174696f6e206f766572666c6f774f6e6c792074686520746f6b656e20636f6e74726163742063616e206f70656e207468652061756374696f6e5468652061756374696f6e20616c72656164792072656c6561736573206f72206e6f74206f70656e656420796574416363657373436f6e74726f6c3a2063616e206f6e6c792072656e6f756e636520726f6c657320666f722073656c66a2646970667358221220d0c0d9b0a4acd6f2527a7cfd1e59134af80b01a28e1617042b3ccb87f11e4fa464736f6c634300060c0033",
  "immutableReferences": {},
  "source": "pragma solidity ^0.6.0;\r\n\r\nimport \"@openzeppelin/contracts/math/SafeMath.sol\";\r\nimport \"./CypherpunkCoin.sol\";\r\nimport \"@openzeppelin/contracts/access/AccessControl.sol\";\r\n\r\ncontract Auction is AccessControl {\r\n    using SafeMath for uint256;\r\n\r\n    struct commitment {\r\n        address bidder;\r\n        uint256 amount;\r\n    }\r\n\r\n    commitment[] private commitments;\r\n    mapping(address => uint256) bidderToAmount;\r\n\r\n    enum State {CREATED, OPENED, CLOSED, RELEASED}\r\n\r\n    // total Ether stored\r\n    uint256 public totalEther;\r\n    uint256 public startPrice;\r\n    uint256 public reservedPrice;\r\n    uint256 public clearingPrice;\r\n    // total Supply of tokens\r\n    uint256 public tokenSupply;\r\n    uint256 public startTime;\r\n    uint256 public timeLimit;\r\n    uint256 public constant MULTIPLIER = 10**12;\r\n\r\n    CypherpunkCoin private token;\r\n    State public currState;\r\n\r\n    constructor(\r\n        uint256 _startPrice,\r\n        uint256 _reservedPrice,\r\n        uint256 _tokenSupply,\r\n        uint256 _timeLimit,\r\n        CypherpunkCoin _token\r\n    ) public {\r\n        startPrice = _startPrice;\r\n        reservedPrice = _reservedPrice;\r\n        tokenSupply = _tokenSupply;\r\n        // conver from minutes to seconds\r\n        timeLimit = _timeLimit * 60;\r\n        token = _token;\r\n        currState = State.CREATED;\r\n    }\r\n\r\n    function commit() external payable {\r\n        // Auction already closes or does not open yet, send back the money to user\r\n        if (currState != State.OPENED) {\r\n            msg.sender.transfer(msg.value);\r\n            emit closeAndSendBackMoney();\r\n            return;\r\n        }\r\n        // if the time is over but auction does not close, close it at the exact clearing price\r\n        if (now.sub(startTime) > timeLimit) {\r\n            // in case the number of ethers staked already makes the demand exceed supply\r\n            // when price decreases\r\n            if (totalEther > tokenSupply.mul(reservedPrice * MULTIPLIER)) {\r\n                clearingPrice = totalEther.div(tokenSupply).div(MULTIPLIER);\r\n            } else clearingPrice = reservedPrice;\r\n            currState = State.CLOSED;\r\n            // send back money to bidder\r\n            msg.sender.transfer(msg.value);\r\n            emit changeState(currState);\r\n            emit closeAndSendBackMoney();\r\n            return;\r\n        }\r\n        // calculate the current price at this time\r\n        uint256 curPrice = (startTime.add(timeLimit).sub(now))\r\n            .mul(1000)\r\n            .div(timeLimit)\r\n            .mul(startPrice.sub(reservedPrice))\r\n            .div(1000)\r\n            .add(reservedPrice);\r\n        // in case the existing number of ethers comitted already makes the demand exceed supply\r\n        // when price decreases\r\n        if (totalEther >= tokenSupply.mul(curPrice * MULTIPLIER)) {\r\n            clearingPrice = totalEther.div(tokenSupply).div(MULTIPLIER);\r\n            currState = State.CLOSED;\r\n            msg.sender.transfer(msg.value);\r\n            emit changeState(currState);\r\n            emit closeAndSendBackMoney();\r\n            return;\r\n        }\r\n\r\n        totalEther = totalEther.add(msg.value);\r\n        commitments.push(commitment(msg.sender, msg.value));\r\n        bidderToAmount[msg.sender] = bidderToAmount[msg.sender].add(msg.value);\r\n        emit newCommit(totalEther);\r\n        // to check whether the demand is larger than supply\r\n        if (totalEther >= tokenSupply.mul(curPrice * MULTIPLIER)) {\r\n            clearingPrice = curPrice;\r\n            currState = State.CLOSED;\r\n            emit changeState(currState);\r\n        }\r\n    }\r\n\r\n    modifier checkRelease() {\r\n        require(\r\n            currState != State.RELEASED && currState != State.CREATED,\r\n            \"The auction already releases or not opened yet\"\r\n        );\r\n\r\n        if (currState == State.OPENED) {\r\n            // determine the exact clearing price\r\n            if (now.sub(startTime) < timeLimit) {\r\n                uint256 curPrice = (startTime.add(timeLimit).sub(now))\r\n                    .mul(1000)\r\n                    .div(timeLimit)\r\n                    .mul(startPrice.sub(reservedPrice))\r\n                    .div(1000)\r\n                    .add(reservedPrice);\r\n                // in case the existing number of ethers comitted already makes the demand exceed supply\r\n                // when price decreases\r\n                if (totalEther >= tokenSupply.mul(curPrice * MULTIPLIER))\r\n                    clearingPrice = totalEther.div(tokenSupply).div(MULTIPLIER);\r\n                else revert(\"The auction is still opened, please wait\");\r\n            } else {\r\n                if (totalEther > tokenSupply.mul(reservedPrice * MULTIPLIER))\r\n                    clearingPrice = totalEther.div(tokenSupply).div(MULTIPLIER);\r\n                else clearingPrice = reservedPrice;\r\n            }\r\n            currState = State.CLOSED;\r\n            emit changeState(currState);\r\n        }\r\n        _;\r\n    }\r\n\r\n    // Anyone can trigger the release as long as it satisfies the requirements\r\n    function releaseTokens() external checkRelease() {\r\n        uint256 ethSendToTokenContract = totalEther;\r\n        uint256 remainingToken = tokenSupply;\r\n        for (uint256 i = 0; i < commitments.length; i++) {\r\n            // if (remainingToken == 0) break;\r\n            // token to transfer to the bidder\r\n            uint256 tokenTransfer = commitments[i].amount.div(\r\n                clearingPrice * MULTIPLIER\r\n            );\r\n            if (tokenTransfer > remainingToken) {\r\n                //send back redundant ether\r\n                address payable payableLastBidder = address(\r\n                    uint160(commitments[i].bidder)\r\n                );\r\n                tokenTransfer = remainingToken;\r\n                uint256 ethSendToPayableLastBidder = commitments[i].amount.sub(\r\n                    tokenTransfer.mul(clearingPrice * MULTIPLIER)\r\n                );\r\n                payableLastBidder.transfer(ethSendToPayableLastBidder);\r\n                ethSendToTokenContract = ethSendToTokenContract.sub(\r\n                    ethSendToPayableLastBidder\r\n                );\r\n                remainingToken = 0;\r\n            } else remainingToken = remainingToken.sub(tokenTransfer);\r\n            token.transfer(commitments[i].bidder, tokenTransfer);\r\n        }\r\n        address payable payableTokenContract = address(uint160(address(token)));\r\n        payableTokenContract.transfer(ethSendToTokenContract);\r\n        if (remainingToken > 0) token.burn(remainingToken);\r\n        currState = State.RELEASED;\r\n        emit changeState(currState);\r\n    }\r\n\r\n    function getCommitments(address bidder) public view returns (uint256) {\r\n        return bidderToAmount[bidder];\r\n    }\r\n\r\n    function openAuction() external {\r\n        require(\r\n            msg.sender == address(token),\r\n            \"Only the token contract can open the auction\"\r\n        );\r\n        startTime = now;\r\n        currState = State.OPENED;\r\n        emit changeState(currState);\r\n    }\r\n\r\n    event changeState(State s);\r\n    event closeAndSendBackMoney();\r\n    event newCommit(uint256 tEther);\r\n}\r\n",
  "sourcePath": "C:\\Users\\tanyi\\OneDrive\\Documents\\GitHub\\CZ4153-Dutch-Contract\\contracts\\Auction.sol",
  "compiler": {
    "name": "solc",
    "version": "0.6.12+commit.27d51765.Emscripten.clang"
  },
  "schemaVersion": "3.3.1",
  "updatedAt": "2020-11-02T18:47:58.410Z",
  "devdoc": {
    "kind": "dev",
    "methods": {
      "getRoleAdmin(bytes32)": {
        "details": "Returns the admin role that controls `role`. See {grantRole} and {revokeRole}. To change a role's admin, use {_setRoleAdmin}."
      },
      "getRoleMember(bytes32,uint256)": {
        "details": "Returns one of the accounts that have `role`. `index` must be a value between 0 and {getRoleMemberCount}, non-inclusive. Role bearers are not sorted in any particular way, and their ordering may change at any point. WARNING: When using {getRoleMember} and {getRoleMemberCount}, make sure you perform all queries on the same block. See the following https://forum.openzeppelin.com/t/iterating-over-elements-on-enumerableset-in-openzeppelin-contracts/2296[forum post] for more information."
      },
      "getRoleMemberCount(bytes32)": {
        "details": "Returns the number of accounts that have `role`. Can be used together with {getRoleMember} to enumerate all bearers of a role."
      },
      "grantRole(bytes32,address)": {
        "details": "Grants `role` to `account`. If `account` had not been already granted `role`, emits a {RoleGranted} event. Requirements: - the caller must have ``role``'s admin role."
      },
      "hasRole(bytes32,address)": {
        "details": "Returns `true` if `account` has been granted `role`."
      },
      "renounceRole(bytes32,address)": {
        "details": "Revokes `role` from the calling account. Roles are often managed via {grantRole} and {revokeRole}: this function's purpose is to provide a mechanism for accounts to lose their privileges if they are compromised (such as when a trusted device is misplaced). If the calling account had been granted `role`, emits a {RoleRevoked} event. Requirements: - the caller must be `account`."
      },
      "revokeRole(bytes32,address)": {
        "details": "Revokes `role` from `account`. If `account` had been granted `role`, emits a {RoleRevoked} event. Requirements: - the caller must have ``role``'s admin role."
      }
    },
    "version": 1
  },
  "userdoc": {
    "kind": "user",
    "methods": {},
    "version": 1
  }
}