{
  "contractName": "CypherpunkCoin",
  "abi": [
    {
      "inputs": [
        {
          "internalType": "string",
          "name": "name",
          "type": "string"
        },
        {
          "internalType": "string",
          "name": "symbol",
          "type": "string"
        }
      ],
      "stateMutability": "nonpayable",
      "type": "constructor"
    },
    {
      "anonymous": false,
      "inputs": [
        {
          "indexed": true,
          "internalType": "address",
          "name": "owner",
          "type": "address"
        },
        {
          "indexed": true,
          "internalType": "address",
          "name": "spender",
          "type": "address"
        },
        {
          "indexed": false,
          "internalType": "uint256",
          "name": "value",
          "type": "uint256"
        }
      ],
      "name": "Approval",
      "type": "event"
    },
    {
      "anonymous": false,
      "inputs": [
        {
          "indexed": true,
          "internalType": "bytes32",
          "name": "role",
          "type": "bytes32"
        },
        {
          "indexed": true,
          "internalType": "bytes32",
          "name": "previousAdminRole",
          "type": "bytes32"
        },
        {
          "indexed": true,
          "internalType": "bytes32",
          "name": "newAdminRole",
          "type": "bytes32"
        }
      ],
      "name": "RoleAdminChanged",
      "type": "event"
    },
    {
      "anonymous": false,
      "inputs": [
        {
          "indexed": true,
          "internalType": "bytes32",
          "name": "role",
          "type": "bytes32"
        },
        {
          "indexed": true,
          "internalType": "address",
          "name": "account",
          "type": "address"
        },
        {
          "indexed": true,
          "internalType": "address",
          "name": "sender",
          "type": "address"
        }
      ],
      "name": "RoleGranted",
      "type": "event"
    },
    {
      "anonymous": false,
      "inputs": [
        {
          "indexed": true,
          "internalType": "bytes32",
          "name": "role",
          "type": "bytes32"
        },
        {
          "indexed": true,
          "internalType": "address",
          "name": "account",
          "type": "address"
        },
        {
          "indexed": true,
          "internalType": "address",
          "name": "sender",
          "type": "address"
        }
      ],
      "name": "RoleRevoked",
      "type": "event"
    },
    {
      "anonymous": false,
      "inputs": [
        {
          "indexed": true,
          "internalType": "address",
          "name": "from",
          "type": "address"
        },
        {
          "indexed": true,
          "internalType": "address",
          "name": "to",
          "type": "address"
        },
        {
          "indexed": false,
          "internalType": "uint256",
          "name": "value",
          "type": "uint256"
        }
      ],
      "name": "Transfer",
      "type": "event"
    },
    {
      "inputs": [],
      "name": "AUCTION_CREATOR_ROLE",
      "outputs": [
        {
          "internalType": "bytes32",
          "name": "",
          "type": "bytes32"
        }
      ],
      "stateMutability": "view",
      "type": "function"
    },
    {
      "inputs": [],
      "name": "DEFAULT_ADMIN_ROLE",
      "outputs": [
        {
          "internalType": "bytes32",
          "name": "",
          "type": "bytes32"
        }
      ],
      "stateMutability": "view",
      "type": "function"
    },
    {
      "inputs": [
        {
          "internalType": "address",
          "name": "owner",
          "type": "address"
        },
        {
          "internalType": "address",
          "name": "spender",
          "type": "address"
        }
      ],
      "name": "allowance",
      "outputs": [
        {
          "internalType": "uint256",
          "name": "",
          "type": "uint256"
        }
      ],
      "stateMutability": "view",
      "type": "function"
    },
    {
      "inputs": [
        {
          "internalType": "address",
          "name": "spender",
          "type": "address"
        },
        {
          "internalType": "uint256",
          "name": "amount",
          "type": "uint256"
        }
      ],
      "name": "approve",
      "outputs": [
        {
          "internalType": "bool",
          "name": "",
          "type": "bool"
        }
      ],
      "stateMutability": "nonpayable",
      "type": "function"
    },
    {
      "inputs": [],
      "name": "auctionAddress",
      "outputs": [
        {
          "internalType": "address",
          "name": "",
          "type": "address"
        }
      ],
      "stateMutability": "view",
      "type": "function"
    },
    {
      "inputs": [
        {
          "internalType": "address",
          "name": "account",
          "type": "address"
        }
      ],
      "name": "balanceOf",
      "outputs": [
        {
          "internalType": "uint256",
          "name": "",
          "type": "uint256"
        }
      ],
      "stateMutability": "view",
      "type": "function"
    },
    {
      "inputs": [
        {
          "internalType": "uint256",
          "name": "amount",
          "type": "uint256"
        }
      ],
      "name": "burn",
      "outputs": [],
      "stateMutability": "nonpayable",
      "type": "function"
    },
    {
      "inputs": [
        {
          "internalType": "address",
          "name": "account",
          "type": "address"
        },
        {
          "internalType": "uint256",
          "name": "amount",
          "type": "uint256"
        }
      ],
      "name": "burnFrom",
      "outputs": [],
      "stateMutability": "nonpayable",
      "type": "function"
    },
    {
      "inputs": [],
      "name": "currAuction",
      "outputs": [
        {
          "internalType": "contract Auction",
          "name": "",
          "type": "address"
        }
      ],
      "stateMutability": "view",
      "type": "function"
    },
    {
      "inputs": [],
      "name": "decimals",
      "outputs": [
        {
          "internalType": "uint8",
          "name": "",
          "type": "uint8"
        }
      ],
      "stateMutability": "view",
      "type": "function"
    },
    {
      "inputs": [
        {
          "internalType": "address",
          "name": "spender",
          "type": "address"
        },
        {
          "internalType": "uint256",
          "name": "subtractedValue",
          "type": "uint256"
        }
      ],
      "name": "decreaseAllowance",
      "outputs": [
        {
          "internalType": "bool",
          "name": "",
          "type": "bool"
        }
      ],
      "stateMutability": "nonpayable",
      "type": "function"
    },
    {
      "inputs": [
        {
          "internalType": "bytes32",
          "name": "role",
          "type": "bytes32"
        }
      ],
      "name": "getRoleAdmin",
      "outputs": [
        {
          "internalType": "bytes32",
          "name": "",
          "type": "bytes32"
        }
      ],
      "stateMutability": "view",
      "type": "function"
    },
    {
      "inputs": [
        {
          "internalType": "bytes32",
          "name": "role",
          "type": "bytes32"
        },
        {
          "internalType": "uint256",
          "name": "index",
          "type": "uint256"
        }
      ],
      "name": "getRoleMember",
      "outputs": [
        {
          "internalType": "address",
          "name": "",
          "type": "address"
        }
      ],
      "stateMutability": "view",
      "type": "function"
    },
    {
      "inputs": [
        {
          "internalType": "bytes32",
          "name": "role",
          "type": "bytes32"
        }
      ],
      "name": "getRoleMemberCount",
      "outputs": [
        {
          "internalType": "uint256",
          "name": "",
          "type": "uint256"
        }
      ],
      "stateMutability": "view",
      "type": "function"
    },
    {
      "inputs": [
        {
          "internalType": "bytes32",
          "name": "role",
          "type": "bytes32"
        },
        {
          "internalType": "address",
          "name": "account",
          "type": "address"
        }
      ],
      "name": "grantRole",
      "outputs": [],
      "stateMutability": "nonpayable",
      "type": "function"
    },
    {
      "inputs": [
        {
          "internalType": "bytes32",
          "name": "role",
          "type": "bytes32"
        },
        {
          "internalType": "address",
          "name": "account",
          "type": "address"
        }
      ],
      "name": "hasRole",
      "outputs": [
        {
          "internalType": "bool",
          "name": "",
          "type": "bool"
        }
      ],
      "stateMutability": "view",
      "type": "function"
    },
    {
      "inputs": [
        {
          "internalType": "address",
          "name": "spender",
          "type": "address"
        },
        {
          "internalType": "uint256",
          "name": "addedValue",
          "type": "uint256"
        }
      ],
      "name": "increaseAllowance",
      "outputs": [
        {
          "internalType": "bool",
          "name": "",
          "type": "bool"
        }
      ],
      "stateMutability": "nonpayable",
      "type": "function"
    },
    {
      "inputs": [],
      "name": "name",
      "outputs": [
        {
          "internalType": "string",
          "name": "",
          "type": "string"
        }
      ],
      "stateMutability": "view",
      "type": "function"
    },
    {
      "inputs": [
        {
          "internalType": "bytes32",
          "name": "role",
          "type": "bytes32"
        },
        {
          "internalType": "address",
          "name": "account",
          "type": "address"
        }
      ],
      "name": "renounceRole",
      "outputs": [],
      "stateMutability": "nonpayable",
      "type": "function"
    },
    {
      "inputs": [
        {
          "internalType": "bytes32",
          "name": "role",
          "type": "bytes32"
        },
        {
          "internalType": "address",
          "name": "account",
          "type": "address"
        }
      ],
      "name": "revokeRole",
      "outputs": [],
      "stateMutability": "nonpayable",
      "type": "function"
    },
    {
      "inputs": [],
      "name": "symbol",
      "outputs": [
        {
          "internalType": "string",
          "name": "",
          "type": "string"
        }
      ],
      "stateMutability": "view",
      "type": "function"
    },
    {
      "inputs": [],
      "name": "totalSupply",
      "outputs": [
        {
          "internalType": "uint256",
          "name": "",
          "type": "uint256"
        }
      ],
      "stateMutability": "view",
      "type": "function"
    },
    {
      "inputs": [
        {
          "internalType": "address",
          "name": "recipient",
          "type": "address"
        },
        {
          "internalType": "uint256",
          "name": "amount",
          "type": "uint256"
        }
      ],
      "name": "transfer",
      "outputs": [
        {
          "internalType": "bool",
          "name": "",
          "type": "bool"
        }
      ],
      "stateMutability": "nonpayable",
      "type": "function"
    },
    {
      "inputs": [
        {
          "internalType": "address",
          "name": "sender",
          "type": "address"
        },
        {
          "internalType": "address",
          "name": "recipient",
          "type": "address"
        },
        {
          "internalType": "uint256",
          "name": "amount",
          "type": "uint256"
        }
      ],
      "name": "transferFrom",
      "outputs": [
        {
          "internalType": "bool",
          "name": "",
          "type": "bool"
        }
      ],
      "stateMutability": "nonpayable",
      "type": "function"
    },
    {
      "stateMutability": "payable",
      "type": "receive"
    },
    {
      "inputs": [
        {
          "internalType": "uint256",
          "name": "_startPrice",
          "type": "uint256"
        },
        {
          "internalType": "uint256",
          "name": "_reservedPrice",
          "type": "uint256"
        },
        {
          "internalType": "uint256",
          "name": "_supply",
          "type": "uint256"
        }
      ],
      "name": "createAuction",
      "outputs": [
        {
          "internalType": "contract Auction",
          "name": "",
          "type": "address"
        }
      ],
      "stateMutability": "nonpayable",
      "type": "function"
    },
    {
      "inputs": [],
      "name": "openCurrAuction",
      "outputs": [],
      "stateMutability": "nonpayable",
      "type": "function"
    }
  ],
  "bytecode": "0x60806040523480156200001157600080fd5b5060405162004e5938038062004e59833981810160405260408110156200003757600080fd5b81019080805160405193929190846401000000008211156200005857600080fd5b838201915060208201858111156200006f57600080fd5b82518660018202830111640100000000821117156200008d57600080fd5b8083526020830192505050908051906020019080838360005b83811015620000c3578082015181840152602081019050620000a6565b50505050905090810190601f168015620000f15780820380516001836020036101000a031916815260200191505b50604052602001805160405193929190846401000000008211156200011557600080fd5b838201915060208201858111156200012c57600080fd5b82518660018202830111640100000000821117156200014a57600080fd5b8083526020830192505050908051906020019080838360005b838110156200018057808201518184015260208101905062000163565b50505050905090810190601f168015620001ae5780820380516001836020036101000a031916815260200191505b5060405250505081818160049080519060200190620001cf9291906200066e565b508060059080519060200190620001e89291906200066e565b506012600660006101000a81548160ff021916908360ff16021790555050506200021c6000801b336200026a60201b60201c565b6200024e7fcfba8be83af357df8defaa5e92d4092d7061b755093a8b7649b2afc2929f5c65336200026a60201b60201c565b62000262336103e86200028060201b60201c565b505062000714565b6200027c82826200046060201b60201c565b5050565b600073ffffffffffffffffffffffffffffffffffffffff168273ffffffffffffffffffffffffffffffffffffffff16141562000324576040517f08c379a000000000000000000000000000000000000000000000000000000000815260040180806020018281038252601f8152602001807f45524332303a206d696e7420746f20746865207a65726f20616464726573730081525060200191505060405180910390fd5b62000338600083836200050360201b60201c565b62000354816003546200050860201b620016b51790919060201c565b600381905550620003b381600160008573ffffffffffffffffffffffffffffffffffffffff1673ffffffffffffffffffffffffffffffffffffffff168152602001908152602001600020546200050860201b620016b51790919060201c565b600160008473ffffffffffffffffffffffffffffffffffffffff1673ffffffffffffffffffffffffffffffffffffffff168152602001908152602001600020819055508173ffffffffffffffffffffffffffffffffffffffff16600073ffffffffffffffffffffffffffffffffffffffff167fddf252ad1be2c89b69c2b068fc378daa952ba7f163c4a11628f55a4df523b3ef836040518082815260200191505060405180910390a35050565b6200048e816000808581526020019081526020016000206000016200059160201b6200173e1790919060201c565b15620004ff57620004a4620005c960201b60201c565b73ffffffffffffffffffffffffffffffffffffffff168173ffffffffffffffffffffffffffffffffffffffff16837f2f8788117e7eff1d82e926ec794901d17c78024a50270940304540a733656f0d60405160405180910390a45b5050565b505050565b60008082840190508381101562000587576040517f08c379a000000000000000000000000000000000000000000000000000000000815260040180806020018281038252601b8152602001807f536166654d6174683a206164646974696f6e206f766572666c6f77000000000081525060200191505060405180910390fd5b8091505092915050565b6000620005c1836000018373ffffffffffffffffffffffffffffffffffffffff1660001b620005d160201b60201c565b905092915050565b600033905090565b6000620005e583836200064b60201b60201c565b6200064057826000018290806001815401808255809150506001900390600052602060002001600090919091909150558260000180549050836001016000848152602001908152602001600020819055506001905062000645565b600090505b92915050565b600080836001016000848152602001908152602001600020541415905092915050565b828054600181600116156101000203166002900490600052602060002090601f016020900481019282601f10620006b157805160ff1916838001178555620006e2565b82800160010185558215620006e2579182015b82811115620006e1578251825591602001919060010190620006c4565b5b509050620006f19190620006f5565b5090565b5b8082111562000710576000816000905550600101620006f6565b5090565b61473580620007246000396000f3fe608060405260043610620001ab5760003560e01c806379cc679011620000e5578063a9059cbb1162000097578063cda4beef116200006d578063cda4beef14620009cf578063d29feaad1462000a4c578063d547741f1462000a7a578063dd62ed3e1462000ad957620001b3565b8063a9059cbb14620008c3578063b7ac666a1462000938578063ca15c873146200097c57620001b3565b806379cc679014620006435780639010d07c14620006a257806391d14854146200071557806395d89b41146200078a578063a217fddf1462000820578063a457c2d7146200084e57620001b3565b8063313ce567116200015d578063424a14d21162000133578063424a14d2146200053d57806342966c6814620005575780635476ea9e146200059657806370a0823114620005da57620001b3565b8063313ce567146200043857806336568abe14620004695780633950935114620004c857620001b3565b806306fdde0314620001b8578063095ea7b3146200024e57806318160ddd14620002c357806323b872dd14620002f1578063248a9ca314620003865780632f2ff15d14620003d957620001b3565b36620001b357005b600080fd5b348015620001c557600080fd5b50620001d062000b62565b6040518080602001828103825283818151815260200191508051906020019080838360005b8381101562000212578082015181840152602081019050620001f5565b50505050905090810190601f168015620002405780820380516001836020036101000a031916815260200191505b509250505060405180910390f35b3480156200025b57600080fd5b50620002ab600480360360408110156200027457600080fd5b81019080803573ffffffffffffffffffffffffffffffffffffffff1690602001909291908035906020019092919050505062000c08565b60405180821515815260200191505060405180910390f35b348015620002d057600080fd5b50620002db62000c2a565b6040518082815260200191505060405180910390f35b348015620002fe57600080fd5b506200036e600480360360608110156200031757600080fd5b81019080803573ffffffffffffffffffffffffffffffffffffffff169060200190929190803573ffffffffffffffffffffffffffffffffffffffff1690602001909291908035906020019092919050505062000c34565b60405180821515815260200191505060405180910390f35b3480156200039357600080fd5b50620003c360048036036020811015620003ac57600080fd5b810190808035906020019092919050505062000d18565b6040518082815260200191505060405180910390f35b348015620003e657600080fd5b506200043660048036036040811015620003ff57600080fd5b8101908080359060200190929190803573ffffffffffffffffffffffffffffffffffffffff16906020019092919050505062000d37565b005b3480156200044557600080fd5b506200045062000dc8565b604051808260ff16815260200191505060405180910390f35b3480156200047657600080fd5b50620004c6600480360360408110156200048f57600080fd5b8101908080359060200190929190803573ffffffffffffffffffffffffffffffffffffffff16906020019092919050505062000ddf565b005b348015620004d557600080fd5b506200052560048036036040811015620004ee57600080fd5b81019080803573ffffffffffffffffffffffffffffffffffffffff1690602001909291908035906020019092919050505062000e7e565b60405180821515815260200191505060405180910390f35b3480156200054a57600080fd5b506200055562000f39565b005b3480156200056457600080fd5b5062000594600480360360208110156200057d57600080fd5b810190808035906020019092919050505062001042565b005b348015620005a357600080fd5b50620005ae6200105a565b604051808273ffffffffffffffffffffffffffffffffffffffff16815260200191505060405180910390f35b348015620005e757600080fd5b506200062d600480360360208110156200060057600080fd5b81019080803573ffffffffffffffffffffffffffffffffffffffff16906020019092919050505062001080565b6040518082815260200191505060405180910390f35b3480156200065057600080fd5b50620006a0600480360360408110156200066957600080fd5b81019080803573ffffffffffffffffffffffffffffffffffffffff16906020019092919080359060200190929190505050620010c9565b005b348015620006af57600080fd5b50620006e960048036036040811015620006c857600080fd5b81019080803590602001909291908035906020019092919050505062001138565b604051808273ffffffffffffffffffffffffffffffffffffffff16815260200191505060405180910390f35b3480156200072257600080fd5b5062000772600480360360408110156200073b57600080fd5b8101908080359060200190929190803573ffffffffffffffffffffffffffffffffffffffff1690602001909291905050506200116b565b60405180821515815260200191505060405180910390f35b3480156200079757600080fd5b50620007a26200119e565b6040518080602001828103825283818151815260200191508051906020019080838360005b83811015620007e4578082015181840152602081019050620007c7565b50505050905090810190601f168015620008125780820380516001836020036101000a031916815260200191505b509250505060405180910390f35b3480156200082d57600080fd5b506200083862001244565b6040518082815260200191505060405180910390f35b3480156200085b57600080fd5b50620008ab600480360360408110156200087457600080fd5b81019080803573ffffffffffffffffffffffffffffffffffffffff169060200190929190803590602001909291905050506200124b565b60405180821515815260200191505060405180910390f35b348015620008d057600080fd5b506200092060048036036040811015620008e957600080fd5b81019080803573ffffffffffffffffffffffffffffffffffffffff1690602001909291908035906020019092919050505062001321565b60405180821515815260200191505060405180910390f35b3480156200094557600080fd5b506200095062001343565b604051808273ffffffffffffffffffffffffffffffffffffffff16815260200191505060405180910390f35b3480156200098957600080fd5b50620009b960048036036020811015620009a257600080fd5b810190808035906020019092919050505062001369565b6040518082815260200191505060405180910390f35b348015620009dc57600080fd5b5062000a2060048036036060811015620009f557600080fd5b8101908080359060200190929190803590602001909291908035906020019092919050505062001391565b604051808273ffffffffffffffffffffffffffffffffffffffff16815260200191505060405180910390f35b34801562000a5957600080fd5b5062000a6462001579565b6040518082815260200191505060405180910390f35b34801562000a8757600080fd5b5062000ad76004803603604081101562000aa057600080fd5b8101908080359060200190929190803573ffffffffffffffffffffffffffffffffffffffff1690602001909291905050506200159d565b005b34801562000ae657600080fd5b5062000b4c6004803603604081101562000aff57600080fd5b81019080803573ffffffffffffffffffffffffffffffffffffffff169060200190929190803573ffffffffffffffffffffffffffffffffffffffff1690602001909291905050506200162e565b6040518082815260200191505060405180910390f35b606060048054600181600116156101000203166002900480601f01602080910402602001604051908101604052809291908181526020018280546001816001161561010002031660029004801562000bfe5780601f1062000bd25761010080835404028352916020019162000bfe565b820191906000526020600020905b81548152906001019060200180831162000be057829003601f168201915b5050505050905090565b600062000c2062000c1862001770565b848462001778565b6001905092915050565b6000600354905090565b600062000c4384848462001973565b62000d0d8462000c5262001770565b62000d0785604051806060016040528060288152602001620045f660289139600260008b73ffffffffffffffffffffffffffffffffffffffff1673ffffffffffffffffffffffffffffffffffffffff168152602001908152602001600020600062000cbc62001770565b73ffffffffffffffffffffffffffffffffffffffff1673ffffffffffffffffffffffffffffffffffffffff1681526020019081526020016000205462001c439092919063ffffffff16565b62001778565b600190509392505050565b6000806000838152602001908152602001600020600201549050919050565b62000d616000808481526020019081526020016000206002015462000d5b62001770565b6200116b565b62000db8576040517f08c379a000000000000000000000000000000000000000000000000000000000815260040180806020018281038252602f815260200180620044ea602f913960400191505060405180910390fd5b62000dc4828262001d07565b5050565b6000600660009054906101000a900460ff16905090565b62000de962001770565b73ffffffffffffffffffffffffffffffffffffffff168173ffffffffffffffffffffffffffffffffffffffff161462000e6e576040517f08c379a000000000000000000000000000000000000000000000000000000000815260040180806020018281038252602f815260200180620046d1602f913960400191505060405180910390fd5b62000e7a828262001d9f565b5050565b600062000f2f62000e8e62001770565b8462000f29856002600062000ea262001770565b73ffffffffffffffffffffffffffffffffffffffff1673ffffffffffffffffffffffffffffffffffffffff16815260200190815260200160002060008973ffffffffffffffffffffffffffffffffffffffff1673ffffffffffffffffffffffffffffffffffffffff16815260200190815260200160002054620016b590919063ffffffff16565b62001778565b6001905092915050565b62000f657fcfba8be83af357df8defaa5e92d4092d7061b755093a8b7649b2afc2929f5c65336200116b565b62000fbc576040517f08c379a00000000000000000000000000000000000000000000000000000000081526004018080602001828103825260438152602001806200455d6043913960600191505060405180910390fd5b600660019054906101000a900473ffffffffffffffffffffffffffffffffffffffff1673ffffffffffffffffffffffffffffffffffffffff166304cb72f96040518163ffffffff1660e01b8152600401600060405180830381600087803b1580156200102757600080fd5b505af11580156200103c573d6000803e3d6000fd5b50505050565b620010576200105062001770565b8262001e37565b50565b600760009054906101000a900473ffffffffffffffffffffffffffffffffffffffff1681565b6000600160008373ffffffffffffffffffffffffffffffffffffffff1673ffffffffffffffffffffffffffffffffffffffff168152602001908152602001600020549050919050565b60006200110f826040518060600160405280602481526020016200461e60249139620010ff86620010f962001770565b6200162e565b62001c439092919063ffffffff16565b905062001127836200112062001770565b8362001778565b62001133838362001e37565b505050565b600062001163826000808681526020019081526020016000206000016200200690919063ffffffff16565b905092915050565b600062001196826000808681526020019081526020016000206000016200202290919063ffffffff16565b905092915050565b606060058054600181600116156101000203166002900480601f0160208091040260200160405190810160405280929190818152602001828054600181600116156101000203166002900480156200123a5780601f106200120e576101008083540402835291602001916200123a565b820191906000526020600020905b8154815290600101906020018083116200121c57829003601f168201915b5050505050905090565b6000801b81565b6000620013176200125b62001770565b846200131185604051806060016040528060258152602001620046ac60259139600260006200128962001770565b73ffffffffffffffffffffffffffffffffffffffff1673ffffffffffffffffffffffffffffffffffffffff16815260200190815260200160002060008a73ffffffffffffffffffffffffffffffffffffffff1673ffffffffffffffffffffffffffffffffffffffff1681526020019081526020016000205462001c439092919063ffffffff16565b62001778565b6001905092915050565b6000620013396200133162001770565b848462001973565b6001905092915050565b600660019054906101000a900473ffffffffffffffffffffffffffffffffffffffff1681565b60006200138a60008084815260200190815260200160002060000162002054565b9050919050565b6000620013bf7fcfba8be83af357df8defaa5e92d4092d7061b755093a8b7649b2afc2929f5c65336200116b565b62001416576040517f08c379a0000000000000000000000000000000000000000000000000000000008152600401808060200182810382526043815260200180620044626043913960600191505060405180910390fd5b83838330604051620014289062002309565b808581526020018481526020018381526020018273ffffffffffffffffffffffffffffffffffffffff168152602001945050505050604051809103906000f0801580156200147a573d6000803e3d6000fd5b50600660016101000a81548173ffffffffffffffffffffffffffffffffffffffff021916908373ffffffffffffffffffffffffffffffffffffffff160217905550620014e9600660019054906101000a900473ffffffffffffffffffffffffffffffffffffffff168362001321565b50600660019054906101000a900473ffffffffffffffffffffffffffffffffffffffff16600760006101000a81548173ffffffffffffffffffffffffffffffffffffffff021916908373ffffffffffffffffffffffffffffffffffffffff160217905550600660019054906101000a900473ffffffffffffffffffffffffffffffffffffffff1690509392505050565b7fcfba8be83af357df8defaa5e92d4092d7061b755093a8b7649b2afc2929f5c6581565b620015c760008084815260200190815260200160002060020154620015c162001770565b6200116b565b6200161e576040517f08c379a0000000000000000000000000000000000000000000000000000000008152600401808060200182810382526030815260200180620045c66030913960400191505060405180910390fd5b6200162a828262001d9f565b5050565b6000600260008473ffffffffffffffffffffffffffffffffffffffff1673ffffffffffffffffffffffffffffffffffffffff16815260200190815260200160002060008373ffffffffffffffffffffffffffffffffffffffff1673ffffffffffffffffffffffffffffffffffffffff16815260200190815260200160002054905092915050565b60008082840190508381101562001734576040517f08c379a000000000000000000000000000000000000000000000000000000000815260040180806020018281038252601b8152602001807f536166654d6174683a206164646974696f6e206f766572666c6f77000000000081525060200191505060405180910390fd5b8091505092915050565b600062001768836000018373ffffffffffffffffffffffffffffffffffffffff1660001b6200206b565b905092915050565b600033905090565b600073ffffffffffffffffffffffffffffffffffffffff168373ffffffffffffffffffffffffffffffffffffffff16141562001800576040517f08c379a0000000000000000000000000000000000000000000000000000000008152600401808060200182810382526024815260200180620046886024913960400191505060405180910390fd5b600073ffffffffffffffffffffffffffffffffffffffff168273ffffffffffffffffffffffffffffffffffffffff16141562001888576040517f08c379a00000000000000000000000000000000000000000000000000000000081526004018080602001828103825260228152602001806200453b6022913960400191505060405180910390fd5b80600260008573ffffffffffffffffffffffffffffffffffffffff1673ffffffffffffffffffffffffffffffffffffffff16815260200190815260200160002060008473ffffffffffffffffffffffffffffffffffffffff1673ffffffffffffffffffffffffffffffffffffffff168152602001908152602001600020819055508173ffffffffffffffffffffffffffffffffffffffff168373ffffffffffffffffffffffffffffffffffffffff167f8c5be1e5ebec7d5bd14f71427d1e84f3dd0314c0f7b2291e5b200ac8c7c3b925836040518082815260200191505060405180910390a3505050565b600073ffffffffffffffffffffffffffffffffffffffff168373ffffffffffffffffffffffffffffffffffffffff161415620019fb576040517f08c379a0000000000000000000000000000000000000000000000000000000008152600401808060200182810382526025815260200180620046636025913960400191505060405180910390fd5b600073ffffffffffffffffffffffffffffffffffffffff168273ffffffffffffffffffffffffffffffffffffffff16141562001a83576040517f08c379a0000000000000000000000000000000000000000000000000000000008152600401808060200182810382526023815260200180620044c76023913960400191505060405180910390fd5b62001a90838383620020df565b62001aff81604051806060016040528060268152602001620045a060269139600160008773ffffffffffffffffffffffffffffffffffffffff1673ffffffffffffffffffffffffffffffffffffffff1681526020019081526020016000205462001c439092919063ffffffff16565b600160008573ffffffffffffffffffffffffffffffffffffffff1673ffffffffffffffffffffffffffffffffffffffff1681526020019081526020016000208190555062001b9681600160008573ffffffffffffffffffffffffffffffffffffffff1673ffffffffffffffffffffffffffffffffffffffff16815260200190815260200160002054620016b590919063ffffffff16565b600160008473ffffffffffffffffffffffffffffffffffffffff1673ffffffffffffffffffffffffffffffffffffffff168152602001908152602001600020819055508173ffffffffffffffffffffffffffffffffffffffff168373ffffffffffffffffffffffffffffffffffffffff167fddf252ad1be2c89b69c2b068fc378daa952ba7f163c4a11628f55a4df523b3ef836040518082815260200191505060405180910390a3505050565b600083831115829062001cf4576040517f08c379a00000000000000000000000000000000000000000000000000000000081526004018080602001828103825283818151815260200191508051906020019080838360005b8381101562001cb857808201518184015260208101905062001c9b565b50505050905090810190601f16801562001ce65780820380516001836020036101000a031916815260200191505b509250505060405180910390fd5b5060008385039050809150509392505050565b62001d30816000808581526020019081526020016000206000016200173e90919063ffffffff16565b1562001d9b5762001d4062001770565b73ffffffffffffffffffffffffffffffffffffffff168173ffffffffffffffffffffffffffffffffffffffff16837f2f8788117e7eff1d82e926ec794901d17c78024a50270940304540a733656f0d60405160405180910390a45b5050565b62001dc881600080858152602001908152602001600020600001620020e490919063ffffffff16565b1562001e335762001dd862001770565b73ffffffffffffffffffffffffffffffffffffffff168173ffffffffffffffffffffffffffffffffffffffff16837ff6391f5c32d9c69d2a47ea670b442974b53935d1edc7fd64eb21e047a839171b60405160405180910390a45b5050565b600073ffffffffffffffffffffffffffffffffffffffff168273ffffffffffffffffffffffffffffffffffffffff16141562001ebf576040517f08c379a0000000000000000000000000000000000000000000000000000000008152600401808060200182810382526021815260200180620046426021913960400191505060405180910390fd5b62001ecd82600083620020df565b62001f3c816040518060600160405280602281526020016200451960229139600160008673ffffffffffffffffffffffffffffffffffffffff1673ffffffffffffffffffffffffffffffffffffffff1681526020019081526020016000205462001c439092919063ffffffff16565b600160008473ffffffffffffffffffffffffffffffffffffffff1673ffffffffffffffffffffffffffffffffffffffff1681526020019081526020016000208190555062001f96816003546200211690919063ffffffff16565b600381905550600073ffffffffffffffffffffffffffffffffffffffff168273ffffffffffffffffffffffffffffffffffffffff167fddf252ad1be2c89b69c2b068fc378daa952ba7f163c4a11628f55a4df523b3ef836040518082815260200191505060405180910390a35050565b600062002017836000018362002162565b60001c905092915050565b60006200204c836000018373ffffffffffffffffffffffffffffffffffffffff1660001b620021e8565b905092915050565b600062002064826000016200220b565b9050919050565b6000620020798383620021e8565b620020d4578260000182908060018154018082558091505060019003906000526020600020016000909190919091505582600001805490508360010160008481526020019081526020016000208190555060019050620020d9565b600090505b92915050565b505050565b60006200210e836000018373ffffffffffffffffffffffffffffffffffffffff1660001b6200221c565b905092915050565b60006200215a83836040518060400160405280601e81526020017f536166654d6174683a207375627472616374696f6e206f766572666c6f77000081525062001c43565b905092915050565b600081836000018054905011620021c5576040517f08c379a0000000000000000000000000000000000000000000000000000000008152600401808060200182810382526022815260200180620044a56022913960400191505060405180910390fd5b826000018281548110620021d557fe5b9060005260206000200154905092915050565b600080836001016000848152602001908152602001600020541415905092915050565b600081600001805490509050919050565b60008083600101600084815260200190815260200160002054905060008114620022fd57600060018203905060006001866000018054905003905060008660000182815481106200226957fe5b90600052602060002001549050808760000184815481106200228757fe5b9060005260206000200181905550600183018760010160008381526020019081526020016000208190555086600001805480620022c057fe5b6001900381819060005260206000200160009055905586600101600087815260200190815260200160002060009055600194505050505062002303565b60009150505b92915050565b61214a80620023188339019056fe608060405234801561001057600080fd5b5060405161214a38038061214a8339818101604052608081101561003357600080fd5b810190808051906020019092919080519060200190929190805190602001909291908051906020019092919050505083600481905550826005819055508160078190555080600a60006101000a81548173ffffffffffffffffffffffffffffffffffffffff021916908373ffffffffffffffffffffffffffffffffffffffff1602179055506000600a60146101000a81548160ff021916908360038111156100d757fe5b02179055505050505061205b806100ef6000396000f3fe60806040526004361061012a5760003560e01c80639010d07c116100ab578063ae6e22f11161006f578063ae6e22f1146104b3578063afe01043146104de578063c08d1fe514610514578063ca15c8731461053f578063d547741f1461058e578063f1a9af89146105e95761012a565b80639010d07c1461036657806391d14854146103d557806393a9168214610446578063a217fddf14610471578063a96f86681461049c5761012a565b806332a0f2d7116100f257806332a0f2d71461028057806336568abe146102ab5780633c7a3aff146103065780637824407f1461031057806378e979251461033b5761012a565b806304cb72f91461012f5780630522bf03146101465780631b55d216146101ab578063248a9ca3146101d65780632f2ff15d14610225575b600080fd5b34801561013b57600080fd5b50610144610614565b005b34801561015257600080fd5b506101956004803603602081101561016957600080fd5b81019080803573ffffffffffffffffffffffffffffffffffffffff169060200190929190505050610738565b6040518082815260200191505060405180910390f35b3480156101b757600080fd5b506101c0610781565b6040518082815260200191505060405180910390f35b3480156101e257600080fd5b5061020f600480360360208110156101f957600080fd5b8101908080359060200190929190505050610787565b6040518082815260200191505060405180910390f35b34801561023157600080fd5b5061027e6004803603604081101561024857600080fd5b8101908080359060200190929190803573ffffffffffffffffffffffffffffffffffffffff1690602001909291905050506107a6565b005b34801561028c57600080fd5b5061029561082f565b6040518082815260200191505060405180910390f35b3480156102b757600080fd5b50610304600480360360408110156102ce57600080fd5b8101908080359060200190929190803573ffffffffffffffffffffffffffffffffffffffff169060200190929190505050610835565b005b61030e6108ce565b005b34801561031c57600080fd5b50610325610f12565b6040518082815260200191505060405180910390f35b34801561034757600080fd5b50610350610f18565b6040518082815260200191505060405180910390f35b34801561037257600080fd5b506103a96004803603604081101561038957600080fd5b810190808035906020019092919080359060200190929190505050610f1e565b604051808273ffffffffffffffffffffffffffffffffffffffff16815260200191505060405180910390f35b3480156103e157600080fd5b5061042e600480360360408110156103f857600080fd5b8101908080359060200190929190803573ffffffffffffffffffffffffffffffffffffffff169060200190929190505050610f4f565b60405180821515815260200191505060405180910390f35b34801561045257600080fd5b5061045b610f80565b6040518082815260200191505060405180910390f35b34801561047d57600080fd5b50610486610f86565b6040518082815260200191505060405180910390f35b3480156104a857600080fd5b506104b1610f8d565b005b3480156104bf57600080fd5b506104c86116db565b6040518082815260200191505060405180910390f35b3480156104ea57600080fd5b506104f36116e1565b6040518082600381111561050357fe5b815260200191505060405180910390f35b34801561052057600080fd5b506105296116f4565b6040518082815260200191505060405180910390f35b34801561054b57600080fd5b506105786004803603602081101561056257600080fd5b81019080803590602001909291905050506116f9565b6040518082815260200191505060405180910390f35b34801561059a57600080fd5b506105e7600480360360408110156105b157600080fd5b8101908080359060200190929190803573ffffffffffffffffffffffffffffffffffffffff16906020019092919050505061171f565b005b3480156105f557600080fd5b506105fe6117a8565b6040518082815260200191505060405180910390f35b600a60009054906101000a900473ffffffffffffffffffffffffffffffffffffffff1673ffffffffffffffffffffffffffffffffffffffff163373ffffffffffffffffffffffffffffffffffffffff16146106ba576040517f08c379a000000000000000000000000000000000000000000000000000000000815260040180806020018281038252602c815260200180611f9d602c913960400191505060405180910390fd5b426008819055506001600a60146101000a81548160ff021916908360038111156106e057fe5b02179055507f268f1153844c3ed9f77b7cabc4fedb9d9994a5361b583f824ffbe523f3739e65600a60149054906101000a900460ff166040518082600381111561072657fe5b815260200191505060405180910390a1565b6000600260008373ffffffffffffffffffffffffffffffffffffffff1673ffffffffffffffffffffffffffffffffffffffff168152602001908152602001600020549050919050565b60055481565b6000806000838152602001908152602001600020600201549050919050565b6107cc600080848152602001908152602001600020600201546107c76117ae565b610f4f565b610821576040517f08c379a000000000000000000000000000000000000000000000000000000000815260040180806020018281038252602f815260200180611ef5602f913960400191505060405180910390fd5b61082b82826117b6565b5050565b60065481565b61083d6117ae565b73ffffffffffffffffffffffffffffffffffffffff168173ffffffffffffffffffffffffffffffffffffffff16146108c0576040517f08c379a000000000000000000000000000000000000000000000000000000000815260040180806020018281038252602f815260200180611ff7602f913960400191505060405180910390fd5b6108ca8282611849565b5050565b600160038111156108db57fe5b600a60149054906101000a900460ff1660038111156108f657fe5b14610973573373ffffffffffffffffffffffffffffffffffffffff166108fc349081150290604051600060405180830381858888f19350505050158015610941573d6000803e3d6000fd5b507f1ce64f9268be8b3b69a87fd45b87d775ec9882a8fb13ba0ea9c31995e95be45d60405160405180910390a1610f10565b607861098a600854426118dc90919063ffffffff16565b1115610ae9576109af6509184e72a0006005540260075461192690919063ffffffff16565b60035411156109f2576109e76509184e72a0006109d96007546003546119ac90919063ffffffff16565b6119ac90919063ffffffff16565b6006819055506109fc565b6005546006819055505b6002600a60146101000a81548160ff02191690836003811115610a1b57fe5b02179055503373ffffffffffffffffffffffffffffffffffffffff166108fc349081150290604051600060405180830381858888f19350505050158015610a66573d6000803e3d6000fd5b507f268f1153844c3ed9f77b7cabc4fedb9d9994a5361b583f824ffbe523f3739e65600a60149054906101000a900460ff1660405180826003811115610aa857fe5b815260200191505060405180910390a17f1ce64f9268be8b3b69a87fd45b87d775ec9882a8fb13ba0ea9c31995e95be45d60405160405180910390a1610f10565b610b88600554610b7a6103e8610b6c610b0f6005546004546118dc90919063ffffffff16565b610b5e6078610b506103e8610b4242610b3460786008546119f690919063ffffffff16565b6118dc90919063ffffffff16565b61192690919063ffffffff16565b6119ac90919063ffffffff16565b61192690919063ffffffff16565b6119ac90919063ffffffff16565b6119f690919063ffffffff16565b600981905550610bad6509184e72a0006009540260075461192690919063ffffffff16565b60035410610cd757610be46509184e72a000610bd66007546003546119ac90919063ffffffff16565b6119ac90919063ffffffff16565b6006819055506002600a60146101000a81548160ff02191690836003811115610c0957fe5b02179055503373ffffffffffffffffffffffffffffffffffffffff166108fc349081150290604051600060405180830381858888f19350505050158015610c54573d6000803e3d6000fd5b507f268f1153844c3ed9f77b7cabc4fedb9d9994a5361b583f824ffbe523f3739e65600a60149054906101000a900460ff1660405180826003811115610c9657fe5b815260200191505060405180910390a17f1ce64f9268be8b3b69a87fd45b87d775ec9882a8fb13ba0ea9c31995e95be45d60405160405180910390a1610f10565b610cec346003546119f690919063ffffffff16565b600381905550600160405180604001604052803373ffffffffffffffffffffffffffffffffffffffff16815260200134815250908060018154018082558091505060019003906000526020600020906002020160009091909190915060008201518160000160006101000a81548173ffffffffffffffffffffffffffffffffffffffff021916908373ffffffffffffffffffffffffffffffffffffffff160217905550602082015181600101555050610ded34600260003373ffffffffffffffffffffffffffffffffffffffff1673ffffffffffffffffffffffffffffffffffffffff168152602001908152602001600020546119f690919063ffffffff16565b600260003373ffffffffffffffffffffffffffffffffffffffff1673ffffffffffffffffffffffffffffffffffffffff168152602001908152602001600020819055507f9e2f6b1e3f3c354bf8e290190cec21c802d02da827cc107d37bc9768ddb036e66003546040518082815260200191505060405180910390a1610e886509184e72a0006009540260075461192690919063ffffffff16565b60035410610f0f576009546006819055506002600a60146101000a81548160ff02191690836003811115610eb857fe5b02179055507f268f1153844c3ed9f77b7cabc4fedb9d9994a5361b583f824ffbe523f3739e65600a60149054906101000a900460ff1660405180826003811115610efe57fe5b815260200191505060405180910390a15b5b565b60075481565b60085481565b6000610f4782600080868152602001908152602001600020600001611a7e90919063ffffffff16565b905092915050565b6000610f7882600080868152602001908152602001600020600001611a9890919063ffffffff16565b905092915050565b60095481565b6000801b81565b600380811115610f9957fe5b600a60149054906101000a900460ff166003811115610fb457fe5b14158015610fe8575060006003811115610fca57fe5b600a60149054906101000a900460ff166003811115610fe557fe5b14155b61103d576040517f08c379a000000000000000000000000000000000000000000000000000000000815260040180806020018281038252602e815260200180611fc9602e913960400191505060405180910390fd5b6001600381111561104a57fe5b600a60149054906101000a900460ff16600381111561106557fe5b14156112c7576078611082600854426118dc90919063ffffffff16565b10156111e4576111276005546111196103e861110b6110ae6005546004546118dc90919063ffffffff16565b6110fd60786110ef6103e86110e1426110d360786008546119f690919063ffffffff16565b6118dc90919063ffffffff16565b61192690919063ffffffff16565b6119ac90919063ffffffff16565b61192690919063ffffffff16565b6119ac90919063ffffffff16565b6119f690919063ffffffff16565b60098190555061114c6509184e72a0006009540260075461192690919063ffffffff16565b6003541061118e576111836509184e72a0006111756007546003546119ac90919063ffffffff16565b6119ac90919063ffffffff16565b6006819055506111df565b6040517f08c379a0000000000000000000000000000000000000000000000000000000008152600401808060200182810382526028815260200180611f546028913960400191505060405180910390fd5b611251565b6112036509184e72a0006005540260075461192690919063ffffffff16565b60035411156112465761123b6509184e72a00061122d6007546003546119ac90919063ffffffff16565b6119ac90919063ffffffff16565b600681905550611250565b6005546006819055505b5b6002600a60146101000a81548160ff0219169083600381111561127057fe5b02179055507f268f1153844c3ed9f77b7cabc4fedb9d9994a5361b583f824ffbe523f3739e65600a60149054906101000a900460ff16604051808260038111156112b657fe5b815260200191505060405180910390a15b600060035490506000600754905060005b60018054905081101561155b5760006113226509184e72a000600654026001848154811061130257fe5b9060005260206000209060020201600101546119ac90919063ffffffff16565b90508281111561142a5760006001838154811061133b57fe5b906000526020600020906002020160000160009054906101000a900473ffffffffffffffffffffffffffffffffffffffff16905083915060006113c16113946509184e72a000600654028561192690919063ffffffff16565b600186815481106113a157fe5b9060005260206000209060020201600101546118dc90919063ffffffff16565b90508173ffffffffffffffffffffffffffffffffffffffff166108fc829081150290604051600060405180830381858888f19350505050158015611409573d6000803e3d6000fd5b5061141d81876118dc90919063ffffffff16565b9550600094505050611440565b61143d81846118dc90919063ffffffff16565b92505b600a60009054906101000a900473ffffffffffffffffffffffffffffffffffffffff1673ffffffffffffffffffffffffffffffffffffffff1663a9059cbb6001848154811061148b57fe5b906000526020600020906002020160000160009054906101000a900473ffffffffffffffffffffffffffffffffffffffff16836040518363ffffffff1660e01b8152600401808373ffffffffffffffffffffffffffffffffffffffff16815260200182815260200192505050602060405180830381600087803b15801561151157600080fd5b505af1158015611525573d6000803e3d6000fd5b505050506040513d602081101561153b57600080fd5b8101908080519060200190929190505050505080806001019150506112d8565b506000600a60009054906101000a900473ffffffffffffffffffffffffffffffffffffffff1690508073ffffffffffffffffffffffffffffffffffffffff166108fc849081150290604051600060405180830381858888f193505050501580156115c9573d6000803e3d6000fd5b50600082111561166157600a60009054906101000a900473ffffffffffffffffffffffffffffffffffffffff1673ffffffffffffffffffffffffffffffffffffffff166342966c68836040518263ffffffff1660e01b815260040180828152602001915050600060405180830381600087803b15801561164857600080fd5b505af115801561165c573d6000803e3d6000fd5b505050505b6003600a60146101000a81548160ff0219169083600381111561168057fe5b02179055507f268f1153844c3ed9f77b7cabc4fedb9d9994a5361b583f824ffbe523f3739e65600a60149054906101000a900460ff16604051808260038111156116c657fe5b815260200191505060405180910390a1505050565b60035481565b600a60149054906101000a900460ff1681565b607881565b6000611718600080848152602001908152602001600020600001611ac8565b9050919050565b611745600080848152602001908152602001600020600201546117406117ae565b610f4f565b61179a576040517f08c379a0000000000000000000000000000000000000000000000000000000008152600401808060200182810382526030815260200180611f246030913960400191505060405180910390fd5b6117a48282611849565b5050565b60045481565b600033905090565b6117dd81600080858152602001908152602001600020600001611add90919063ffffffff16565b15611845576117ea6117ae565b73ffffffffffffffffffffffffffffffffffffffff168173ffffffffffffffffffffffffffffffffffffffff16837f2f8788117e7eff1d82e926ec794901d17c78024a50270940304540a733656f0d60405160405180910390a45b5050565b61187081600080858152602001908152602001600020600001611b0d90919063ffffffff16565b156118d85761187d6117ae565b73ffffffffffffffffffffffffffffffffffffffff168173ffffffffffffffffffffffffffffffffffffffff16837ff6391f5c32d9c69d2a47ea670b442974b53935d1edc7fd64eb21e047a839171b60405160405180910390a45b5050565b600061191e83836040518060400160405280601e81526020017f536166654d6174683a207375627472616374696f6e206f766572666c6f770000815250611b3d565b905092915050565b60008083141561193957600090506119a6565b600082840290508284828161194a57fe5b04146119a1576040517f08c379a0000000000000000000000000000000000000000000000000000000008152600401808060200182810382526021815260200180611f7c6021913960400191505060405180910390fd5b809150505b92915050565b60006119ee83836040518060400160405280601a81526020017f536166654d6174683a206469766973696f6e206279207a65726f000000000000815250611bfd565b905092915050565b600080828401905083811015611a74576040517f08c379a000000000000000000000000000000000000000000000000000000000815260040180806020018281038252601b8152602001807f536166654d6174683a206164646974696f6e206f766572666c6f77000000000081525060200191505060405180910390fd5b8091505092915050565b6000611a8d8360000183611cc3565b60001c905092915050565b6000611ac0836000018373ffffffffffffffffffffffffffffffffffffffff1660001b611d46565b905092915050565b6000611ad682600001611d69565b9050919050565b6000611b05836000018373ffffffffffffffffffffffffffffffffffffffff1660001b611d7a565b905092915050565b6000611b35836000018373ffffffffffffffffffffffffffffffffffffffff1660001b611dea565b905092915050565b6000838311158290611bea576040517f08c379a00000000000000000000000000000000000000000000000000000000081526004018080602001828103825283818151815260200191508051906020019080838360005b83811015611baf578082015181840152602081019050611b94565b50505050905090810190601f168015611bdc5780820380516001836020036101000a031916815260200191505b509250505060405180910390fd5b5060008385039050809150509392505050565b60008083118290611ca9576040517f08c379a00000000000000000000000000000000000000000000000000000000081526004018080602001828103825283818151815260200191508051906020019080838360005b83811015611c6e578082015181840152602081019050611c53565b50505050905090810190601f168015611c9b5780820380516001836020036101000a031916815260200191505b509250505060405180910390fd5b506000838581611cb557fe5b049050809150509392505050565b600081836000018054905011611d24576040517f08c379a0000000000000000000000000000000000000000000000000000000008152600401808060200182810382526022815260200180611ed36022913960400191505060405180910390fd5b826000018281548110611d3357fe5b9060005260206000200154905092915050565b600080836001016000848152602001908152602001600020541415905092915050565b600081600001805490509050919050565b6000611d868383611d46565b611ddf578260000182908060018154018082558091505060019003906000526020600020016000909190919091505582600001805490508360010160008481526020019081526020016000208190555060019050611de4565b600090505b92915050565b60008083600101600084815260200190815260200160002054905060008114611ec65760006001820390506000600186600001805490500390506000866000018281548110611e3557fe5b9060005260206000200154905080876000018481548110611e5257fe5b9060005260206000200181905550600183018760010160008381526020019081526020016000208190555086600001805480611e8a57fe5b60019003818190600052602060002001600090559055866001016000878152602001908152602001600020600090556001945050505050611ecc565b60009150505b9291505056fe456e756d657261626c655365743a20696e646578206f7574206f6620626f756e6473416363657373436f6e74726f6c3a2073656e646572206d75737420626520616e2061646d696e20746f206772616e74416363657373436f6e74726f6c3a2073656e646572206d75737420626520616e2061646d696e20746f207265766f6b655468652061756374696f6e206973207374696c6c206f70656e65642c20706c656173652077616974536166654d6174683a206d756c7469706c69636174696f6e206f766572666c6f774f6e6c792074686520746f6b656e20636f6e74726163742063616e206f70656e207468652061756374696f6e5468652061756374696f6e20616c72656164792072656c6561736573206f72206e6f74206f70656e656420796574416363657373436f6e74726f6c3a2063616e206f6e6c792072656e6f756e636520726f6c657320666f722073656c66a2646970667358221220d19daa4512eb9e443104c353f98ed1244c7cc7abc43d1b6eb6e615cf5168124f64736f6c634300060c003343797068657270756e6b436f696e3a206d75737420686176652061756374696f6e2063726561746f7220726f6c6520746f2063726561746520616e2061756374696f6e456e756d657261626c655365743a20696e646578206f7574206f6620626f756e647345524332303a207472616e7366657220746f20746865207a65726f2061646472657373416363657373436f6e74726f6c3a2073656e646572206d75737420626520616e2061646d696e20746f206772616e7445524332303a206275726e20616d6f756e7420657863656564732062616c616e636545524332303a20617070726f766520746f20746865207a65726f206164647265737343797068657270756e6b436f696e3a206d75737420686176652061756374696f6e2063726561746f7220726f6c6520746f206f70656e20746869732061756374696f6e45524332303a207472616e7366657220616d6f756e7420657863656564732062616c616e6365416363657373436f6e74726f6c3a2073656e646572206d75737420626520616e2061646d696e20746f207265766f6b6545524332303a207472616e7366657220616d6f756e74206578636565647320616c6c6f77616e636545524332303a206275726e20616d6f756e74206578636565647320616c6c6f77616e636545524332303a206275726e2066726f6d20746865207a65726f206164647265737345524332303a207472616e736665722066726f6d20746865207a65726f206164647265737345524332303a20617070726f76652066726f6d20746865207a65726f206164647265737345524332303a2064656372656173656420616c6c6f77616e63652062656c6f77207a65726f416363657373436f6e74726f6c3a2063616e206f6e6c792072656e6f756e636520726f6c657320666f722073656c66a26469706673582212205a071cca303b82a3f5acb2f5066fe4c821279442507c48d3313463947b70379164736f6c634300060c0033",
  "immutableReferences": {},
  "source": "pragma solidity ^0.6.0;\r\n\r\nimport \"@openzeppelin/contracts/access/AccessControl.sol\";\r\nimport \"@openzeppelin/contracts/GSN/Context.sol\";\r\nimport \"@openzeppelin/contracts/token/ERC20/ERC20.sol\";\r\nimport \"@openzeppelin/contracts/token/ERC20/ERC20Burnable.sol\";\r\nimport \"./Auction.sol\";\r\n\r\ncontract CypherpunkCoin is Context, AccessControl, ERC20Burnable {\r\n    Auction public currAuction;\r\n    bytes32 public constant AUCTION_CREATOR_ROLE = keccak256(\r\n        \"AUCTION_CREATOR_ROLE\"\r\n    );\r\n\r\n    constructor(string memory name, string memory symbol)\r\n        public\r\n        ERC20(name, symbol)\r\n    {\r\n        //set up admin role\r\n        _setupRole(DEFAULT_ADMIN_ROLE, msg.sender);\r\n\r\n        //set up auction creator role\r\n        _setupRole(AUCTION_CREATOR_ROLE, msg.sender);\r\n        _mint(msg.sender, 1000);\r\n    }\r\n    address public auctionAddress;\r\n\r\n    // create auction from the token\r\n    function createAuction(\r\n        uint256 _startPrice,\r\n        uint256 _reservedPrice,\r\n        uint256 _supply\r\n    ) public returns (Auction) {\r\n        require(\r\n            hasRole(AUCTION_CREATOR_ROLE, msg.sender),\r\n            \"CypherpunkCoin: must have auction creator role to create an auction\"\r\n        );\r\n        currAuction = new Auction(_startPrice, _reservedPrice, _supply, this);\r\n        transfer(address(currAuction), _supply);\r\n        auctionAddress = address(currAuction);\r\n        return currAuction;\r\n    }\r\n\r\n    function openCurrAuction() external {\r\n        require(\r\n            hasRole(AUCTION_CREATOR_ROLE, msg.sender),\r\n            \"CypherpunkCoin: must have auction creator role to open this auction\"\r\n        );\r\n        currAuction.openAuction();\r\n    }\r\n\r\n    receive() external payable {}\r\n}\r\n",
  "sourcePath": "C:\\Users\\tanyi\\OneDrive\\Documents\\GitHub\\CZ4153-Dutch-Contract\\contracts\\CypherpunkCoin.sol",
  "compiler": {
    "name": "solc",
    "version": "0.6.12+commit.27d51765.Emscripten.clang"
  },
  "schemaVersion": "3.3.1",
  "updatedAt": "2020-11-01T10:45:48.167Z",
  "devdoc": {
    "kind": "dev",
    "methods": {
      "allowance(address,address)": {
        "details": "See {IERC20-allowance}."
      },
      "approve(address,uint256)": {
        "details": "See {IERC20-approve}. Requirements: - `spender` cannot be the zero address."
      },
      "balanceOf(address)": {
        "details": "See {IERC20-balanceOf}."
      },
      "burn(uint256)": {
        "details": "Destroys `amount` tokens from the caller. See {ERC20-_burn}."
      },
      "burnFrom(address,uint256)": {
        "details": "Destroys `amount` tokens from `account`, deducting from the caller's allowance. See {ERC20-_burn} and {ERC20-allowance}. Requirements: - the caller must have allowance for ``accounts``'s tokens of at least `amount`."
      },
      "decimals()": {
        "details": "Returns the number of decimals used to get its user representation. For example, if `decimals` equals `2`, a balance of `505` tokens should be displayed to a user as `5,05` (`505 / 10 ** 2`). Tokens usually opt for a value of 18, imitating the relationship between Ether and Wei. This is the value {ERC20} uses, unless {_setupDecimals} is called. NOTE: This information is only used for _display_ purposes: it in no way affects any of the arithmetic of the contract, including {IERC20-balanceOf} and {IERC20-transfer}."
      },
      "decreaseAllowance(address,uint256)": {
        "details": "Atomically decreases the allowance granted to `spender` by the caller. This is an alternative to {approve} that can be used as a mitigation for problems described in {IERC20-approve}. Emits an {Approval} event indicating the updated allowance. Requirements: - `spender` cannot be the zero address. - `spender` must have allowance for the caller of at least `subtractedValue`."
      },
      "getRoleAdmin(bytes32)": {
        "details": "Returns the admin role that controls `role`. See {grantRole} and {revokeRole}. To change a role's admin, use {_setRoleAdmin}."
      },
      "getRoleMember(bytes32,uint256)": {
        "details": "Returns one of the accounts that have `role`. `index` must be a value between 0 and {getRoleMemberCount}, non-inclusive. Role bearers are not sorted in any particular way, and their ordering may change at any point. WARNING: When using {getRoleMember} and {getRoleMemberCount}, make sure you perform all queries on the same block. See the following https://forum.openzeppelin.com/t/iterating-over-elements-on-enumerableset-in-openzeppelin-contracts/2296[forum post] for more information."
      },
      "getRoleMemberCount(bytes32)": {
        "details": "Returns the number of accounts that have `role`. Can be used together with {getRoleMember} to enumerate all bearers of a role."
      },
      "grantRole(bytes32,address)": {
        "details": "Grants `role` to `account`. If `account` had not been already granted `role`, emits a {RoleGranted} event. Requirements: - the caller must have ``role``'s admin role."
      },
      "hasRole(bytes32,address)": {
        "details": "Returns `true` if `account` has been granted `role`."
      },
      "increaseAllowance(address,uint256)": {
        "details": "Atomically increases the allowance granted to `spender` by the caller. This is an alternative to {approve} that can be used as a mitigation for problems described in {IERC20-approve}. Emits an {Approval} event indicating the updated allowance. Requirements: - `spender` cannot be the zero address."
      },
      "name()": {
        "details": "Returns the name of the token."
      },
      "renounceRole(bytes32,address)": {
        "details": "Revokes `role` from the calling account. Roles are often managed via {grantRole} and {revokeRole}: this function's purpose is to provide a mechanism for accounts to lose their privileges if they are compromised (such as when a trusted device is misplaced). If the calling account had been granted `role`, emits a {RoleRevoked} event. Requirements: - the caller must be `account`."
      },
      "revokeRole(bytes32,address)": {
        "details": "Revokes `role` from `account`. If `account` had been granted `role`, emits a {RoleRevoked} event. Requirements: - the caller must have ``role``'s admin role."
      },
      "symbol()": {
        "details": "Returns the symbol of the token, usually a shorter version of the name."
      },
      "totalSupply()": {
        "details": "See {IERC20-totalSupply}."
      },
      "transfer(address,uint256)": {
        "details": "See {IERC20-transfer}. Requirements: - `recipient` cannot be the zero address. - the caller must have a balance of at least `amount`."
      },
      "transferFrom(address,address,uint256)": {
        "details": "See {IERC20-transferFrom}. Emits an {Approval} event indicating the updated allowance. This is not required by the EIP. See the note at the beginning of {ERC20}; Requirements: - `sender` and `recipient` cannot be the zero address. - `sender` must have a balance of at least `amount`. - the caller must have allowance for ``sender``'s tokens of at least `amount`."
      }
    },
    "version": 1
  },
  "userdoc": {
    "kind": "user",
    "methods": {},
    "version": 1
  }
}