{
  "contractName": "CypherpunkCoin",
  "abi": [
    {
      "inputs": [
        {
          "internalType": "string",
          "name": "name",
          "type": "string"
        },
        {
          "internalType": "string",
          "name": "symbol",
          "type": "string"
        }
      ],
      "stateMutability": "nonpayable",
      "type": "constructor"
    },
    {
      "anonymous": false,
      "inputs": [
        {
          "indexed": true,
          "internalType": "address",
          "name": "owner",
          "type": "address"
        },
        {
          "indexed": true,
          "internalType": "address",
          "name": "spender",
          "type": "address"
        },
        {
          "indexed": false,
          "internalType": "uint256",
          "name": "value",
          "type": "uint256"
        }
      ],
      "name": "Approval",
      "type": "event"
    },
    {
      "anonymous": false,
      "inputs": [
        {
          "indexed": true,
          "internalType": "bytes32",
          "name": "role",
          "type": "bytes32"
        },
        {
          "indexed": true,
          "internalType": "bytes32",
          "name": "previousAdminRole",
          "type": "bytes32"
        },
        {
          "indexed": true,
          "internalType": "bytes32",
          "name": "newAdminRole",
          "type": "bytes32"
        }
      ],
      "name": "RoleAdminChanged",
      "type": "event"
    },
    {
      "anonymous": false,
      "inputs": [
        {
          "indexed": true,
          "internalType": "bytes32",
          "name": "role",
          "type": "bytes32"
        },
        {
          "indexed": true,
          "internalType": "address",
          "name": "account",
          "type": "address"
        },
        {
          "indexed": true,
          "internalType": "address",
          "name": "sender",
          "type": "address"
        }
      ],
      "name": "RoleGranted",
      "type": "event"
    },
    {
      "anonymous": false,
      "inputs": [
        {
          "indexed": true,
          "internalType": "bytes32",
          "name": "role",
          "type": "bytes32"
        },
        {
          "indexed": true,
          "internalType": "address",
          "name": "account",
          "type": "address"
        },
        {
          "indexed": true,
          "internalType": "address",
          "name": "sender",
          "type": "address"
        }
      ],
      "name": "RoleRevoked",
      "type": "event"
    },
    {
      "anonymous": false,
      "inputs": [
        {
          "indexed": true,
          "internalType": "address",
          "name": "from",
          "type": "address"
        },
        {
          "indexed": true,
          "internalType": "address",
          "name": "to",
          "type": "address"
        },
        {
          "indexed": false,
          "internalType": "uint256",
          "name": "value",
          "type": "uint256"
        }
      ],
      "name": "Transfer",
      "type": "event"
    },
    {
      "inputs": [],
      "name": "AUCTION_CREATOR_ROLE",
      "outputs": [
        {
          "internalType": "bytes32",
          "name": "",
          "type": "bytes32"
        }
      ],
      "stateMutability": "view",
      "type": "function",
      "constant": true
    },
    {
      "inputs": [],
      "name": "DEFAULT_ADMIN_ROLE",
      "outputs": [
        {
          "internalType": "bytes32",
          "name": "",
          "type": "bytes32"
        }
      ],
      "stateMutability": "view",
      "type": "function",
      "constant": true
    },
    {
      "inputs": [
        {
          "internalType": "address",
          "name": "owner",
          "type": "address"
        },
        {
          "internalType": "address",
          "name": "spender",
          "type": "address"
        }
      ],
      "name": "allowance",
      "outputs": [
        {
          "internalType": "uint256",
          "name": "",
          "type": "uint256"
        }
      ],
      "stateMutability": "view",
      "type": "function",
      "constant": true
    },
    {
      "inputs": [
        {
          "internalType": "address",
          "name": "spender",
          "type": "address"
        },
        {
          "internalType": "uint256",
          "name": "amount",
          "type": "uint256"
        }
      ],
      "name": "approve",
      "outputs": [
        {
          "internalType": "bool",
          "name": "",
          "type": "bool"
        }
      ],
      "stateMutability": "nonpayable",
      "type": "function"
    },
    {
      "inputs": [],
      "name": "auctionAddress",
      "outputs": [
        {
          "internalType": "address",
          "name": "",
          "type": "address"
        }
      ],
      "stateMutability": "view",
      "type": "function",
      "constant": true
    },
    {
      "inputs": [
        {
          "internalType": "address",
          "name": "account",
          "type": "address"
        }
      ],
      "name": "balanceOf",
      "outputs": [
        {
          "internalType": "uint256",
          "name": "",
          "type": "uint256"
        }
      ],
      "stateMutability": "view",
      "type": "function",
      "constant": true
    },
    {
      "inputs": [
        {
          "internalType": "uint256",
          "name": "amount",
          "type": "uint256"
        }
      ],
      "name": "burn",
      "outputs": [],
      "stateMutability": "nonpayable",
      "type": "function"
    },
    {
      "inputs": [
        {
          "internalType": "address",
          "name": "account",
          "type": "address"
        },
        {
          "internalType": "uint256",
          "name": "amount",
          "type": "uint256"
        }
      ],
      "name": "burnFrom",
      "outputs": [],
      "stateMutability": "nonpayable",
      "type": "function"
    },
    {
      "inputs": [],
      "name": "decimals",
      "outputs": [
        {
          "internalType": "uint8",
          "name": "",
          "type": "uint8"
        }
      ],
      "stateMutability": "view",
      "type": "function",
      "constant": true
    },
    {
      "inputs": [
        {
          "internalType": "address",
          "name": "spender",
          "type": "address"
        },
        {
          "internalType": "uint256",
          "name": "subtractedValue",
          "type": "uint256"
        }
      ],
      "name": "decreaseAllowance",
      "outputs": [
        {
          "internalType": "bool",
          "name": "",
          "type": "bool"
        }
      ],
      "stateMutability": "nonpayable",
      "type": "function"
    },
    {
      "inputs": [
        {
          "internalType": "bytes32",
          "name": "role",
          "type": "bytes32"
        }
      ],
      "name": "getRoleAdmin",
      "outputs": [
        {
          "internalType": "bytes32",
          "name": "",
          "type": "bytes32"
        }
      ],
      "stateMutability": "view",
      "type": "function",
      "constant": true
    },
    {
      "inputs": [
        {
          "internalType": "bytes32",
          "name": "role",
          "type": "bytes32"
        },
        {
          "internalType": "uint256",
          "name": "index",
          "type": "uint256"
        }
      ],
      "name": "getRoleMember",
      "outputs": [
        {
          "internalType": "address",
          "name": "",
          "type": "address"
        }
      ],
      "stateMutability": "view",
      "type": "function",
      "constant": true
    },
    {
      "inputs": [
        {
          "internalType": "bytes32",
          "name": "role",
          "type": "bytes32"
        }
      ],
      "name": "getRoleMemberCount",
      "outputs": [
        {
          "internalType": "uint256",
          "name": "",
          "type": "uint256"
        }
      ],
      "stateMutability": "view",
      "type": "function",
      "constant": true
    },
    {
      "inputs": [
        {
          "internalType": "bytes32",
          "name": "role",
          "type": "bytes32"
        },
        {
          "internalType": "address",
          "name": "account",
          "type": "address"
        }
      ],
      "name": "grantRole",
      "outputs": [],
      "stateMutability": "nonpayable",
      "type": "function"
    },
    {
      "inputs": [
        {
          "internalType": "bytes32",
          "name": "role",
          "type": "bytes32"
        },
        {
          "internalType": "address",
          "name": "account",
          "type": "address"
        }
      ],
      "name": "hasRole",
      "outputs": [
        {
          "internalType": "bool",
          "name": "",
          "type": "bool"
        }
      ],
      "stateMutability": "view",
      "type": "function",
      "constant": true
    },
    {
      "inputs": [
        {
          "internalType": "address",
          "name": "spender",
          "type": "address"
        },
        {
          "internalType": "uint256",
          "name": "addedValue",
          "type": "uint256"
        }
      ],
      "name": "increaseAllowance",
      "outputs": [
        {
          "internalType": "bool",
          "name": "",
          "type": "bool"
        }
      ],
      "stateMutability": "nonpayable",
      "type": "function"
    },
    {
      "inputs": [],
      "name": "name",
      "outputs": [
        {
          "internalType": "string",
          "name": "",
          "type": "string"
        }
      ],
      "stateMutability": "view",
      "type": "function",
      "constant": true
    },
    {
      "inputs": [
        {
          "internalType": "bytes32",
          "name": "role",
          "type": "bytes32"
        },
        {
          "internalType": "address",
          "name": "account",
          "type": "address"
        }
      ],
      "name": "renounceRole",
      "outputs": [],
      "stateMutability": "nonpayable",
      "type": "function"
    },
    {
      "inputs": [
        {
          "internalType": "bytes32",
          "name": "role",
          "type": "bytes32"
        },
        {
          "internalType": "address",
          "name": "account",
          "type": "address"
        }
      ],
      "name": "revokeRole",
      "outputs": [],
      "stateMutability": "nonpayable",
      "type": "function"
    },
    {
      "inputs": [],
      "name": "symbol",
      "outputs": [
        {
          "internalType": "string",
          "name": "",
          "type": "string"
        }
      ],
      "stateMutability": "view",
      "type": "function",
      "constant": true
    },
    {
      "inputs": [],
      "name": "totalSupply",
      "outputs": [
        {
          "internalType": "uint256",
          "name": "",
          "type": "uint256"
        }
      ],
      "stateMutability": "view",
      "type": "function",
      "constant": true
    },
    {
      "inputs": [
        {
          "internalType": "address",
          "name": "recipient",
          "type": "address"
        },
        {
          "internalType": "uint256",
          "name": "amount",
          "type": "uint256"
        }
      ],
      "name": "transfer",
      "outputs": [
        {
          "internalType": "bool",
          "name": "",
          "type": "bool"
        }
      ],
      "stateMutability": "nonpayable",
      "type": "function"
    },
    {
      "inputs": [
        {
          "internalType": "address",
          "name": "sender",
          "type": "address"
        },
        {
          "internalType": "address",
          "name": "recipient",
          "type": "address"
        },
        {
          "internalType": "uint256",
          "name": "amount",
          "type": "uint256"
        }
      ],
      "name": "transferFrom",
      "outputs": [
        {
          "internalType": "bool",
          "name": "",
          "type": "bool"
        }
      ],
      "stateMutability": "nonpayable",
      "type": "function"
    },
    {
      "stateMutability": "payable",
      "type": "receive",
      "payable": true
    },
    {
      "inputs": [
        {
          "internalType": "uint256",
          "name": "_startPrice",
          "type": "uint256"
        },
        {
          "internalType": "uint256",
          "name": "_reservedPrice",
          "type": "uint256"
        },
        {
          "internalType": "uint256",
          "name": "_supply",
          "type": "uint256"
        },
        {
          "internalType": "uint256",
          "name": "_timeLimit",
          "type": "uint256"
        }
      ],
      "name": "createAuction",
      "outputs": [],
      "stateMutability": "nonpayable",
      "type": "function"
    },
    {
      "inputs": [],
      "name": "openCurrAuction",
      "outputs": [],
      "stateMutability": "nonpayable",
      "type": "function"
    }
  ],
  "bytecode": "0x60806040523480156200001157600080fd5b5060405162004c6a38038062004c6a833981810160405260408110156200003757600080fd5b81019080805160405193929190846401000000008211156200005857600080fd5b838201915060208201858111156200006f57600080fd5b82518660018202830111640100000000821117156200008d57600080fd5b8083526020830192505050908051906020019080838360005b83811015620000c3578082015181840152602081019050620000a6565b50505050905090810190601f168015620000f15780820380516001836020036101000a031916815260200191505b50604052602001805160405193929190846401000000008211156200011557600080fd5b838201915060208201858111156200012c57600080fd5b82518660018202830111640100000000821117156200014a57600080fd5b8083526020830192505050908051906020019080838360005b838110156200018057808201518184015260208101905062000163565b50505050905090810190601f168015620001ae5780820380516001836020036101000a031916815260200191505b5060405250505081818160049080519060200190620001cf9291906200066e565b508060059080519060200190620001e89291906200066e565b506012600660006101000a81548160ff021916908360ff16021790555050506200021c6000801b336200026a60201b60201c565b6200024e7fcfba8be83af357df8defaa5e92d4092d7061b755093a8b7649b2afc2929f5c65336200026a60201b60201c565b62000262336103e86200028060201b60201c565b505062000714565b6200027c82826200046060201b60201c565b5050565b600073ffffffffffffffffffffffffffffffffffffffff168273ffffffffffffffffffffffffffffffffffffffff16141562000324576040517f08c379a000000000000000000000000000000000000000000000000000000000815260040180806020018281038252601f8152602001807f45524332303a206d696e7420746f20746865207a65726f20616464726573730081525060200191505060405180910390fd5b62000338600083836200050360201b60201c565b62000354816003546200050860201b6200156e1790919060201c565b600381905550620003b381600160008573ffffffffffffffffffffffffffffffffffffffff1673ffffffffffffffffffffffffffffffffffffffff168152602001908152602001600020546200050860201b6200156e1790919060201c565b600160008473ffffffffffffffffffffffffffffffffffffffff1673ffffffffffffffffffffffffffffffffffffffff168152602001908152602001600020819055508173ffffffffffffffffffffffffffffffffffffffff16600073ffffffffffffffffffffffffffffffffffffffff167fddf252ad1be2c89b69c2b068fc378daa952ba7f163c4a11628f55a4df523b3ef836040518082815260200191505060405180910390a35050565b6200048e816000808581526020019081526020016000206000016200059160201b620015f71790919060201c565b15620004ff57620004a4620005c960201b60201c565b73ffffffffffffffffffffffffffffffffffffffff168173ffffffffffffffffffffffffffffffffffffffff16837f2f8788117e7eff1d82e926ec794901d17c78024a50270940304540a733656f0d60405160405180910390a45b5050565b505050565b60008082840190508381101562000587576040517f08c379a000000000000000000000000000000000000000000000000000000000815260040180806020018281038252601b8152602001807f536166654d6174683a206164646974696f6e206f766572666c6f77000000000081525060200191505060405180910390fd5b8091505092915050565b6000620005c1836000018373ffffffffffffffffffffffffffffffffffffffff1660001b620005d160201b60201c565b905092915050565b600033905090565b6000620005e583836200064b60201b60201c565b6200064057826000018290806001815401808255809150506001900390600052602060002001600090919091909150558260000180549050836001016000848152602001908152602001600020819055506001905062000645565b600090505b92915050565b600080836001016000848152602001908152602001600020541415905092915050565b828054600181600116156101000203166002900490600052602060002090601f016020900481019282601f10620006b157805160ff1916838001178555620006e2565b82800160010185558215620006e2579182015b82811115620006e1578251825591602001919060010190620006c4565b5b509050620006f19190620006f5565b5090565b5b8082111562000710576000816000905550600101620006f6565b5090565b61454680620007246000396000f3fe6080604052600436106200018d5760003560e01c80635476ea9e11620000e5578063a217fddf1162000097578063ca15c873116200006d578063ca15c8731462000977578063d29feaad14620009ca578063d547741f14620009f8578063dd62ed3e1462000a575762000195565b8063a217fddf146200085f578063a457c2d7146200088d578063a9059cbb14620009025762000195565b80635476ea9e14620005d557806370a08231146200061957806379cc679014620006825780639010d07c14620006e157806391d14854146200075457806395d89b4114620007c95762000195565b8063313ce567116200013f578063313ce567146200041a57806336568abe146200044b5780633950935114620004aa578063424a14d2146200051f57806342966c681462000539578063431f21da14620005785762000195565b806306fdde03146200019a578063095ea7b3146200023057806318160ddd14620002a557806323b872dd14620002d3578063248a9ca314620003685780632f2ff15d14620003bb5762000195565b366200019557005b600080fd5b348015620001a757600080fd5b50620001b262000ae0565b6040518080602001828103825283818151815260200191508051906020019080838360005b83811015620001f4578082015181840152602081019050620001d7565b50505050905090810190601f168015620002225780820380516001836020036101000a031916815260200191505b509250505060405180910390f35b3480156200023d57600080fd5b506200028d600480360360408110156200025657600080fd5b81019080803573ffffffffffffffffffffffffffffffffffffffff1690602001909291908035906020019092919050505062000b86565b60405180821515815260200191505060405180910390f35b348015620002b257600080fd5b50620002bd62000ba8565b6040518082815260200191505060405180910390f35b348015620002e057600080fd5b506200035060048036036060811015620002f957600080fd5b81019080803573ffffffffffffffffffffffffffffffffffffffff169060200190929190803573ffffffffffffffffffffffffffffffffffffffff1690602001909291908035906020019092919050505062000bb2565b60405180821515815260200191505060405180910390f35b3480156200037557600080fd5b50620003a5600480360360208110156200038e57600080fd5b810190808035906020019092919050505062000c96565b6040518082815260200191505060405180910390f35b348015620003c857600080fd5b506200041860048036036040811015620003e157600080fd5b8101908080359060200190929190803573ffffffffffffffffffffffffffffffffffffffff16906020019092919050505062000cb5565b005b3480156200042757600080fd5b506200043262000d46565b604051808260ff16815260200191505060405180910390f35b3480156200045857600080fd5b50620004a8600480360360408110156200047157600080fd5b8101908080359060200190929190803573ffffffffffffffffffffffffffffffffffffffff16906020019092919050505062000d5d565b005b348015620004b757600080fd5b506200050760048036036040811015620004d057600080fd5b81019080803573ffffffffffffffffffffffffffffffffffffffff1690602001909291908035906020019092919050505062000dfc565b60405180821515815260200191505060405180910390f35b3480156200052c57600080fd5b506200053762000eb7565b005b3480156200054657600080fd5b5062000576600480360360208110156200055f57600080fd5b810190808035906020019092919050505062000fc0565b005b3480156200058557600080fd5b50620005d3600480360360808110156200059e57600080fd5b810190808035906020019092919080359060200190929190803590602001909291908035906020019092919050505062000fd8565b005b348015620005e257600080fd5b50620005ed62001121565b604051808273ffffffffffffffffffffffffffffffffffffffff16815260200191505060405180910390f35b3480156200062657600080fd5b506200066c600480360360208110156200063f57600080fd5b81019080803573ffffffffffffffffffffffffffffffffffffffff16906020019092919050505062001147565b6040518082815260200191505060405180910390f35b3480156200068f57600080fd5b50620006df60048036036040811015620006a857600080fd5b81019080803573ffffffffffffffffffffffffffffffffffffffff1690602001909291908035906020019092919050505062001190565b005b348015620006ee57600080fd5b5062000728600480360360408110156200070757600080fd5b810190808035906020019092919080359060200190929190505050620011ff565b604051808273ffffffffffffffffffffffffffffffffffffffff16815260200191505060405180910390f35b3480156200076157600080fd5b50620007b1600480360360408110156200077a57600080fd5b8101908080359060200190929190803573ffffffffffffffffffffffffffffffffffffffff16906020019092919050505062001232565b60405180821515815260200191505060405180910390f35b348015620007d657600080fd5b50620007e162001265565b6040518080602001828103825283818151815260200191508051906020019080838360005b838110156200082357808201518184015260208101905062000806565b50505050905090810190601f168015620008515780820380516001836020036101000a031916815260200191505b509250505060405180910390f35b3480156200086c57600080fd5b50620008776200130b565b6040518082815260200191505060405180910390f35b3480156200089a57600080fd5b50620008ea60048036036040811015620008b357600080fd5b81019080803573ffffffffffffffffffffffffffffffffffffffff1690602001909291908035906020019092919050505062001312565b60405180821515815260200191505060405180910390f35b3480156200090f57600080fd5b506200095f600480360360408110156200092857600080fd5b81019080803573ffffffffffffffffffffffffffffffffffffffff16906020019092919080359060200190929190505050620013e8565b60405180821515815260200191505060405180910390f35b3480156200098457600080fd5b50620009b4600480360360208110156200099d57600080fd5b81019080803590602001909291905050506200140a565b6040518082815260200191505060405180910390f35b348015620009d757600080fd5b50620009e262001432565b6040518082815260200191505060405180910390f35b34801562000a0557600080fd5b5062000a556004803603604081101562000a1e57600080fd5b8101908080359060200190929190803573ffffffffffffffffffffffffffffffffffffffff16906020019092919050505062001456565b005b34801562000a6457600080fd5b5062000aca6004803603604081101562000a7d57600080fd5b81019080803573ffffffffffffffffffffffffffffffffffffffff169060200190929190803573ffffffffffffffffffffffffffffffffffffffff169060200190929190505050620014e7565b6040518082815260200191505060405180910390f35b606060048054600181600116156101000203166002900480601f01602080910402602001604051908101604052809291908181526020018280546001816001161561010002031660029004801562000b7c5780601f1062000b505761010080835404028352916020019162000b7c565b820191906000526020600020905b81548152906001019060200180831162000b5e57829003601f168201915b5050505050905090565b600062000b9e62000b9662001629565b848462001631565b6001905092915050565b6000600354905090565b600062000bc18484846200182c565b62000c8b8462000bd062001629565b62000c85856040518060600160405280602881526020016200440760289139600260008b73ffffffffffffffffffffffffffffffffffffffff1673ffffffffffffffffffffffffffffffffffffffff168152602001908152602001600020600062000c3a62001629565b73ffffffffffffffffffffffffffffffffffffffff1673ffffffffffffffffffffffffffffffffffffffff1681526020019081526020016000205462001afc9092919063ffffffff16565b62001631565b600190509392505050565b6000806000838152602001908152602001600020600201549050919050565b62000cdf6000808481526020019081526020016000206002015462000cd962001629565b62001232565b62000d36576040517f08c379a000000000000000000000000000000000000000000000000000000000815260040180806020018281038252602f815260200180620042fb602f913960400191505060405180910390fd5b62000d42828262001bc0565b5050565b6000600660009054906101000a900460ff16905090565b62000d6762001629565b73ffffffffffffffffffffffffffffffffffffffff168173ffffffffffffffffffffffffffffffffffffffff161462000dec576040517f08c379a000000000000000000000000000000000000000000000000000000000815260040180806020018281038252602f815260200180620044e2602f913960400191505060405180910390fd5b62000df8828262001c58565b5050565b600062000ead62000e0c62001629565b8462000ea7856002600062000e2062001629565b73ffffffffffffffffffffffffffffffffffffffff1673ffffffffffffffffffffffffffffffffffffffff16815260200190815260200160002060008973ffffffffffffffffffffffffffffffffffffffff1673ffffffffffffffffffffffffffffffffffffffff168152602001908152602001600020546200156e90919063ffffffff16565b62001631565b6001905092915050565b62000ee37fcfba8be83af357df8defaa5e92d4092d7061b755093a8b7649b2afc2929f5c653362001232565b62000f3a576040517f08c379a00000000000000000000000000000000000000000000000000000000081526004018080602001828103825260438152602001806200436e6043913960600191505060405180910390fd5b600660019054906101000a900473ffffffffffffffffffffffffffffffffffffffff1673ffffffffffffffffffffffffffffffffffffffff166304cb72f96040518163ffffffff1660e01b8152600401600060405180830381600087803b15801562000fa557600080fd5b505af115801562000fba573d6000803e3d6000fd5b50505050565b62000fd562000fce62001629565b8262001cf0565b50565b620010047fcfba8be83af357df8defaa5e92d4092d7061b755093a8b7649b2afc2929f5c653362001232565b6200105b576040517f08c379a0000000000000000000000000000000000000000000000000000000008152600401808060200182810382526043815260200180620042736043913960600191505060405180910390fd5b600084848484306040516200107090620021c2565b808681526020018581526020018481526020018381526020018273ffffffffffffffffffffffffffffffffffffffff16815260200195505050505050604051809103906000f080158015620010c9573d6000803e3d6000fd5b509050620010d88184620013e8565b5080600660016101000a81548173ffffffffffffffffffffffffffffffffffffffff021916908373ffffffffffffffffffffffffffffffffffffffff1602179055505050505050565b600660019054906101000a900473ffffffffffffffffffffffffffffffffffffffff1681565b6000600160008373ffffffffffffffffffffffffffffffffffffffff1673ffffffffffffffffffffffffffffffffffffffff168152602001908152602001600020549050919050565b6000620011d6826040518060600160405280602481526020016200442f60249139620011c686620011c062001629565b620014e7565b62001afc9092919063ffffffff16565b9050620011ee83620011e762001629565b8362001631565b620011fa838362001cf0565b505050565b60006200122a8260008086815260200190815260200160002060000162001ebf90919063ffffffff16565b905092915050565b60006200125d8260008086815260200190815260200160002060000162001edb90919063ffffffff16565b905092915050565b606060058054600181600116156101000203166002900480601f016020809104026020016040519081016040528092919081815260200182805460018160011615610100020316600290048015620013015780601f10620012d55761010080835404028352916020019162001301565b820191906000526020600020905b815481529060010190602001808311620012e357829003601f168201915b5050505050905090565b6000801b81565b6000620013de6200132262001629565b84620013d885604051806060016040528060258152602001620044bd60259139600260006200135062001629565b73ffffffffffffffffffffffffffffffffffffffff1673ffffffffffffffffffffffffffffffffffffffff16815260200190815260200160002060008a73ffffffffffffffffffffffffffffffffffffffff1673ffffffffffffffffffffffffffffffffffffffff1681526020019081526020016000205462001afc9092919063ffffffff16565b62001631565b6001905092915050565b600062001400620013f862001629565b84846200182c565b6001905092915050565b60006200142b60008084815260200190815260200160002060000162001f0d565b9050919050565b7fcfba8be83af357df8defaa5e92d4092d7061b755093a8b7649b2afc2929f5c6581565b62001480600080848152602001908152602001600020600201546200147a62001629565b62001232565b620014d7576040517f08c379a0000000000000000000000000000000000000000000000000000000008152600401808060200182810382526030815260200180620043d76030913960400191505060405180910390fd5b620014e3828262001c58565b5050565b6000600260008473ffffffffffffffffffffffffffffffffffffffff1673ffffffffffffffffffffffffffffffffffffffff16815260200190815260200160002060008373ffffffffffffffffffffffffffffffffffffffff1673ffffffffffffffffffffffffffffffffffffffff16815260200190815260200160002054905092915050565b600080828401905083811015620015ed576040517f08c379a000000000000000000000000000000000000000000000000000000000815260040180806020018281038252601b8152602001807f536166654d6174683a206164646974696f6e206f766572666c6f77000000000081525060200191505060405180910390fd5b8091505092915050565b600062001621836000018373ffffffffffffffffffffffffffffffffffffffff1660001b62001f24565b905092915050565b600033905090565b600073ffffffffffffffffffffffffffffffffffffffff168373ffffffffffffffffffffffffffffffffffffffff161415620016b9576040517f08c379a0000000000000000000000000000000000000000000000000000000008152600401808060200182810382526024815260200180620044996024913960400191505060405180910390fd5b600073ffffffffffffffffffffffffffffffffffffffff168273ffffffffffffffffffffffffffffffffffffffff16141562001741576040517f08c379a00000000000000000000000000000000000000000000000000000000081526004018080602001828103825260228152602001806200434c6022913960400191505060405180910390fd5b80600260008573ffffffffffffffffffffffffffffffffffffffff1673ffffffffffffffffffffffffffffffffffffffff16815260200190815260200160002060008473ffffffffffffffffffffffffffffffffffffffff1673ffffffffffffffffffffffffffffffffffffffff168152602001908152602001600020819055508173ffffffffffffffffffffffffffffffffffffffff168373ffffffffffffffffffffffffffffffffffffffff167f8c5be1e5ebec7d5bd14f71427d1e84f3dd0314c0f7b2291e5b200ac8c7c3b925836040518082815260200191505060405180910390a3505050565b600073ffffffffffffffffffffffffffffffffffffffff168373ffffffffffffffffffffffffffffffffffffffff161415620018b4576040517f08c379a0000000000000000000000000000000000000000000000000000000008152600401808060200182810382526025815260200180620044746025913960400191505060405180910390fd5b600073ffffffffffffffffffffffffffffffffffffffff168273ffffffffffffffffffffffffffffffffffffffff1614156200193c576040517f08c379a0000000000000000000000000000000000000000000000000000000008152600401808060200182810382526023815260200180620042d86023913960400191505060405180910390fd5b6200194983838362001f98565b620019b881604051806060016040528060268152602001620043b160269139600160008773ffffffffffffffffffffffffffffffffffffffff1673ffffffffffffffffffffffffffffffffffffffff1681526020019081526020016000205462001afc9092919063ffffffff16565b600160008573ffffffffffffffffffffffffffffffffffffffff1673ffffffffffffffffffffffffffffffffffffffff1681526020019081526020016000208190555062001a4f81600160008573ffffffffffffffffffffffffffffffffffffffff1673ffffffffffffffffffffffffffffffffffffffff168152602001908152602001600020546200156e90919063ffffffff16565b600160008473ffffffffffffffffffffffffffffffffffffffff1673ffffffffffffffffffffffffffffffffffffffff168152602001908152602001600020819055508173ffffffffffffffffffffffffffffffffffffffff168373ffffffffffffffffffffffffffffffffffffffff167fddf252ad1be2c89b69c2b068fc378daa952ba7f163c4a11628f55a4df523b3ef836040518082815260200191505060405180910390a3505050565b600083831115829062001bad576040517f08c379a00000000000000000000000000000000000000000000000000000000081526004018080602001828103825283818151815260200191508051906020019080838360005b8381101562001b7157808201518184015260208101905062001b54565b50505050905090810190601f16801562001b9f5780820380516001836020036101000a031916815260200191505b509250505060405180910390fd5b5060008385039050809150509392505050565b62001be981600080858152602001908152602001600020600001620015f790919063ffffffff16565b1562001c545762001bf962001629565b73ffffffffffffffffffffffffffffffffffffffff168173ffffffffffffffffffffffffffffffffffffffff16837f2f8788117e7eff1d82e926ec794901d17c78024a50270940304540a733656f0d60405160405180910390a45b5050565b62001c818160008085815260200190815260200160002060000162001f9d90919063ffffffff16565b1562001cec5762001c9162001629565b73ffffffffffffffffffffffffffffffffffffffff168173ffffffffffffffffffffffffffffffffffffffff16837ff6391f5c32d9c69d2a47ea670b442974b53935d1edc7fd64eb21e047a839171b60405160405180910390a45b5050565b600073ffffffffffffffffffffffffffffffffffffffff168273ffffffffffffffffffffffffffffffffffffffff16141562001d78576040517f08c379a0000000000000000000000000000000000000000000000000000000008152600401808060200182810382526021815260200180620044536021913960400191505060405180910390fd5b62001d868260008362001f98565b62001df5816040518060600160405280602281526020016200432a60229139600160008673ffffffffffffffffffffffffffffffffffffffff1673ffffffffffffffffffffffffffffffffffffffff1681526020019081526020016000205462001afc9092919063ffffffff16565b600160008473ffffffffffffffffffffffffffffffffffffffff1673ffffffffffffffffffffffffffffffffffffffff1681526020019081526020016000208190555062001e4f8160035462001fcf90919063ffffffff16565b600381905550600073ffffffffffffffffffffffffffffffffffffffff168273ffffffffffffffffffffffffffffffffffffffff167fddf252ad1be2c89b69c2b068fc378daa952ba7f163c4a11628f55a4df523b3ef836040518082815260200191505060405180910390a35050565b600062001ed083600001836200201b565b60001c905092915050565b600062001f05836000018373ffffffffffffffffffffffffffffffffffffffff1660001b620020a1565b905092915050565b600062001f1d82600001620020c4565b9050919050565b600062001f328383620020a1565b62001f8d57826000018290806001815401808255809150506001900390600052602060002001600090919091909150558260000180549050836001016000848152602001908152602001600020819055506001905062001f92565b600090505b92915050565b505050565b600062001fc7836000018373ffffffffffffffffffffffffffffffffffffffff1660001b620020d5565b905092915050565b60006200201383836040518060400160405280601e81526020017f536166654d6174683a207375627472616374696f6e206f766572666c6f77000081525062001afc565b905092915050565b6000818360000180549050116200207e576040517f08c379a0000000000000000000000000000000000000000000000000000000008152600401808060200182810382526022815260200180620042b66022913960400191505060405180910390fd5b8260000182815481106200208e57fe5b9060005260206000200154905092915050565b600080836001016000848152602001908152602001600020541415905092915050565b600081600001805490509050919050565b60008083600101600084815260200190815260200160002054905060008114620021b657600060018203905060006001866000018054905003905060008660000182815481106200212257fe5b90600052602060002001549050808760000184815481106200214057fe5b90600052602060002001819055506001830187600101600083815260200190815260200160002081905550866000018054806200217957fe5b60019003818190600052602060002001600090559055866001016000878152602001908152602001600020600090556001945050505050620021bc565b60009150505b92915050565b6120a280620021d18339019056fe608060405234801561001057600080fd5b506040516120a23803806120a2833981810160405260a081101561003357600080fd5b810190808051906020019092919080519060200190929190805190602001909291908051906020019092919080519060200190929190505050846004819055508360058190555082600781905550603c820260098190555080600a60006101000a81548173ffffffffffffffffffffffffffffffffffffffff021916908373ffffffffffffffffffffffffffffffffffffffff1602179055506000600a60146101000a81548160ff021916908360038111156100eb57fe5b02179055505050505050611f9e806101046000396000f3fe6080604052600436106101355760003560e01c806378e97925116100ab578063ae6e22f11161006f578063ae6e22f1146104d5578063afe0104314610500578063c08d1fe514610536578063ca15c87314610561578063d547741f146105b0578063f1a9af891461060b57610135565b806378e97925146103885780639010d07c146103b357806391d1485414610422578063a217fddf14610493578063a96f8668146104be57610135565b80632f2ff15d116100fd5780632f2ff15d1461025b57806332a0f2d7146102b657806336568abe146102e1578063378252f21461033c5780633c7a3aff146103535780637824407f1461035d57610135565b806304cb72f91461013a5780630522bf0314610151578063059f8b16146101b65780631b55d216146101e1578063248a9ca31461020c575b600080fd5b34801561014657600080fd5b5061014f610636565b005b34801561015d57600080fd5b506101a06004803603602081101561017457600080fd5b81019080803573ffffffffffffffffffffffffffffffffffffffff16906020019092919050505061075a565b6040518082815260200191505060405180910390f35b3480156101c257600080fd5b506101cb6107a3565b6040518082815260200191505060405180910390f35b3480156101ed57600080fd5b506101f66107ac565b6040518082815260200191505060405180910390f35b34801561021857600080fd5b506102456004803603602081101561022f57600080fd5b81019080803590602001909291905050506107b2565b6040518082815260200191505060405180910390f35b34801561026757600080fd5b506102b46004803603604081101561027e57600080fd5b8101908080359060200190929190803573ffffffffffffffffffffffffffffffffffffffff1690602001909291905050506107d1565b005b3480156102c257600080fd5b506102cb61085a565b6040518082815260200191505060405180910390f35b3480156102ed57600080fd5b5061033a6004803603604081101561030457600080fd5b8101908080359060200190929190803573ffffffffffffffffffffffffffffffffffffffff169060200190929190505050610860565b005b34801561034857600080fd5b506103516108f9565b005b61035b610ca0565b005b34801561036957600080fd5b50610372611116565b6040518082815260200191505060405180910390f35b34801561039457600080fd5b5061039d61111c565b6040518082815260200191505060405180910390f35b3480156103bf57600080fd5b506103f6600480360360408110156103d657600080fd5b810190808035906020019092919080359060200190929190505050611122565b604051808273ffffffffffffffffffffffffffffffffffffffff16815260200191505060405180910390f35b34801561042e57600080fd5b5061047b6004803603604081101561044557600080fd5b8101908080359060200190929190803573ffffffffffffffffffffffffffffffffffffffff169060200190929190505050611153565b60405180821515815260200191505060405180910390f35b34801561049f57600080fd5b506104a8611184565b6040518082815260200191505060405180910390f35b3480156104ca57600080fd5b506104d361118b565b005b3480156104e157600080fd5b506104ea61161b565b6040518082815260200191505060405180910390f35b34801561050c57600080fd5b50610515611621565b6040518082600381111561052557fe5b815260200191505060405180910390f35b34801561054257600080fd5b5061054b611634565b6040518082815260200191505060405180910390f35b34801561056d57600080fd5b5061059a6004803603602081101561058457600080fd5b810190808035906020019092919050505061163a565b6040518082815260200191505060405180910390f35b3480156105bc57600080fd5b50610609600480360360408110156105d357600080fd5b8101908080359060200190929190803573ffffffffffffffffffffffffffffffffffffffff169060200190929190505050611660565b005b34801561061757600080fd5b506106206116e9565b6040518082815260200191505060405180910390f35b600a60009054906101000a900473ffffffffffffffffffffffffffffffffffffffff1673ffffffffffffffffffffffffffffffffffffffff163373ffffffffffffffffffffffffffffffffffffffff16146106dc576040517f08c379a000000000000000000000000000000000000000000000000000000000815260040180806020018281038252602c815260200180611eb6602c913960400191505060405180910390fd5b426008819055506001600a60146101000a81548160ff0219169083600381111561070257fe5b02179055507f268f1153844c3ed9f77b7cabc4fedb9d9994a5361b583f824ffbe523f3739e65600a60149054906101000a900460ff166040518082600381111561074857fe5b815260200191505060405180910390a1565b6000600260008373ffffffffffffffffffffffffffffffffffffffff1673ffffffffffffffffffffffffffffffffffffffff168152602001908152602001600020549050919050565b64e8d4a5100081565b60055481565b6000806000838152602001908152602001600020600201549050919050565b6107f7600080848152602001908152602001600020600201546107f26116ef565b611153565b61084c576040517f08c379a000000000000000000000000000000000000000000000000000000000815260040180806020018281038252602f815260200180611e36602f913960400191505060405180910390fd5b61085682826116f7565b5050565b60065481565b6108686116ef565b73ffffffffffffffffffffffffffffffffffffffff168173ffffffffffffffffffffffffffffffffffffffff16146108eb576040517f08c379a000000000000000000000000000000000000000000000000000000000815260040180806020018281038252602f815260200180611f3a602f913960400191505060405180910390fd5b6108f5828261178a565b5050565b6002600381111561090657fe5b600a60149054906101000a900460ff16600381111561092157fe5b1415610995576040517f08c379a000000000000000000000000000000000000000000000000000000000815260040180806020018281038252601b8152602001807f54686520636f6e747261637420616c726561647920636c6f736564000000000081525060200191505060405180910390fd5b6009546109ad6008544261181d90919063ffffffff16565b1115610abb576002600a60146101000a81548160ff021916908360038111156109d257fe5b02179055506109f564e8d4a510006005540260075461186790919063ffffffff16565b6003541115610a3757610a2c64e8d4a51000610a1e6007546003546118ed90919063ffffffff16565b6118ed90919063ffffffff16565b600681905550610a41565b6005546006819055505b6002600a60146101000a81548160ff02191690836003811115610a6057fe5b02179055507f268f1153844c3ed9f77b7cabc4fedb9d9994a5361b583f824ffbe523f3739e65600a60149054906101000a900460ff1660405180826003811115610aa657fe5b815260200191505060405180910390a1610c9e565b6000610b5e600554610b506103e8610b42610ae360055460045461181d90919063ffffffff16565b610b34600954610b266103e8610b1842610b0a60095460085461193790919063ffffffff16565b61181d90919063ffffffff16565b61186790919063ffffffff16565b6118ed90919063ffffffff16565b61186790919063ffffffff16565b6118ed90919063ffffffff16565b61193790919063ffffffff16565b9050610b7c64e8d4a51000820260075461186790919063ffffffff16565b6003541015610bf3576040517f08c379a000000000000000000000000000000000000000000000000000000000815260040180806020018281038252601b8152602001807f4e6f74207468652072696768742074696d6520746f20636c6f7365000000000081525060200191505060405180910390fd5b610c2164e8d4a51000610c136007546003546118ed90919063ffffffff16565b6118ed90919063ffffffff16565b6006819055506002600a60146101000a81548160ff02191690836003811115610c4657fe5b02179055507f268f1153844c3ed9f77b7cabc4fedb9d9994a5361b583f824ffbe523f3739e65600a60149054906101000a900460ff1660405180826003811115610c8c57fe5b815260200191505060405180910390a1505b565b60016003811115610cad57fe5b600a60149054906101000a900460ff166003811115610cc857fe5b14610d1e576040517f08c379a000000000000000000000000000000000000000000000000000000000815260040180806020018281038252602a815260200180611ee2602a913960400191505060405180910390fd5b600954610d366008544261181d90919063ffffffff16565b10610da9576040517f08c379a00000000000000000000000000000000000000000000000000000000081526004018080602001828103825260158152602001807f54686520636f6e7472616374206973206f76657220000000000000000000000081525060200191505060405180910390fd5b6000610e4c600554610e3e6103e8610e30610dd160055460045461181d90919063ffffffff16565b610e22600954610e146103e8610e0642610df860095460085461193790919063ffffffff16565b61181d90919063ffffffff16565b61186790919063ffffffff16565b6118ed90919063ffffffff16565b61186790919063ffffffff16565b6118ed90919063ffffffff16565b61193790919063ffffffff16565b9050610e6a64e8d4a51000820260075461186790919063ffffffff16565b60035410610ee0576040517f08c379a000000000000000000000000000000000000000000000000000000000815260040180806020018281038252601b8152602001807f54686520636f6e747261637420616c726561647920636c6f736564000000000081525060200191505060405180910390fd5b610ef53460035461193790919063ffffffff16565b600381905550600160405180604001604052803373ffffffffffffffffffffffffffffffffffffffff16815260200134815250908060018154018082558091505060019003906000526020600020906002020160009091909190915060008201518160000160006101000a81548173ffffffffffffffffffffffffffffffffffffffff021916908373ffffffffffffffffffffffffffffffffffffffff160217905550602082015181600101555050610ff634600260003373ffffffffffffffffffffffffffffffffffffffff1673ffffffffffffffffffffffffffffffffffffffff1681526020019081526020016000205461193790919063ffffffff16565b600260003373ffffffffffffffffffffffffffffffffffffffff1673ffffffffffffffffffffffffffffffffffffffff168152602001908152602001600020819055507f9e2f6b1e3f3c354bf8e290190cec21c802d02da827cc107d37bc9768ddb036e66003546040518082815260200191505060405180910390a161108e64e8d4a51000820260075461186790919063ffffffff16565b6003541061111357806006819055506002600a60146101000a81548160ff021916908360038111156110bc57fe5b02179055507f268f1153844c3ed9f77b7cabc4fedb9d9994a5361b583f824ffbe523f3739e65600a60149054906101000a900460ff166040518082600381111561110257fe5b815260200191505060405180910390a15b50565b60075481565b60085481565b600061114b826000808681526020019081526020016000206000016119bf90919063ffffffff16565b905092915050565b600061117c826000808681526020019081526020016000206000016119d990919063ffffffff16565b905092915050565b6000801b81565b6002600381111561119857fe5b600a60149054906101000a900460ff1660038111156111b357fe5b14611209576040517f08c379a000000000000000000000000000000000000000000000000000000000815260040180806020018281038252602e815260200180611f0c602e913960400191505060405180910390fd5b600060035490506000600754905060005b60018054905081101561149b57600061126364e8d4a51000600654026001848154811061124357fe5b9060005260206000209060020201600101546118ed90919063ffffffff16565b90508281111561136a5760006001838154811061127c57fe5b906000526020600020906002020160000160009054906101000a900473ffffffffffffffffffffffffffffffffffffffff16905083915060006113016112d464e8d4a51000600654028561186790919063ffffffff16565b600186815481106112e157fe5b90600052602060002090600202016001015461181d90919063ffffffff16565b90508173ffffffffffffffffffffffffffffffffffffffff166108fc829081150290604051600060405180830381858888f19350505050158015611349573d6000803e3d6000fd5b5061135d818761181d90919063ffffffff16565b9550600094505050611380565b61137d818461181d90919063ffffffff16565b92505b600a60009054906101000a900473ffffffffffffffffffffffffffffffffffffffff1673ffffffffffffffffffffffffffffffffffffffff1663a9059cbb600184815481106113cb57fe5b906000526020600020906002020160000160009054906101000a900473ffffffffffffffffffffffffffffffffffffffff16836040518363ffffffff1660e01b8152600401808373ffffffffffffffffffffffffffffffffffffffff16815260200182815260200192505050602060405180830381600087803b15801561145157600080fd5b505af1158015611465573d6000803e3d6000fd5b505050506040513d602081101561147b57600080fd5b81019080805190602001909291905050505050808060010191505061121a565b506000600a60009054906101000a900473ffffffffffffffffffffffffffffffffffffffff1690508073ffffffffffffffffffffffffffffffffffffffff166108fc849081150290604051600060405180830381858888f19350505050158015611509573d6000803e3d6000fd5b5060008211156115a157600a60009054906101000a900473ffffffffffffffffffffffffffffffffffffffff1673ffffffffffffffffffffffffffffffffffffffff166342966c68836040518263ffffffff1660e01b815260040180828152602001915050600060405180830381600087803b15801561158857600080fd5b505af115801561159c573d6000803e3d6000fd5b505050505b6003600a60146101000a81548160ff021916908360038111156115c057fe5b02179055507f268f1153844c3ed9f77b7cabc4fedb9d9994a5361b583f824ffbe523f3739e65600a60149054906101000a900460ff166040518082600381111561160657fe5b815260200191505060405180910390a1505050565b60035481565b600a60149054906101000a900460ff1681565b60095481565b6000611659600080848152602001908152602001600020600001611a09565b9050919050565b611686600080848152602001908152602001600020600201546116816116ef565b611153565b6116db576040517f08c379a0000000000000000000000000000000000000000000000000000000008152600401808060200182810382526030815260200180611e656030913960400191505060405180910390fd5b6116e5828261178a565b5050565b60045481565b600033905090565b61171e81600080858152602001908152602001600020600001611a1e90919063ffffffff16565b156117865761172b6116ef565b73ffffffffffffffffffffffffffffffffffffffff168173ffffffffffffffffffffffffffffffffffffffff16837f2f8788117e7eff1d82e926ec794901d17c78024a50270940304540a733656f0d60405160405180910390a45b5050565b6117b181600080858152602001908152602001600020600001611a4e90919063ffffffff16565b15611819576117be6116ef565b73ffffffffffffffffffffffffffffffffffffffff168173ffffffffffffffffffffffffffffffffffffffff16837ff6391f5c32d9c69d2a47ea670b442974b53935d1edc7fd64eb21e047a839171b60405160405180910390a45b5050565b600061185f83836040518060400160405280601e81526020017f536166654d6174683a207375627472616374696f6e206f766572666c6f770000815250611a7e565b905092915050565b60008083141561187a57600090506118e7565b600082840290508284828161188b57fe5b04146118e2576040517f08c379a0000000000000000000000000000000000000000000000000000000008152600401808060200182810382526021815260200180611e956021913960400191505060405180910390fd5b809150505b92915050565b600061192f83836040518060400160405280601a81526020017f536166654d6174683a206469766973696f6e206279207a65726f000000000000815250611b3e565b905092915050565b6000808284019050838110156119b5576040517f08c379a000000000000000000000000000000000000000000000000000000000815260040180806020018281038252601b8152602001807f536166654d6174683a206164646974696f6e206f766572666c6f77000000000081525060200191505060405180910390fd5b8091505092915050565b60006119ce8360000183611c04565b60001c905092915050565b6000611a01836000018373ffffffffffffffffffffffffffffffffffffffff1660001b611c87565b905092915050565b6000611a1782600001611caa565b9050919050565b6000611a46836000018373ffffffffffffffffffffffffffffffffffffffff1660001b611cbb565b905092915050565b6000611a76836000018373ffffffffffffffffffffffffffffffffffffffff1660001b611d2b565b905092915050565b6000838311158290611b2b576040517f08c379a00000000000000000000000000000000000000000000000000000000081526004018080602001828103825283818151815260200191508051906020019080838360005b83811015611af0578082015181840152602081019050611ad5565b50505050905090810190601f168015611b1d5780820380516001836020036101000a031916815260200191505b509250505060405180910390fd5b5060008385039050809150509392505050565b60008083118290611bea576040517f08c379a00000000000000000000000000000000000000000000000000000000081526004018080602001828103825283818151815260200191508051906020019080838360005b83811015611baf578082015181840152602081019050611b94565b50505050905090810190601f168015611bdc5780820380516001836020036101000a031916815260200191505b509250505060405180910390fd5b506000838581611bf657fe5b049050809150509392505050565b600081836000018054905011611c65576040517f08c379a0000000000000000000000000000000000000000000000000000000008152600401808060200182810382526022815260200180611e146022913960400191505060405180910390fd5b826000018281548110611c7457fe5b9060005260206000200154905092915050565b600080836001016000848152602001908152602001600020541415905092915050565b600081600001805490509050919050565b6000611cc78383611c87565b611d20578260000182908060018154018082558091505060019003906000526020600020016000909190919091505582600001805490508360010160008481526020019081526020016000208190555060019050611d25565b600090505b92915050565b60008083600101600084815260200190815260200160002054905060008114611e075760006001820390506000600186600001805490500390506000866000018281548110611d7657fe5b9060005260206000200154905080876000018481548110611d9357fe5b9060005260206000200181905550600183018760010160008381526020019081526020016000208190555086600001805480611dcb57fe5b60019003818190600052602060002001600090559055866001016000878152602001908152602001600020600090556001945050505050611e0d565b60009150505b9291505056fe456e756d657261626c655365743a20696e646578206f7574206f6620626f756e6473416363657373436f6e74726f6c3a2073656e646572206d75737420626520616e2061646d696e20746f206772616e74416363657373436f6e74726f6c3a2073656e646572206d75737420626520616e2061646d696e20746f207265766f6b65536166654d6174683a206d756c7469706c69636174696f6e206f766572666c6f774f6e6c792074686520746f6b656e20636f6e74726163742063616e206f70656e207468652061756374696f6e54686520636f6e747261637420636c6f736564206f722068617665206e6f74206f70656e6564207965745468652061756374696f6e20616c72656164792072656c6561736573206f72206e6f74206f70656e656420796574416363657373436f6e74726f6c3a2063616e206f6e6c792072656e6f756e636520726f6c657320666f722073656c66a2646970667358221220832a835814ecbb3ac439e7393b66de4b71fb7617336d712e95422f77389ffd7364736f6c634300060c003343797068657270756e6b436f696e3a206d75737420686176652061756374696f6e2063726561746f7220726f6c6520746f2063726561746520616e2061756374696f6e456e756d657261626c655365743a20696e646578206f7574206f6620626f756e647345524332303a207472616e7366657220746f20746865207a65726f2061646472657373416363657373436f6e74726f6c3a2073656e646572206d75737420626520616e2061646d696e20746f206772616e7445524332303a206275726e20616d6f756e7420657863656564732062616c616e636545524332303a20617070726f766520746f20746865207a65726f206164647265737343797068657270756e6b436f696e3a206d75737420686176652061756374696f6e2063726561746f7220726f6c6520746f206f70656e20746869732061756374696f6e45524332303a207472616e7366657220616d6f756e7420657863656564732062616c616e6365416363657373436f6e74726f6c3a2073656e646572206d75737420626520616e2061646d696e20746f207265766f6b6545524332303a207472616e7366657220616d6f756e74206578636565647320616c6c6f77616e636545524332303a206275726e20616d6f756e74206578636565647320616c6c6f77616e636545524332303a206275726e2066726f6d20746865207a65726f206164647265737345524332303a207472616e736665722066726f6d20746865207a65726f206164647265737345524332303a20617070726f76652066726f6d20746865207a65726f206164647265737345524332303a2064656372656173656420616c6c6f77616e63652062656c6f77207a65726f416363657373436f6e74726f6c3a2063616e206f6e6c792072656e6f756e636520726f6c657320666f722073656c66a264697066735822122036f4a48b1bcd2a1750fe50f76477d479d9231f3c90ec8f8c34702632e4f5865264736f6c634300060c0033",
  "immutableReferences": {},
  "source": "pragma solidity ^0.6.0;\r\n\r\nimport \"@openzeppelin/contracts/access/AccessControl.sol\";\r\nimport \"@openzeppelin/contracts/GSN/Context.sol\";\r\nimport \"@openzeppelin/contracts/token/ERC20/ERC20.sol\";\r\nimport \"@openzeppelin/contracts/token/ERC20/ERC20Burnable.sol\";\r\nimport \"./Auction.sol\";\r\n\r\ncontract CypherpunkCoin is Context, AccessControl, ERC20Burnable {\r\n    bytes32 public constant AUCTION_CREATOR_ROLE = keccak256(\r\n        \"AUCTION_CREATOR_ROLE\"\r\n    );\r\n\r\n    constructor(string memory name, string memory symbol)\r\n        public\r\n        ERC20(name, symbol)\r\n    {\r\n        //set up admin role\r\n        _setupRole(DEFAULT_ADMIN_ROLE, msg.sender);\r\n\r\n        //set up auction creator role\r\n        _setupRole(AUCTION_CREATOR_ROLE, msg.sender);\r\n        _mint(msg.sender, 1000);\r\n    }\r\n\r\n    address public auctionAddress;\r\n\r\n    // prices in units of microEther\r\n    function createAuction(\r\n        uint256 _startPrice,\r\n        uint256 _reservedPrice,\r\n        uint256 _supply,\r\n        uint256 _timeLimit\r\n    ) external {\r\n        require(\r\n            hasRole(AUCTION_CREATOR_ROLE, msg.sender),\r\n            \"CypherpunkCoin: must have auction creator role to create an auction\"\r\n        );\r\n        Auction auction = new Auction(\r\n            _startPrice,\r\n            _reservedPrice,\r\n            _supply,\r\n            _timeLimit,\r\n            this\r\n        );\r\n        transfer(address(auction), _supply);\r\n        auctionAddress = address(auction);\r\n    }\r\n\r\n    function openCurrAuction() external {\r\n        require(\r\n            hasRole(AUCTION_CREATOR_ROLE, msg.sender),\r\n            \"CypherpunkCoin: must have auction creator role to open this auction\"\r\n        );\r\n        Auction(auctionAddress).openAuction();\r\n    }\r\n\r\n    receive() external payable {}\r\n}\r\n",
  "sourcePath": "F:\\NTU\\Courses\\Sem 1 2020-2021\\Blockchain Technology\\CZ4153-Dutch-Contract\\contracts\\CypherpunkCoin.sol",
  "compiler": {
    "name": "solc",
    "version": "0.6.12+commit.27d51765.Emscripten.clang"
  },
  "schemaVersion": "3.3.1",
  "updatedAt": "2020-11-02T17:54:29.768Z",
  "networkType": "ethereum",
  "devdoc": {
    "kind": "dev",
    "methods": {
      "allowance(address,address)": {
        "details": "See {IERC20-allowance}."
      },
      "approve(address,uint256)": {
        "details": "See {IERC20-approve}. Requirements: - `spender` cannot be the zero address."
      },
      "balanceOf(address)": {
        "details": "See {IERC20-balanceOf}."
      },
      "burn(uint256)": {
        "details": "Destroys `amount` tokens from the caller. See {ERC20-_burn}."
      },
      "burnFrom(address,uint256)": {
        "details": "Destroys `amount` tokens from `account`, deducting from the caller's allowance. See {ERC20-_burn} and {ERC20-allowance}. Requirements: - the caller must have allowance for ``accounts``'s tokens of at least `amount`."
      },
      "decimals()": {
        "details": "Returns the number of decimals used to get its user representation. For example, if `decimals` equals `2`, a balance of `505` tokens should be displayed to a user as `5,05` (`505 / 10 ** 2`). Tokens usually opt for a value of 18, imitating the relationship between Ether and Wei. This is the value {ERC20} uses, unless {_setupDecimals} is called. NOTE: This information is only used for _display_ purposes: it in no way affects any of the arithmetic of the contract, including {IERC20-balanceOf} and {IERC20-transfer}."
      },
      "decreaseAllowance(address,uint256)": {
        "details": "Atomically decreases the allowance granted to `spender` by the caller. This is an alternative to {approve} that can be used as a mitigation for problems described in {IERC20-approve}. Emits an {Approval} event indicating the updated allowance. Requirements: - `spender` cannot be the zero address. - `spender` must have allowance for the caller of at least `subtractedValue`."
      },
      "getRoleAdmin(bytes32)": {
        "details": "Returns the admin role that controls `role`. See {grantRole} and {revokeRole}. To change a role's admin, use {_setRoleAdmin}."
      },
      "getRoleMember(bytes32,uint256)": {
        "details": "Returns one of the accounts that have `role`. `index` must be a value between 0 and {getRoleMemberCount}, non-inclusive. Role bearers are not sorted in any particular way, and their ordering may change at any point. WARNING: When using {getRoleMember} and {getRoleMemberCount}, make sure you perform all queries on the same block. See the following https://forum.openzeppelin.com/t/iterating-over-elements-on-enumerableset-in-openzeppelin-contracts/2296[forum post] for more information."
      },
      "getRoleMemberCount(bytes32)": {
        "details": "Returns the number of accounts that have `role`. Can be used together with {getRoleMember} to enumerate all bearers of a role."
      },
      "grantRole(bytes32,address)": {
        "details": "Grants `role` to `account`. If `account` had not been already granted `role`, emits a {RoleGranted} event. Requirements: - the caller must have ``role``'s admin role."
      },
      "hasRole(bytes32,address)": {
        "details": "Returns `true` if `account` has been granted `role`."
      },
      "increaseAllowance(address,uint256)": {
        "details": "Atomically increases the allowance granted to `spender` by the caller. This is an alternative to {approve} that can be used as a mitigation for problems described in {IERC20-approve}. Emits an {Approval} event indicating the updated allowance. Requirements: - `spender` cannot be the zero address."
      },
      "name()": {
        "details": "Returns the name of the token."
      },
      "renounceRole(bytes32,address)": {
        "details": "Revokes `role` from the calling account. Roles are often managed via {grantRole} and {revokeRole}: this function's purpose is to provide a mechanism for accounts to lose their privileges if they are compromised (such as when a trusted device is misplaced). If the calling account had been granted `role`, emits a {RoleRevoked} event. Requirements: - the caller must be `account`."
      },
      "revokeRole(bytes32,address)": {
        "details": "Revokes `role` from `account`. If `account` had been granted `role`, emits a {RoleRevoked} event. Requirements: - the caller must have ``role``'s admin role."
      },
      "symbol()": {
        "details": "Returns the symbol of the token, usually a shorter version of the name."
      },
      "totalSupply()": {
        "details": "See {IERC20-totalSupply}."
      },
      "transfer(address,uint256)": {
        "details": "See {IERC20-transfer}. Requirements: - `recipient` cannot be the zero address. - the caller must have a balance of at least `amount`."
      },
      "transferFrom(address,address,uint256)": {
        "details": "See {IERC20-transferFrom}. Emits an {Approval} event indicating the updated allowance. This is not required by the EIP. See the note at the beginning of {ERC20}; Requirements: - `sender` and `recipient` cannot be the zero address. - `sender` must have a balance of at least `amount`. - the caller must have allowance for ``sender``'s tokens of at least `amount`."
      }
    },
    "version": 1
  },
  "userdoc": {
    "kind": "user",
    "methods": {},
    "version": 1
  }
}