{
  "contractName": "CypherpunkCoin",
  "abi": [
    {
      "inputs": [
        {
          "internalType": "string",
          "name": "name",
          "type": "string"
        },
        {
          "internalType": "string",
          "name": "symbol",
          "type": "string"
        }
      ],
      "stateMutability": "nonpayable",
      "type": "constructor"
    },
    {
      "anonymous": false,
      "inputs": [
        {
          "indexed": true,
          "internalType": "address",
          "name": "owner",
          "type": "address"
        },
        {
          "indexed": true,
          "internalType": "address",
          "name": "spender",
          "type": "address"
        },
        {
          "indexed": false,
          "internalType": "uint256",
          "name": "value",
          "type": "uint256"
        }
      ],
      "name": "Approval",
      "type": "event"
    },
    {
      "anonymous": false,
      "inputs": [
        {
          "indexed": true,
          "internalType": "bytes32",
          "name": "role",
          "type": "bytes32"
        },
        {
          "indexed": true,
          "internalType": "bytes32",
          "name": "previousAdminRole",
          "type": "bytes32"
        },
        {
          "indexed": true,
          "internalType": "bytes32",
          "name": "newAdminRole",
          "type": "bytes32"
        }
      ],
      "name": "RoleAdminChanged",
      "type": "event"
    },
    {
      "anonymous": false,
      "inputs": [
        {
          "indexed": true,
          "internalType": "bytes32",
          "name": "role",
          "type": "bytes32"
        },
        {
          "indexed": true,
          "internalType": "address",
          "name": "account",
          "type": "address"
        },
        {
          "indexed": true,
          "internalType": "address",
          "name": "sender",
          "type": "address"
        }
      ],
      "name": "RoleGranted",
      "type": "event"
    },
    {
      "anonymous": false,
      "inputs": [
        {
          "indexed": true,
          "internalType": "bytes32",
          "name": "role",
          "type": "bytes32"
        },
        {
          "indexed": true,
          "internalType": "address",
          "name": "account",
          "type": "address"
        },
        {
          "indexed": true,
          "internalType": "address",
          "name": "sender",
          "type": "address"
        }
      ],
      "name": "RoleRevoked",
      "type": "event"
    },
    {
      "anonymous": false,
      "inputs": [
        {
          "indexed": true,
          "internalType": "address",
          "name": "from",
          "type": "address"
        },
        {
          "indexed": true,
          "internalType": "address",
          "name": "to",
          "type": "address"
        },
        {
          "indexed": false,
          "internalType": "uint256",
          "name": "value",
          "type": "uint256"
        }
      ],
      "name": "Transfer",
      "type": "event"
    },
    {
      "inputs": [],
      "name": "AUCTION_CREATOR_ROLE",
      "outputs": [
        {
          "internalType": "bytes32",
          "name": "",
          "type": "bytes32"
        }
      ],
      "stateMutability": "view",
      "type": "function",
      "constant": true
    },
    {
      "inputs": [],
      "name": "DEFAULT_ADMIN_ROLE",
      "outputs": [
        {
          "internalType": "bytes32",
          "name": "",
          "type": "bytes32"
        }
      ],
      "stateMutability": "view",
      "type": "function",
      "constant": true
    },
    {
      "inputs": [
        {
          "internalType": "address",
          "name": "owner",
          "type": "address"
        },
        {
          "internalType": "address",
          "name": "spender",
          "type": "address"
        }
      ],
      "name": "allowance",
      "outputs": [
        {
          "internalType": "uint256",
          "name": "",
          "type": "uint256"
        }
      ],
      "stateMutability": "view",
      "type": "function",
      "constant": true
    },
    {
      "inputs": [
        {
          "internalType": "address",
          "name": "spender",
          "type": "address"
        },
        {
          "internalType": "uint256",
          "name": "amount",
          "type": "uint256"
        }
      ],
      "name": "approve",
      "outputs": [
        {
          "internalType": "bool",
          "name": "",
          "type": "bool"
        }
      ],
      "stateMutability": "nonpayable",
      "type": "function"
    },
    {
      "inputs": [],
      "name": "auctionAddress",
      "outputs": [
        {
          "internalType": "address",
          "name": "",
          "type": "address"
        }
      ],
      "stateMutability": "view",
      "type": "function",
      "constant": true
    },
    {
      "inputs": [
        {
          "internalType": "address",
          "name": "account",
          "type": "address"
        }
      ],
      "name": "balanceOf",
      "outputs": [
        {
          "internalType": "uint256",
          "name": "",
          "type": "uint256"
        }
      ],
      "stateMutability": "view",
      "type": "function",
      "constant": true
    },
    {
      "inputs": [
        {
          "internalType": "uint256",
          "name": "amount",
          "type": "uint256"
        }
      ],
      "name": "burn",
      "outputs": [],
      "stateMutability": "nonpayable",
      "type": "function"
    },
    {
      "inputs": [
        {
          "internalType": "address",
          "name": "account",
          "type": "address"
        },
        {
          "internalType": "uint256",
          "name": "amount",
          "type": "uint256"
        }
      ],
      "name": "burnFrom",
      "outputs": [],
      "stateMutability": "nonpayable",
      "type": "function"
    },
    {
      "inputs": [],
      "name": "decimals",
      "outputs": [
        {
          "internalType": "uint8",
          "name": "",
          "type": "uint8"
        }
      ],
      "stateMutability": "view",
      "type": "function",
      "constant": true
    },
    {
      "inputs": [
        {
          "internalType": "address",
          "name": "spender",
          "type": "address"
        },
        {
          "internalType": "uint256",
          "name": "subtractedValue",
          "type": "uint256"
        }
      ],
      "name": "decreaseAllowance",
      "outputs": [
        {
          "internalType": "bool",
          "name": "",
          "type": "bool"
        }
      ],
      "stateMutability": "nonpayable",
      "type": "function"
    },
    {
      "inputs": [
        {
          "internalType": "bytes32",
          "name": "role",
          "type": "bytes32"
        }
      ],
      "name": "getRoleAdmin",
      "outputs": [
        {
          "internalType": "bytes32",
          "name": "",
          "type": "bytes32"
        }
      ],
      "stateMutability": "view",
      "type": "function",
      "constant": true
    },
    {
      "inputs": [
        {
          "internalType": "bytes32",
          "name": "role",
          "type": "bytes32"
        },
        {
          "internalType": "uint256",
          "name": "index",
          "type": "uint256"
        }
      ],
      "name": "getRoleMember",
      "outputs": [
        {
          "internalType": "address",
          "name": "",
          "type": "address"
        }
      ],
      "stateMutability": "view",
      "type": "function",
      "constant": true
    },
    {
      "inputs": [
        {
          "internalType": "bytes32",
          "name": "role",
          "type": "bytes32"
        }
      ],
      "name": "getRoleMemberCount",
      "outputs": [
        {
          "internalType": "uint256",
          "name": "",
          "type": "uint256"
        }
      ],
      "stateMutability": "view",
      "type": "function",
      "constant": true
    },
    {
      "inputs": [
        {
          "internalType": "bytes32",
          "name": "role",
          "type": "bytes32"
        },
        {
          "internalType": "address",
          "name": "account",
          "type": "address"
        }
      ],
      "name": "grantRole",
      "outputs": [],
      "stateMutability": "nonpayable",
      "type": "function"
    },
    {
      "inputs": [
        {
          "internalType": "bytes32",
          "name": "role",
          "type": "bytes32"
        },
        {
          "internalType": "address",
          "name": "account",
          "type": "address"
        }
      ],
      "name": "hasRole",
      "outputs": [
        {
          "internalType": "bool",
          "name": "",
          "type": "bool"
        }
      ],
      "stateMutability": "view",
      "type": "function",
      "constant": true
    },
    {
      "inputs": [
        {
          "internalType": "address",
          "name": "spender",
          "type": "address"
        },
        {
          "internalType": "uint256",
          "name": "addedValue",
          "type": "uint256"
        }
      ],
      "name": "increaseAllowance",
      "outputs": [
        {
          "internalType": "bool",
          "name": "",
          "type": "bool"
        }
      ],
      "stateMutability": "nonpayable",
      "type": "function"
    },
    {
      "inputs": [],
      "name": "name",
      "outputs": [
        {
          "internalType": "string",
          "name": "",
          "type": "string"
        }
      ],
      "stateMutability": "view",
      "type": "function",
      "constant": true
    },
    {
      "inputs": [
        {
          "internalType": "bytes32",
          "name": "role",
          "type": "bytes32"
        },
        {
          "internalType": "address",
          "name": "account",
          "type": "address"
        }
      ],
      "name": "renounceRole",
      "outputs": [],
      "stateMutability": "nonpayable",
      "type": "function"
    },
    {
      "inputs": [
        {
          "internalType": "bytes32",
          "name": "role",
          "type": "bytes32"
        },
        {
          "internalType": "address",
          "name": "account",
          "type": "address"
        }
      ],
      "name": "revokeRole",
      "outputs": [],
      "stateMutability": "nonpayable",
      "type": "function"
    },
    {
      "inputs": [],
      "name": "symbol",
      "outputs": [
        {
          "internalType": "string",
          "name": "",
          "type": "string"
        }
      ],
      "stateMutability": "view",
      "type": "function",
      "constant": true
    },
    {
      "inputs": [],
      "name": "totalSupply",
      "outputs": [
        {
          "internalType": "uint256",
          "name": "",
          "type": "uint256"
        }
      ],
      "stateMutability": "view",
      "type": "function",
      "constant": true
    },
    {
      "inputs": [
        {
          "internalType": "address",
          "name": "recipient",
          "type": "address"
        },
        {
          "internalType": "uint256",
          "name": "amount",
          "type": "uint256"
        }
      ],
      "name": "transfer",
      "outputs": [
        {
          "internalType": "bool",
          "name": "",
          "type": "bool"
        }
      ],
      "stateMutability": "nonpayable",
      "type": "function"
    },
    {
      "inputs": [
        {
          "internalType": "address",
          "name": "sender",
          "type": "address"
        },
        {
          "internalType": "address",
          "name": "recipient",
          "type": "address"
        },
        {
          "internalType": "uint256",
          "name": "amount",
          "type": "uint256"
        }
      ],
      "name": "transferFrom",
      "outputs": [
        {
          "internalType": "bool",
          "name": "",
          "type": "bool"
        }
      ],
      "stateMutability": "nonpayable",
      "type": "function"
    },
    {
      "stateMutability": "payable",
      "type": "receive",
      "payable": true
    },
    {
      "inputs": [
        {
          "internalType": "uint256",
          "name": "_startPrice",
          "type": "uint256"
        },
        {
          "internalType": "uint256",
          "name": "_reservedPrice",
          "type": "uint256"
        },
        {
          "internalType": "uint256",
          "name": "_supply",
          "type": "uint256"
        }
      ],
      "name": "createAuction",
      "outputs": [
        {
          "internalType": "contract Auction",
          "name": "",
          "type": "address"
        }
      ],
      "stateMutability": "nonpayable",
      "type": "function"
    }
  ],
  "bytecode": "0x60806040523480156200001157600080fd5b5060405162003ac538038062003ac5833981810160405260408110156200003757600080fd5b81019080805160405193929190846401000000008211156200005857600080fd5b838201915060208201858111156200006f57600080fd5b82518660018202830111640100000000821117156200008d57600080fd5b8083526020830192505050908051906020019080838360005b83811015620000c3578082015181840152602081019050620000a6565b50505050905090810190601f168015620000f15780820380516001836020036101000a031916815260200191505b50604052602001805160405193929190846401000000008211156200011557600080fd5b838201915060208201858111156200012c57600080fd5b82518660018202830111640100000000821117156200014a57600080fd5b8083526020830192505050908051906020019080838360005b838110156200018057808201518184015260208101905062000163565b50505050905090810190601f168015620001ae5780820380516001836020036101000a031916815260200191505b5060405250505081818160049080519060200190620001cf9291906200066e565b508060059080519060200190620001e89291906200066e565b506012600660006101000a81548160ff021916908360ff16021790555050506200021c6000801b336200026a60201b60201c565b6200024e7fcfba8be83af357df8defaa5e92d4092d7061b755093a8b7649b2afc2929f5c65336200026a60201b60201c565b62000262336103e86200028060201b60201c565b505062000714565b6200027c82826200046060201b60201c565b5050565b600073ffffffffffffffffffffffffffffffffffffffff168273ffffffffffffffffffffffffffffffffffffffff16141562000324576040517f08c379a000000000000000000000000000000000000000000000000000000000815260040180806020018281038252601f8152602001807f45524332303a206d696e7420746f20746865207a65726f20616464726573730081525060200191505060405180910390fd5b62000338600083836200050360201b60201c565b62000354816003546200050860201b6200144b1790919060201c565b600381905550620003b381600160008573ffffffffffffffffffffffffffffffffffffffff1673ffffffffffffffffffffffffffffffffffffffff168152602001908152602001600020546200050860201b6200144b1790919060201c565b600160008473ffffffffffffffffffffffffffffffffffffffff1673ffffffffffffffffffffffffffffffffffffffff168152602001908152602001600020819055508173ffffffffffffffffffffffffffffffffffffffff16600073ffffffffffffffffffffffffffffffffffffffff167fddf252ad1be2c89b69c2b068fc378daa952ba7f163c4a11628f55a4df523b3ef836040518082815260200191505060405180910390a35050565b6200048e816000808581526020019081526020016000206000016200059160201b620014d41790919060201c565b15620004ff57620004a4620005c960201b60201c565b73ffffffffffffffffffffffffffffffffffffffff168173ffffffffffffffffffffffffffffffffffffffff16837f2f8788117e7eff1d82e926ec794901d17c78024a50270940304540a733656f0d60405160405180910390a45b5050565b505050565b60008082840190508381101562000587576040517f08c379a000000000000000000000000000000000000000000000000000000000815260040180806020018281038252601b8152602001807f536166654d6174683a206164646974696f6e206f766572666c6f77000000000081525060200191505060405180910390fd5b8091505092915050565b6000620005c1836000018373ffffffffffffffffffffffffffffffffffffffff1660001b620005d160201b60201c565b905092915050565b600033905090565b6000620005e583836200064b60201b60201c565b6200064057826000018290806001815401808255809150506001900390600052602060002001600090919091909150558260000180549050836001016000848152602001908152602001600020819055506001905062000645565b600090505b92915050565b600080836001016000848152602001908152602001600020541415905092915050565b828054600181600116156101000203166002900490600052602060002090601f016020900481019282601f10620006b157805160ff1916838001178555620006e2565b82800160010185558215620006e2579182015b82811115620006e1578251825591602001919060010190620006c4565b5b509050620006f19190620006f5565b5090565b5b8082111562000710576000816000905550600101620006f6565b5090565b6133a180620007246000396000f3fe6080604052600436106200016f5760003560e01c806379cc679011620000c7578063a9059cbb1162000079578063a9059cbb146200086d578063ca15c87314620008e2578063cda4beef1462000935578063d29feaad14620009b2578063d547741f14620009e0578063dd62ed3e1462000a3f5762000177565b806379cc679014620005ed5780639010d07c146200064c57806391d1485414620006bf57806395d89b411462000734578063a217fddf14620007ca578063a457c2d714620007f85762000177565b8063313ce5671162000121578063313ce56714620003fc57806336568abe146200042d57806339509351146200048c57806342966c6814620005015780635476ea9e146200054057806370a0823114620005845762000177565b806306fdde03146200017c578063095ea7b3146200021257806318160ddd146200028757806323b872dd14620002b5578063248a9ca3146200034a5780632f2ff15d146200039d5762000177565b366200017757005b600080fd5b3480156200018957600080fd5b506200019462000ac8565b6040518080602001828103825283818151815260200191508051906020019080838360005b83811015620001d6578082015181840152602081019050620001b9565b50505050905090810190601f168015620002045780820380516001836020036101000a031916815260200191505b509250505060405180910390f35b3480156200021f57600080fd5b506200026f600480360360408110156200023857600080fd5b81019080803573ffffffffffffffffffffffffffffffffffffffff1690602001909291908035906020019092919050505062000b6e565b60405180821515815260200191505060405180910390f35b3480156200029457600080fd5b506200029f62000b90565b6040518082815260200191505060405180910390f35b348015620002c257600080fd5b506200033260048036036060811015620002db57600080fd5b81019080803573ffffffffffffffffffffffffffffffffffffffff169060200190929190803573ffffffffffffffffffffffffffffffffffffffff1690602001909291908035906020019092919050505062000b9a565b60405180821515815260200191505060405180910390f35b3480156200035757600080fd5b5062000387600480360360208110156200037057600080fd5b810190808035906020019092919050505062000c7e565b6040518082815260200191505060405180910390f35b348015620003aa57600080fd5b50620003fa60048036036040811015620003c357600080fd5b8101908080359060200190929190803573ffffffffffffffffffffffffffffffffffffffff16906020019092919050505062000c9d565b005b3480156200040957600080fd5b506200041462000d2e565b604051808260ff16815260200191505060405180910390f35b3480156200043a57600080fd5b506200048a600480360360408110156200045357600080fd5b8101908080359060200190929190803573ffffffffffffffffffffffffffffffffffffffff16906020019092919050505062000d45565b005b3480156200049957600080fd5b50620004e960048036036040811015620004b257600080fd5b81019080803573ffffffffffffffffffffffffffffffffffffffff1690602001909291908035906020019092919050505062000de4565b60405180821515815260200191505060405180910390f35b3480156200050e57600080fd5b506200053e600480360360208110156200052757600080fd5b810190808035906020019092919050505062000e9f565b005b3480156200054d57600080fd5b506200055862000eb7565b604051808273ffffffffffffffffffffffffffffffffffffffff16815260200191505060405180910390f35b3480156200059157600080fd5b50620005d760048036036020811015620005aa57600080fd5b81019080803573ffffffffffffffffffffffffffffffffffffffff16906020019092919050505062000edd565b6040518082815260200191505060405180910390f35b348015620005fa57600080fd5b506200064a600480360360408110156200061357600080fd5b81019080803573ffffffffffffffffffffffffffffffffffffffff1690602001909291908035906020019092919050505062000f26565b005b3480156200065957600080fd5b5062000693600480360360408110156200067257600080fd5b81019080803590602001909291908035906020019092919050505062000f95565b604051808273ffffffffffffffffffffffffffffffffffffffff16815260200191505060405180910390f35b348015620006cc57600080fd5b506200071c60048036036040811015620006e557600080fd5b8101908080359060200190929190803573ffffffffffffffffffffffffffffffffffffffff16906020019092919050505062000fc8565b60405180821515815260200191505060405180910390f35b3480156200074157600080fd5b506200074c62000ffb565b6040518080602001828103825283818151815260200191508051906020019080838360005b838110156200078e57808201518184015260208101905062000771565b50505050905090810190601f168015620007bc5780820380516001836020036101000a031916815260200191505b509250505060405180910390f35b348015620007d757600080fd5b50620007e2620010a1565b6040518082815260200191505060405180910390f35b3480156200080557600080fd5b5062000855600480360360408110156200081e57600080fd5b81019080803573ffffffffffffffffffffffffffffffffffffffff16906020019092919080359060200190929190505050620010a8565b60405180821515815260200191505060405180910390f35b3480156200087a57600080fd5b50620008ca600480360360408110156200089357600080fd5b81019080803573ffffffffffffffffffffffffffffffffffffffff169060200190929190803590602001909291905050506200117e565b60405180821515815260200191505060405180910390f35b348015620008ef57600080fd5b506200091f600480360360208110156200090857600080fd5b8101908080359060200190929190505050620011a0565b6040518082815260200191505060405180910390f35b3480156200094257600080fd5b5062000986600480360360608110156200095b57600080fd5b81019080803590602001909291908035906020019092919080359060200190929190505050620011c8565b604051808273ffffffffffffffffffffffffffffffffffffffff16815260200191505060405180910390f35b348015620009bf57600080fd5b50620009ca6200130f565b6040518082815260200191505060405180910390f35b348015620009ed57600080fd5b5062000a3d6004803603604081101562000a0657600080fd5b8101908080359060200190929190803573ffffffffffffffffffffffffffffffffffffffff16906020019092919050505062001333565b005b34801562000a4c57600080fd5b5062000ab26004803603604081101562000a6557600080fd5b81019080803573ffffffffffffffffffffffffffffffffffffffff169060200190929190803573ffffffffffffffffffffffffffffffffffffffff169060200190929190505050620013c4565b6040518082815260200191505060405180910390f35b606060048054600181600116156101000203166002900480601f01602080910402602001604051908101604052809291908181526020018280546001816001161561010002031660029004801562000b645780601f1062000b385761010080835404028352916020019162000b64565b820191906000526020600020905b81548152906001019060200180831162000b4657829003601f168201915b5050505050905090565b600062000b8662000b7e62001506565b84846200150e565b6001905092915050565b6000600354905090565b600062000ba984848462001709565b62000c738462000bb862001506565b62000c6d856040518060600160405280602881526020016200326260289139600260008b73ffffffffffffffffffffffffffffffffffffffff1673ffffffffffffffffffffffffffffffffffffffff168152602001908152602001600020600062000c2262001506565b73ffffffffffffffffffffffffffffffffffffffff1673ffffffffffffffffffffffffffffffffffffffff16815260200190815260200160002054620019d99092919063ffffffff16565b6200150e565b600190509392505050565b6000806000838152602001908152602001600020600201549050919050565b62000cc76000808481526020019081526020016000206002015462000cc162001506565b62000fc8565b62000d1e576040517f08c379a000000000000000000000000000000000000000000000000000000000815260040180806020018281038252602f81526020018062003199602f913960400191505060405180910390fd5b62000d2a828262001a9d565b5050565b6000600660009054906101000a900460ff16905090565b62000d4f62001506565b73ffffffffffffffffffffffffffffffffffffffff168173ffffffffffffffffffffffffffffffffffffffff161462000dd4576040517f08c379a000000000000000000000000000000000000000000000000000000000815260040180806020018281038252602f8152602001806200333d602f913960400191505060405180910390fd5b62000de0828262001b35565b5050565b600062000e9562000df462001506565b8462000e8f856002600062000e0862001506565b73ffffffffffffffffffffffffffffffffffffffff1673ffffffffffffffffffffffffffffffffffffffff16815260200190815260200160002060008973ffffffffffffffffffffffffffffffffffffffff1673ffffffffffffffffffffffffffffffffffffffff168152602001908152602001600020546200144b90919063ffffffff16565b6200150e565b6001905092915050565b62000eb462000ead62001506565b8262001bcd565b50565b600660019054906101000a900473ffffffffffffffffffffffffffffffffffffffff1681565b6000600160008373ffffffffffffffffffffffffffffffffffffffff1673ffffffffffffffffffffffffffffffffffffffff168152602001908152602001600020549050919050565b600062000f6c826040518060600160405280602481526020016200328a6024913962000f5c8662000f5662001506565b620013c4565b620019d99092919063ffffffff16565b905062000f848362000f7d62001506565b836200150e565b62000f90838362001bcd565b505050565b600062000fc08260008086815260200190815260200160002060000162001d9c90919063ffffffff16565b905092915050565b600062000ff38260008086815260200190815260200160002060000162001db890919063ffffffff16565b905092915050565b606060058054600181600116156101000203166002900480601f016020809104026020016040519081016040528092919081815260200182805460018160011615610100020316600290048015620010975780601f106200106b5761010080835404028352916020019162001097565b820191906000526020600020905b8154815290600101906020018083116200107957829003601f168201915b5050505050905090565b6000801b81565b600062001174620010b862001506565b846200116e85604051806060016040528060258152602001620033186025913960026000620010e662001506565b73ffffffffffffffffffffffffffffffffffffffff1673ffffffffffffffffffffffffffffffffffffffff16815260200190815260200160002060008a73ffffffffffffffffffffffffffffffffffffffff1673ffffffffffffffffffffffffffffffffffffffff16815260200190815260200160002054620019d99092919063ffffffff16565b6200150e565b6001905092915050565b6000620011966200118e62001506565b848462001709565b6001905092915050565b6000620011c160008084815260200190815260200160002060000162001dea565b9050919050565b6000620011f67fcfba8be83af357df8defaa5e92d4092d7061b755093a8b7649b2afc2929f5c653362000fc8565b6200124d576040517f08c379a0000000000000000000000000000000000000000000000000000000008152600401808060200182810382526043815260200180620031116043913960600191505060405180910390fd5b60008484843060405162001261906200209f565b808581526020018481526020018381526020018273ffffffffffffffffffffffffffffffffffffffff168152602001945050505050604051809103906000f080158015620012b3573d6000803e3d6000fd5b50905080600660016101000a81548173ffffffffffffffffffffffffffffffffffffffff021916908373ffffffffffffffffffffffffffffffffffffffff1602179055506200130381846200117e565b50809150509392505050565b7fcfba8be83af357df8defaa5e92d4092d7061b755093a8b7649b2afc2929f5c6581565b6200135d600080848152602001908152602001600020600201546200135762001506565b62000fc8565b620013b4576040517f08c379a0000000000000000000000000000000000000000000000000000000008152600401808060200182810382526030815260200180620032326030913960400191505060405180910390fd5b620013c0828262001b35565b5050565b6000600260008473ffffffffffffffffffffffffffffffffffffffff1673ffffffffffffffffffffffffffffffffffffffff16815260200190815260200160002060008373ffffffffffffffffffffffffffffffffffffffff1673ffffffffffffffffffffffffffffffffffffffff16815260200190815260200160002054905092915050565b600080828401905083811015620014ca576040517f08c379a000000000000000000000000000000000000000000000000000000000815260040180806020018281038252601b8152602001807f536166654d6174683a206164646974696f6e206f766572666c6f77000000000081525060200191505060405180910390fd5b8091505092915050565b6000620014fe836000018373ffffffffffffffffffffffffffffffffffffffff1660001b62001e01565b905092915050565b600033905090565b600073ffffffffffffffffffffffffffffffffffffffff168373ffffffffffffffffffffffffffffffffffffffff16141562001596576040517f08c379a0000000000000000000000000000000000000000000000000000000008152600401808060200182810382526024815260200180620032f46024913960400191505060405180910390fd5b600073ffffffffffffffffffffffffffffffffffffffff168273ffffffffffffffffffffffffffffffffffffffff1614156200161e576040517f08c379a0000000000000000000000000000000000000000000000000000000008152600401808060200182810382526022815260200180620031ea6022913960400191505060405180910390fd5b80600260008573ffffffffffffffffffffffffffffffffffffffff1673ffffffffffffffffffffffffffffffffffffffff16815260200190815260200160002060008473ffffffffffffffffffffffffffffffffffffffff1673ffffffffffffffffffffffffffffffffffffffff168152602001908152602001600020819055508173ffffffffffffffffffffffffffffffffffffffff168373ffffffffffffffffffffffffffffffffffffffff167f8c5be1e5ebec7d5bd14f71427d1e84f3dd0314c0f7b2291e5b200ac8c7c3b925836040518082815260200191505060405180910390a3505050565b600073ffffffffffffffffffffffffffffffffffffffff168373ffffffffffffffffffffffffffffffffffffffff16141562001791576040517f08c379a0000000000000000000000000000000000000000000000000000000008152600401808060200182810382526025815260200180620032cf6025913960400191505060405180910390fd5b600073ffffffffffffffffffffffffffffffffffffffff168273ffffffffffffffffffffffffffffffffffffffff16141562001819576040517f08c379a0000000000000000000000000000000000000000000000000000000008152600401808060200182810382526023815260200180620031766023913960400191505060405180910390fd5b6200182683838362001e75565b62001895816040518060600160405280602681526020016200320c60269139600160008773ffffffffffffffffffffffffffffffffffffffff1673ffffffffffffffffffffffffffffffffffffffff16815260200190815260200160002054620019d99092919063ffffffff16565b600160008573ffffffffffffffffffffffffffffffffffffffff1673ffffffffffffffffffffffffffffffffffffffff168152602001908152602001600020819055506200192c81600160008573ffffffffffffffffffffffffffffffffffffffff1673ffffffffffffffffffffffffffffffffffffffff168152602001908152602001600020546200144b90919063ffffffff16565b600160008473ffffffffffffffffffffffffffffffffffffffff1673ffffffffffffffffffffffffffffffffffffffff168152602001908152602001600020819055508173ffffffffffffffffffffffffffffffffffffffff168373ffffffffffffffffffffffffffffffffffffffff167fddf252ad1be2c89b69c2b068fc378daa952ba7f163c4a11628f55a4df523b3ef836040518082815260200191505060405180910390a3505050565b600083831115829062001a8a576040517f08c379a00000000000000000000000000000000000000000000000000000000081526004018080602001828103825283818151815260200191508051906020019080838360005b8381101562001a4e57808201518184015260208101905062001a31565b50505050905090810190601f16801562001a7c5780820380516001836020036101000a031916815260200191505b509250505060405180910390fd5b5060008385039050809150509392505050565b62001ac681600080858152602001908152602001600020600001620014d490919063ffffffff16565b1562001b315762001ad662001506565b73ffffffffffffffffffffffffffffffffffffffff168173ffffffffffffffffffffffffffffffffffffffff16837f2f8788117e7eff1d82e926ec794901d17c78024a50270940304540a733656f0d60405160405180910390a45b5050565b62001b5e8160008085815260200190815260200160002060000162001e7a90919063ffffffff16565b1562001bc95762001b6e62001506565b73ffffffffffffffffffffffffffffffffffffffff168173ffffffffffffffffffffffffffffffffffffffff16837ff6391f5c32d9c69d2a47ea670b442974b53935d1edc7fd64eb21e047a839171b60405160405180910390a45b5050565b600073ffffffffffffffffffffffffffffffffffffffff168273ffffffffffffffffffffffffffffffffffffffff16141562001c55576040517f08c379a0000000000000000000000000000000000000000000000000000000008152600401808060200182810382526021815260200180620032ae6021913960400191505060405180910390fd5b62001c638260008362001e75565b62001cd281604051806060016040528060228152602001620031c860229139600160008673ffffffffffffffffffffffffffffffffffffffff1673ffffffffffffffffffffffffffffffffffffffff16815260200190815260200160002054620019d99092919063ffffffff16565b600160008473ffffffffffffffffffffffffffffffffffffffff1673ffffffffffffffffffffffffffffffffffffffff1681526020019081526020016000208190555062001d2c8160035462001eac90919063ffffffff16565b600381905550600073ffffffffffffffffffffffffffffffffffffffff168273ffffffffffffffffffffffffffffffffffffffff167fddf252ad1be2c89b69c2b068fc378daa952ba7f163c4a11628f55a4df523b3ef836040518082815260200191505060405180910390a35050565b600062001dad836000018362001ef8565b60001c905092915050565b600062001de2836000018373ffffffffffffffffffffffffffffffffffffffff1660001b62001f7e565b905092915050565b600062001dfa8260000162001fa1565b9050919050565b600062001e0f838362001f7e565b62001e6a57826000018290806001815401808255809150506001900390600052602060002001600090919091909150558260000180549050836001016000848152602001908152602001600020819055506001905062001e6f565b600090505b92915050565b505050565b600062001ea4836000018373ffffffffffffffffffffffffffffffffffffffff1660001b62001fb2565b905092915050565b600062001ef083836040518060400160405280601e81526020017f536166654d6174683a207375627472616374696f6e206f766572666c6f770000815250620019d9565b905092915050565b60008183600001805490501162001f5b576040517f08c379a0000000000000000000000000000000000000000000000000000000008152600401808060200182810382526022815260200180620031546022913960400191505060405180910390fd5b82600001828154811062001f6b57fe5b9060005260206000200154905092915050565b600080836001016000848152602001908152602001600020541415905092915050565b600081600001805490509050919050565b6000808360010160008481526020019081526020016000205490506000811462002093576000600182039050600060018660000180549050039050600086600001828154811062001fff57fe5b90600052602060002001549050808760000184815481106200201d57fe5b90600052602060002001819055506001830187600101600083815260200190815260200160002081905550866000018054806200205657fe5b6001900381819060005260206000200160009055905586600101600087815260200190815260200160002060009055600194505050505062002099565b60009150505b92915050565b61106380620020ae8339019056fe608060405234801561001057600080fd5b506040516110633803806110638339818101604052608081101561003357600080fd5b81019080805190602001909291908051906020019092919080519060200190929190805190602001909291905050504260078190555083600381905550826004819055508160068190555080600960006101000a81548173ffffffffffffffffffffffffffffffffffffffff021916908373ffffffffffffffffffffffffffffffffffffffff1602179055506000600960146101000a81548160ff021916908360028111156100de57fe5b021790555050505050610f6d806100f66000396000f3fe60806040526004361061009c5760003560e01c806378e979251161006457806378e979251461019157806393a91682146101bc578063a96f8668146101e7578063ae6e22f1146101fe578063c08d1fe514610229578063f1a9af89146102545761009c565b80630522bf03146100a15780631b55d2161461010657806332a0f2d7146101315780633c7a3aff1461015c5780637824407f14610166575b600080fd5b3480156100ad57600080fd5b506100f0600480360360208110156100c457600080fd5b81019080803573ffffffffffffffffffffffffffffffffffffffff16906020019092919050505061027f565b6040518082815260200191505060405180910390f35b34801561011257600080fd5b5061011b6102c8565b6040518082815260200191505060405180910390f35b34801561013d57600080fd5b506101466102ce565b6040518082815260200191505060405180910390f35b6101646102d4565b005b34801561017257600080fd5b5061017b61065f565b6040518082815260200191505060405180910390f35b34801561019d57600080fd5b506101a6610665565b6040518082815260200191505060405180910390f35b3480156101c857600080fd5b506101d161066b565b6040518082815260200191505060405180910390f35b3480156101f357600080fd5b506101fc610671565b005b34801561020a57600080fd5b50610213610bb4565b6040518082815260200191505060405180910390f35b34801561023557600080fd5b5061023e610bba565b6040518082815260200191505060405180910390f35b34801561026057600080fd5b50610269610bc0565b6040518082815260200191505060405180910390f35b6000600160008373ffffffffffffffffffffffffffffffffffffffff1673ffffffffffffffffffffffffffffffffffffffff168152602001908152602001600020549050919050565b60045481565b60055481565b600060028111156102e157fe5b600960149054906101000a900460ff1660028111156102fc57fe5b1461036f576040517f08c379a000000000000000000000000000000000000000000000000000000000815260040180806020018281038252601b8152602001807f546869732061756374696f6e20616c726561647920636c6f736573000000000081525060200191505060405180910390fd5b61025861038760075442610bc690919063ffffffff16565b1115610406576004546005819055506001600960146101000a81548160ff021916908360028111156103b557fe5b02179055503373ffffffffffffffffffffffffffffffffffffffff166108fc349081150290604051600060405180830381858888f19350505050158015610400573d6000803e3d6000fd5b5061065d565b6104a76004546104996103e861048b61042c600454600354610bc690919063ffffffff16565b61047d61025861046f6103e861046142610453610258600754610c1090919063ffffffff16565b610bc690919063ffffffff16565b610c9890919063ffffffff16565b610d1e90919063ffffffff16565b610c9890919063ffffffff16565b610d1e90919063ffffffff16565b610c1090919063ffffffff16565b6008819055506104c234600254610c1090919063ffffffff16565b600281905550600060405180604001604052803373ffffffffffffffffffffffffffffffffffffffff16815260200134815250908060018154018082558091505060019003906000526020600020906002020160009091909190915060008201518160000160006101000a81548173ffffffffffffffffffffffffffffffffffffffff021916908373ffffffffffffffffffffffffffffffffffffffff1602179055506020820151816001015550506105c334600160003373ffffffffffffffffffffffffffffffffffffffff1673ffffffffffffffffffffffffffffffffffffffff16815260200190815260200160002054610c1090919063ffffffff16565b600160003373ffffffffffffffffffffffffffffffffffffffff1673ffffffffffffffffffffffffffffffffffffffff168152602001908152602001600020819055506106256509184e72a00060085402600654610c9890919063ffffffff16565b600254111561065c576008546005819055506001600960146101000a81548160ff0219169083600281111561065657fe5b02179055505b5b565b60065481565b60075481565b60085481565b60028081111561067d57fe5b600960149054906101000a900460ff16600281111561069857fe5b141561070c576040517f08c379a000000000000000000000000000000000000000000000000000000000815260040180806020018281038252601c8152602001807f5468652061756374696f6e20616c72656164792072656c65617365730000000081525060200191505060405180910390fd5b6000600281111561071957fe5b600960149054906101000a900460ff16600281111561073457fe5b14156107d65761025861075260075442610bc690919063ffffffff16565b116107a8576040517f08c379a0000000000000000000000000000000000000000000000000000000008152600401808060200182810382526028815260200180610eef6028913960400191505060405180910390fd5b6004546005819055506001600960146101000a81548160ff021916908360028111156107d057fe5b02179055505b600060025490506000805b600080549050811015610a8157600060065414156107fe57610a81565b600061083b6509184e72a000600554026000848154811061081b57fe5b906000526020600020906002020160010154610d1e90919063ffffffff16565b905060065481111561094a57600080838154811061085557fe5b906000526020600020906002020160000160009054906101000a900473ffffffffffffffffffffffffffffffffffffffff169050600654915060006108dd6108b06509184e72a0006005540285610c9890919063ffffffff16565b600086815481106108bd57fe5b906000526020600020906002020160010154610bc690919063ffffffff16565b90508173ffffffffffffffffffffffffffffffffffffffff166108fc829081150290604051600060405180830381858888f19350505050158015610925573d6000803e3d6000fd5b506109398187610bc690919063ffffffff16565b955060006006819055505050610966565b61095f81600654610bc690919063ffffffff16565b6006819055505b600960009054906101000a900473ffffffffffffffffffffffffffffffffffffffff1673ffffffffffffffffffffffffffffffffffffffff1663a9059cbb600084815481106109b157fe5b906000526020600020906002020160000160009054906101000a900473ffffffffffffffffffffffffffffffffffffffff16836040518363ffffffff1660e01b8152600401808373ffffffffffffffffffffffffffffffffffffffff16815260200182815260200192505050602060405180830381600087803b158015610a3757600080fd5b505af1158015610a4b573d6000803e3d6000fd5b505050506040513d6020811015610a6157600080fd5b8101908080519060200190929190505050505080806001019150506107e1565b506000600960009054906101000a900473ffffffffffffffffffffffffffffffffffffffff1690508073ffffffffffffffffffffffffffffffffffffffff166108fc849081150290604051600060405180830381858888f19350505050158015610aef573d6000803e3d6000fd5b5060006006541115610b8b57600960009054906101000a900473ffffffffffffffffffffffffffffffffffffffff1673ffffffffffffffffffffffffffffffffffffffff166342966c686006546040518263ffffffff1660e01b815260040180828152602001915050600060405180830381600087803b158015610b7257600080fd5b505af1158015610b86573d6000803e3d6000fd5b505050505b6002600960146101000a81548160ff02191690836002811115610baa57fe5b0217905550505050565b60025481565b61025881565b60035481565b6000610c0883836040518060400160405280601e81526020017f536166654d6174683a207375627472616374696f6e206f766572666c6f770000815250610d68565b905092915050565b600080828401905083811015610c8e576040517f08c379a000000000000000000000000000000000000000000000000000000000815260040180806020018281038252601b8152602001807f536166654d6174683a206164646974696f6e206f766572666c6f77000000000081525060200191505060405180910390fd5b8091505092915050565b600080831415610cab5760009050610d18565b6000828402905082848281610cbc57fe5b0414610d13576040517f08c379a0000000000000000000000000000000000000000000000000000000008152600401808060200182810382526021815260200180610f176021913960400191505060405180910390fd5b809150505b92915050565b6000610d6083836040518060400160405280601a81526020017f536166654d6174683a206469766973696f6e206279207a65726f000000000000815250610e28565b905092915050565b6000838311158290610e15576040517f08c379a00000000000000000000000000000000000000000000000000000000081526004018080602001828103825283818151815260200191508051906020019080838360005b83811015610dda578082015181840152602081019050610dbf565b50505050905090810190601f168015610e075780820380516001836020036101000a031916815260200191505b509250505060405180910390fd5b5060008385039050809150509392505050565b60008083118290610ed4576040517f08c379a00000000000000000000000000000000000000000000000000000000081526004018080602001828103825283818151815260200191508051906020019080838360005b83811015610e99578082015181840152602081019050610e7e565b50505050905090810190601f168015610ec65780820380516001836020036101000a031916815260200191505b509250505060405180910390fd5b506000838581610ee057fe5b04905080915050939250505056fe5468652061756374696f6e206973207374696c6c206f70656e65642c20706c656173652077616974536166654d6174683a206d756c7469706c69636174696f6e206f766572666c6f77a264697066735822122091905100a411447093016a471cf853daac17779f4864c8d3de052803b9aeac3b64736f6c634300060c003343797068657270756e6b436f696e3a206d75737420686176652061756374696f6e2063726561746f7220726f6c6520746f2063726561746520616e2061756374696f6e456e756d657261626c655365743a20696e646578206f7574206f6620626f756e647345524332303a207472616e7366657220746f20746865207a65726f2061646472657373416363657373436f6e74726f6c3a2073656e646572206d75737420626520616e2061646d696e20746f206772616e7445524332303a206275726e20616d6f756e7420657863656564732062616c616e636545524332303a20617070726f766520746f20746865207a65726f206164647265737345524332303a207472616e7366657220616d6f756e7420657863656564732062616c616e6365416363657373436f6e74726f6c3a2073656e646572206d75737420626520616e2061646d696e20746f207265766f6b6545524332303a207472616e7366657220616d6f756e74206578636565647320616c6c6f77616e636545524332303a206275726e20616d6f756e74206578636565647320616c6c6f77616e636545524332303a206275726e2066726f6d20746865207a65726f206164647265737345524332303a207472616e736665722066726f6d20746865207a65726f206164647265737345524332303a20617070726f76652066726f6d20746865207a65726f206164647265737345524332303a2064656372656173656420616c6c6f77616e63652062656c6f77207a65726f416363657373436f6e74726f6c3a2063616e206f6e6c792072656e6f756e636520726f6c657320666f722073656c66a2646970667358221220af72934cfcd69b731ff31d3d1fc57748580613f8efdc42bdd1c5dbcce858172c64736f6c634300060c0033",
  "immutableReferences": {},
  "source": "pragma solidity ^0.6.0;\r\n\r\nimport \"@openzeppelin/contracts/access/AccessControl.sol\";\r\nimport \"@openzeppelin/contracts/GSN/Context.sol\";\r\nimport \"@openzeppelin/contracts/token/ERC20/ERC20.sol\";\r\nimport \"@openzeppelin/contracts/token/ERC20/ERC20Burnable.sol\";\r\nimport \"./Auction.sol\";\r\n\r\ncontract CypherpunkCoin is Context, AccessControl, ERC20Burnable {\r\n    bytes32 public constant AUCTION_CREATOR_ROLE = keccak256(\r\n        \"AUCTION_CREATOR_ROLE\"\r\n    );\r\n\r\n    constructor(string memory name, string memory symbol)\r\n        public\r\n        ERC20(name, symbol)\r\n    {\r\n        _setupRole(DEFAULT_ADMIN_ROLE, msg.sender);\r\n\r\n        // _setupRole(MINTER_ROLE, msg.sender);\r\n        _setupRole(AUCTION_CREATOR_ROLE, msg.sender);\r\n        _mint(msg.sender, 1000);\r\n    }\r\n    address public auctionAddress;\r\n    function createAuction(\r\n        uint256 _startPrice,\r\n        uint256 _reservedPrice,\r\n        uint256 _supply\r\n    ) public returns (Auction) {\r\n        require(\r\n            hasRole(AUCTION_CREATOR_ROLE, msg.sender),\r\n            \"CypherpunkCoin: must have auction creator role to create an auction\"\r\n        );\r\n        Auction myAuction = new Auction(\r\n            _startPrice,\r\n            _reservedPrice,\r\n            _supply,\r\n            this\r\n        );\r\n        auctionAddress = address(myAuction);\r\n        transfer(address(myAuction), _supply);\r\n        return myAuction;\r\n    }\r\n\r\n    receive() external payable {}\r\n}\r\n",
  "sourcePath": "C:\\Users\\tanyi\\OneDrive\\Documents\\GitHub\\CZ4153-Dutch-Contract\\contracts\\CypherpunkCoin.sol",
  "compiler": {
    "name": "solc",
    "version": "0.6.12+commit.27d51765.Emscripten.clang"
  },
  "schemaVersion": "3.3.1",
  "updatedAt": "2020-11-01T09:51:07.132Z",
  "networkType": "ethereum",
  "devdoc": {
    "kind": "dev",
    "methods": {
      "allowance(address,address)": {
        "details": "See {IERC20-allowance}."
      },
      "approve(address,uint256)": {
        "details": "See {IERC20-approve}. Requirements: - `spender` cannot be the zero address."
      },
      "balanceOf(address)": {
        "details": "See {IERC20-balanceOf}."
      },
      "burn(uint256)": {
        "details": "Destroys `amount` tokens from the caller. See {ERC20-_burn}."
      },
      "burnFrom(address,uint256)": {
        "details": "Destroys `amount` tokens from `account`, deducting from the caller's allowance. See {ERC20-_burn} and {ERC20-allowance}. Requirements: - the caller must have allowance for ``accounts``'s tokens of at least `amount`."
      },
      "decimals()": {
        "details": "Returns the number of decimals used to get its user representation. For example, if `decimals` equals `2`, a balance of `505` tokens should be displayed to a user as `5,05` (`505 / 10 ** 2`). Tokens usually opt for a value of 18, imitating the relationship between Ether and Wei. This is the value {ERC20} uses, unless {_setupDecimals} is called. NOTE: This information is only used for _display_ purposes: it in no way affects any of the arithmetic of the contract, including {IERC20-balanceOf} and {IERC20-transfer}."
      },
      "decreaseAllowance(address,uint256)": {
        "details": "Atomically decreases the allowance granted to `spender` by the caller. This is an alternative to {approve} that can be used as a mitigation for problems described in {IERC20-approve}. Emits an {Approval} event indicating the updated allowance. Requirements: - `spender` cannot be the zero address. - `spender` must have allowance for the caller of at least `subtractedValue`."
      },
      "getRoleAdmin(bytes32)": {
        "details": "Returns the admin role that controls `role`. See {grantRole} and {revokeRole}. To change a role's admin, use {_setRoleAdmin}."
      },
      "getRoleMember(bytes32,uint256)": {
        "details": "Returns one of the accounts that have `role`. `index` must be a value between 0 and {getRoleMemberCount}, non-inclusive. Role bearers are not sorted in any particular way, and their ordering may change at any point. WARNING: When using {getRoleMember} and {getRoleMemberCount}, make sure you perform all queries on the same block. See the following https://forum.openzeppelin.com/t/iterating-over-elements-on-enumerableset-in-openzeppelin-contracts/2296[forum post] for more information."
      },
      "getRoleMemberCount(bytes32)": {
        "details": "Returns the number of accounts that have `role`. Can be used together with {getRoleMember} to enumerate all bearers of a role."
      },
      "grantRole(bytes32,address)": {
        "details": "Grants `role` to `account`. If `account` had not been already granted `role`, emits a {RoleGranted} event. Requirements: - the caller must have ``role``'s admin role."
      },
      "hasRole(bytes32,address)": {
        "details": "Returns `true` if `account` has been granted `role`."
      },
      "increaseAllowance(address,uint256)": {
        "details": "Atomically increases the allowance granted to `spender` by the caller. This is an alternative to {approve} that can be used as a mitigation for problems described in {IERC20-approve}. Emits an {Approval} event indicating the updated allowance. Requirements: - `spender` cannot be the zero address."
      },
      "name()": {
        "details": "Returns the name of the token."
      },
      "renounceRole(bytes32,address)": {
        "details": "Revokes `role` from the calling account. Roles are often managed via {grantRole} and {revokeRole}: this function's purpose is to provide a mechanism for accounts to lose their privileges if they are compromised (such as when a trusted device is misplaced). If the calling account had been granted `role`, emits a {RoleRevoked} event. Requirements: - the caller must be `account`."
      },
      "revokeRole(bytes32,address)": {
        "details": "Revokes `role` from `account`. If `account` had been granted `role`, emits a {RoleRevoked} event. Requirements: - the caller must have ``role``'s admin role."
      },
      "symbol()": {
        "details": "Returns the symbol of the token, usually a shorter version of the name."
      },
      "totalSupply()": {
        "details": "See {IERC20-totalSupply}."
      },
      "transfer(address,uint256)": {
        "details": "See {IERC20-transfer}. Requirements: - `recipient` cannot be the zero address. - the caller must have a balance of at least `amount`."
      },
      "transferFrom(address,address,uint256)": {
        "details": "See {IERC20-transferFrom}. Emits an {Approval} event indicating the updated allowance. This is not required by the EIP. See the note at the beginning of {ERC20}; Requirements: - `sender` and `recipient` cannot be the zero address. - `sender` must have a balance of at least `amount`. - the caller must have allowance for ``sender``'s tokens of at least `amount`."
      }
    },
    "version": 1
  },
  "userdoc": {
    "kind": "user",
    "methods": {},
    "version": 1
  }
}