{
  "contractName": "CypherpunkCoin",
  "abi": [
    {
      "inputs": [
        {
          "internalType": "string",
          "name": "name",
          "type": "string"
        },
        {
          "internalType": "string",
          "name": "symbol",
          "type": "string"
        }
      ],
      "stateMutability": "nonpayable",
      "type": "constructor"
    },
    {
      "anonymous": false,
      "inputs": [
        {
          "indexed": true,
          "internalType": "address",
          "name": "owner",
          "type": "address"
        },
        {
          "indexed": true,
          "internalType": "address",
          "name": "spender",
          "type": "address"
        },
        {
          "indexed": false,
          "internalType": "uint256",
          "name": "value",
          "type": "uint256"
        }
      ],
      "name": "Approval",
      "type": "event"
    },
    {
      "anonymous": false,
      "inputs": [
        {
          "indexed": true,
          "internalType": "bytes32",
          "name": "role",
          "type": "bytes32"
        },
        {
          "indexed": true,
          "internalType": "bytes32",
          "name": "previousAdminRole",
          "type": "bytes32"
        },
        {
          "indexed": true,
          "internalType": "bytes32",
          "name": "newAdminRole",
          "type": "bytes32"
        }
      ],
      "name": "RoleAdminChanged",
      "type": "event"
    },
    {
      "anonymous": false,
      "inputs": [
        {
          "indexed": true,
          "internalType": "bytes32",
          "name": "role",
          "type": "bytes32"
        },
        {
          "indexed": true,
          "internalType": "address",
          "name": "account",
          "type": "address"
        },
        {
          "indexed": true,
          "internalType": "address",
          "name": "sender",
          "type": "address"
        }
      ],
      "name": "RoleGranted",
      "type": "event"
    },
    {
      "anonymous": false,
      "inputs": [
        {
          "indexed": true,
          "internalType": "bytes32",
          "name": "role",
          "type": "bytes32"
        },
        {
          "indexed": true,
          "internalType": "address",
          "name": "account",
          "type": "address"
        },
        {
          "indexed": true,
          "internalType": "address",
          "name": "sender",
          "type": "address"
        }
      ],
      "name": "RoleRevoked",
      "type": "event"
    },
    {
      "anonymous": false,
      "inputs": [
        {
          "indexed": true,
          "internalType": "address",
          "name": "from",
          "type": "address"
        },
        {
          "indexed": true,
          "internalType": "address",
          "name": "to",
          "type": "address"
        },
        {
          "indexed": false,
          "internalType": "uint256",
          "name": "value",
          "type": "uint256"
        }
      ],
      "name": "Transfer",
      "type": "event"
    },
    {
      "inputs": [],
      "name": "AUCTION_CREATOR_ROLE",
      "outputs": [
        {
          "internalType": "bytes32",
          "name": "",
          "type": "bytes32"
        }
      ],
      "stateMutability": "view",
      "type": "function"
    },
    {
      "inputs": [],
      "name": "DEFAULT_ADMIN_ROLE",
      "outputs": [
        {
          "internalType": "bytes32",
          "name": "",
          "type": "bytes32"
        }
      ],
      "stateMutability": "view",
      "type": "function"
    },
    {
      "inputs": [
        {
          "internalType": "address",
          "name": "owner",
          "type": "address"
        },
        {
          "internalType": "address",
          "name": "spender",
          "type": "address"
        }
      ],
      "name": "allowance",
      "outputs": [
        {
          "internalType": "uint256",
          "name": "",
          "type": "uint256"
        }
      ],
      "stateMutability": "view",
      "type": "function"
    },
    {
      "inputs": [
        {
          "internalType": "address",
          "name": "spender",
          "type": "address"
        },
        {
          "internalType": "uint256",
          "name": "amount",
          "type": "uint256"
        }
      ],
      "name": "approve",
      "outputs": [
        {
          "internalType": "bool",
          "name": "",
          "type": "bool"
        }
      ],
      "stateMutability": "nonpayable",
      "type": "function"
    },
    {
      "inputs": [],
      "name": "auctionAddress",
      "outputs": [
        {
          "internalType": "address",
          "name": "",
          "type": "address"
        }
      ],
      "stateMutability": "view",
      "type": "function"
    },
    {
      "inputs": [
        {
          "internalType": "address",
          "name": "account",
          "type": "address"
        }
      ],
      "name": "balanceOf",
      "outputs": [
        {
          "internalType": "uint256",
          "name": "",
          "type": "uint256"
        }
      ],
      "stateMutability": "view",
      "type": "function"
    },
    {
      "inputs": [
        {
          "internalType": "uint256",
          "name": "amount",
          "type": "uint256"
        }
      ],
      "name": "burn",
      "outputs": [],
      "stateMutability": "nonpayable",
      "type": "function"
    },
    {
      "inputs": [
        {
          "internalType": "address",
          "name": "account",
          "type": "address"
        },
        {
          "internalType": "uint256",
          "name": "amount",
          "type": "uint256"
        }
      ],
      "name": "burnFrom",
      "outputs": [],
      "stateMutability": "nonpayable",
      "type": "function"
    },
    {
      "inputs": [],
      "name": "decimals",
      "outputs": [
        {
          "internalType": "uint8",
          "name": "",
          "type": "uint8"
        }
      ],
      "stateMutability": "view",
      "type": "function"
    },
    {
      "inputs": [
        {
          "internalType": "address",
          "name": "spender",
          "type": "address"
        },
        {
          "internalType": "uint256",
          "name": "subtractedValue",
          "type": "uint256"
        }
      ],
      "name": "decreaseAllowance",
      "outputs": [
        {
          "internalType": "bool",
          "name": "",
          "type": "bool"
        }
      ],
      "stateMutability": "nonpayable",
      "type": "function"
    },
    {
      "inputs": [
        {
          "internalType": "bytes32",
          "name": "role",
          "type": "bytes32"
        }
      ],
      "name": "getRoleAdmin",
      "outputs": [
        {
          "internalType": "bytes32",
          "name": "",
          "type": "bytes32"
        }
      ],
      "stateMutability": "view",
      "type": "function"
    },
    {
      "inputs": [
        {
          "internalType": "bytes32",
          "name": "role",
          "type": "bytes32"
        },
        {
          "internalType": "uint256",
          "name": "index",
          "type": "uint256"
        }
      ],
      "name": "getRoleMember",
      "outputs": [
        {
          "internalType": "address",
          "name": "",
          "type": "address"
        }
      ],
      "stateMutability": "view",
      "type": "function"
    },
    {
      "inputs": [
        {
          "internalType": "bytes32",
          "name": "role",
          "type": "bytes32"
        }
      ],
      "name": "getRoleMemberCount",
      "outputs": [
        {
          "internalType": "uint256",
          "name": "",
          "type": "uint256"
        }
      ],
      "stateMutability": "view",
      "type": "function"
    },
    {
      "inputs": [
        {
          "internalType": "bytes32",
          "name": "role",
          "type": "bytes32"
        },
        {
          "internalType": "address",
          "name": "account",
          "type": "address"
        }
      ],
      "name": "grantRole",
      "outputs": [],
      "stateMutability": "nonpayable",
      "type": "function"
    },
    {
      "inputs": [
        {
          "internalType": "bytes32",
          "name": "role",
          "type": "bytes32"
        },
        {
          "internalType": "address",
          "name": "account",
          "type": "address"
        }
      ],
      "name": "hasRole",
      "outputs": [
        {
          "internalType": "bool",
          "name": "",
          "type": "bool"
        }
      ],
      "stateMutability": "view",
      "type": "function"
    },
    {
      "inputs": [
        {
          "internalType": "address",
          "name": "spender",
          "type": "address"
        },
        {
          "internalType": "uint256",
          "name": "addedValue",
          "type": "uint256"
        }
      ],
      "name": "increaseAllowance",
      "outputs": [
        {
          "internalType": "bool",
          "name": "",
          "type": "bool"
        }
      ],
      "stateMutability": "nonpayable",
      "type": "function"
    },
    {
      "inputs": [],
      "name": "name",
      "outputs": [
        {
          "internalType": "string",
          "name": "",
          "type": "string"
        }
      ],
      "stateMutability": "view",
      "type": "function"
    },
    {
      "inputs": [
        {
          "internalType": "bytes32",
          "name": "role",
          "type": "bytes32"
        },
        {
          "internalType": "address",
          "name": "account",
          "type": "address"
        }
      ],
      "name": "renounceRole",
      "outputs": [],
      "stateMutability": "nonpayable",
      "type": "function"
    },
    {
      "inputs": [
        {
          "internalType": "bytes32",
          "name": "role",
          "type": "bytes32"
        },
        {
          "internalType": "address",
          "name": "account",
          "type": "address"
        }
      ],
      "name": "revokeRole",
      "outputs": [],
      "stateMutability": "nonpayable",
      "type": "function"
    },
    {
      "inputs": [],
      "name": "symbol",
      "outputs": [
        {
          "internalType": "string",
          "name": "",
          "type": "string"
        }
      ],
      "stateMutability": "view",
      "type": "function"
    },
    {
      "inputs": [],
      "name": "totalSupply",
      "outputs": [
        {
          "internalType": "uint256",
          "name": "",
          "type": "uint256"
        }
      ],
      "stateMutability": "view",
      "type": "function"
    },
    {
      "inputs": [
        {
          "internalType": "address",
          "name": "recipient",
          "type": "address"
        },
        {
          "internalType": "uint256",
          "name": "amount",
          "type": "uint256"
        }
      ],
      "name": "transfer",
      "outputs": [
        {
          "internalType": "bool",
          "name": "",
          "type": "bool"
        }
      ],
      "stateMutability": "nonpayable",
      "type": "function"
    },
    {
      "inputs": [
        {
          "internalType": "address",
          "name": "sender",
          "type": "address"
        },
        {
          "internalType": "address",
          "name": "recipient",
          "type": "address"
        },
        {
          "internalType": "uint256",
          "name": "amount",
          "type": "uint256"
        }
      ],
      "name": "transferFrom",
      "outputs": [
        {
          "internalType": "bool",
          "name": "",
          "type": "bool"
        }
      ],
      "stateMutability": "nonpayable",
      "type": "function"
    },
    {
      "stateMutability": "payable",
      "type": "receive"
    },
    {
      "inputs": [
        {
          "internalType": "uint256",
          "name": "_startPrice",
          "type": "uint256"
        },
        {
          "internalType": "uint256",
          "name": "_reservedPrice",
          "type": "uint256"
        },
        {
          "internalType": "uint256",
          "name": "_supply",
          "type": "uint256"
        },
        {
          "internalType": "uint256",
          "name": "_timeLimit",
          "type": "uint256"
        }
      ],
      "name": "createAuction",
      "outputs": [],
      "stateMutability": "nonpayable",
      "type": "function"
    },
    {
      "inputs": [],
      "name": "openCurrAuction",
      "outputs": [],
      "stateMutability": "nonpayable",
      "type": "function"
    },
    {
      "inputs": [
        {
          "internalType": "address",
          "name": "creator",
          "type": "address"
        }
      ],
      "name": "setupAuctionCreatorRole",
      "outputs": [],
      "stateMutability": "nonpayable",
      "type": "function"
    }
  ],
  "bytecode": "0x60806040523480156200001157600080fd5b5060405162004e7c38038062004e7c833981810160405260408110156200003757600080fd5b81019080805160405193929190846401000000008211156200005857600080fd5b838201915060208201858111156200006f57600080fd5b82518660018202830111640100000000821117156200008d57600080fd5b8083526020830192505050908051906020019080838360005b83811015620000c3578082015181840152602081019050620000a6565b50505050905090810190601f168015620000f15780820380516001836020036101000a031916815260200191505b50604052602001805160405193929190846401000000008211156200011557600080fd5b838201915060208201858111156200012c57600080fd5b82518660018202830111640100000000821117156200014a57600080fd5b8083526020830192505050908051906020019080838360005b838110156200018057808201518184015260208101905062000163565b50505050905090810190601f168015620001ae5780820380516001836020036101000a031916815260200191505b5060405250505081818160049080519060200190620001cf9291906200069e565b508060059080519060200190620001e89291906200069e565b506012600660006101000a81548160ff021916908360ff16021790555050506200021c6000801b336200027c60201b60201c565b6200024e7fcfba8be83af357df8defaa5e92d4092d7061b755093a8b7649b2afc2929f5c65336200027c60201b60201c565b62000262336103e86200029260201b60201c565b6200027460006200047260201b60201c565b505062000744565b6200028e82826200049060201b60201c565b5050565b600073ffffffffffffffffffffffffffffffffffffffff168273ffffffffffffffffffffffffffffffffffffffff16141562000336576040517f08c379a000000000000000000000000000000000000000000000000000000000815260040180806020018281038252601f8152602001807f45524332303a206d696e7420746f20746865207a65726f20616464726573730081525060200191505060405180910390fd5b6200034a600083836200053360201b60201c565b62000366816003546200053860201b620016761790919060201c565b600381905550620003c581600160008573ffffffffffffffffffffffffffffffffffffffff1673ffffffffffffffffffffffffffffffffffffffff168152602001908152602001600020546200053860201b620016761790919060201c565b600160008473ffffffffffffffffffffffffffffffffffffffff1673ffffffffffffffffffffffffffffffffffffffff168152602001908152602001600020819055508173ffffffffffffffffffffffffffffffffffffffff16600073ffffffffffffffffffffffffffffffffffffffff167fddf252ad1be2c89b69c2b068fc378daa952ba7f163c4a11628f55a4df523b3ef836040518082815260200191505060405180910390a35050565b80600660006101000a81548160ff021916908360ff16021790555050565b620004be81600080858152602001908152602001600020600001620005c160201b620016ff1790919060201c565b156200052f57620004d4620005f960201b60201c565b73ffffffffffffffffffffffffffffffffffffffff168173ffffffffffffffffffffffffffffffffffffffff16837f2f8788117e7eff1d82e926ec794901d17c78024a50270940304540a733656f0d60405160405180910390a45b5050565b505050565b600080828401905083811015620005b7576040517f08c379a000000000000000000000000000000000000000000000000000000000815260040180806020018281038252601b8152602001807f536166654d6174683a206164646974696f6e206f766572666c6f77000000000081525060200191505060405180910390fd5b8091505092915050565b6000620005f1836000018373ffffffffffffffffffffffffffffffffffffffff1660001b6200060160201b60201c565b905092915050565b600033905090565b60006200061583836200067b60201b60201c565b6200067057826000018290806001815401808255809150506001900390600052602060002001600090919091909150558260000180549050836001016000848152602001908152602001600020819055506001905062000675565b600090505b92915050565b600080836001016000848152602001908152602001600020541415905092915050565b828054600181600116156101000203166002900490600052602060002090601f016020900481019282601f10620006e157805160ff191683800117855562000712565b8280016001018555821562000712579182015b8281111562000711578251825591602001919060010190620006f4565b5b50905062000721919062000725565b5090565b5b808211156200074057600081600090555060010162000726565b5090565b61472880620007546000396000f3fe608060405260043610620001ab5760003560e01c806370a0823111620000e5578063a217fddf1162000097578063ca15c873116200006d578063ca15c87314620009ea578063d29feaad1462000a3d578063d547741f1462000a6b578063dd62ed3e1462000aca57620001b3565b8063a217fddf14620008d2578063a457c2d71462000900578063a9059cbb146200097557620001b3565b806370a08231146200063757806379cc679014620006a05780638d54c0d114620006ff5780639010d07c146200075457806391d1485414620007c757806395d89b41146200083c57620001b3565b8063313ce567116200015d578063424a14d21162000133578063424a14d2146200053d57806342966c681462000557578063431f21da14620005965780635476ea9e14620005f357620001b3565b8063313ce567146200043857806336568abe14620004695780633950935114620004c857620001b3565b806306fdde0314620001b8578063095ea7b3146200024e57806318160ddd14620002c357806323b872dd14620002f1578063248a9ca314620003865780632f2ff15d14620003d957620001b3565b36620001b357005b600080fd5b348015620001c557600080fd5b50620001d062000b53565b6040518080602001828103825283818151815260200191508051906020019080838360005b8381101562000212578082015181840152602081019050620001f5565b50505050905090810190601f168015620002405780820380516001836020036101000a031916815260200191505b509250505060405180910390f35b3480156200025b57600080fd5b50620002ab600480360360408110156200027457600080fd5b81019080803573ffffffffffffffffffffffffffffffffffffffff1690602001909291908035906020019092919050505062000bf9565b60405180821515815260200191505060405180910390f35b348015620002d057600080fd5b50620002db62000c1b565b6040518082815260200191505060405180910390f35b348015620002fe57600080fd5b506200036e600480360360608110156200031757600080fd5b81019080803573ffffffffffffffffffffffffffffffffffffffff169060200190929190803573ffffffffffffffffffffffffffffffffffffffff1690602001909291908035906020019092919050505062000c25565b60405180821515815260200191505060405180910390f35b3480156200039357600080fd5b50620003c360048036036020811015620003ac57600080fd5b810190808035906020019092919050505062000d09565b6040518082815260200191505060405180910390f35b348015620003e657600080fd5b506200043660048036036040811015620003ff57600080fd5b8101908080359060200190929190803573ffffffffffffffffffffffffffffffffffffffff16906020019092919050505062000d28565b005b3480156200044557600080fd5b506200045062000db9565b604051808260ff16815260200191505060405180910390f35b3480156200047657600080fd5b50620004c6600480360360408110156200048f57600080fd5b8101908080359060200190929190803573ffffffffffffffffffffffffffffffffffffffff16906020019092919050505062000dd0565b005b348015620004d557600080fd5b506200052560048036036040811015620004ee57600080fd5b81019080803573ffffffffffffffffffffffffffffffffffffffff1690602001909291908035906020019092919050505062000e6f565b60405180821515815260200191505060405180910390f35b3480156200054a57600080fd5b506200055562000f2a565b005b3480156200056457600080fd5b5062000594600480360360208110156200057d57600080fd5b810190808035906020019092919050505062001033565b005b348015620005a357600080fd5b50620005f160048036036080811015620005bc57600080fd5b81019080803590602001909291908035906020019092919080359060200190929190803590602001909291905050506200104b565b005b3480156200060057600080fd5b506200060b62001194565b604051808273ffffffffffffffffffffffffffffffffffffffff16815260200191505060405180910390f35b3480156200064457600080fd5b506200068a600480360360208110156200065d57600080fd5b81019080803573ffffffffffffffffffffffffffffffffffffffff169060200190929190505050620011ba565b6040518082815260200191505060405180910390f35b348015620006ad57600080fd5b50620006fd60048036036040811015620006c657600080fd5b81019080803573ffffffffffffffffffffffffffffffffffffffff1690602001909291908035906020019092919050505062001203565b005b3480156200070c57600080fd5b5062000752600480360360208110156200072557600080fd5b81019080803573ffffffffffffffffffffffffffffffffffffffff16906020019092919050505062001272565b005b3480156200076157600080fd5b506200079b600480360360408110156200077a57600080fd5b81019080803590602001909291908035906020019092919050505062001307565b604051808273ffffffffffffffffffffffffffffffffffffffff16815260200191505060405180910390f35b348015620007d457600080fd5b506200082460048036036040811015620007ed57600080fd5b8101908080359060200190929190803573ffffffffffffffffffffffffffffffffffffffff1690602001909291905050506200133a565b60405180821515815260200191505060405180910390f35b3480156200084957600080fd5b50620008546200136d565b6040518080602001828103825283818151815260200191508051906020019080838360005b838110156200089657808201518184015260208101905062000879565b50505050905090810190601f168015620008c45780820380516001836020036101000a031916815260200191505b509250505060405180910390f35b348015620008df57600080fd5b50620008ea62001413565b6040518082815260200191505060405180910390f35b3480156200090d57600080fd5b506200095d600480360360408110156200092657600080fd5b81019080803573ffffffffffffffffffffffffffffffffffffffff169060200190929190803590602001909291905050506200141a565b60405180821515815260200191505060405180910390f35b3480156200098257600080fd5b50620009d2600480360360408110156200099b57600080fd5b81019080803573ffffffffffffffffffffffffffffffffffffffff16906020019092919080359060200190929190505050620014f0565b60405180821515815260200191505060405180910390f35b348015620009f757600080fd5b5062000a276004803603602081101562000a1057600080fd5b810190808035906020019092919050505062001512565b6040518082815260200191505060405180910390f35b34801562000a4a57600080fd5b5062000a556200153a565b6040518082815260200191505060405180910390f35b34801562000a7857600080fd5b5062000ac86004803603604081101562000a9157600080fd5b8101908080359060200190929190803573ffffffffffffffffffffffffffffffffffffffff1690602001909291905050506200155e565b005b34801562000ad757600080fd5b5062000b3d6004803603604081101562000af057600080fd5b81019080803573ffffffffffffffffffffffffffffffffffffffff169060200190929190803573ffffffffffffffffffffffffffffffffffffffff169060200190929190505050620015ef565b6040518082815260200191505060405180910390f35b606060048054600181600116156101000203166002900480601f01602080910402602001604051908101604052809291908181526020018280546001816001161561010002031660029004801562000bef5780601f1062000bc35761010080835404028352916020019162000bef565b820191906000526020600020905b81548152906001019060200180831162000bd157829003601f168201915b5050505050905090565b600062000c1162000c0962001731565b848462001739565b6001905092915050565b6000600354905090565b600062000c3484848462001934565b62000cfe8462000c4362001731565b62000cf885604051806060016040528060288152602001620045be60289139600260008b73ffffffffffffffffffffffffffffffffffffffff1673ffffffffffffffffffffffffffffffffffffffff168152602001908152602001600020600062000cad62001731565b73ffffffffffffffffffffffffffffffffffffffff1673ffffffffffffffffffffffffffffffffffffffff1681526020019081526020016000205462001c049092919063ffffffff16565b62001739565b600190509392505050565b6000806000838152602001908152602001600020600201549050919050565b62000d526000808481526020019081526020016000206002015462000d4c62001731565b6200133a565b62000da9576040517f08c379a000000000000000000000000000000000000000000000000000000000815260040180806020018281038252602f815260200180620044b2602f913960400191505060405180910390fd5b62000db5828262001cc8565b5050565b6000600660009054906101000a900460ff16905090565b62000dda62001731565b73ffffffffffffffffffffffffffffffffffffffff168173ffffffffffffffffffffffffffffffffffffffff161462000e5f576040517f08c379a000000000000000000000000000000000000000000000000000000000815260040180806020018281038252602f815260200180620046c4602f913960400191505060405180910390fd5b62000e6b828262001d60565b5050565b600062000f2062000e7f62001731565b8462000f1a856002600062000e9362001731565b73ffffffffffffffffffffffffffffffffffffffff1673ffffffffffffffffffffffffffffffffffffffff16815260200190815260200160002060008973ffffffffffffffffffffffffffffffffffffffff1673ffffffffffffffffffffffffffffffffffffffff168152602001908152602001600020546200167690919063ffffffff16565b62001739565b6001905092915050565b62000f567fcfba8be83af357df8defaa5e92d4092d7061b755093a8b7649b2afc2929f5c65336200133a565b62000fad576040517f08c379a0000000000000000000000000000000000000000000000000000000008152600401808060200182810382526043815260200180620045256043913960600191505060405180910390fd5b600660019054906101000a900473ffffffffffffffffffffffffffffffffffffffff1673ffffffffffffffffffffffffffffffffffffffff166304cb72f96040518163ffffffff1660e01b8152600401600060405180830381600087803b1580156200101857600080fd5b505af11580156200102d573d6000803e3d6000fd5b50505050565b620010486200104162001731565b8262001df8565b50565b620010777fcfba8be83af357df8defaa5e92d4092d7061b755093a8b7649b2afc2929f5c65336200133a565b620010ce576040517f08c379a00000000000000000000000000000000000000000000000000000000081526004018080602001828103825260438152602001806200442a6043913960600191505060405180910390fd5b60008484848430604051620010e390620022da565b808681526020018581526020018481526020018381526020018273ffffffffffffffffffffffffffffffffffffffff16815260200195505050505050604051809103906000f0801580156200113c573d6000803e3d6000fd5b5090506200114b8184620014f0565b5080600660016101000a81548173ffffffffffffffffffffffffffffffffffffffff021916908373ffffffffffffffffffffffffffffffffffffffff1602179055505050505050565b600660019054906101000a900473ffffffffffffffffffffffffffffffffffffffff1681565b6000600160008373ffffffffffffffffffffffffffffffffffffffff1673ffffffffffffffffffffffffffffffffffffffff168152602001908152602001600020549050919050565b60006200124982604051806060016040528060248152602001620045e66024913962001239866200123362001731565b620015ef565b62001c049092919063ffffffff16565b905062001261836200125a62001731565b8362001739565b6200126d838362001df8565b505050565b620012816000801b336200133a565b620012d8576040517f08c379a000000000000000000000000000000000000000000000000000000000815260040180806020018281038252602b8152602001806200460a602b913960400191505060405180910390fd5b620013047fcfba8be83af357df8defaa5e92d4092d7061b755093a8b7649b2afc2929f5c658262001fc7565b50565b6000620013328260008086815260200190815260200160002060000162001fd790919063ffffffff16565b905092915050565b6000620013658260008086815260200190815260200160002060000162001ff390919063ffffffff16565b905092915050565b606060058054600181600116156101000203166002900480601f016020809104026020016040519081016040528092919081815260200182805460018160011615610100020316600290048015620014095780601f10620013dd5761010080835404028352916020019162001409565b820191906000526020600020905b815481529060010190602001808311620013eb57829003601f168201915b5050505050905090565b6000801b81565b6000620014e66200142a62001731565b84620014e0856040518060600160405280602581526020016200469f60259139600260006200145862001731565b73ffffffffffffffffffffffffffffffffffffffff1673ffffffffffffffffffffffffffffffffffffffff16815260200190815260200160002060008a73ffffffffffffffffffffffffffffffffffffffff1673ffffffffffffffffffffffffffffffffffffffff1681526020019081526020016000205462001c049092919063ffffffff16565b62001739565b6001905092915050565b6000620015086200150062001731565b848462001934565b6001905092915050565b60006200153360008084815260200190815260200160002060000162002025565b9050919050565b7fcfba8be83af357df8defaa5e92d4092d7061b755093a8b7649b2afc2929f5c6581565b62001588600080848152602001908152602001600020600201546200158262001731565b6200133a565b620015df576040517f08c379a00000000000000000000000000000000000000000000000000000000081526004018080602001828103825260308152602001806200458e6030913960400191505060405180910390fd5b620015eb828262001d60565b5050565b6000600260008473ffffffffffffffffffffffffffffffffffffffff1673ffffffffffffffffffffffffffffffffffffffff16815260200190815260200160002060008373ffffffffffffffffffffffffffffffffffffffff1673ffffffffffffffffffffffffffffffffffffffff16815260200190815260200160002054905092915050565b600080828401905083811015620016f5576040517f08c379a000000000000000000000000000000000000000000000000000000000815260040180806020018281038252601b8152602001807f536166654d6174683a206164646974696f6e206f766572666c6f77000000000081525060200191505060405180910390fd5b8091505092915050565b600062001729836000018373ffffffffffffffffffffffffffffffffffffffff1660001b6200203c565b905092915050565b600033905090565b600073ffffffffffffffffffffffffffffffffffffffff168373ffffffffffffffffffffffffffffffffffffffff161415620017c1576040517f08c379a00000000000000000000000000000000000000000000000000000000081526004018080602001828103825260248152602001806200467b6024913960400191505060405180910390fd5b600073ffffffffffffffffffffffffffffffffffffffff168273ffffffffffffffffffffffffffffffffffffffff16141562001849576040517f08c379a0000000000000000000000000000000000000000000000000000000008152600401808060200182810382526022815260200180620045036022913960400191505060405180910390fd5b80600260008573ffffffffffffffffffffffffffffffffffffffff1673ffffffffffffffffffffffffffffffffffffffff16815260200190815260200160002060008473ffffffffffffffffffffffffffffffffffffffff1673ffffffffffffffffffffffffffffffffffffffff168152602001908152602001600020819055508173ffffffffffffffffffffffffffffffffffffffff168373ffffffffffffffffffffffffffffffffffffffff167f8c5be1e5ebec7d5bd14f71427d1e84f3dd0314c0f7b2291e5b200ac8c7c3b925836040518082815260200191505060405180910390a3505050565b600073ffffffffffffffffffffffffffffffffffffffff168373ffffffffffffffffffffffffffffffffffffffff161415620019bc576040517f08c379a0000000000000000000000000000000000000000000000000000000008152600401808060200182810382526025815260200180620046566025913960400191505060405180910390fd5b600073ffffffffffffffffffffffffffffffffffffffff168273ffffffffffffffffffffffffffffffffffffffff16141562001a44576040517f08c379a00000000000000000000000000000000000000000000000000000000081526004018080602001828103825260238152602001806200448f6023913960400191505060405180910390fd5b62001a51838383620020b0565b62001ac0816040518060600160405280602681526020016200456860269139600160008773ffffffffffffffffffffffffffffffffffffffff1673ffffffffffffffffffffffffffffffffffffffff1681526020019081526020016000205462001c049092919063ffffffff16565b600160008573ffffffffffffffffffffffffffffffffffffffff1673ffffffffffffffffffffffffffffffffffffffff1681526020019081526020016000208190555062001b5781600160008573ffffffffffffffffffffffffffffffffffffffff1673ffffffffffffffffffffffffffffffffffffffff168152602001908152602001600020546200167690919063ffffffff16565b600160008473ffffffffffffffffffffffffffffffffffffffff1673ffffffffffffffffffffffffffffffffffffffff168152602001908152602001600020819055508173ffffffffffffffffffffffffffffffffffffffff168373ffffffffffffffffffffffffffffffffffffffff167fddf252ad1be2c89b69c2b068fc378daa952ba7f163c4a11628f55a4df523b3ef836040518082815260200191505060405180910390a3505050565b600083831115829062001cb5576040517f08c379a00000000000000000000000000000000000000000000000000000000081526004018080602001828103825283818151815260200191508051906020019080838360005b8381101562001c7957808201518184015260208101905062001c5c565b50505050905090810190601f16801562001ca75780820380516001836020036101000a031916815260200191505b509250505060405180910390fd5b5060008385039050809150509392505050565b62001cf181600080858152602001908152602001600020600001620016ff90919063ffffffff16565b1562001d5c5762001d0162001731565b73ffffffffffffffffffffffffffffffffffffffff168173ffffffffffffffffffffffffffffffffffffffff16837f2f8788117e7eff1d82e926ec794901d17c78024a50270940304540a733656f0d60405160405180910390a45b5050565b62001d8981600080858152602001908152602001600020600001620020b590919063ffffffff16565b1562001df45762001d9962001731565b73ffffffffffffffffffffffffffffffffffffffff168173ffffffffffffffffffffffffffffffffffffffff16837ff6391f5c32d9c69d2a47ea670b442974b53935d1edc7fd64eb21e047a839171b60405160405180910390a45b5050565b600073ffffffffffffffffffffffffffffffffffffffff168273ffffffffffffffffffffffffffffffffffffffff16141562001e80576040517f08c379a0000000000000000000000000000000000000000000000000000000008152600401808060200182810382526021815260200180620046356021913960400191505060405180910390fd5b62001e8e82600083620020b0565b62001efd81604051806060016040528060228152602001620044e160229139600160008673ffffffffffffffffffffffffffffffffffffffff1673ffffffffffffffffffffffffffffffffffffffff1681526020019081526020016000205462001c049092919063ffffffff16565b600160008473ffffffffffffffffffffffffffffffffffffffff1673ffffffffffffffffffffffffffffffffffffffff1681526020019081526020016000208190555062001f5781600354620020e790919063ffffffff16565b600381905550600073ffffffffffffffffffffffffffffffffffffffff168273ffffffffffffffffffffffffffffffffffffffff167fddf252ad1be2c89b69c2b068fc378daa952ba7f163c4a11628f55a4df523b3ef836040518082815260200191505060405180910390a35050565b62001fd3828262001cc8565b5050565b600062001fe8836000018362002133565b60001c905092915050565b60006200201d836000018373ffffffffffffffffffffffffffffffffffffffff1660001b620021b9565b905092915050565b60006200203582600001620021dc565b9050919050565b60006200204a8383620021b9565b620020a5578260000182908060018154018082558091505060019003906000526020600020016000909190919091505582600001805490508360010160008481526020019081526020016000208190555060019050620020aa565b600090505b92915050565b505050565b6000620020df836000018373ffffffffffffffffffffffffffffffffffffffff1660001b620021ed565b905092915050565b60006200212b83836040518060400160405280601e81526020017f536166654d6174683a207375627472616374696f6e206f766572666c6f77000081525062001c04565b905092915050565b60008183600001805490501162002196576040517f08c379a00000000000000000000000000000000000000000000000000000000081526004018080602001828103825260228152602001806200446d6022913960400191505060405180910390fd5b826000018281548110620021a657fe5b9060005260206000200154905092915050565b600080836001016000848152602001908152602001600020541415905092915050565b600081600001805490509050919050565b60008083600101600084815260200190815260200160002054905060008114620022ce57600060018203905060006001866000018054905003905060008660000182815481106200223a57fe5b90600052602060002001549050808760000184815481106200225857fe5b90600052602060002001819055506001830187600101600083815260200190815260200160002081905550866000018054806200229157fe5b60019003818190600052602060002001600090559055866001016000878152602001908152602001600020600090556001945050505050620022d4565b60009150505b92915050565b61214180620022e98339019056fe608060405234801561001057600080fd5b50604051612141380380612141833981810160405260a081101561003357600080fd5b810190808051906020019092919080519060200190929190805190602001909291908051906020019092919080519060200190929190505050846004819055508360058190555082600781905550603c820260098190555080600a60006101000a81548173ffffffffffffffffffffffffffffffffffffffff021916908373ffffffffffffffffffffffffffffffffffffffff1602179055506000600a60146101000a81548160ff021916908360038111156100eb57fe5b0217905550505050505061203d806101046000396000f3fe6080604052600436106101355760003560e01c806378e97925116100ab578063ae6e22f11161006f578063ae6e22f1146104d5578063afe0104314610500578063c08d1fe514610536578063ca15c87314610561578063d547741f146105b0578063f1a9af891461060b57610135565b806378e97925146103885780639010d07c146103b357806391d1485414610422578063a217fddf14610493578063a96f8668146104be57610135565b80632f2ff15d116100fd5780632f2ff15d1461025b57806332a0f2d7146102b657806336568abe146102e1578063378252f21461033c5780633c7a3aff146103535780637824407f1461035d57610135565b806304cb72f91461013a5780630522bf0314610151578063059f8b16146101b65780631b55d216146101e1578063248a9ca31461020c575b600080fd5b34801561014657600080fd5b5061014f610636565b005b34801561015d57600080fd5b506101a06004803603602081101561017457600080fd5b81019080803573ffffffffffffffffffffffffffffffffffffffff1690602001909291905050506107f5565b6040518082815260200191505060405180910390f35b3480156101c257600080fd5b506101cb61083e565b6040518082815260200191505060405180910390f35b3480156101ed57600080fd5b506101f6610847565b6040518082815260200191505060405180910390f35b34801561021857600080fd5b506102456004803603602081101561022f57600080fd5b810190808035906020019092919050505061084d565b6040518082815260200191505060405180910390f35b34801561026757600080fd5b506102b46004803603604081101561027e57600080fd5b8101908080359060200190929190803573ffffffffffffffffffffffffffffffffffffffff16906020019092919050505061086c565b005b3480156102c257600080fd5b506102cb6108f5565b6040518082815260200191505060405180910390f35b3480156102ed57600080fd5b5061033a6004803603604081101561030457600080fd5b8101908080359060200190929190803573ffffffffffffffffffffffffffffffffffffffff1690602001909291905050506108fb565b005b34801561034857600080fd5b50610351610994565b005b61035b610d16565b005b34801561036957600080fd5b5061037261116f565b6040518082815260200191505060405180910390f35b34801561039457600080fd5b5061039d611175565b6040518082815260200191505060405180910390f35b3480156103bf57600080fd5b506103f6600480360360408110156103d657600080fd5b81019080803590602001909291908035906020019092919050505061117b565b604051808273ffffffffffffffffffffffffffffffffffffffff16815260200191505060405180910390f35b34801561042e57600080fd5b5061047b6004803603604081101561044557600080fd5b8101908080359060200190929190803573ffffffffffffffffffffffffffffffffffffffff1690602001909291905050506111ac565b60405180821515815260200191505060405180910390f35b34801561049f57600080fd5b506104a86111dd565b6040518082815260200191505060405180910390f35b3480156104ca57600080fd5b506104d36111e4565b005b3480156104e157600080fd5b506104ea611674565b6040518082815260200191505060405180910390f35b34801561050c57600080fd5b5061051561167a565b6040518082600381111561052557fe5b815260200191505060405180910390f35b34801561054257600080fd5b5061054b61168d565b6040518082815260200191505060405180910390f35b34801561056d57600080fd5b5061059a6004803603602081101561058457600080fd5b8101908080359060200190929190505050611693565b6040518082815260200191505060405180910390f35b3480156105bc57600080fd5b50610609600480360360408110156105d357600080fd5b8101908080359060200190929190803573ffffffffffffffffffffffffffffffffffffffff1690602001909291905050506116b9565b005b34801561061757600080fd5b50610620611742565b6040518082815260200191505060405180910390f35b600a60009054906101000a900473ffffffffffffffffffffffffffffffffffffffff1673ffffffffffffffffffffffffffffffffffffffff163373ffffffffffffffffffffffffffffffffffffffff16146106dc576040517f08c379a000000000000000000000000000000000000000000000000000000000815260040180806020018281038252602c815260200180611f83602c913960400191505060405180910390fd5b600060038111156106e957fe5b600a60149054906101000a900460ff16600381111561070457fe5b14610777576040517f08c379a000000000000000000000000000000000000000000000000000000000815260040180806020018281038252601d8152602001807f5468652061756374696f6e20697320616c7265616479206f70656e656400000081525060200191505060405180910390fd5b426008819055506001600a60146101000a81548160ff0219169083600381111561079d57fe5b02179055507f268f1153844c3ed9f77b7cabc4fedb9d9994a5361b583f824ffbe523f3739e65600a60149054906101000a900460ff16604051808260038111156107e357fe5b815260200191505060405180910390a1565b6000600260008373ffffffffffffffffffffffffffffffffffffffff1673ffffffffffffffffffffffffffffffffffffffff168152602001908152602001600020549050919050565b64e8d4a5100081565b60055481565b6000806000838152602001908152602001600020600201549050919050565b6108926000808481526020019081526020016000206002015461088d611748565b6111ac565b6108e7576040517f08c379a000000000000000000000000000000000000000000000000000000000815260040180806020018281038252602f815260200180611e8f602f913960400191505060405180910390fd5b6108f18282611750565b5050565b60065481565b610903611748565b73ffffffffffffffffffffffffffffffffffffffff168173ffffffffffffffffffffffffffffffffffffffff1614610986576040517f08c379a000000000000000000000000000000000000000000000000000000000815260040180806020018281038252602f815260200180611fd9602f913960400191505060405180910390fd5b61099082826117e3565b5050565b600160038111156109a157fe5b600a60149054906101000a900460ff1660038111156109bc57fe5b14610a2f576040517f08c379a000000000000000000000000000000000000000000000000000000000815260040180806020018281038252601b8152602001807f54686520636f6e747261637420616c726561647920636c6f736564000000000081525060200191505060405180910390fd5b600954610a476008544261187690919063ffffffff16565b1115610b31576002600a60146101000a81548160ff02191690836003811115610a6c57fe5b02179055507f268f1153844c3ed9f77b7cabc4fedb9d9994a5361b583f824ffbe523f3739e65600a60149054906101000a900460ff1660405180826003811115610ab257fe5b815260200191505060405180910390a1610ae064e8d4a51000600554026007546118c090919063ffffffff16565b6003541115610b2257610b1764e8d4a51000610b0960075460035461194690919063ffffffff16565b61194690919063ffffffff16565b600681905550610b2c565b6005546006819055505b610d14565b6000610bd4600554610bc66103e8610bb8610b5960055460045461187690919063ffffffff16565b610baa600954610b9c6103e8610b8e42610b8060095460085461199090919063ffffffff16565b61187690919063ffffffff16565b6118c090919063ffffffff16565b61194690919063ffffffff16565b6118c090919063ffffffff16565b61194690919063ffffffff16565b61199090919063ffffffff16565b9050610bf264e8d4a5100082026007546118c090919063ffffffff16565b6003541015610c69576040517f08c379a000000000000000000000000000000000000000000000000000000000815260040180806020018281038252601b8152602001807f4e6f74207468652072696768742074696d6520746f20636c6f7365000000000081525060200191505060405180910390fd5b6002600a60146101000a81548160ff02191690836003811115610c8857fe5b02179055507f268f1153844c3ed9f77b7cabc4fedb9d9994a5361b583f824ffbe523f3739e65600a60149054906101000a900460ff1660405180826003811115610cce57fe5b815260200191505060405180910390a1610d0c64e8d4a51000610cfe60075460035461194690919063ffffffff16565b61194690919063ffffffff16565b600681905550505b565b60016003811115610d2357fe5b600a60149054906101000a900460ff166003811115610d3e57fe5b14610d94576040517f08c379a000000000000000000000000000000000000000000000000000000000815260040180806020018281038252602a815260200180611faf602a913960400191505060405180910390fd5b600954610dac6008544261187690919063ffffffff16565b10610e1f576040517f08c379a00000000000000000000000000000000000000000000000000000000081526004018080602001828103825260118152602001807f5468652074696d65206973206f7665722000000000000000000000000000000081525060200191505060405180910390fd5b6000610ec2600554610eb46103e8610ea6610e4760055460045461187690919063ffffffff16565b610e98600954610e8a6103e8610e7c42610e6e60095460085461199090919063ffffffff16565b61187690919063ffffffff16565b6118c090919063ffffffff16565b61194690919063ffffffff16565b6118c090919063ffffffff16565b61194690919063ffffffff16565b61199090919063ffffffff16565b9050610ee064e8d4a5100082026007546118c090919063ffffffff16565b60035410610f39576040517f08c379a000000000000000000000000000000000000000000000000000000000815260040180806020018281038252603f815260200180611eee603f913960400191505060405180910390fd5b610f4e3460035461199090919063ffffffff16565b600381905550600160405180604001604052803373ffffffffffffffffffffffffffffffffffffffff16815260200134815250908060018154018082558091505060019003906000526020600020906002020160009091909190915060008201518160000160006101000a81548173ffffffffffffffffffffffffffffffffffffffff021916908373ffffffffffffffffffffffffffffffffffffffff16021790555060208201518160010155505061104f34600260003373ffffffffffffffffffffffffffffffffffffffff1673ffffffffffffffffffffffffffffffffffffffff1681526020019081526020016000205461199090919063ffffffff16565b600260003373ffffffffffffffffffffffffffffffffffffffff1673ffffffffffffffffffffffffffffffffffffffff168152602001908152602001600020819055507f9e2f6b1e3f3c354bf8e290190cec21c802d02da827cc107d37bc9768ddb036e66003546040518082815260200191505060405180910390a16110e764e8d4a5100082026007546118c090919063ffffffff16565b6003541061116c57806006819055506002600a60146101000a81548160ff0219169083600381111561111557fe5b02179055507f268f1153844c3ed9f77b7cabc4fedb9d9994a5361b583f824ffbe523f3739e65600a60149054906101000a900460ff166040518082600381111561115b57fe5b815260200191505060405180910390a15b50565b60075481565b60085481565b60006111a482600080868152602001908152602001600020600001611a1890919063ffffffff16565b905092915050565b60006111d582600080868152602001908152602001600020600001611a3290919063ffffffff16565b905092915050565b6000801b81565b600260038111156111f157fe5b600a60149054906101000a900460ff16600381111561120c57fe5b14611262576040517f08c379a0000000000000000000000000000000000000000000000000000000008152600401808060200182810382526035815260200180611f4e6035913960400191505060405180910390fd5b6003600a60146101000a81548160ff0219169083600381111561128157fe5b02179055507f268f1153844c3ed9f77b7cabc4fedb9d9994a5361b583f824ffbe523f3739e65600a60149054906101000a900460ff16604051808260038111156112c757fe5b815260200191505060405180910390a1600060035490506000600754905060005b60018054905081101561156957600061133164e8d4a51000600654026001848154811061131157fe5b90600052602060002090600202016001015461194690919063ffffffff16565b9050828111156114385760006001838154811061134a57fe5b906000526020600020906002020160000160009054906101000a900473ffffffffffffffffffffffffffffffffffffffff16905083915060006113cf6113a264e8d4a5100060065402856118c090919063ffffffff16565b600186815481106113af57fe5b90600052602060002090600202016001015461187690919063ffffffff16565b90508173ffffffffffffffffffffffffffffffffffffffff166108fc829081150290604051600060405180830381858888f19350505050158015611417573d6000803e3d6000fd5b5061142b818761187690919063ffffffff16565b955060009450505061144e565b61144b818461187690919063ffffffff16565b92505b600a60009054906101000a900473ffffffffffffffffffffffffffffffffffffffff1673ffffffffffffffffffffffffffffffffffffffff1663a9059cbb6001848154811061149957fe5b906000526020600020906002020160000160009054906101000a900473ffffffffffffffffffffffffffffffffffffffff16836040518363ffffffff1660e01b8152600401808373ffffffffffffffffffffffffffffffffffffffff16815260200182815260200192505050602060405180830381600087803b15801561151f57600080fd5b505af1158015611533573d6000803e3d6000fd5b505050506040513d602081101561154957600080fd5b8101908080519060200190929190505050505080806001019150506112e8565b506000600a60009054906101000a900473ffffffffffffffffffffffffffffffffffffffff1690508073ffffffffffffffffffffffffffffffffffffffff166108fc849081150290604051600060405180830381858888f193505050501580156115d7573d6000803e3d6000fd5b50600082111561166f57600a60009054906101000a900473ffffffffffffffffffffffffffffffffffffffff1673ffffffffffffffffffffffffffffffffffffffff166342966c68836040518263ffffffff1660e01b815260040180828152602001915050600060405180830381600087803b15801561165657600080fd5b505af115801561166a573d6000803e3d6000fd5b505050505b505050565b60035481565b600a60149054906101000a900460ff1681565b60095481565b60006116b2600080848152602001908152602001600020600001611a62565b9050919050565b6116df600080848152602001908152602001600020600201546116da611748565b6111ac565b611734576040517f08c379a0000000000000000000000000000000000000000000000000000000008152600401808060200182810382526030815260200180611ebe6030913960400191505060405180910390fd5b61173e82826117e3565b5050565b60045481565b600033905090565b61177781600080858152602001908152602001600020600001611a7790919063ffffffff16565b156117df57611784611748565b73ffffffffffffffffffffffffffffffffffffffff168173ffffffffffffffffffffffffffffffffffffffff16837f2f8788117e7eff1d82e926ec794901d17c78024a50270940304540a733656f0d60405160405180910390a45b5050565b61180a81600080858152602001908152602001600020600001611aa790919063ffffffff16565b1561187257611817611748565b73ffffffffffffffffffffffffffffffffffffffff168173ffffffffffffffffffffffffffffffffffffffff16837ff6391f5c32d9c69d2a47ea670b442974b53935d1edc7fd64eb21e047a839171b60405160405180910390a45b5050565b60006118b883836040518060400160405280601e81526020017f536166654d6174683a207375627472616374696f6e206f766572666c6f770000815250611ad7565b905092915050565b6000808314156118d35760009050611940565b60008284029050828482816118e457fe5b041461193b576040517f08c379a0000000000000000000000000000000000000000000000000000000008152600401808060200182810382526021815260200180611f2d6021913960400191505060405180910390fd5b809150505b92915050565b600061198883836040518060400160405280601a81526020017f536166654d6174683a206469766973696f6e206279207a65726f000000000000815250611b97565b905092915050565b600080828401905083811015611a0e576040517f08c379a000000000000000000000000000000000000000000000000000000000815260040180806020018281038252601b8152602001807f536166654d6174683a206164646974696f6e206f766572666c6f77000000000081525060200191505060405180910390fd5b8091505092915050565b6000611a278360000183611c5d565b60001c905092915050565b6000611a5a836000018373ffffffffffffffffffffffffffffffffffffffff1660001b611ce0565b905092915050565b6000611a7082600001611d03565b9050919050565b6000611a9f836000018373ffffffffffffffffffffffffffffffffffffffff1660001b611d14565b905092915050565b6000611acf836000018373ffffffffffffffffffffffffffffffffffffffff1660001b611d84565b905092915050565b6000838311158290611b84576040517f08c379a00000000000000000000000000000000000000000000000000000000081526004018080602001828103825283818151815260200191508051906020019080838360005b83811015611b49578082015181840152602081019050611b2e565b50505050905090810190601f168015611b765780820380516001836020036101000a031916815260200191505b509250505060405180910390fd5b5060008385039050809150509392505050565b60008083118290611c43576040517f08c379a00000000000000000000000000000000000000000000000000000000081526004018080602001828103825283818151815260200191508051906020019080838360005b83811015611c08578082015181840152602081019050611bed565b50505050905090810190601f168015611c355780820380516001836020036101000a031916815260200191505b509250505060405180910390fd5b506000838581611c4f57fe5b049050809150509392505050565b600081836000018054905011611cbe576040517f08c379a0000000000000000000000000000000000000000000000000000000008152600401808060200182810382526022815260200180611e6d6022913960400191505060405180910390fd5b826000018281548110611ccd57fe5b9060005260206000200154905092915050565b600080836001016000848152602001908152602001600020541415905092915050565b600081600001805490509050919050565b6000611d208383611ce0565b611d79578260000182908060018154018082558091505060019003906000526020600020016000909190919091505582600001805490508360010160008481526020019081526020016000208190555060019050611d7e565b600090505b92915050565b60008083600101600084815260200190815260200160002054905060008114611e605760006001820390506000600186600001805490500390506000866000018281548110611dcf57fe5b9060005260206000200154905080876000018481548110611dec57fe5b9060005260206000200181905550600183018760010160008381526020019081526020016000208190555086600001805480611e2457fe5b60019003818190600052602060002001600090559055866001016000878152602001908152602001600020600090556001945050505050611e66565b60009150505b9291505056fe456e756d657261626c655365743a20696e646578206f7574206f6620626f756e6473416363657373436f6e74726f6c3a2073656e646572206d75737420626520616e2061646d696e20746f206772616e74416363657373436f6e74726f6c3a2073656e646572206d75737420626520616e2061646d696e20746f207265766f6b655468652064656d616e64206973206c6172676572207468616e20737570706c792c2074686520636f6e74726163742073686f756c6420636c6f7365206e6f77536166654d6174683a206d756c7469706c69636174696f6e206f766572666c6f775468652061756374696f6e206861766520746f20626520696e20737461746520636c6f73656420746f2062652072656c65617365644f6e6c792074686520746f6b656e20636f6e74726163742063616e206f70656e207468652061756374696f6e54686520636f6e747261637420636c6f736564206f722068617665206e6f74206f70656e656420796574416363657373436f6e74726f6c3a2063616e206f6e6c792072656e6f756e636520726f6c657320666f722073656c66a2646970667358221220f21b0dccab305c0b6bb3b9ec92796e783e7e9a3b917dd1c1eb36585ec956342c64736f6c634300060c003343797068657270756e6b436f696e3a206d75737420686176652061756374696f6e2063726561746f7220726f6c6520746f2063726561746520616e2061756374696f6e456e756d657261626c655365743a20696e646578206f7574206f6620626f756e647345524332303a207472616e7366657220746f20746865207a65726f2061646472657373416363657373436f6e74726f6c3a2073656e646572206d75737420626520616e2061646d696e20746f206772616e7445524332303a206275726e20616d6f756e7420657863656564732062616c616e636545524332303a20617070726f766520746f20746865207a65726f206164647265737343797068657270756e6b436f696e3a206d75737420686176652061756374696f6e2063726561746f7220726f6c6520746f206f70656e20746869732061756374696f6e45524332303a207472616e7366657220616d6f756e7420657863656564732062616c616e6365416363657373436f6e74726f6c3a2073656e646572206d75737420626520616e2061646d696e20746f207265766f6b6545524332303a207472616e7366657220616d6f756e74206578636565647320616c6c6f77616e636545524332303a206275726e20616d6f756e74206578636565647320616c6c6f77616e6365546869732066756e6374696f6e2063616e206f6e6c792062652061636365737365642062792061646d696e45524332303a206275726e2066726f6d20746865207a65726f206164647265737345524332303a207472616e736665722066726f6d20746865207a65726f206164647265737345524332303a20617070726f76652066726f6d20746865207a65726f206164647265737345524332303a2064656372656173656420616c6c6f77616e63652062656c6f77207a65726f416363657373436f6e74726f6c3a2063616e206f6e6c792072656e6f756e636520726f6c657320666f722073656c66a2646970667358221220c50e41acc7b24266194e4d940f60a9b5240fc5431c8e0146dc136c1e01ee955d64736f6c634300060c0033",
  "immutableReferences": {},
  "source": "pragma solidity ^0.6.0;\r\n\r\nimport \"@openzeppelin/contracts/access/AccessControl.sol\";\r\nimport \"@openzeppelin/contracts/token/ERC20/ERC20Burnable.sol\";\r\nimport \"./Auction.sol\";\r\n\r\ncontract CypherpunkCoin is AccessControl, ERC20Burnable {\r\n    bytes32 public constant AUCTION_CREATOR_ROLE = keccak256(\r\n        \"AUCTION_CREATOR_ROLE\"\r\n    );\r\n\r\n    constructor(string memory name, string memory symbol)\r\n        public\r\n        ERC20(name, symbol)\r\n    {\r\n        //set up admin role\r\n        _setupRole(DEFAULT_ADMIN_ROLE, msg.sender);\r\n\r\n        //set up auction creator role\r\n        _setupRole(AUCTION_CREATOR_ROLE, msg.sender);\r\n        _mint(msg.sender, 1000);\r\n        _setupDecimals(0);\r\n    }\r\n\r\n    address public auctionAddress;\r\n\r\n    // prices in units of microEther\r\n    function createAuction(\r\n        uint256 _startPrice,\r\n        uint256 _reservedPrice,\r\n        uint256 _supply,\r\n        uint256 _timeLimit\r\n    ) external {\r\n        require(\r\n            hasRole(AUCTION_CREATOR_ROLE, msg.sender),\r\n            \"CypherpunkCoin: must have auction creator role to create an auction\"\r\n        );\r\n        Auction auction = new Auction(\r\n            _startPrice,\r\n            _reservedPrice,\r\n            _supply,\r\n            _timeLimit,\r\n            this\r\n        );\r\n        transfer(address(auction), _supply);\r\n        auctionAddress = address(auction);\r\n    }\r\n\r\n    // open the current auction\r\n    function openCurrAuction() external {\r\n        require(\r\n            hasRole(AUCTION_CREATOR_ROLE, msg.sender),\r\n            \"CypherpunkCoin: must have auction creator role to open this auction\"\r\n        );\r\n        Auction(auctionAddress).openAuction();\r\n    }\r\n\r\n    // set up the role of auction creators for others\r\n    function setupAuctionCreatorRole(address creator) external {\r\n        require(\r\n            hasRole(DEFAULT_ADMIN_ROLE, msg.sender),\r\n            \"This function can only be accessed by admin\"\r\n        );\r\n        _setupRole(AUCTION_CREATOR_ROLE, creator);\r\n    }\r\n\r\n    // to receive money from others\r\n    receive() external payable {}\r\n}\r\n",
  "sourcePath": "F:\\NTU\\Courses\\Sem 1 2020-2021\\Blockchain Technology\\CZ4153-Dutch-Contract\\contracts\\CypherpunkCoin.sol",
  "compiler": {
    "name": "solc",
    "version": "0.6.12+commit.27d51765.Emscripten.clang"
  },
  "schemaVersion": "3.3.1",
  "updatedAt": "2020-11-03T15:45:16.747Z",
  "devdoc": {
    "kind": "dev",
    "methods": {
      "allowance(address,address)": {
        "details": "See {IERC20-allowance}."
      },
      "approve(address,uint256)": {
        "details": "See {IERC20-approve}. Requirements: - `spender` cannot be the zero address."
      },
      "balanceOf(address)": {
        "details": "See {IERC20-balanceOf}."
      },
      "burn(uint256)": {
        "details": "Destroys `amount` tokens from the caller. See {ERC20-_burn}."
      },
      "burnFrom(address,uint256)": {
        "details": "Destroys `amount` tokens from `account`, deducting from the caller's allowance. See {ERC20-_burn} and {ERC20-allowance}. Requirements: - the caller must have allowance for ``accounts``'s tokens of at least `amount`."
      },
      "decimals()": {
        "details": "Returns the number of decimals used to get its user representation. For example, if `decimals` equals `2`, a balance of `505` tokens should be displayed to a user as `5,05` (`505 / 10 ** 2`). Tokens usually opt for a value of 18, imitating the relationship between Ether and Wei. This is the value {ERC20} uses, unless {_setupDecimals} is called. NOTE: This information is only used for _display_ purposes: it in no way affects any of the arithmetic of the contract, including {IERC20-balanceOf} and {IERC20-transfer}."
      },
      "decreaseAllowance(address,uint256)": {
        "details": "Atomically decreases the allowance granted to `spender` by the caller. This is an alternative to {approve} that can be used as a mitigation for problems described in {IERC20-approve}. Emits an {Approval} event indicating the updated allowance. Requirements: - `spender` cannot be the zero address. - `spender` must have allowance for the caller of at least `subtractedValue`."
      },
      "getRoleAdmin(bytes32)": {
        "details": "Returns the admin role that controls `role`. See {grantRole} and {revokeRole}. To change a role's admin, use {_setRoleAdmin}."
      },
      "getRoleMember(bytes32,uint256)": {
        "details": "Returns one of the accounts that have `role`. `index` must be a value between 0 and {getRoleMemberCount}, non-inclusive. Role bearers are not sorted in any particular way, and their ordering may change at any point. WARNING: When using {getRoleMember} and {getRoleMemberCount}, make sure you perform all queries on the same block. See the following https://forum.openzeppelin.com/t/iterating-over-elements-on-enumerableset-in-openzeppelin-contracts/2296[forum post] for more information."
      },
      "getRoleMemberCount(bytes32)": {
        "details": "Returns the number of accounts that have `role`. Can be used together with {getRoleMember} to enumerate all bearers of a role."
      },
      "grantRole(bytes32,address)": {
        "details": "Grants `role` to `account`. If `account` had not been already granted `role`, emits a {RoleGranted} event. Requirements: - the caller must have ``role``'s admin role."
      },
      "hasRole(bytes32,address)": {
        "details": "Returns `true` if `account` has been granted `role`."
      },
      "increaseAllowance(address,uint256)": {
        "details": "Atomically increases the allowance granted to `spender` by the caller. This is an alternative to {approve} that can be used as a mitigation for problems described in {IERC20-approve}. Emits an {Approval} event indicating the updated allowance. Requirements: - `spender` cannot be the zero address."
      },
      "name()": {
        "details": "Returns the name of the token."
      },
      "renounceRole(bytes32,address)": {
        "details": "Revokes `role` from the calling account. Roles are often managed via {grantRole} and {revokeRole}: this function's purpose is to provide a mechanism for accounts to lose their privileges if they are compromised (such as when a trusted device is misplaced). If the calling account had been granted `role`, emits a {RoleRevoked} event. Requirements: - the caller must be `account`."
      },
      "revokeRole(bytes32,address)": {
        "details": "Revokes `role` from `account`. If `account` had been granted `role`, emits a {RoleRevoked} event. Requirements: - the caller must have ``role``'s admin role."
      },
      "symbol()": {
        "details": "Returns the symbol of the token, usually a shorter version of the name."
      },
      "totalSupply()": {
        "details": "See {IERC20-totalSupply}."
      },
      "transfer(address,uint256)": {
        "details": "See {IERC20-transfer}. Requirements: - `recipient` cannot be the zero address. - the caller must have a balance of at least `amount`."
      },
      "transferFrom(address,address,uint256)": {
        "details": "See {IERC20-transferFrom}. Emits an {Approval} event indicating the updated allowance. This is not required by the EIP. See the note at the beginning of {ERC20}; Requirements: - `sender` and `recipient` cannot be the zero address. - `sender` must have a balance of at least `amount`. - the caller must have allowance for ``sender``'s tokens of at least `amount`."
      }
    },
    "version": 1
  },
  "userdoc": {
    "kind": "user",
    "methods": {},
    "version": 1
  }
}