{
  "contractName": "Auction",
  "abi": [
    {
      "inputs": [
        {
          "internalType": "uint256",
          "name": "_startPrice",
          "type": "uint256"
        },
        {
          "internalType": "uint256",
          "name": "_reservedPrice",
          "type": "uint256"
        },
        {
          "internalType": "uint256",
          "name": "_tokenSupply",
          "type": "uint256"
        },
        {
          "internalType": "contract CypherpunkCoin",
          "name": "_token",
          "type": "address"
        }
      ],
      "stateMutability": "nonpayable",
      "type": "constructor"
    },
    {
      "inputs": [],
      "name": "clearingPrice",
      "outputs": [
        {
          "internalType": "uint256",
          "name": "",
          "type": "uint256"
        }
      ],
      "stateMutability": "view",
      "type": "function"
    },
    {
      "inputs": [],
      "name": "curPrice",
      "outputs": [
        {
          "internalType": "uint256",
          "name": "",
          "type": "uint256"
        }
      ],
      "stateMutability": "view",
      "type": "function"
    },
    {
      "inputs": [],
      "name": "reservedPrice",
      "outputs": [
        {
          "internalType": "uint256",
          "name": "",
          "type": "uint256"
        }
      ],
      "stateMutability": "view",
      "type": "function"
    },
    {
      "inputs": [],
      "name": "startPrice",
      "outputs": [
        {
          "internalType": "uint256",
          "name": "",
          "type": "uint256"
        }
      ],
      "stateMutability": "view",
      "type": "function"
    },
    {
      "inputs": [],
      "name": "startTime",
      "outputs": [
        {
          "internalType": "uint256",
          "name": "",
          "type": "uint256"
        }
      ],
      "stateMutability": "view",
      "type": "function"
    },
    {
      "inputs": [],
      "name": "timeLimit",
      "outputs": [
        {
          "internalType": "uint256",
          "name": "",
          "type": "uint256"
        }
      ],
      "stateMutability": "view",
      "type": "function"
    },
    {
      "inputs": [],
      "name": "tokenSupply",
      "outputs": [
        {
          "internalType": "uint256",
          "name": "",
          "type": "uint256"
        }
      ],
      "stateMutability": "view",
      "type": "function"
    },
    {
      "inputs": [],
      "name": "totalEther",
      "outputs": [
        {
          "internalType": "uint256",
          "name": "",
          "type": "uint256"
        }
      ],
      "stateMutability": "view",
      "type": "function"
    },
    {
      "inputs": [],
      "name": "commit",
      "outputs": [],
      "stateMutability": "payable",
      "type": "function"
    },
    {
      "inputs": [],
      "name": "releaseTokens",
      "outputs": [],
      "stateMutability": "nonpayable",
      "type": "function"
    },
    {
      "inputs": [
        {
          "internalType": "address",
          "name": "bidder",
          "type": "address"
        }
      ],
      "name": "getCommitments",
      "outputs": [
        {
          "internalType": "uint256",
          "name": "",
          "type": "uint256"
        }
      ],
      "stateMutability": "view",
      "type": "function"
    }
  ],
  "bytecode": "0x608060405234801561001057600080fd5b506040516110633803806110638339818101604052608081101561003357600080fd5b81019080805190602001909291908051906020019092919080519060200190929190805190602001909291905050504260078190555083600381905550826004819055508160068190555080600960006101000a81548173ffffffffffffffffffffffffffffffffffffffff021916908373ffffffffffffffffffffffffffffffffffffffff1602179055506000600960146101000a81548160ff021916908360028111156100de57fe5b021790555050505050610f6d806100f66000396000f3fe60806040526004361061009c5760003560e01c806378e979251161006457806378e979251461019157806393a91682146101bc578063a96f8668146101e7578063ae6e22f1146101fe578063c08d1fe514610229578063f1a9af89146102545761009c565b80630522bf03146100a15780631b55d2161461010657806332a0f2d7146101315780633c7a3aff1461015c5780637824407f14610166575b600080fd5b3480156100ad57600080fd5b506100f0600480360360208110156100c457600080fd5b81019080803573ffffffffffffffffffffffffffffffffffffffff16906020019092919050505061027f565b6040518082815260200191505060405180910390f35b34801561011257600080fd5b5061011b6102c8565b6040518082815260200191505060405180910390f35b34801561013d57600080fd5b506101466102ce565b6040518082815260200191505060405180910390f35b6101646102d4565b005b34801561017257600080fd5b5061017b61065f565b6040518082815260200191505060405180910390f35b34801561019d57600080fd5b506101a6610665565b6040518082815260200191505060405180910390f35b3480156101c857600080fd5b506101d161066b565b6040518082815260200191505060405180910390f35b3480156101f357600080fd5b506101fc610671565b005b34801561020a57600080fd5b50610213610bb4565b6040518082815260200191505060405180910390f35b34801561023557600080fd5b5061023e610bba565b6040518082815260200191505060405180910390f35b34801561026057600080fd5b50610269610bc0565b6040518082815260200191505060405180910390f35b6000600160008373ffffffffffffffffffffffffffffffffffffffff1673ffffffffffffffffffffffffffffffffffffffff168152602001908152602001600020549050919050565b60045481565b60055481565b600060028111156102e157fe5b600960149054906101000a900460ff1660028111156102fc57fe5b1461036f576040517f08c379a000000000000000000000000000000000000000000000000000000000815260040180806020018281038252601b8152602001807f546869732061756374696f6e20616c726561647920636c6f736573000000000081525060200191505060405180910390fd5b61025861038760075442610bc690919063ffffffff16565b1115610406576004546005819055506001600960146101000a81548160ff021916908360028111156103b557fe5b02179055503373ffffffffffffffffffffffffffffffffffffffff166108fc349081150290604051600060405180830381858888f19350505050158015610400573d6000803e3d6000fd5b5061065d565b6104a76004546104996103e861048b61042c600454600354610bc690919063ffffffff16565b61047d61025861046f6103e861046142610453610258600754610c1090919063ffffffff16565b610bc690919063ffffffff16565b610c9890919063ffffffff16565b610d1e90919063ffffffff16565b610c9890919063ffffffff16565b610d1e90919063ffffffff16565b610c1090919063ffffffff16565b6008819055506104c234600254610c1090919063ffffffff16565b600281905550600060405180604001604052803373ffffffffffffffffffffffffffffffffffffffff16815260200134815250908060018154018082558091505060019003906000526020600020906002020160009091909190915060008201518160000160006101000a81548173ffffffffffffffffffffffffffffffffffffffff021916908373ffffffffffffffffffffffffffffffffffffffff1602179055506020820151816001015550506105c334600160003373ffffffffffffffffffffffffffffffffffffffff1673ffffffffffffffffffffffffffffffffffffffff16815260200190815260200160002054610c1090919063ffffffff16565b600160003373ffffffffffffffffffffffffffffffffffffffff1673ffffffffffffffffffffffffffffffffffffffff168152602001908152602001600020819055506106256509184e72a00060085402600654610c9890919063ffffffff16565b600254111561065c576008546005819055506001600960146101000a81548160ff0219169083600281111561065657fe5b02179055505b5b565b60065481565b60075481565b60085481565b60028081111561067d57fe5b600960149054906101000a900460ff16600281111561069857fe5b141561070c576040517f08c379a000000000000000000000000000000000000000000000000000000000815260040180806020018281038252601c8152602001807f5468652061756374696f6e20616c72656164792072656c65617365730000000081525060200191505060405180910390fd5b6000600281111561071957fe5b600960149054906101000a900460ff16600281111561073457fe5b14156107d65761025861075260075442610bc690919063ffffffff16565b116107a8576040517f08c379a0000000000000000000000000000000000000000000000000000000008152600401808060200182810382526028815260200180610eef6028913960400191505060405180910390fd5b6004546005819055506001600960146101000a81548160ff021916908360028111156107d057fe5b02179055505b600060025490506000805b600080549050811015610a8157600060065414156107fe57610a81565b600061083b6509184e72a000600554026000848154811061081b57fe5b906000526020600020906002020160010154610d1e90919063ffffffff16565b905060065481111561094a57600080838154811061085557fe5b906000526020600020906002020160000160009054906101000a900473ffffffffffffffffffffffffffffffffffffffff169050600654915060006108dd6108b06509184e72a0006005540285610c9890919063ffffffff16565b600086815481106108bd57fe5b906000526020600020906002020160010154610bc690919063ffffffff16565b90508173ffffffffffffffffffffffffffffffffffffffff166108fc829081150290604051600060405180830381858888f19350505050158015610925573d6000803e3d6000fd5b506109398187610bc690919063ffffffff16565b955060006006819055505050610966565b61095f81600654610bc690919063ffffffff16565b6006819055505b600960009054906101000a900473ffffffffffffffffffffffffffffffffffffffff1673ffffffffffffffffffffffffffffffffffffffff1663a9059cbb600084815481106109b157fe5b906000526020600020906002020160000160009054906101000a900473ffffffffffffffffffffffffffffffffffffffff16836040518363ffffffff1660e01b8152600401808373ffffffffffffffffffffffffffffffffffffffff16815260200182815260200192505050602060405180830381600087803b158015610a3757600080fd5b505af1158015610a4b573d6000803e3d6000fd5b505050506040513d6020811015610a6157600080fd5b8101908080519060200190929190505050505080806001019150506107e1565b506000600960009054906101000a900473ffffffffffffffffffffffffffffffffffffffff1690508073ffffffffffffffffffffffffffffffffffffffff166108fc849081150290604051600060405180830381858888f19350505050158015610aef573d6000803e3d6000fd5b5060006006541115610b8b57600960009054906101000a900473ffffffffffffffffffffffffffffffffffffffff1673ffffffffffffffffffffffffffffffffffffffff166342966c686006546040518263ffffffff1660e01b815260040180828152602001915050600060405180830381600087803b158015610b7257600080fd5b505af1158015610b86573d6000803e3d6000fd5b505050505b6002600960146101000a81548160ff02191690836002811115610baa57fe5b0217905550505050565b60025481565b61025881565b60035481565b6000610c0883836040518060400160405280601e81526020017f536166654d6174683a207375627472616374696f6e206f766572666c6f770000815250610d68565b905092915050565b600080828401905083811015610c8e576040517f08c379a000000000000000000000000000000000000000000000000000000000815260040180806020018281038252601b8152602001807f536166654d6174683a206164646974696f6e206f766572666c6f77000000000081525060200191505060405180910390fd5b8091505092915050565b600080831415610cab5760009050610d18565b6000828402905082848281610cbc57fe5b0414610d13576040517f08c379a0000000000000000000000000000000000000000000000000000000008152600401808060200182810382526021815260200180610f176021913960400191505060405180910390fd5b809150505b92915050565b6000610d6083836040518060400160405280601a81526020017f536166654d6174683a206469766973696f6e206279207a65726f000000000000815250610e28565b905092915050565b6000838311158290610e15576040517f08c379a00000000000000000000000000000000000000000000000000000000081526004018080602001828103825283818151815260200191508051906020019080838360005b83811015610dda578082015181840152602081019050610dbf565b50505050905090810190601f168015610e075780820380516001836020036101000a031916815260200191505b509250505060405180910390fd5b5060008385039050809150509392505050565b60008083118290610ed4576040517f08c379a00000000000000000000000000000000000000000000000000000000081526004018080602001828103825283818151815260200191508051906020019080838360005b83811015610e99578082015181840152602081019050610e7e565b50505050905090810190601f168015610ec65780820380516001836020036101000a031916815260200191505b509250505060405180910390fd5b506000838581610ee057fe5b04905080915050939250505056fe5468652061756374696f6e206973207374696c6c206f70656e65642c20706c656173652077616974536166654d6174683a206d756c7469706c69636174696f6e206f766572666c6f77a26469706673582212208f489f57ed04ae7070352f149ede9d43990d39738a643d923e3840092016217d64736f6c634300060c0033",
  "immutableReferences": {},
  "source": "pragma solidity ^0.6.0;\r\n\r\nimport \"@openzeppelin/contracts/math/SafeMath.sol\";\r\nimport \"./CypherpunkCoin.sol\";\r\n\r\ncontract Auction {\r\n    using SafeMath for uint256;\r\n    // if one address buy many times??\r\n    // mapping (address => uint) private commitments;\r\n    struct commitment {\r\n        address bidder;\r\n        uint256 amount;\r\n    }\r\n\r\n    commitment[] private commitments;\r\n    mapping(address => uint256) bidderToAmount;\r\n\r\n    enum State {OPENED, CLOSED, RELEASED}\r\n    // total Ether stored\r\n    uint256 public totalEther;\r\n    uint256 public startPrice;\r\n    uint256 public reservedPrice;\r\n    uint256 public clearingPrice;\r\n    // total Supply of tokens\r\n    uint256 public tokenSupply;\r\n    uint256 public startTime;\r\n    uint256 public curPrice;\r\n    // uint256 demand;\r\n\r\n    CypherpunkCoin private token;\r\n    State private currState;\r\n    uint256 public constant timeLimit = 10 minutes;\r\n\r\n    constructor(\r\n        uint256 _startPrice,\r\n        uint256 _reservedPrice,\r\n        uint256 _tokenSupply,\r\n        CypherpunkCoin _token\r\n    ) public {\r\n        startTime = now;\r\n        startPrice = _startPrice;\r\n        reservedPrice = _reservedPrice;\r\n        tokenSupply = _tokenSupply;\r\n        token = _token;\r\n        currState = State.OPENED;\r\n    }\r\n\r\n    function commit() external payable {\r\n        require(currState == State.OPENED, \"This auction already closes\");\r\n        if (now.sub(startTime) > timeLimit) {\r\n            clearingPrice = reservedPrice;\r\n            currState = State.CLOSED;\r\n            // send back money to bidder\r\n            msg.sender.transfer(msg.value);\r\n            return;\r\n        }\r\n        curPrice = (startTime.add(timeLimit).sub(now))\r\n            .mul(1000)\r\n            .div(timeLimit)\r\n            .mul(startPrice.sub(reservedPrice))\r\n            .div(1000)\r\n            .add(reservedPrice);\r\n        totalEther = totalEther.add(msg.value);\r\n        commitments.push(commitment(msg.sender, msg.value));\r\n        bidderToAmount[msg.sender] = bidderToAmount[msg.sender].add(msg.value);\r\n        // demand = totalEther.div(curPrice);\r\n        // to check whether the demand is larger than supply\r\n        if (totalEther > tokenSupply.mul(curPrice * 10000000000000)) {\r\n            clearingPrice = curPrice;\r\n            currState = State.CLOSED;\r\n        }\r\n    }\r\n\r\n    modifier checkRelease() {\r\n        require(currState != State.RELEASED, \"The auction already releases\");\r\n        if (currState == State.OPENED) {\r\n            require(\r\n                now.sub(startTime) > timeLimit,\r\n                \"The auction is still opened, please wait\"\r\n            );\r\n            clearingPrice = reservedPrice;\r\n            currState = State.CLOSED;\r\n        }\r\n        _;\r\n    }\r\n\r\n    // anyone can trigger the release as long as it satisfies the requirements\r\n    function releaseTokens() external checkRelease() {\r\n        uint256 ethSendToTokenContract = totalEther;\r\n        uint256 remainingEther = 0;\r\n        for (uint256 i = 0; i < commitments.length; i++) {\r\n            if (tokenSupply == 0) break;\r\n            uint256 tokenTransfer = commitments[i].amount.div(\r\n                clearingPrice * 10000000000000\r\n            );\r\n            if (tokenTransfer > tokenSupply) {\r\n                //send back redundant ether\r\n                address payable payableLastBidder = address(\r\n                    uint160(commitments[i].bidder)\r\n                );\r\n                tokenTransfer = tokenSupply;\r\n                uint256 ethSendTopayableLastBidder = commitments[i].amount.sub(\r\n                    tokenTransfer.mul(clearingPrice * 10000000000000)\r\n                );\r\n                payableLastBidder.transfer(ethSendTopayableLastBidder);\r\n                ethSendToTokenContract = ethSendToTokenContract.sub(\r\n                    ethSendTopayableLastBidder\r\n                );\r\n                tokenSupply = 0;\r\n            } else tokenSupply = tokenSupply.sub(tokenTransfer);\r\n            token.transfer(commitments[i].bidder, tokenTransfer);\r\n        }\r\n        address payable payableToken = address(uint160(address(token)));\r\n        payableToken.transfer(ethSendToTokenContract);\r\n        if (tokenSupply > 0) token.burn(tokenSupply);\r\n        currState = State.RELEASED;\r\n    }\r\n\r\n    function getCommitments(address bidder) public view returns (uint256) {\r\n        return bidderToAmount[bidder];\r\n    }\r\n}\r\n",
  "sourcePath": "C:\\Users\\phuaj\\Documents\\GitHub\\CZ4153-Dutch-Contract\\contracts\\Auction.sol",
  "compiler": {
    "name": "solc",
    "version": "0.6.12+commit.27d51765.Emscripten.clang"
  },
  "schemaVersion": "3.3.1",
  "updatedAt": "2020-10-31T20:27:19.160Z",
  "devdoc": {
    "kind": "dev",
    "methods": {},
    "version": 1
  },
  "userdoc": {
    "kind": "user",
    "methods": {},
    "version": 1
  }
}