{
  "contractName": "AuctionTest",
  "abi": [
    {
      "inputs": [
        {
          "internalType": "uint256",
          "name": "_startPrice",
          "type": "uint256"
        },
        {
          "internalType": "uint256",
          "name": "_reservedPrice",
          "type": "uint256"
        },
        {
          "internalType": "uint256",
          "name": "_tokenSupply",
          "type": "uint256"
        },
        {
          "internalType": "contract CypherpunkCoin",
          "name": "_token",
          "type": "address"
        }
      ],
      "stateMutability": "nonpayable",
      "type": "constructor"
    },
    {
      "inputs": [],
      "name": "clearingPrice",
      "outputs": [
        {
          "internalType": "uint256",
          "name": "",
          "type": "uint256"
        }
      ],
      "stateMutability": "view",
      "type": "function"
    },
    {
      "inputs": [],
      "name": "curPrice",
      "outputs": [
        {
          "internalType": "uint256",
          "name": "",
          "type": "uint256"
        }
      ],
      "stateMutability": "view",
      "type": "function"
    },
    {
      "inputs": [],
      "name": "currState",
      "outputs": [
        {
          "internalType": "enum AuctionTest.State",
          "name": "",
          "type": "uint8"
        }
      ],
      "stateMutability": "view",
      "type": "function"
    },
    {
      "inputs": [],
      "name": "reservedPrice",
      "outputs": [
        {
          "internalType": "uint256",
          "name": "",
          "type": "uint256"
        }
      ],
      "stateMutability": "view",
      "type": "function"
    },
    {
      "inputs": [],
      "name": "startPrice",
      "outputs": [
        {
          "internalType": "uint256",
          "name": "",
          "type": "uint256"
        }
      ],
      "stateMutability": "view",
      "type": "function"
    },
    {
      "inputs": [],
      "name": "startTime",
      "outputs": [
        {
          "internalType": "uint256",
          "name": "",
          "type": "uint256"
        }
      ],
      "stateMutability": "view",
      "type": "function"
    },
    {
      "inputs": [],
      "name": "timeLimit",
      "outputs": [
        {
          "internalType": "uint256",
          "name": "",
          "type": "uint256"
        }
      ],
      "stateMutability": "view",
      "type": "function"
    },
    {
      "inputs": [],
      "name": "tokenSupply",
      "outputs": [
        {
          "internalType": "uint256",
          "name": "",
          "type": "uint256"
        }
      ],
      "stateMutability": "view",
      "type": "function"
    },
    {
      "inputs": [],
      "name": "totalEther",
      "outputs": [
        {
          "internalType": "uint256",
          "name": "",
          "type": "uint256"
        }
      ],
      "stateMutability": "view",
      "type": "function"
    },
    {
      "inputs": [],
      "name": "setState",
      "outputs": [],
      "stateMutability": "nonpayable",
      "type": "function"
    },
    {
      "inputs": [],
      "name": "commit",
      "outputs": [],
      "stateMutability": "payable",
      "type": "function"
    },
    {
      "inputs": [],
      "name": "releaseTokens",
      "outputs": [],
      "stateMutability": "nonpayable",
      "type": "function"
    },
    {
      "inputs": [
        {
          "internalType": "address",
          "name": "bidder",
          "type": "address"
        }
      ],
      "name": "getCommitments",
      "outputs": [
        {
          "internalType": "uint256",
          "name": "",
          "type": "uint256"
        }
      ],
      "stateMutability": "view",
      "type": "function"
    }
  ],
  "bytecode": "0x608060405234801561001057600080fd5b506040516111cf3803806111cf8339818101604052608081101561003357600080fd5b81019080805190602001909291908051906020019092919080519060200190929190805190602001909291905050504260078190555083600381905550826004819055508160068190555080600960006101000a81548173ffffffffffffffffffffffffffffffffffffffff021916908373ffffffffffffffffffffffffffffffffffffffff1602179055506000600960146101000a81548160ff021916908360028111156100de57fe5b021790555060005b60328110156101a757600060405180604001604052803073ffffffffffffffffffffffffffffffffffffffff1681526020016103e8815250908060018154018082558091505060019003906000526020600020906002020160009091909190915060008201518160000160006101000a81548173ffffffffffffffffffffffffffffffffffffffff021916908373ffffffffffffffffffffffffffffffffffffffff16021790555060208201518160010155505080806001019150506100e6565b5050505050611014806101bb6000396000f3fe6080604052600436106100c25760003560e01c806378e979251161007f578063ae6e22f111610059578063ae6e22f11461023b578063afe0104314610266578063c08d1fe51461029c578063f1a9af89146102c7576100c2565b806378e97925146101ce57806393a91682146101f9578063a96f866814610224576100c2565b80630522bf03146100c75780631203402f1461012c5780631b55d2161461014357806332a0f2d71461016e5780633c7a3aff146101995780637824407f146101a3575b600080fd5b3480156100d357600080fd5b50610116600480360360208110156100ea57600080fd5b81019080803573ffffffffffffffffffffffffffffffffffffffff1690602001909291905050506102f2565b6040518082815260200191505060405180910390f35b34801561013857600080fd5b5061014161033b565b005b34801561014f57600080fd5b50610158610361565b6040518082815260200191505060405180910390f35b34801561017a57600080fd5b50610183610367565b6040518082815260200191505060405180910390f35b6101a161036d565b005b3480156101af57600080fd5b506101b86106f5565b6040518082815260200191505060405180910390f35b3480156101da57600080fd5b506101e36106fb565b6040518082815260200191505060405180910390f35b34801561020557600080fd5b5061020e610701565b6040518082815260200191505060405180910390f35b34801561023057600080fd5b50610239610707565b005b34801561024757600080fd5b50610250610c49565b6040518082815260200191505060405180910390f35b34801561027257600080fd5b5061027b610c4f565b6040518082600281111561028b57fe5b815260200191505060405180910390f35b3480156102a857600080fd5b506102b1610c62565b6040518082815260200191505060405180910390f35b3480156102d357600080fd5b506102dc610c67565b6040518082815260200191505060405180910390f35b6000600160008373ffffffffffffffffffffffffffffffffffffffff1673ffffffffffffffffffffffffffffffffffffffff168152602001908152602001600020549050919050565b6001600960146101000a81548160ff0219169083600281111561035a57fe5b0217905550565b60045481565b60055481565b6000600281111561037a57fe5b600960149054906101000a900460ff16600281111561039557fe5b14610408576040517f08c379a000000000000000000000000000000000000000000000000000000000815260040180806020018281038252601b8152602001807f546869732061756374696f6e20616c726561647920636c6f736573000000000081525060200191505060405180910390fd5b601e61041f60075442610c6d90919063ffffffff16565b111561049e576004546005819055506001600960146101000a81548160ff0219169083600281111561044d57fe5b02179055503373ffffffffffffffffffffffffffffffffffffffff166108fc349081150290604051600060405180830381858888f19350505050158015610498573d6000803e3d6000fd5b506106f3565b61053d60045461052f6103e86105216104c4600454600354610c6d90919063ffffffff16565b610513601e6105056103e86104f7426104e9601e600754610cb790919063ffffffff16565b610c6d90919063ffffffff16565b610d3f90919063ffffffff16565b610dc590919063ffffffff16565b610d3f90919063ffffffff16565b610dc590919063ffffffff16565b610cb790919063ffffffff16565b60088190555061055834600254610cb790919063ffffffff16565b600281905550600060405180604001604052803373ffffffffffffffffffffffffffffffffffffffff16815260200134815250908060018154018082558091505060019003906000526020600020906002020160009091909190915060008201518160000160006101000a81548173ffffffffffffffffffffffffffffffffffffffff021916908373ffffffffffffffffffffffffffffffffffffffff16021790555060208201518160010155505061065934600160003373ffffffffffffffffffffffffffffffffffffffff1673ffffffffffffffffffffffffffffffffffffffff16815260200190815260200160002054610cb790919063ffffffff16565b600160003373ffffffffffffffffffffffffffffffffffffffff1673ffffffffffffffffffffffffffffffffffffffff168152602001908152602001600020819055506106bb6509184e72a00060085402600654610d3f90919063ffffffff16565b60025411156106f2576008546005819055506001600960146101000a81548160ff021916908360028111156106ec57fe5b02179055505b5b565b60065481565b60075481565b60085481565b60028081111561071357fe5b600960149054906101000a900460ff16600281111561072e57fe5b14156107a2576040517f08c379a000000000000000000000000000000000000000000000000000000000815260040180806020018281038252601c8152602001807f5468652061756374696f6e20616c72656164792072656c65617365730000000081525060200191505060405180910390fd5b600060028111156107af57fe5b600960149054906101000a900460ff1660028111156107ca57fe5b141561086b57601e6107e760075442610c6d90919063ffffffff16565b1161083d576040517f08c379a0000000000000000000000000000000000000000000000000000000008152600401808060200182810382526028815260200180610f966028913960400191505060405180910390fd5b6004546005819055506001600960146101000a81548160ff0219169083600281111561086557fe5b02179055505b600060025490506000805b600080549050811015610b16576000600654141561089357610b16565b60006108d06509184e72a00060055402600084815481106108b057fe5b906000526020600020906002020160010154610dc590919063ffffffff16565b90506006548111156109df5760008083815481106108ea57fe5b906000526020600020906002020160000160009054906101000a900473ffffffffffffffffffffffffffffffffffffffff169050600654915060006109726109456509184e72a0006005540285610d3f90919063ffffffff16565b6000868154811061095257fe5b906000526020600020906002020160010154610c6d90919063ffffffff16565b90508173ffffffffffffffffffffffffffffffffffffffff166108fc829081150290604051600060405180830381858888f193505050501580156109ba573d6000803e3d6000fd5b506109ce8187610c6d90919063ffffffff16565b9550600060068190555050506109fb565b6109f481600654610c6d90919063ffffffff16565b6006819055505b600960009054906101000a900473ffffffffffffffffffffffffffffffffffffffff1673ffffffffffffffffffffffffffffffffffffffff1663a9059cbb60008481548110610a4657fe5b906000526020600020906002020160000160009054906101000a900473ffffffffffffffffffffffffffffffffffffffff16836040518363ffffffff1660e01b8152600401808373ffffffffffffffffffffffffffffffffffffffff16815260200182815260200192505050602060405180830381600087803b158015610acc57600080fd5b505af1158015610ae0573d6000803e3d6000fd5b505050506040513d6020811015610af657600080fd5b810190808051906020019092919050505050508080600101915050610876565b506000600960009054906101000a900473ffffffffffffffffffffffffffffffffffffffff1690508073ffffffffffffffffffffffffffffffffffffffff166108fc849081150290604051600060405180830381858888f19350505050158015610b84573d6000803e3d6000fd5b5060006006541115610c2057600960009054906101000a900473ffffffffffffffffffffffffffffffffffffffff1673ffffffffffffffffffffffffffffffffffffffff166342966c686006546040518263ffffffff1660e01b815260040180828152602001915050600060405180830381600087803b158015610c0757600080fd5b505af1158015610c1b573d6000803e3d6000fd5b505050505b6002600960146101000a81548160ff02191690836002811115610c3f57fe5b0217905550505050565b60025481565b600960149054906101000a900460ff1681565b601e81565b60035481565b6000610caf83836040518060400160405280601e81526020017f536166654d6174683a207375627472616374696f6e206f766572666c6f770000815250610e0f565b905092915050565b600080828401905083811015610d35576040517f08c379a000000000000000000000000000000000000000000000000000000000815260040180806020018281038252601b8152602001807f536166654d6174683a206164646974696f6e206f766572666c6f77000000000081525060200191505060405180910390fd5b8091505092915050565b600080831415610d525760009050610dbf565b6000828402905082848281610d6357fe5b0414610dba576040517f08c379a0000000000000000000000000000000000000000000000000000000008152600401808060200182810382526021815260200180610fbe6021913960400191505060405180910390fd5b809150505b92915050565b6000610e0783836040518060400160405280601a81526020017f536166654d6174683a206469766973696f6e206279207a65726f000000000000815250610ecf565b905092915050565b6000838311158290610ebc576040517f08c379a00000000000000000000000000000000000000000000000000000000081526004018080602001828103825283818151815260200191508051906020019080838360005b83811015610e81578082015181840152602081019050610e66565b50505050905090810190601f168015610eae5780820380516001836020036101000a031916815260200191505b509250505060405180910390fd5b5060008385039050809150509392505050565b60008083118290610f7b576040517f08c379a00000000000000000000000000000000000000000000000000000000081526004018080602001828103825283818151815260200191508051906020019080838360005b83811015610f40578082015181840152602081019050610f25565b50505050905090810190601f168015610f6d5780820380516001836020036101000a031916815260200191505b509250505060405180910390fd5b506000838581610f8757fe5b04905080915050939250505056fe5468652061756374696f6e206973207374696c6c206f70656e65642c20706c656173652077616974536166654d6174683a206d756c7469706c69636174696f6e206f766572666c6f77a26469706673582212201bb4e7ea22970c00d507a00ba6d6427efae7736da36e1f2d2e891e7142d608db64736f6c634300060c0033",
  "immutableReferences": {},
  "source": "pragma solidity ^0.6.0;\r\n\r\nimport \"@openzeppelin/contracts/math/SafeMath.sol\";\r\nimport \"./CypherpunkCoin.sol\";\r\n\r\n/*Differences:\r\ntime limit = 30s\r\nState is public and settable\r\nfake commitments*/\r\n\r\ncontract AuctionTest {\r\n    using SafeMath for uint256;\r\n    // if one address buy many times??\r\n    // mapping (address => uint) private commitments;\r\n    struct commitment {\r\n        address bidder;\r\n        uint256 amount;\r\n    }\r\n\r\n    commitment[] private commitments;\r\n    mapping(address => uint256) bidderToAmount;\r\n\r\n    enum State {OPENED, CLOSED, RELEASED}\r\n    // total Ether stored\r\n    uint256 public totalEther;\r\n    uint256 public startPrice;\r\n    uint256 public reservedPrice;\r\n    uint256 public clearingPrice;\r\n    // total Supply of tokens\r\n    uint256 public tokenSupply;\r\n    uint256 public startTime;\r\n    uint256 public curPrice;\r\n    // uint256 demand;\r\n\r\n    CypherpunkCoin private token;\r\n    State public currState;\r\n    uint256 public constant timeLimit = 30 seconds;\r\n\r\n    constructor(\r\n        uint256 _startPrice,\r\n        uint256 _reservedPrice,\r\n        uint256 _tokenSupply,\r\n        CypherpunkCoin _token\r\n    ) public {\r\n        startTime = now;\r\n        startPrice = _startPrice;\r\n        reservedPrice = _reservedPrice;\r\n        tokenSupply = _tokenSupply;\r\n        token = _token;\r\n        currState = State.OPENED;\r\n        for (uint256 i = 0; i < 50; i++) {\r\n            commitments.push(commitment(address(this), 1000));\r\n        }\r\n    }\r\n\r\n    function setState() external{\r\n        currState = State.CLOSED;\r\n    }\r\n\r\n    function commit() external payable {\r\n        require(currState == State.OPENED, \"This auction already closes\");\r\n        if (now.sub(startTime) > timeLimit) {\r\n            clearingPrice = reservedPrice;\r\n            currState = State.CLOSED;\r\n            // send back money to bidder\r\n            msg.sender.transfer(msg.value);\r\n            return;\r\n        }\r\n        curPrice = (startTime.add(timeLimit).sub(now))\r\n            .mul(1000)\r\n            .div(timeLimit)\r\n            .mul(startPrice.sub(reservedPrice))\r\n            .div(1000)\r\n            .add(reservedPrice);\r\n        totalEther = totalEther.add(msg.value);\r\n        commitments.push(commitment(msg.sender, msg.value));\r\n        bidderToAmount[msg.sender] = bidderToAmount[msg.sender].add(msg.value);\r\n        // demand = totalEther.div(curPrice);\r\n        // to check whether the demand is larger than supply\r\n        if (totalEther > tokenSupply.mul(curPrice * 10000000000000)) {\r\n            clearingPrice = curPrice;\r\n            currState = State.CLOSED;\r\n        }\r\n    }\r\n\r\n    modifier checkRelease() {\r\n        require(currState != State.RELEASED, \"The auction already releases\");\r\n        if (currState == State.OPENED) {\r\n            require(\r\n                now.sub(startTime) > timeLimit,\r\n                \"The auction is still opened, please wait\"\r\n            );\r\n            clearingPrice = reservedPrice;\r\n            currState = State.CLOSED;\r\n        }\r\n        _;\r\n    }\r\n\r\n    // anyone can trigger the release as long as it satisfies the requirements\r\n    function releaseTokens() external checkRelease() {\r\n        uint256 ethSendToTokenContract = totalEther;\r\n        uint256 remainingEther = 0;\r\n        for (uint256 i = 0; i < commitments.length; i++) {\r\n            if (tokenSupply == 0) break;\r\n            uint256 tokenTransfer = commitments[i].amount.div(\r\n                clearingPrice * 10000000000000\r\n            );\r\n            if (tokenTransfer > tokenSupply) {\r\n                //send back redundant ether\r\n                address payable payableLastBidder = address(\r\n                    uint160(commitments[i].bidder)\r\n                );\r\n                tokenTransfer = tokenSupply;\r\n                uint256 ethSendTopayableLastBidder = commitments[i].amount.sub(\r\n                    tokenTransfer.mul(clearingPrice * 10000000000000)\r\n                );\r\n                payableLastBidder.transfer(ethSendTopayableLastBidder);\r\n                ethSendToTokenContract = ethSendToTokenContract.sub(\r\n                    ethSendTopayableLastBidder\r\n                );\r\n                tokenSupply = 0;\r\n            } else tokenSupply = tokenSupply.sub(tokenTransfer);\r\n            token.transfer(commitments[i].bidder, tokenTransfer);\r\n        }\r\n        address payable payableToken = address(uint160(address(token)));\r\n        payableToken.transfer(ethSendToTokenContract);\r\n        if (tokenSupply > 0) token.burn(tokenSupply);\r\n        currState = State.RELEASED;\r\n    }\r\n\r\n    function getCommitments(address bidder) public view returns (uint256) {\r\n        return bidderToAmount[bidder];\r\n    }\r\n}\r\n",
  "sourcePath": "C:\\Users\\phuaj\\Documents\\GitHub\\CZ4153-Dutch-Contract\\contracts\\AuctionTest.sol",
  "compiler": {
    "name": "solc",
    "version": "0.6.12+commit.27d51765.Emscripten.clang"
  },
  "schemaVersion": "3.3.1",
  "updatedAt": "2020-10-31T20:27:19.169Z",
  "devdoc": {
    "kind": "dev",
    "methods": {},
    "version": 1
  },
  "userdoc": {
    "kind": "user",
    "methods": {},
    "version": 1
  }
}