{
  "contractName": "Reentrancy",
  "abi": [
    {
      "inputs": [],
      "stateMutability": "nonpayable",
      "type": "constructor"
    },
    {
      "stateMutability": "payable",
      "type": "fallback",
      "payable": true
    },
    {
      "inputs": [],
      "name": "auction",
      "outputs": [
        {
          "internalType": "contract AuctionTest",
          "name": "",
          "type": "address"
        }
      ],
      "stateMutability": "view",
      "type": "function",
      "constant": true
    },
    {
      "inputs": [],
      "name": "balance",
      "outputs": [
        {
          "internalType": "uint256",
          "name": "",
          "type": "uint256"
        }
      ],
      "stateMutability": "view",
      "type": "function",
      "constant": true
    },
    {
      "inputs": [],
      "name": "finalPrice",
      "outputs": [
        {
          "internalType": "uint256",
          "name": "",
          "type": "uint256"
        }
      ],
      "stateMutability": "view",
      "type": "function",
      "constant": true
    },
    {
      "inputs": [],
      "name": "rightfulCYCAmt",
      "outputs": [
        {
          "internalType": "uint256",
          "name": "",
          "type": "uint256"
        }
      ],
      "stateMutability": "view",
      "type": "function",
      "constant": true
    },
    {
      "inputs": [],
      "name": "bid",
      "outputs": [],
      "stateMutability": "nonpayable",
      "type": "function"
    }
  ],
  "bytecode": "0x608060405234801561001057600080fd5b5060405161001d906101bf565b8080602001806020018381038352600e8152602001807f43797068657270756e6b436f696e000000000000000000000000000000000000815250602001838103825260038152602001807f435043000000000000000000000000000000000000000000000000000000000081525060200192505050604051809103906000f0801580156100ae573d6000803e3d6000fd5b50600160006101000a81548173ffffffffffffffffffffffffffffffffffffffff021916908373ffffffffffffffffffffffffffffffffffffffff1602179055506127106103e86302faf080600160009054906101000a900473ffffffffffffffffffffffffffffffffffffffff16604051610129906101cc565b808581526020018481526020018381526020018273ffffffffffffffffffffffffffffffffffffffff168152602001945050505050604051809103906000f08015801561017a573d6000803e3d6000fd5b506000806101000a81548173ffffffffffffffffffffffffffffffffffffffff021916908373ffffffffffffffffffffffffffffffffffffffff1602179055506101d9565b613a0e8061058583390190565b6111cf80613f9383390190565b61039d806101e86000396000f3fe60806040526004361061004e5760003560e01c80631998aeef146100d15780637d9f6db5146100e8578063a6b513ee14610129578063b69ef8a814610154578063c89cd4521461017f5761004f565b5b60008054906101000a900473ffffffffffffffffffffffffffffffffffffffff1673ffffffffffffffffffffffffffffffffffffffff1663a96f86686040518163ffffffff1660e01b8152600401600060405180830381600087803b1580156100b757600080fd5b505af11580156100cb573d6000803e3d6000fd5b50505050005b3480156100dd57600080fd5b506100e66101aa565b005b3480156100f457600080fd5b506100fd610332565b604051808273ffffffffffffffffffffffffffffffffffffffff16815260200191505060405180910390f35b34801561013557600080fd5b5061013e610356565b6040518082815260200191505060405180910390f35b34801561016057600080fd5b5061016961035c565b6040518082815260200191505060405180910390f35b34801561018b57600080fd5b50610194610362565b6040518082815260200191505060405180910390f35b60008054906101000a900473ffffffffffffffffffffffffffffffffffffffff1673ffffffffffffffffffffffffffffffffffffffff16633c7a3aff60056103e8026040518263ffffffff1660e01b81526004016000604051808303818588803b15801561021757600080fd5b505af115801561022b573d6000803e3d6000fd5b505050505060008054906101000a900473ffffffffffffffffffffffffffffffffffffffff1673ffffffffffffffffffffffffffffffffffffffff16631203402f6040518163ffffffff1660e01b8152600401600060405180830381600087803b15801561029857600080fd5b505af11580156102ac573d6000803e3d6000fd5b5050505060008054906101000a900473ffffffffffffffffffffffffffffffffffffffff1673ffffffffffffffffffffffffffffffffffffffff1663a96f86686040518163ffffffff1660e01b8152600401600060405180830381600087803b15801561031857600080fd5b505af115801561032c573d6000803e3d6000fd5b50505050565b60008054906101000a900473ffffffffffffffffffffffffffffffffffffffff1681565b6103e881565b60025481565b60058156fea26469706673582212209f0240dabe8c039ccf01892471432219e9297e4244d9f4ae733ef012e84ba47c64736f6c634300060c003360806040523480156200001157600080fd5b5060405162003a0e38038062003a0e833981810160405260408110156200003757600080fd5b81019080805160405193929190846401000000008211156200005857600080fd5b838201915060208201858111156200006f57600080fd5b82518660018202830111640100000000821117156200008d57600080fd5b8083526020830192505050908051906020019080838360005b83811015620000c3578082015181840152602081019050620000a6565b50505050905090810190601f168015620000f15780820380516001836020036101000a031916815260200191505b50604052602001805160405193929190846401000000008211156200011557600080fd5b838201915060208201858111156200012c57600080fd5b82518660018202830111640100000000821117156200014a57600080fd5b8083526020830192505050908051906020019080838360005b838110156200018057808201518184015260208101905062000163565b50505050905090810190601f168015620001ae5780820380516001836020036101000a031916815260200191505b5060405250505081818160049080519060200190620001cf9291906200066e565b508060059080519060200190620001e89291906200066e565b506012600660006101000a81548160ff021916908360ff16021790555050506200021c6000801b336200026a60201b60201c565b6200024e7fcfba8be83af357df8defaa5e92d4092d7061b755093a8b7649b2afc2929f5c65336200026a60201b60201c565b62000262336103e86200028060201b60201c565b505062000714565b6200027c82826200046060201b60201c565b5050565b600073ffffffffffffffffffffffffffffffffffffffff168273ffffffffffffffffffffffffffffffffffffffff16141562000324576040517f08c379a000000000000000000000000000000000000000000000000000000000815260040180806020018281038252601f8152602001807f45524332303a206d696e7420746f20746865207a65726f20616464726573730081525060200191505060405180910390fd5b62000338600083836200050360201b60201c565b62000354816003546200050860201b620013941790919060201c565b600381905550620003b381600160008573ffffffffffffffffffffffffffffffffffffffff1673ffffffffffffffffffffffffffffffffffffffff168152602001908152602001600020546200050860201b620013941790919060201c565b600160008473ffffffffffffffffffffffffffffffffffffffff1673ffffffffffffffffffffffffffffffffffffffff168152602001908152602001600020819055508173ffffffffffffffffffffffffffffffffffffffff16600073ffffffffffffffffffffffffffffffffffffffff167fddf252ad1be2c89b69c2b068fc378daa952ba7f163c4a11628f55a4df523b3ef836040518082815260200191505060405180910390a35050565b6200048e816000808581526020019081526020016000206000016200059160201b6200141d1790919060201c565b15620004ff57620004a4620005c960201b60201c565b73ffffffffffffffffffffffffffffffffffffffff168173ffffffffffffffffffffffffffffffffffffffff16837f2f8788117e7eff1d82e926ec794901d17c78024a50270940304540a733656f0d60405160405180910390a45b5050565b505050565b60008082840190508381101562000587576040517f08c379a000000000000000000000000000000000000000000000000000000000815260040180806020018281038252601b8152602001807f536166654d6174683a206164646974696f6e206f766572666c6f77000000000081525060200191505060405180910390fd5b8091505092915050565b6000620005c1836000018373ffffffffffffffffffffffffffffffffffffffff1660001b620005d160201b60201c565b905092915050565b600033905090565b6000620005e583836200064b60201b60201c565b6200064057826000018290806001815401808255809150506001900390600052602060002001600090919091909150558260000180549050836001016000848152602001908152602001600020819055506001905062000645565b600090505b92915050565b600080836001016000848152602001908152602001600020541415905092915050565b828054600181600116156101000203166002900490600052602060002090601f016020900481019282601f10620006b157805160ff1916838001178555620006e2565b82800160010185558215620006e2579182015b82811115620006e1578251825591602001919060010190620006c4565b5b509050620006f19190620006f5565b5090565b5b8082111562000710576000816000905550600101620006f6565b5090565b6132ea80620007246000396000f3fe608060405260043610620001635760003560e01c806379cc679011620000c7578063a9059cbb1162000079578063a9059cbb146200081d578063ca15c8731462000892578063cda4beef14620008e5578063d29feaad1462000962578063d547741f1462000990578063dd62ed3e14620009ef576200016b565b806379cc6790146200059d5780639010d07c14620005fc57806391d14854146200066f57806395d89b4114620006e4578063a217fddf146200077a578063a457c2d714620007a8576200016b565b80632f2ff15d11620001215780632f2ff15d1462000391578063313ce56714620003f057806336568abe146200042157806339509351146200048057806342966c6814620004f557806370a082311462000534576200016b565b806306fdde031462000170578063095ea7b3146200020657806318160ddd146200027b57806323b872dd14620002a9578063248a9ca3146200033e576200016b565b366200016b57005b600080fd5b3480156200017d57600080fd5b506200018862000a78565b6040518080602001828103825283818151815260200191508051906020019080838360005b83811015620001ca578082015181840152602081019050620001ad565b50505050905090810190601f168015620001f85780820380516001836020036101000a031916815260200191505b509250505060405180910390f35b3480156200021357600080fd5b5062000263600480360360408110156200022c57600080fd5b81019080803573ffffffffffffffffffffffffffffffffffffffff1690602001909291908035906020019092919050505062000b1e565b60405180821515815260200191505060405180910390f35b3480156200028857600080fd5b506200029362000b40565b6040518082815260200191505060405180910390f35b348015620002b657600080fd5b506200032660048036036060811015620002cf57600080fd5b81019080803573ffffffffffffffffffffffffffffffffffffffff169060200190929190803573ffffffffffffffffffffffffffffffffffffffff1690602001909291908035906020019092919050505062000b4a565b60405180821515815260200191505060405180910390f35b3480156200034b57600080fd5b506200037b600480360360208110156200036457600080fd5b810190808035906020019092919050505062000c2e565b6040518082815260200191505060405180910390f35b3480156200039e57600080fd5b50620003ee60048036036040811015620003b757600080fd5b8101908080359060200190929190803573ffffffffffffffffffffffffffffffffffffffff16906020019092919050505062000c4d565b005b348015620003fd57600080fd5b506200040862000cde565b604051808260ff16815260200191505060405180910390f35b3480156200042e57600080fd5b506200047e600480360360408110156200044757600080fd5b8101908080359060200190929190803573ffffffffffffffffffffffffffffffffffffffff16906020019092919050505062000cf5565b005b3480156200048d57600080fd5b50620004dd60048036036040811015620004a657600080fd5b81019080803573ffffffffffffffffffffffffffffffffffffffff1690602001909291908035906020019092919050505062000d94565b60405180821515815260200191505060405180910390f35b3480156200050257600080fd5b5062000532600480360360208110156200051b57600080fd5b810190808035906020019092919050505062000e4f565b005b3480156200054157600080fd5b5062000587600480360360208110156200055a57600080fd5b81019080803573ffffffffffffffffffffffffffffffffffffffff16906020019092919050505062000e67565b6040518082815260200191505060405180910390f35b348015620005aa57600080fd5b50620005fa60048036036040811015620005c357600080fd5b81019080803573ffffffffffffffffffffffffffffffffffffffff1690602001909291908035906020019092919050505062000eb0565b005b3480156200060957600080fd5b5062000643600480360360408110156200062257600080fd5b81019080803590602001909291908035906020019092919050505062000f1f565b604051808273ffffffffffffffffffffffffffffffffffffffff16815260200191505060405180910390f35b3480156200067c57600080fd5b50620006cc600480360360408110156200069557600080fd5b8101908080359060200190929190803573ffffffffffffffffffffffffffffffffffffffff16906020019092919050505062000f52565b60405180821515815260200191505060405180910390f35b348015620006f157600080fd5b50620006fc62000f85565b6040518080602001828103825283818151815260200191508051906020019080838360005b838110156200073e57808201518184015260208101905062000721565b50505050905090810190601f1680156200076c5780820380516001836020036101000a031916815260200191505b509250505060405180910390f35b3480156200078757600080fd5b50620007926200102b565b6040518082815260200191505060405180910390f35b348015620007b557600080fd5b506200080560048036036040811015620007ce57600080fd5b81019080803573ffffffffffffffffffffffffffffffffffffffff1690602001909291908035906020019092919050505062001032565b60405180821515815260200191505060405180910390f35b3480156200082a57600080fd5b506200087a600480360360408110156200084357600080fd5b81019080803573ffffffffffffffffffffffffffffffffffffffff1690602001909291908035906020019092919050505062001108565b60405180821515815260200191505060405180910390f35b3480156200089f57600080fd5b50620008cf60048036036020811015620008b857600080fd5b81019080803590602001909291905050506200112a565b6040518082815260200191505060405180910390f35b348015620008f257600080fd5b5062000936600480360360608110156200090b57600080fd5b8101908080359060200190929190803590602001909291908035906020019092919050505062001152565b604051808273ffffffffffffffffffffffffffffffffffffffff16815260200191505060405180910390f35b3480156200096f57600080fd5b506200097a62001258565b6040518082815260200191505060405180910390f35b3480156200099d57600080fd5b50620009ed60048036036040811015620009b657600080fd5b8101908080359060200190929190803573ffffffffffffffffffffffffffffffffffffffff1690602001909291905050506200127c565b005b348015620009fc57600080fd5b5062000a626004803603604081101562000a1557600080fd5b81019080803573ffffffffffffffffffffffffffffffffffffffff169060200190929190803573ffffffffffffffffffffffffffffffffffffffff1690602001909291905050506200130d565b6040518082815260200191505060405180910390f35b606060048054600181600116156101000203166002900480601f01602080910402602001604051908101604052809291908181526020018280546001816001161561010002031660029004801562000b145780601f1062000ae85761010080835404028352916020019162000b14565b820191906000526020600020905b81548152906001019060200180831162000af657829003601f168201915b5050505050905090565b600062000b3662000b2e6200144f565b848462001457565b6001905092915050565b6000600354905090565b600062000b5984848462001652565b62000c238462000b686200144f565b62000c1d85604051806060016040528060288152602001620031ab60289139600260008b73ffffffffffffffffffffffffffffffffffffffff1673ffffffffffffffffffffffffffffffffffffffff168152602001908152602001600020600062000bd26200144f565b73ffffffffffffffffffffffffffffffffffffffff1673ffffffffffffffffffffffffffffffffffffffff16815260200190815260200160002054620019229092919063ffffffff16565b62001457565b600190509392505050565b6000806000838152602001908152602001600020600201549050919050565b62000c776000808481526020019081526020016000206002015462000c716200144f565b62000f52565b62000cce576040517f08c379a000000000000000000000000000000000000000000000000000000000815260040180806020018281038252602f815260200180620030e2602f913960400191505060405180910390fd5b62000cda8282620019e6565b5050565b6000600660009054906101000a900460ff16905090565b62000cff6200144f565b73ffffffffffffffffffffffffffffffffffffffff168173ffffffffffffffffffffffffffffffffffffffff161462000d84576040517f08c379a000000000000000000000000000000000000000000000000000000000815260040180806020018281038252602f81526020018062003286602f913960400191505060405180910390fd5b62000d90828262001a7e565b5050565b600062000e4562000da46200144f565b8462000e3f856002600062000db86200144f565b73ffffffffffffffffffffffffffffffffffffffff1673ffffffffffffffffffffffffffffffffffffffff16815260200190815260200160002060008973ffffffffffffffffffffffffffffffffffffffff1673ffffffffffffffffffffffffffffffffffffffff168152602001908152602001600020546200139490919063ffffffff16565b62001457565b6001905092915050565b62000e6462000e5d6200144f565b8262001b16565b50565b6000600160008373ffffffffffffffffffffffffffffffffffffffff1673ffffffffffffffffffffffffffffffffffffffff168152602001908152602001600020549050919050565b600062000ef682604051806060016040528060248152602001620031d36024913962000ee68662000ee06200144f565b6200130d565b620019229092919063ffffffff16565b905062000f0e8362000f076200144f565b8362001457565b62000f1a838362001b16565b505050565b600062000f4a8260008086815260200190815260200160002060000162001ce590919063ffffffff16565b905092915050565b600062000f7d8260008086815260200190815260200160002060000162001d0190919063ffffffff16565b905092915050565b606060058054600181600116156101000203166002900480601f016020809104026020016040519081016040528092919081815260200182805460018160011615610100020316600290048015620010215780601f1062000ff55761010080835404028352916020019162001021565b820191906000526020600020905b8154815290600101906020018083116200100357829003601f168201915b5050505050905090565b6000801b81565b6000620010fe620010426200144f565b84620010f885604051806060016040528060258152602001620032616025913960026000620010706200144f565b73ffffffffffffffffffffffffffffffffffffffff1673ffffffffffffffffffffffffffffffffffffffff16815260200190815260200160002060008a73ffffffffffffffffffffffffffffffffffffffff1673ffffffffffffffffffffffffffffffffffffffff16815260200190815260200160002054620019229092919063ffffffff16565b62001457565b6001905092915050565b600062001120620011186200144f565b848462001652565b6001905092915050565b60006200114b60008084815260200190815260200160002060000162001d33565b9050919050565b6000620011807fcfba8be83af357df8defaa5e92d4092d7061b755093a8b7649b2afc2929f5c653362000f52565b620011d7576040517f08c379a00000000000000000000000000000000000000000000000000000000081526004018080602001828103825260438152602001806200305a6043913960600191505060405180910390fd5b600084848430604051620011eb9062001fe8565b808581526020018481526020018381526020018273ffffffffffffffffffffffffffffffffffffffff168152602001945050505050604051809103906000f0801580156200123d573d6000803e3d6000fd5b5090506200124c818462001108565b50809150509392505050565b7fcfba8be83af357df8defaa5e92d4092d7061b755093a8b7649b2afc2929f5c6581565b620012a660008084815260200190815260200160002060020154620012a06200144f565b62000f52565b620012fd576040517f08c379a00000000000000000000000000000000000000000000000000000000081526004018080602001828103825260308152602001806200317b6030913960400191505060405180910390fd5b62001309828262001a7e565b5050565b6000600260008473ffffffffffffffffffffffffffffffffffffffff1673ffffffffffffffffffffffffffffffffffffffff16815260200190815260200160002060008373ffffffffffffffffffffffffffffffffffffffff1673ffffffffffffffffffffffffffffffffffffffff16815260200190815260200160002054905092915050565b60008082840190508381101562001413576040517f08c379a000000000000000000000000000000000000000000000000000000000815260040180806020018281038252601b8152602001807f536166654d6174683a206164646974696f6e206f766572666c6f77000000000081525060200191505060405180910390fd5b8091505092915050565b600062001447836000018373ffffffffffffffffffffffffffffffffffffffff1660001b62001d4a565b905092915050565b600033905090565b600073ffffffffffffffffffffffffffffffffffffffff168373ffffffffffffffffffffffffffffffffffffffff161415620014df576040517f08c379a00000000000000000000000000000000000000000000000000000000081526004018080602001828103825260248152602001806200323d6024913960400191505060405180910390fd5b600073ffffffffffffffffffffffffffffffffffffffff168273ffffffffffffffffffffffffffffffffffffffff16141562001567576040517f08c379a0000000000000000000000000000000000000000000000000000000008152600401808060200182810382526022815260200180620031336022913960400191505060405180910390fd5b80600260008573ffffffffffffffffffffffffffffffffffffffff1673ffffffffffffffffffffffffffffffffffffffff16815260200190815260200160002060008473ffffffffffffffffffffffffffffffffffffffff1673ffffffffffffffffffffffffffffffffffffffff168152602001908152602001600020819055508173ffffffffffffffffffffffffffffffffffffffff168373ffffffffffffffffffffffffffffffffffffffff167f8c5be1e5ebec7d5bd14f71427d1e84f3dd0314c0f7b2291e5b200ac8c7c3b925836040518082815260200191505060405180910390a3505050565b600073ffffffffffffffffffffffffffffffffffffffff168373ffffffffffffffffffffffffffffffffffffffff161415620016da576040517f08c379a0000000000000000000000000000000000000000000000000000000008152600401808060200182810382526025815260200180620032186025913960400191505060405180910390fd5b600073ffffffffffffffffffffffffffffffffffffffff168273ffffffffffffffffffffffffffffffffffffffff16141562001762576040517f08c379a0000000000000000000000000000000000000000000000000000000008152600401808060200182810382526023815260200180620030bf6023913960400191505060405180910390fd5b6200176f83838362001dbe565b620017de816040518060600160405280602681526020016200315560269139600160008773ffffffffffffffffffffffffffffffffffffffff1673ffffffffffffffffffffffffffffffffffffffff16815260200190815260200160002054620019229092919063ffffffff16565b600160008573ffffffffffffffffffffffffffffffffffffffff1673ffffffffffffffffffffffffffffffffffffffff168152602001908152602001600020819055506200187581600160008573ffffffffffffffffffffffffffffffffffffffff1673ffffffffffffffffffffffffffffffffffffffff168152602001908152602001600020546200139490919063ffffffff16565b600160008473ffffffffffffffffffffffffffffffffffffffff1673ffffffffffffffffffffffffffffffffffffffff168152602001908152602001600020819055508173ffffffffffffffffffffffffffffffffffffffff168373ffffffffffffffffffffffffffffffffffffffff167fddf252ad1be2c89b69c2b068fc378daa952ba7f163c4a11628f55a4df523b3ef836040518082815260200191505060405180910390a3505050565b6000838311158290620019d3576040517f08c379a00000000000000000000000000000000000000000000000000000000081526004018080602001828103825283818151815260200191508051906020019080838360005b83811015620019975780820151818401526020810190506200197a565b50505050905090810190601f168015620019c55780820380516001836020036101000a031916815260200191505b509250505060405180910390fd5b5060008385039050809150509392505050565b62001a0f816000808581526020019081526020016000206000016200141d90919063ffffffff16565b1562001a7a5762001a1f6200144f565b73ffffffffffffffffffffffffffffffffffffffff168173ffffffffffffffffffffffffffffffffffffffff16837f2f8788117e7eff1d82e926ec794901d17c78024a50270940304540a733656f0d60405160405180910390a45b5050565b62001aa78160008085815260200190815260200160002060000162001dc390919063ffffffff16565b1562001b125762001ab76200144f565b73ffffffffffffffffffffffffffffffffffffffff168173ffffffffffffffffffffffffffffffffffffffff16837ff6391f5c32d9c69d2a47ea670b442974b53935d1edc7fd64eb21e047a839171b60405160405180910390a45b5050565b600073ffffffffffffffffffffffffffffffffffffffff168273ffffffffffffffffffffffffffffffffffffffff16141562001b9e576040517f08c379a0000000000000000000000000000000000000000000000000000000008152600401808060200182810382526021815260200180620031f76021913960400191505060405180910390fd5b62001bac8260008362001dbe565b62001c1b816040518060600160405280602281526020016200311160229139600160008673ffffffffffffffffffffffffffffffffffffffff1673ffffffffffffffffffffffffffffffffffffffff16815260200190815260200160002054620019229092919063ffffffff16565b600160008473ffffffffffffffffffffffffffffffffffffffff1673ffffffffffffffffffffffffffffffffffffffff1681526020019081526020016000208190555062001c758160035462001df590919063ffffffff16565b600381905550600073ffffffffffffffffffffffffffffffffffffffff168273ffffffffffffffffffffffffffffffffffffffff167fddf252ad1be2c89b69c2b068fc378daa952ba7f163c4a11628f55a4df523b3ef836040518082815260200191505060405180910390a35050565b600062001cf6836000018362001e41565b60001c905092915050565b600062001d2b836000018373ffffffffffffffffffffffffffffffffffffffff1660001b62001ec7565b905092915050565b600062001d438260000162001eea565b9050919050565b600062001d58838362001ec7565b62001db357826000018290806001815401808255809150506001900390600052602060002001600090919091909150558260000180549050836001016000848152602001908152602001600020819055506001905062001db8565b600090505b92915050565b505050565b600062001ded836000018373ffffffffffffffffffffffffffffffffffffffff1660001b62001efb565b905092915050565b600062001e3983836040518060400160405280601e81526020017f536166654d6174683a207375627472616374696f6e206f766572666c6f77000081525062001922565b905092915050565b60008183600001805490501162001ea4576040517f08c379a00000000000000000000000000000000000000000000000000000000081526004018080602001828103825260228152602001806200309d6022913960400191505060405180910390fd5b82600001828154811062001eb457fe5b9060005260206000200154905092915050565b600080836001016000848152602001908152602001600020541415905092915050565b600081600001805490509050919050565b6000808360010160008481526020019081526020016000205490506000811462001fdc576000600182039050600060018660000180549050039050600086600001828154811062001f4857fe5b906000526020600020015490508087600001848154811062001f6657fe5b906000526020600020018190555060018301876001016000838152602001908152602001600020819055508660000180548062001f9f57fe5b6001900381819060005260206000200160009055905586600101600087815260200190815260200160002060009055600194505050505062001fe2565b60009150505b92915050565b6110638062001ff78339019056fe608060405234801561001057600080fd5b506040516110633803806110638339818101604052608081101561003357600080fd5b81019080805190602001909291908051906020019092919080519060200190929190805190602001909291905050504260078190555083600381905550826004819055508160068190555080600960006101000a81548173ffffffffffffffffffffffffffffffffffffffff021916908373ffffffffffffffffffffffffffffffffffffffff1602179055506000600960146101000a81548160ff021916908360028111156100de57fe5b021790555050505050610f6d806100f66000396000f3fe60806040526004361061009c5760003560e01c806378e979251161006457806378e979251461019157806393a91682146101bc578063a96f8668146101e7578063ae6e22f1146101fe578063c08d1fe514610229578063f1a9af89146102545761009c565b80630522bf03146100a15780631b55d2161461010657806332a0f2d7146101315780633c7a3aff1461015c5780637824407f14610166575b600080fd5b3480156100ad57600080fd5b506100f0600480360360208110156100c457600080fd5b81019080803573ffffffffffffffffffffffffffffffffffffffff16906020019092919050505061027f565b6040518082815260200191505060405180910390f35b34801561011257600080fd5b5061011b6102c8565b6040518082815260200191505060405180910390f35b34801561013d57600080fd5b506101466102ce565b6040518082815260200191505060405180910390f35b6101646102d4565b005b34801561017257600080fd5b5061017b61065f565b6040518082815260200191505060405180910390f35b34801561019d57600080fd5b506101a6610665565b6040518082815260200191505060405180910390f35b3480156101c857600080fd5b506101d161066b565b6040518082815260200191505060405180910390f35b3480156101f357600080fd5b506101fc610671565b005b34801561020a57600080fd5b50610213610bb4565b6040518082815260200191505060405180910390f35b34801561023557600080fd5b5061023e610bba565b6040518082815260200191505060405180910390f35b34801561026057600080fd5b50610269610bc0565b6040518082815260200191505060405180910390f35b6000600160008373ffffffffffffffffffffffffffffffffffffffff1673ffffffffffffffffffffffffffffffffffffffff168152602001908152602001600020549050919050565b60045481565b60055481565b600060028111156102e157fe5b600960149054906101000a900460ff1660028111156102fc57fe5b1461036f576040517f08c379a000000000000000000000000000000000000000000000000000000000815260040180806020018281038252601b8152602001807f546869732061756374696f6e20616c726561647920636c6f736573000000000081525060200191505060405180910390fd5b61025861038760075442610bc690919063ffffffff16565b1115610406576004546005819055506001600960146101000a81548160ff021916908360028111156103b557fe5b02179055503373ffffffffffffffffffffffffffffffffffffffff166108fc349081150290604051600060405180830381858888f19350505050158015610400573d6000803e3d6000fd5b5061065d565b6104a76004546104996103e861048b61042c600454600354610bc690919063ffffffff16565b61047d61025861046f6103e861046142610453610258600754610c1090919063ffffffff16565b610bc690919063ffffffff16565b610c9890919063ffffffff16565b610d1e90919063ffffffff16565b610c9890919063ffffffff16565b610d1e90919063ffffffff16565b610c1090919063ffffffff16565b6008819055506104c234600254610c1090919063ffffffff16565b600281905550600060405180604001604052803373ffffffffffffffffffffffffffffffffffffffff16815260200134815250908060018154018082558091505060019003906000526020600020906002020160009091909190915060008201518160000160006101000a81548173ffffffffffffffffffffffffffffffffffffffff021916908373ffffffffffffffffffffffffffffffffffffffff1602179055506020820151816001015550506105c334600160003373ffffffffffffffffffffffffffffffffffffffff1673ffffffffffffffffffffffffffffffffffffffff16815260200190815260200160002054610c1090919063ffffffff16565b600160003373ffffffffffffffffffffffffffffffffffffffff1673ffffffffffffffffffffffffffffffffffffffff168152602001908152602001600020819055506106256509184e72a00060085402600654610c9890919063ffffffff16565b600254111561065c576008546005819055506001600960146101000a81548160ff0219169083600281111561065657fe5b02179055505b5b565b60065481565b60075481565b60085481565b60028081111561067d57fe5b600960149054906101000a900460ff16600281111561069857fe5b141561070c576040517f08c379a000000000000000000000000000000000000000000000000000000000815260040180806020018281038252601c8152602001807f5468652061756374696f6e20616c72656164792072656c65617365730000000081525060200191505060405180910390fd5b6000600281111561071957fe5b600960149054906101000a900460ff16600281111561073457fe5b14156107d65761025861075260075442610bc690919063ffffffff16565b116107a8576040517f08c379a0000000000000000000000000000000000000000000000000000000008152600401808060200182810382526028815260200180610eef6028913960400191505060405180910390fd5b6004546005819055506001600960146101000a81548160ff021916908360028111156107d057fe5b02179055505b600060025490506000805b600080549050811015610a8157600060065414156107fe57610a81565b600061083b6509184e72a000600554026000848154811061081b57fe5b906000526020600020906002020160010154610d1e90919063ffffffff16565b905060065481111561094a57600080838154811061085557fe5b906000526020600020906002020160000160009054906101000a900473ffffffffffffffffffffffffffffffffffffffff169050600654915060006108dd6108b06509184e72a0006005540285610c9890919063ffffffff16565b600086815481106108bd57fe5b906000526020600020906002020160010154610bc690919063ffffffff16565b90508173ffffffffffffffffffffffffffffffffffffffff166108fc829081150290604051600060405180830381858888f19350505050158015610925573d6000803e3d6000fd5b506109398187610bc690919063ffffffff16565b955060006006819055505050610966565b61095f81600654610bc690919063ffffffff16565b6006819055505b600960009054906101000a900473ffffffffffffffffffffffffffffffffffffffff1673ffffffffffffffffffffffffffffffffffffffff1663a9059cbb600084815481106109b157fe5b906000526020600020906002020160000160009054906101000a900473ffffffffffffffffffffffffffffffffffffffff16836040518363ffffffff1660e01b8152600401808373ffffffffffffffffffffffffffffffffffffffff16815260200182815260200192505050602060405180830381600087803b158015610a3757600080fd5b505af1158015610a4b573d6000803e3d6000fd5b505050506040513d6020811015610a6157600080fd5b8101908080519060200190929190505050505080806001019150506107e1565b506000600960009054906101000a900473ffffffffffffffffffffffffffffffffffffffff1690508073ffffffffffffffffffffffffffffffffffffffff166108fc849081150290604051600060405180830381858888f19350505050158015610aef573d6000803e3d6000fd5b5060006006541115610b8b57600960009054906101000a900473ffffffffffffffffffffffffffffffffffffffff1673ffffffffffffffffffffffffffffffffffffffff166342966c686006546040518263ffffffff1660e01b815260040180828152602001915050600060405180830381600087803b158015610b7257600080fd5b505af1158015610b86573d6000803e3d6000fd5b505050505b6002600960146101000a81548160ff02191690836002811115610baa57fe5b0217905550505050565b60025481565b61025881565b60035481565b6000610c0883836040518060400160405280601e81526020017f536166654d6174683a207375627472616374696f6e206f766572666c6f770000815250610d68565b905092915050565b600080828401905083811015610c8e576040517f08c379a000000000000000000000000000000000000000000000000000000000815260040180806020018281038252601b8152602001807f536166654d6174683a206164646974696f6e206f766572666c6f77000000000081525060200191505060405180910390fd5b8091505092915050565b600080831415610cab5760009050610d18565b6000828402905082848281610cbc57fe5b0414610d13576040517f08c379a0000000000000000000000000000000000000000000000000000000008152600401808060200182810382526021815260200180610f176021913960400191505060405180910390fd5b809150505b92915050565b6000610d6083836040518060400160405280601a81526020017f536166654d6174683a206469766973696f6e206279207a65726f000000000000815250610e28565b905092915050565b6000838311158290610e15576040517f08c379a00000000000000000000000000000000000000000000000000000000081526004018080602001828103825283818151815260200191508051906020019080838360005b83811015610dda578082015181840152602081019050610dbf565b50505050905090810190601f168015610e075780820380516001836020036101000a031916815260200191505b509250505060405180910390fd5b5060008385039050809150509392505050565b60008083118290610ed4576040517f08c379a00000000000000000000000000000000000000000000000000000000081526004018080602001828103825283818151815260200191508051906020019080838360005b83811015610e99578082015181840152602081019050610e7e565b50505050905090810190601f168015610ec65780820380516001836020036101000a031916815260200191505b509250505060405180910390fd5b506000838581610ee057fe5b04905080915050939250505056fe5468652061756374696f6e206973207374696c6c206f70656e65642c20706c656173652077616974536166654d6174683a206d756c7469706c69636174696f6e206f766572666c6f77a26469706673582212208f489f57ed04ae7070352f149ede9d43990d39738a643d923e3840092016217d64736f6c634300060c003343797068657270756e6b436f696e3a206d75737420686176652061756374696f6e2063726561746f7220726f6c6520746f2063726561746520616e2061756374696f6e456e756d657261626c655365743a20696e646578206f7574206f6620626f756e647345524332303a207472616e7366657220746f20746865207a65726f2061646472657373416363657373436f6e74726f6c3a2073656e646572206d75737420626520616e2061646d696e20746f206772616e7445524332303a206275726e20616d6f756e7420657863656564732062616c616e636545524332303a20617070726f766520746f20746865207a65726f206164647265737345524332303a207472616e7366657220616d6f756e7420657863656564732062616c616e6365416363657373436f6e74726f6c3a2073656e646572206d75737420626520616e2061646d696e20746f207265766f6b6545524332303a207472616e7366657220616d6f756e74206578636565647320616c6c6f77616e636545524332303a206275726e20616d6f756e74206578636565647320616c6c6f77616e636545524332303a206275726e2066726f6d20746865207a65726f206164647265737345524332303a207472616e736665722066726f6d20746865207a65726f206164647265737345524332303a20617070726f76652066726f6d20746865207a65726f206164647265737345524332303a2064656372656173656420616c6c6f77616e63652062656c6f77207a65726f416363657373436f6e74726f6c3a2063616e206f6e6c792072656e6f756e636520726f6c657320666f722073656c66a2646970667358221220e36368b73068e13fa716fab6005a6c148f43a6274d98dab82aa7d50754f9ee3264736f6c634300060c0033608060405234801561001057600080fd5b506040516111cf3803806111cf8339818101604052608081101561003357600080fd5b81019080805190602001909291908051906020019092919080519060200190929190805190602001909291905050504260078190555083600381905550826004819055508160068190555080600960006101000a81548173ffffffffffffffffffffffffffffffffffffffff021916908373ffffffffffffffffffffffffffffffffffffffff1602179055506000600960146101000a81548160ff021916908360028111156100de57fe5b021790555060005b60328110156101a757600060405180604001604052803073ffffffffffffffffffffffffffffffffffffffff1681526020016103e8815250908060018154018082558091505060019003906000526020600020906002020160009091909190915060008201518160000160006101000a81548173ffffffffffffffffffffffffffffffffffffffff021916908373ffffffffffffffffffffffffffffffffffffffff16021790555060208201518160010155505080806001019150506100e6565b5050505050611014806101bb6000396000f3fe6080604052600436106100c25760003560e01c806378e979251161007f578063ae6e22f111610059578063ae6e22f11461023b578063afe0104314610266578063c08d1fe51461029c578063f1a9af89146102c7576100c2565b806378e97925146101ce57806393a91682146101f9578063a96f866814610224576100c2565b80630522bf03146100c75780631203402f1461012c5780631b55d2161461014357806332a0f2d71461016e5780633c7a3aff146101995780637824407f146101a3575b600080fd5b3480156100d357600080fd5b50610116600480360360208110156100ea57600080fd5b81019080803573ffffffffffffffffffffffffffffffffffffffff1690602001909291905050506102f2565b6040518082815260200191505060405180910390f35b34801561013857600080fd5b5061014161033b565b005b34801561014f57600080fd5b50610158610361565b6040518082815260200191505060405180910390f35b34801561017a57600080fd5b50610183610367565b6040518082815260200191505060405180910390f35b6101a161036d565b005b3480156101af57600080fd5b506101b86106f5565b6040518082815260200191505060405180910390f35b3480156101da57600080fd5b506101e36106fb565b6040518082815260200191505060405180910390f35b34801561020557600080fd5b5061020e610701565b6040518082815260200191505060405180910390f35b34801561023057600080fd5b50610239610707565b005b34801561024757600080fd5b50610250610c49565b6040518082815260200191505060405180910390f35b34801561027257600080fd5b5061027b610c4f565b6040518082600281111561028b57fe5b815260200191505060405180910390f35b3480156102a857600080fd5b506102b1610c62565b6040518082815260200191505060405180910390f35b3480156102d357600080fd5b506102dc610c67565b6040518082815260200191505060405180910390f35b6000600160008373ffffffffffffffffffffffffffffffffffffffff1673ffffffffffffffffffffffffffffffffffffffff168152602001908152602001600020549050919050565b6001600960146101000a81548160ff0219169083600281111561035a57fe5b0217905550565b60045481565b60055481565b6000600281111561037a57fe5b600960149054906101000a900460ff16600281111561039557fe5b14610408576040517f08c379a000000000000000000000000000000000000000000000000000000000815260040180806020018281038252601b8152602001807f546869732061756374696f6e20616c726561647920636c6f736573000000000081525060200191505060405180910390fd5b601e61041f60075442610c6d90919063ffffffff16565b111561049e576004546005819055506001600960146101000a81548160ff0219169083600281111561044d57fe5b02179055503373ffffffffffffffffffffffffffffffffffffffff166108fc349081150290604051600060405180830381858888f19350505050158015610498573d6000803e3d6000fd5b506106f3565b61053d60045461052f6103e86105216104c4600454600354610c6d90919063ffffffff16565b610513601e6105056103e86104f7426104e9601e600754610cb790919063ffffffff16565b610c6d90919063ffffffff16565b610d3f90919063ffffffff16565b610dc590919063ffffffff16565b610d3f90919063ffffffff16565b610dc590919063ffffffff16565b610cb790919063ffffffff16565b60088190555061055834600254610cb790919063ffffffff16565b600281905550600060405180604001604052803373ffffffffffffffffffffffffffffffffffffffff16815260200134815250908060018154018082558091505060019003906000526020600020906002020160009091909190915060008201518160000160006101000a81548173ffffffffffffffffffffffffffffffffffffffff021916908373ffffffffffffffffffffffffffffffffffffffff16021790555060208201518160010155505061065934600160003373ffffffffffffffffffffffffffffffffffffffff1673ffffffffffffffffffffffffffffffffffffffff16815260200190815260200160002054610cb790919063ffffffff16565b600160003373ffffffffffffffffffffffffffffffffffffffff1673ffffffffffffffffffffffffffffffffffffffff168152602001908152602001600020819055506106bb6509184e72a00060085402600654610d3f90919063ffffffff16565b60025411156106f2576008546005819055506001600960146101000a81548160ff021916908360028111156106ec57fe5b02179055505b5b565b60065481565b60075481565b60085481565b60028081111561071357fe5b600960149054906101000a900460ff16600281111561072e57fe5b14156107a2576040517f08c379a000000000000000000000000000000000000000000000000000000000815260040180806020018281038252601c8152602001807f5468652061756374696f6e20616c72656164792072656c65617365730000000081525060200191505060405180910390fd5b600060028111156107af57fe5b600960149054906101000a900460ff1660028111156107ca57fe5b141561086b57601e6107e760075442610c6d90919063ffffffff16565b1161083d576040517f08c379a0000000000000000000000000000000000000000000000000000000008152600401808060200182810382526028815260200180610f966028913960400191505060405180910390fd5b6004546005819055506001600960146101000a81548160ff0219169083600281111561086557fe5b02179055505b600060025490506000805b600080549050811015610b16576000600654141561089357610b16565b60006108d06509184e72a00060055402600084815481106108b057fe5b906000526020600020906002020160010154610dc590919063ffffffff16565b90506006548111156109df5760008083815481106108ea57fe5b906000526020600020906002020160000160009054906101000a900473ffffffffffffffffffffffffffffffffffffffff169050600654915060006109726109456509184e72a0006005540285610d3f90919063ffffffff16565b6000868154811061095257fe5b906000526020600020906002020160010154610c6d90919063ffffffff16565b90508173ffffffffffffffffffffffffffffffffffffffff166108fc829081150290604051600060405180830381858888f193505050501580156109ba573d6000803e3d6000fd5b506109ce8187610c6d90919063ffffffff16565b9550600060068190555050506109fb565b6109f481600654610c6d90919063ffffffff16565b6006819055505b600960009054906101000a900473ffffffffffffffffffffffffffffffffffffffff1673ffffffffffffffffffffffffffffffffffffffff1663a9059cbb60008481548110610a4657fe5b906000526020600020906002020160000160009054906101000a900473ffffffffffffffffffffffffffffffffffffffff16836040518363ffffffff1660e01b8152600401808373ffffffffffffffffffffffffffffffffffffffff16815260200182815260200192505050602060405180830381600087803b158015610acc57600080fd5b505af1158015610ae0573d6000803e3d6000fd5b505050506040513d6020811015610af657600080fd5b810190808051906020019092919050505050508080600101915050610876565b506000600960009054906101000a900473ffffffffffffffffffffffffffffffffffffffff1690508073ffffffffffffffffffffffffffffffffffffffff166108fc849081150290604051600060405180830381858888f19350505050158015610b84573d6000803e3d6000fd5b5060006006541115610c2057600960009054906101000a900473ffffffffffffffffffffffffffffffffffffffff1673ffffffffffffffffffffffffffffffffffffffff166342966c686006546040518263ffffffff1660e01b815260040180828152602001915050600060405180830381600087803b158015610c0757600080fd5b505af1158015610c1b573d6000803e3d6000fd5b505050505b6002600960146101000a81548160ff02191690836002811115610c3f57fe5b0217905550505050565b60025481565b600960149054906101000a900460ff1681565b601e81565b60035481565b6000610caf83836040518060400160405280601e81526020017f536166654d6174683a207375627472616374696f6e206f766572666c6f770000815250610e0f565b905092915050565b600080828401905083811015610d35576040517f08c379a000000000000000000000000000000000000000000000000000000000815260040180806020018281038252601b8152602001807f536166654d6174683a206164646974696f6e206f766572666c6f77000000000081525060200191505060405180910390fd5b8091505092915050565b600080831415610d525760009050610dbf565b6000828402905082848281610d6357fe5b0414610dba576040517f08c379a0000000000000000000000000000000000000000000000000000000008152600401808060200182810382526021815260200180610fbe6021913960400191505060405180910390fd5b809150505b92915050565b6000610e0783836040518060400160405280601a81526020017f536166654d6174683a206469766973696f6e206279207a65726f000000000000815250610ecf565b905092915050565b6000838311158290610ebc576040517f08c379a00000000000000000000000000000000000000000000000000000000081526004018080602001828103825283818151815260200191508051906020019080838360005b83811015610e81578082015181840152602081019050610e66565b50505050905090810190601f168015610eae5780820380516001836020036101000a031916815260200191505b509250505060405180910390fd5b5060008385039050809150509392505050565b60008083118290610f7b576040517f08c379a00000000000000000000000000000000000000000000000000000000081526004018080602001828103825283818151815260200191508051906020019080838360005b83811015610f40578082015181840152602081019050610f25565b50505050905090810190601f168015610f6d5780820380516001836020036101000a031916815260200191505b509250505060405180910390fd5b506000838581610f8757fe5b04905080915050939250505056fe5468652061756374696f6e206973207374696c6c206f70656e65642c20706c656173652077616974536166654d6174683a206d756c7469706c69636174696f6e206f766572666c6f77a26469706673582212201bb4e7ea22970c00d507a00ba6d6427efae7736da36e1f2d2e891e7142d608db64736f6c634300060c0033",
  "immutableReferences": {},
  "source": "pragma solidity ^0.6.0;\r\n\r\nimport \"./AuctionTest.sol\";\r\nimport \"./CypherpunkCoin.sol\";\r\n\r\n\r\ncontract Reentrancy{\r\n    AuctionTest public auction;\r\n    CypherpunkCoin cpc;\r\n    uint256 public constant rightfulCYCAmt = 5;\r\n    uint256 public constant finalPrice = 1000;\r\n    uint256 public balance;\r\n\r\n    constructor() public {\r\n        cpc = new CypherpunkCoin(\"CypherpunkCoin\", \"CPC\");\r\n        auction = new AuctionTest(10000, finalPrice, 50000000, cpc);\r\n    }\r\n\r\n    function bid() external{\r\n        auction.commit.value(finalPrice * rightfulCYCAmt)();\r\n        auction.setState();\r\n        auction.releaseTokens();\r\n    }\r\n\r\n    //Fallback function\r\n    fallback() external payable{\r\n        auction.releaseTokens();\r\n    }\r\n\r\n\r\n        \r\n}",
  "sourcePath": "C:/Users/phuaj/Documents/GitHub/CZ4153-Dutch-Contract/contracts/Reentrancy.sol",
  "compiler": {
    "name": "solc",
    "version": "0.6.12+commit.27d51765.Emscripten.clang"
  },
  "schemaVersion": "3.3.1",
  "updatedAt": "2020-10-31T20:27:26.459Z",
  "networkType": "ethereum",
  "devdoc": {
    "kind": "dev",
    "methods": {},
    "version": 1
  },
  "userdoc": {
    "kind": "user",
    "methods": {},
    "version": 1
  }
}